{"project/contracts/gbm/facets/GBMFacet.sol":{"GBMFacet":{"abi":[{"anonymous":false,"inputs":[{"indexed":true,"internalType":"uint256","name":"_auctionID","type":"uint256"},{"indexed":true,"internalType":"address","name":"_bidder","type":"address"},{"indexed":false,"internalType":"uint256","name":"_bidAmount","type":"uint256"}],"name":"Auction_BidPlaced","type":"event"},{"anonymous":false,"inputs":[{"indexed":true,"internalType":"uint256","name":"_auctionID","type":"uint256"},{"indexed":true,"internalType":"address","name":"_bidder","type":"address"},{"indexed":false,"internalType":"uint256","name":"_bidAmount","type":"uint256"}],"name":"Auction_BidRemoved","type":"event"},{"anonymous":false,"inputs":[{"indexed":true,"internalType":"uint256","name":"_auctionID","type":"uint256"},{"indexed":false,"internalType":"uint256","name":"_endTime","type":"uint256"}],"name":"Auction_EndTimeUpdated","type":"event"},{"anonymous":false,"inputs":[{"indexed":true,"internalType":"uint256","name":"_auctionID","type":"uint256"},{"indexed":true,"internalType":"address","name":"_earner","type":"address"},{"indexed":false,"internalType":"uint256","name":"_incentiveAmount","type":"uint256"}],"name":"Auction_IncentivePaid","type":"event"},{"anonymous":false,"inputs":[{"indexed":true,"internalType":"uint256","name":"_auctionID","type":"uint256"},{"indexed":true,"internalType":"uint256","name":"_tokenID","type":"uint256"},{"indexed":true,"internalType":"uint256","name":"_tokenIndex","type":"uint256"},{"indexed":false,"internalType":"address","name":"_contractAddress","type":"address"},{"indexed":false,"internalType":"bytes4","name":"_tokenKind","type":"bytes4"}],"name":"Auction_Initialized","type":"event"},{"anonymous":false,"inputs":[{"indexed":true,"internalType":"uint256","name":"_auctionID","type":"uint256"}],"name":"Auction_ItemClaimed","type":"event"},{"anonymous":false,"inputs":[{"indexed":true,"internalType":"uint256","name":"_auctionID","type":"uint256"},{"indexed":false,"internalType":"uint256","name":"_startTime","type":"uint256"}],"name":"Auction_StartTimeUpdated","type":"event"},{"anonymous":false,"inputs":[{"indexed":true,"internalType":"address","name":"_contract","type":"address"},{"indexed":false,"internalType":"bool","name":"_biddingAllowed","type":"bool"}],"name":"Contract_BiddingAllowed","type":"event"},{"inputs":[{"internalType":"uint256[]","name":"_auctionIds","type":"uint256[]"}],"name":"batchClaim","outputs":[],"stateMutability":"nonpayable","type":"function"},{"inputs":[{"internalType":"uint256","name":"_auctionId","type":"uint256"}],"name":"claim","outputs":[],"stateMutability":"nonpayable","type":"function"},{"inputs":[{"internalType":"uint256","name":"_auctionId","type":"uint256"},{"internalType":"uint256","name":"_bidAmount","type":"uint256"},{"internalType":"uint256","name":"_highestBid","type":"uint256"},{"internalType":"uint256","name":"_deadline","type":"uint256"},{"internalType":"bytes","name":"_signature","type":"bytes"}],"name":"commitBid","outputs":[],"stateMutability":"nonpayable","type":"function"},{"inputs":[],"name":"erc20Currency","outputs":[{"internalType":"address","name":"","type":"address"}],"stateMutability":"view","type":"function"},{"inputs":[{"internalType":"uint256","name":"_auctionId","type":"uint256"}],"name":"getAuctionBidDecimals","outputs":[{"internalType":"uint256","name":"","type":"uint256"}],"stateMutability":"view","type":"function"},{"inputs":[{"internalType":"uint256","name":"_auctionId","type":"uint256"}],"name":"getAuctionBidMultiplier","outputs":[{"internalType":"uint256","name":"","type":"uint256"}],"stateMutability":"view","type":"function"},{"inputs":[{"internalType":"uint256","name":"_auctionId","type":"uint256"}],"name":"getAuctionDebt","outputs":[{"internalType":"uint256","name":"","type":"uint256"}],"stateMutability":"view","type":"function"},{"inputs":[{"internalType":"uint256","name":"_auctionId","type":"uint256"}],"name":"getAuctionDueIncentives","outputs":[{"internalType":"uint256","name":"","type":"uint256"}],"stateMutability":"view","type":"function"},{"inputs":[{"internalType":"uint256","name":"_auctionId","type":"uint256"}],"name":"getAuctionEndTime","outputs":[{"internalType":"uint256","name":"","type":"uint256"}],"stateMutability":"view","type":"function"},{"inputs":[{"internalType":"uint256","name":"_auctionId","type":"uint256"}],"name":"getAuctionHammerTimeDuration","outputs":[{"internalType":"uint256","name":"","type":"uint256"}],"stateMutability":"view","type":"function"},{"inputs":[{"internalType":"uint256","name":"_auctionId","type":"uint256"}],"name":"getAuctionHighestBid","outputs":[{"internalType":"uint256","name":"","type":"uint256"}],"stateMutability":"view","type":"function"},{"inputs":[{"internalType":"uint256","name":"_auctionId","type":"uint256"}],"name":"getAuctionHighestBidder","outputs":[{"internalType":"address","name":"","type":"address"}],"stateMutability":"view","type":"function"},{"inputs":[{"internalType":"address","name":"_contract","type":"address"},{"internalType":"uint256","name":"_tokenID","type":"uint256"}],"name":"getAuctionID","outputs":[{"internalType":"uint256","name":"","type":"uint256"}],"stateMutability":"view","type":"function"},{"inputs":[{"internalType":"address","name":"_contract","type":"address"},{"internalType":"uint256","name":"_tokenID","type":"uint256"},{"internalType":"uint256","name":"_tokenIndex","type":"uint256"}],"name":"getAuctionID","outputs":[{"internalType":"uint256","name":"","type":"uint256"}],"stateMutability":"view","type":"function"},{"inputs":[{"internalType":"uint256","name":"_auctionId","type":"uint256"}],"name":"getAuctionIncMax","outputs":[{"internalType":"uint256","name":"","type":"uint256"}],"stateMutability":"view","type":"function"},{"inputs":[{"internalType":"uint256","name":"_auctionId","type":"uint256"}],"name":"getAuctionIncMin","outputs":[{"internalType":"uint256","name":"","type":"uint256"}],"stateMutability":"view","type":"function"},{"inputs":[{"internalType":"uint256","name":"_auctionId","type":"uint256"}],"name":"getAuctionInfo","outputs":[{"components":[{"internalType":"address","name":"owner","type":"address"},{"internalType":"address","name":"highestBidder","type":"address"},{"internalType":"uint256","name":"highestBid","type":"uint256"},{"internalType":"uint256","name":"auctionDebt","type":"uint256"},{"internalType":"uint256","name":"dueIncentives","type":"uint256"},{"internalType":"address","name":"contractAddress","type":"address"},{"internalType":"uint256","name":"startTime","type":"uint256"},{"internalType":"uint256","name":"endTime","type":"uint256"},{"internalType":"uint256","name":"hammerTimeDuration","type":"uint256"},{"internalType":"uint256","name":"bidDecimals","type":"uint256"},{"internalType":"uint256","name":"stepMin","type":"uint256"},{"internalType":"uint256","name":"incMin","type":"uint256"},{"internalType":"uint256","name":"incMax","type":"uint256"},{"internalType":"uint256","name":"bidMultiplier","type":"uint256"},{"internalType":"bool","name":"biddingAllowed","type":"bool"}],"internalType":"struct Auction","name":"auctionInfo_","type":"tuple"}],"stateMutability":"view","type":"function"},{"inputs":[{"internalType":"uint256","name":"_auctionId","type":"uint256"}],"name":"getAuctionStartTime","outputs":[{"internalType":"uint256","name":"","type":"uint256"}],"stateMutability":"view","type":"function"},{"inputs":[{"internalType":"uint256","name":"_auctionId","type":"uint256"}],"name":"getAuctionStepMin","outputs":[{"internalType":"uint256","name":"","type":"uint256"}],"stateMutability":"view","type":"function"},{"inputs":[{"internalType":"uint256","name":"_auctionId","type":"uint256"}],"name":"getContractAddress","outputs":[{"internalType":"address","name":"","type":"address"}],"stateMutability":"view","type":"function"},{"inputs":[{"internalType":"uint256","name":"_auctionId","type":"uint256"}],"name":"getTokenId","outputs":[{"internalType":"uint256","name":"","type":"uint256"}],"stateMutability":"view","type":"function"},{"inputs":[{"internalType":"uint256","name":"_auctionId","type":"uint256"}],"name":"getTokenKind","outputs":[{"internalType":"bytes4","name":"","type":"bytes4"}],"stateMutability":"view","type":"function"},{"inputs":[{"internalType":"address","name":"","type":"address"},{"internalType":"address","name":"","type":"address"},{"internalType":"uint256[]","name":"","type":"uint256[]"},{"internalType":"uint256[]","name":"","type":"uint256[]"},{"internalType":"bytes","name":"","type":"bytes"}],"name":"onERC1155BatchReceived","outputs":[{"internalType":"bytes4","name":"","type":"bytes4"}],"stateMutability":"pure","type":"function"},{"inputs":[{"internalType":"address","name":"","type":"address"},{"internalType":"address","name":"","type":"address"},{"internalType":"uint256","name":"","type":"uint256"},{"internalType":"uint256","name":"","type":"uint256"},{"internalType":"bytes","name":"","type":"bytes"}],"name":"onERC1155Received","outputs":[{"internalType":"bytes4","name":"","type":"bytes4"}],"stateMutability":"pure","type":"function"},{"inputs":[{"internalType":"address","name":"","type":"address"},{"internalType":"address","name":"","type":"address"},{"internalType":"uint256","name":"","type":"uint256"},{"internalType":"bytes","name":"","type":"bytes"}],"name":"onERC721Received","outputs":[{"internalType":"bytes4","name":"","type":"bytes4"}],"stateMutability":"pure","type":"function"},{"inputs":[{"internalType":"address","name":"_contract","type":"address"}],"name":"registerAnAuctionContract","outputs":[],"stateMutability":"nonpayable","type":"function"},{"inputs":[{"internalType":"address","name":"_tokenContract","type":"address"},{"internalType":"uint256","name":"_tokenId","type":"uint256"},{"internalType":"bytes4","name":"_tokenKind","type":"bytes4"},{"internalType":"bool","name":"_useInitiator","type":"bool"}],"name":"registerAnAuctionToken","outputs":[],"stateMutability":"nonpayable","type":"function"},{"inputs":[{"internalType":"address","name":"_GBM","type":"address"},{"internalType":"bool","name":"_useInitiator","type":"bool"},{"internalType":"address","name":"_ERC1155Contract","type":"address"},{"internalType":"uint256","name":"_tokenID","type":"uint256"},{"internalType":"uint256","name":"_indexStart","type":"uint256"},{"internalType":"uint256","name":"_indexEnd","type":"uint256"}],"name":"registerMassERC1155Each","outputs":[],"stateMutability":"nonpayable","type":"function"},{"inputs":[{"internalType":"address","name":"_GBM","type":"address"},{"internalType":"bool","name":"_useInitiator","type":"bool"},{"internalType":"address","name":"_ERC721Contract","type":"address"},{"internalType":"uint256[]","name":"_tokenIds","type":"uint256[]"}],"name":"registerMassERC721Each","outputs":[],"stateMutability":"nonpayable","type":"function"},{"inputs":[{"internalType":"address","name":"_contract","type":"address"},{"internalType":"bool","name":"_value","type":"bool"}],"name":"setBiddingAllowed","outputs":[],"stateMutability":"nonpayable","type":"function"},{"inputs":[{"internalType":"address","name":"_newAddress","type":"address"}],"name":"updatePlayerRewardsAddress","outputs":[],"stateMutability":"nonpayable","type":"function"}],"evm":{"bytecode":{"linkReferences":{},"object":"608060405234801561000f575f80fd5b50615dc6806200001e5f395ff3fe608060405234801561000f575f80fd5b50600436106101e3575f3560e01c8063ac478f3d1161010d578063dfab114b116100a0578063f23a6e611161006f578063f23a6e6114610645578063f48d6f7014610675578063f5de100014610691578063fc3fc4ed146106c1576101e3565b8063dfab114b14610599578063e07bc69c146105c9578063ef8c55fd146105f9578063ef8ca48414610629576101e3565b8063c26e748c116100dc578063c26e748c146104ed578063ca27e2091461051d578063da081c9414610539578063db14570114610569576101e3565b8063ac478f3d14610455578063aefa7d9814610471578063bc197c81146104a1578063bc292782146104d1576101e3565b8063470e9f8d116101855780636b9a894e116101545780636b9a894e146103a957806373e72e9c146103d9578063919e84f5146103f5578063930e79f114610425576101e3565b8063470e9f8d1461031157806350d265d4146103415780635b3648731461035d57806364efa1fd14610379576101e3565b806314ff5ea3116101c157806314ff5ea314610265578063150b7a0214610295578063379607f5146102c55780633f21cf81146102e1576101e3565b806303ea66a4146101e75780630facebea1461021757806312004c7f14610247575b5f80fd5b61020160048036038101906101fc9190613e0b565b6106f1565b60405161020e9190613e45565b60405180910390f35b610231600480360381019061022c9190613e0b565b610710565b60405161023e9190613e98565b60405180910390f35b61024f61073b565b60405161025c9190613ef0565b60405180910390f35b61027f600480360381019061027a9190613e0b565b610765565b60405161028c9190613e45565b60405180910390f35b6102af60048036038101906102aa9190613f94565b610784565b6040516102bc9190613e98565b60405180910390f35b6102df60048036038101906102da9190613e0b565b6107b1565b005b6102fb60048036038101906102f69190613e0b565b6111c2565b6040516103089190613e45565b60405180910390f35b61032b60048036038101906103269190613e0b565b61127d565b6040516103389190613e45565b60405180910390f35b61035b6004803603810190610356919061404d565b611338565b005b610377600480360381019061037291906141c3565b6113eb565b005b610393600480360381019061038e9190614256565b611547565b6040516103a09190613e45565b60405180910390f35b6103c360048036038101906103be9190613e0b565b6115ae565b6040516103d09190613e45565b60405180910390f35b6103f360048036038101906103ee9190614294565b6115cd565b005b61040f600480360381019061040a9190613e0b565b6116a5565b60405161041c9190613e45565b60405180910390f35b61043f600480360381019061043a9190613e0b565b61175f565b60405161044c9190613e45565b60405180910390f35b61046f600480360381019061046a9190614347565b61181a565b005b61048b60048036038101906104869190613e0b565b611836565b6040516104989190613ef0565b60405180910390f35b6104bb60048036038101906104b69190614400565b611873565b6040516104c89190613e98565b60405180910390f35b6104eb60048036038101906104e69190614597565b6118a3565b005b61050760048036038101906105029190613e0b565b6118e8565b6040516105149190613e45565b60405180910390f35b610537600480360381019061053291906145de565b611907565b005b610553600480360381019061054e9190613e0b565b611954565b6040516105609190613e45565b60405180910390f35b610583600480360381019061057e9190613e0b565b611a0f565b6040516105909190613e45565b60405180910390f35b6105b360048036038101906105ae9190613e0b565b611aca565b6040516105c09190613ef0565b60405180910390f35b6105e360048036038101906105de9190613e0b565b611b08565b6040516105f09190613e45565b60405180910390f35b610613600480360381019061060e9190613e0b565b611bc3565b6040516106209190613e45565b60405180910390f35b610643600480360381019061063e9190614609565b611c7e565b005b61065f600480360381019061065a9190614689565b611da3565b60405161066c9190613e98565b60405180910390f35b61068f600480360381019061068a91906145de565b611dd1565b005b6106ab60048036038101906106a6919061471f565b61204a565b6040516106b89190613e45565b60405180910390f35b6106db60048036038101906106d69190613e0b565b6120b2565b6040516106e891906148cf565b60405180910390f35b5f80600e015f8381526020019081526020015f20600401549050919050565b5f80600c015f8381526020019081526020015f206002015f9054906101000a900460e01b9050919050565b5f80600b015f9054906101000a900473ffffffffffffffffffffffffffffffffffffffff16905090565b5f80600c015f8381526020019081526020015f20600101549050919050565b5f7f150b7a023d4804d13e8c85fb27262cb750cf6ba9f9dd3bb30d90f482ceeb4b1f905095945050505050565b5f80600c015f8381526020019081526020015f205f015f9054906101000a900473ffffffffffffffffffffffffffffffffffffffff1690505f80600c015f8481526020019081526020015f206001015490505f6014015f9054906101000a900460ff1615610854576040517f08c379a000000000000000000000000000000000000000000000000000000000815260040161084b90614943565b60405180910390fd5b5f6010015f8373ffffffffffffffffffffffffffffffffffffffff1673ffffffffffffffffffffffffffffffffffffffff1681526020019081526020015f206008015f9054906101000a900460ff166108e2576040517f08c379a00000000000000000000000000000000000000000000000000000000081526004016108d9906149d1565b60405180910390fd5b426108ec8461175f565b1061092c576040517f08c379a000000000000000000000000000000000000000000000000000000000815260040161092390614a39565b60405180910390fd5b5f15155f600f015f8581526020019081526020015f205f9054906101000a900460ff16151514610991576040517f08c379a000000000000000000000000000000000000000000000000000000000815260040161098890614ac7565b60405180910390fd5b60015f600f015f8581526020019081526020015f205f6101000a81548160ff0219169083151502179055505f80600e015f8581526020019081526020015f20600301545f600e015f8681526020019081526020015f20600201546109f59190614b12565b90505f600b015f9054906101000a900473ffffffffffffffffffffffffffffffffffffffff1673ffffffffffffffffffffffffffffffffffffffff1663095ea7b330836040518363ffffffff1660e01b8152600401610a55929190614b45565b6020604051808303815f875af1158015610a71573d5f803e3d5ffd5b505050506040513d601f19601f82011682018060405250810190610a959190614b80565b505f6064600583610aa69190614bab565b610ab09190614c19565b90505f6064602884610ac29190614bab565b610acc9190614c19565b90505f6005600285610ade9190614bab565b610ae89190614c19565b90505f81838587610af99190614b12565b610b039190614b12565b610b0d9190614b12565b90505f600b015f9054906101000a900473ffffffffffffffffffffffffffffffffffffffff1673ffffffffffffffffffffffffffffffffffffffff166323b872dd3073ffffffffffffffffffffffffffffffffffffffff876040518463ffffffff1660e01b8152600401610b8393929190614c49565b6020604051808303815f875af1158015610b9f573d5f803e3d5ffd5b505050506040513d601f19601f82011682018060405250810190610bc39190614b80565b505f600b015f9054906101000a900473ffffffffffffffffffffffffffffffffffffffff1673ffffffffffffffffffffffffffffffffffffffff166323b872dd305f80015f9054906101000a900473ffffffffffffffffffffffffffffffffffffffff16866040518463ffffffff1660e01b8152600401610c4693929190614c49565b6020604051808303815f875af1158015610c62573d5f803e3d5ffd5b505050506040513d601f19601f82011682018060405250810190610c869190614b80565b505f600b015f9054906101000a900473ffffffffffffffffffffffffffffffffffffffff1673ffffffffffffffffffffffffffffffffffffffff166323b872dd305f6001015f9054906101000a900473ffffffffffffffffffffffffffffffffffffffff16856040518463ffffffff1660e01b8152600401610d0a93929190614c49565b6020604051808303815f875af1158015610d26573d5f803e3d5ffd5b505050506040513d601f19601f82011682018060405250810190610d4a9190614b80565b505f600b015f9054906101000a900473ffffffffffffffffffffffffffffffffffffffff1673ffffffffffffffffffffffffffffffffffffffff166323b872dd305f6002015f9054906101000a900473ffffffffffffffffffffffffffffffffffffffff16846040518463ffffffff1660e01b8152600401610dce93929190614c49565b6020604051808303815f875af1158015610dea573d5f803e3d5ffd5b505050506040513d601f19601f82011682018060405250810190610e0e9190614b80565b505f80600e015f8a81526020019081526020015f206002015403610e8857610e34612365565b5f600e015f8a81526020019081526020015f206001015f6101000a81548173ffffffffffffffffffffffffffffffffffffffff021916908373ffffffffffffffffffffffffffffffffffffffff1602179055505b7f73ad2146b3d3a286642c794379d750360a2d53a3459a11b3e5d6cc900f55f44a7bffffffffffffffffffffffffffffffffffffffffffffffffffffffff19165f600c015f8a81526020019081526020015f206002015f9054906101000a900460e01b7bffffffffffffffffffffffffffffffffffffffffffffffffffffffff191603610fb3578673ffffffffffffffffffffffffffffffffffffffff166342842e0e305f600e015f8c81526020019081526020015f206001015f9054906101000a900473ffffffffffffffffffffffffffffffffffffffff16896040518463ffffffff1660e01b8152600401610f8193929190614c49565b5f604051808303815f87803b158015610f98575f80fd5b505af1158015610faa573d5f803e3d5ffd5b5050505061118b565b7f973bb64086f173ec8099b7ed3d43da984f4a332e4417a08bc6a286e6402b05867bffffffffffffffffffffffffffffffffffffffffffffffffffffffff19165f600c015f8a81526020019081526020015f206002015f9054906101000a900460e01b7bffffffffffffffffffffffffffffffffffffffffffffffffffffffff19160361118a578673ffffffffffffffffffffffffffffffffffffffff1663f242432a305f600e015f8c81526020019081526020015f206001015f9054906101000a900473ffffffffffffffffffffffffffffffffffffffff168960016040518563ffffffff1660e01b81526004016110af9493929190614cf3565b5f604051808303815f87803b1580156110c6575f80fd5b505af11580156110d8573d5f803e3d5ffd5b5050505060015f6012015f8973ffffffffffffffffffffffffffffffffffffffff1673ffffffffffffffffffffffffffffffffffffffff1681526020019081526020015f205f8881526020019081526020015f20546111379190614b12565b5f6012015f8973ffffffffffffffffffffffffffffffffffffffff1673ffffffffffffffffffffffffffffffffffffffff1681526020019081526020015f205f8881526020019081526020015f20819055505b5b877f36c817b01bdbc20b542bcc10ca808780e14aa4c1043a66966a7692de51df511360405160405180910390a25050505050505050565b5f805f600e015f8481526020019081526020015f2060090154146111fe575f600e015f8381526020019081526020015f20600901549050611278565b5f6010015f80600c015f8581526020019081526020015f205f015f9054906101000a900473ffffffffffffffffffffffffffffffffffffffff1673ffffffffffffffffffffffffffffffffffffffff1673ffffffffffffffffffffffffffffffffffffffff1681526020019081526020015f206003015490505b919050565b5f805f600e015f8481526020019081526020015f2060080154146112b9575f600e015f8381526020019081526020015f20600801549050611333565b5f6010015f80600c015f8581526020019081526020015f205f015f9054906101000a900473ffffffffffffffffffffffffffffffffffffffff1673ffffffffffffffffffffffffffffffffffffffff1673ffffffffffffffffffffffffffffffffffffffff1681526020019081526020015f206002015490505b919050565b611340612396565b805f6010015f8473ffffffffffffffffffffffffffffffffffffffff1673ffffffffffffffffffffffffffffffffffffffff1681526020019081526020015f206008015f6101000a81548160ff0219169083151502179055508173ffffffffffffffffffffffffffffffffffffffff167f0b4ea68d808f372a5097f85b16d5e69e050d94a33668fd980f8876593bb8e571826040516113df9190614d58565b60405180910390a25050565b8142111561142e576040517f08c379a000000000000000000000000000000000000000000000000000000000815260040161142590614dbb565b60405180910390fd5b5f3386868686604051602001611448959493929190614e3e565b6040516020818303038152906040528051906020012090506114f581835f601301805461147490614ec9565b80601f01602080910402602001604051908101604052809291908181526020018280546114a090614ec9565b80156114eb5780601f106114c2576101008083540402835291602001916114eb565b820191905f5260205f20905b8154815290600101906020018083116114ce57829003601f168201915b5050505050612430565b611534576040517f08c379a000000000000000000000000000000000000000000000000000000000815260040161152b90614f43565b60405180910390fd5b61153f868686612538565b505050505050565b5f80600d015f8473ffffffffffffffffffffffffffffffffffffffff1673ffffffffffffffffffffffffffffffffffffffff1681526020019081526020015f205f8381526020019081526020015f205f8081526020019081526020015f2054905092915050565b5f80600e015f8381526020019081526020015f20600301549050919050565b6115d5612396565b6115de84611dd1565b8373ffffffffffffffffffffffffffffffffffffffff1663f242432a33888686866116099190614b12565b6040518563ffffffff1660e01b81526004016116289493929190614f61565b5f604051808303815f87803b15801561163f575f80fd5b505af1158015611651573d5f803e3d5ffd5b505050505b8082101561169d5761168a84847f973bb64086f173ec8099b7ed3d43da984f4a332e4417a08bc6a286e6402b05868861181a565b818061169590614fb7565b925050611656565b505050505050565b5f805f600e015f8481526020019081526020015f2060060154146116e1575f600e015f8381526020019081526020015f2060060154905061175a565b5f6010015f80600c015f8581526020019081526020015f205f015f9054906101000a900473ffffffffffffffffffffffffffffffffffffffff1673ffffffffffffffffffffffffffffffffffffffff1673ffffffffffffffffffffffffffffffffffffffff1681526020019081526020015f205f015490505b919050565b5f805f600e015f8481526020019081526020015f20600701541461179b575f600e015f8381526020019081526020015f20600701549050611815565b5f6010015f80600c015f8581526020019081526020015f205f015f9054906101000a900473ffffffffffffffffffffffffffffffffffffffff1673ffffffffffffffffffffffffffffffffffffffff1673ffffffffffffffffffffffffffffffffffffffff1681526020019081526020015f206001015490505b919050565b611822612396565b611830848484845f80612e84565b50505050565b5f80600c015f8381526020019081526020015f205f015f9054906101000a900473ffffffffffffffffffffffffffffffffffffffff169050919050565b5f7fbc197c819b3e337a6f9652dd10becd7eef83032af3b9d958d3d42f6694146621905098975050505050505050565b5f5b81518110156118e4576118d18282815181106118c4576118c3614ffe565b5b60200260200101516107b1565b80806118dc90614fb7565b9150506118a5565b5050565b5f80600e015f8381526020019081526020015f20600201549050919050565b61190f612396565b805f6001015f6101000a81548173ffffffffffffffffffffffffffffffffffffffff021916908373ffffffffffffffffffffffffffffffffffffffff16021790555050565b5f805f600e015f8481526020019081526020015f20600d015414611990575f600e015f8381526020019081526020015f20600d01549050611a0a565b5f6010015f80600c015f8581526020019081526020015f205f015f9054906101000a900473ffffffffffffffffffffffffffffffffffffffff1673ffffffffffffffffffffffffffffffffffffffff1673ffffffffffffffffffffffffffffffffffffffff1681526020019081526020015f206007015490505b919050565b5f805f600e015f8481526020019081526020015f20600c015414611a4b575f600e015f8381526020019081526020015f20600c01549050611ac5565b5f6010015f80600c015f8581526020019081526020015f205f015f9054906101000a900473ffffffffffffffffffffffffffffffffffffffff1673ffffffffffffffffffffffffffffffffffffffff1673ffffffffffffffffffffffffffffffffffffffff1681526020019081526020015f206006015490505b919050565b5f80600e015f8381526020019081526020015f206001015f9054906101000a900473ffffffffffffffffffffffffffffffffffffffff169050919050565b5f805f600e015f8481526020019081526020015f20600a015414611b44575f600e015f8381526020019081526020015f20600a01549050611bbe565b5f6010015f80600c015f8581526020019081526020015f205f015f9054906101000a900473ffffffffffffffffffffffffffffffffffffffff1673ffffffffffffffffffffffffffffffffffffffff1673ffffffffffffffffffffffffffffffffffffffff1681526020019081526020015f206004015490505b919050565b5f805f600e015f8481526020019081526020015f20600b015414611bff575f600e015f8381526020019081526020015f20600b01549050611c79565b5f6010015f80600c015f8581526020019081526020015f205f015f9054906101000a900473ffffffffffffffffffffffffffffffffffffffff1673ffffffffffffffffffffffffffffffffffffffff1673ffffffffffffffffffffffffffffffffffffffff1681526020019081526020015f206005015490505b919050565b611c86612396565b5f815111611cc9576040517f08c379a0000000000000000000000000000000000000000000000000000000008152600401611cc090615075565b60405180910390fd5b5f5b8151811015611d9c575f828281518110611ce857611ce7614ffe565b5b602002602001015190508373ffffffffffffffffffffffffffffffffffffffff1663b88d4fde3388846040518463ffffffff1660e01b8152600401611d2f93929190615093565b5f604051808303815f87803b158015611d46575f80fd5b505af1158015611d58573d5f803e3d5ffd5b50505050611d8884827f73ad2146b3d3a286642c794379d750360a2d53a3459a11b3e5d6cc900f55f44a8861181a565b508080611d9490614fb7565b915050611ccb565b5050505050565b5f7ff23a6e612e1ff4830e658fe43f4e3cb4a5f8170bd5d9e69fb5d7a7fa9e4fdf9790509695505050505050565b611dd9612396565b5f6003015f01545f6010015f8373ffffffffffffffffffffffffffffffffffffffff1673ffffffffffffffffffffffffffffffffffffffff1681526020019081526020015f205f01819055505f600301600101545f6010015f8373ffffffffffffffffffffffffffffffffffffffff1673ffffffffffffffffffffffffffffffffffffffff1681526020019081526020015f20600101819055505f600301600201545f6010015f8373ffffffffffffffffffffffffffffffffffffffff1673ffffffffffffffffffffffffffffffffffffffff1681526020019081526020015f20600201819055505f600301600301545f6010015f8373ffffffffffffffffffffffffffffffffffffffff1673ffffffffffffffffffffffffffffffffffffffff1681526020019081526020015f20600301819055505f600301600401545f6010015f8373ffffffffffffffffffffffffffffffffffffffff1673ffffffffffffffffffffffffffffffffffffffff1681526020019081526020015f20600401819055505f600301600501545f6010015f8373ffffffffffffffffffffffffffffffffffffffff1673ffffffffffffffffffffffffffffffffffffffff1681526020019081526020015f20600501819055505f600301600601545f6010015f8373ffffffffffffffffffffffffffffffffffffffff1673ffffffffffffffffffffffffffffffffffffffff1681526020019081526020015f20600601819055505f600301600701545f6010015f8373ffffffffffffffffffffffffffffffffffffffff1673ffffffffffffffffffffffffffffffffffffffff1681526020019081526020015f206007018190555050565b5f80600d015f8573ffffffffffffffffffffffffffffffffffffffff1673ffffffffffffffffffffffffffffffffffffffff1681526020019081526020015f205f8481526020019081526020015f205f8381526020019081526020015f205490509392505050565b6120ba613cc9565b5f600e015f8381526020019081526020015f20604051806101e00160405290815f82015f9054906101000a900473ffffffffffffffffffffffffffffffffffffffff1673ffffffffffffffffffffffffffffffffffffffff1673ffffffffffffffffffffffffffffffffffffffff168152602001600182015f9054906101000a900473ffffffffffffffffffffffffffffffffffffffff1673ffffffffffffffffffffffffffffffffffffffff1673ffffffffffffffffffffffffffffffffffffffff168152602001600282015481526020016003820154815260200160048201548152602001600582015f9054906101000a900473ffffffffffffffffffffffffffffffffffffffff1673ffffffffffffffffffffffffffffffffffffffff1673ffffffffffffffffffffffffffffffffffffffff16815260200160068201548152602001600782015481526020016008820154815260200160098201548152602001600a8201548152602001600b8201548152602001600c8201548152602001600d8201548152602001600e82015f9054906101000a900460ff16151515158152505090505f600c015f8381526020019081526020015f205f015f9054906101000a900473ffffffffffffffffffffffffffffffffffffffff168160a0019073ffffffffffffffffffffffffffffffffffffffff16908173ffffffffffffffffffffffffffffffffffffffff16815250505f6010015f80600c015f8581526020019081526020015f205f015f9054906101000a900473ffffffffffffffffffffffffffffffffffffffff1673ffffffffffffffffffffffffffffffffffffffff1673ffffffffffffffffffffffffffffffffffffffff1681526020019081526020015f206008015f9054906101000a900460ff16816101c0019015159081151581525050919050565b5f61236e613ae9565b6004015f9054906101000a900473ffffffffffffffffffffffffffffffffffffffff16905090565b61239e613ae9565b6004015f9054906101000a900473ffffffffffffffffffffffffffffffffffffffff1673ffffffffffffffffffffffffffffffffffffffff163373ffffffffffffffffffffffffffffffffffffffff161461242e576040517f08c379a00000000000000000000000000000000000000000000000000000000081526004016124259061514b565b60405180910390fd5b565b5f805f806041865114612448575f9350505050612531565b602086015192506040860151915060608601515f1a9050601b8160ff16101561247b57601b816124789190615175565b90505b601b8160ff16141580156124935750601c8160ff1614155b156124a3575f9350505050612531565b5f6001888386866040515f81526020016040526040516124c694939291906151d0565b6020604051602081039080840390855afa1580156124e6573d5f803e3d5ffd5b50505060206040510351905085805190602001205f1c73ffffffffffffffffffffffffffffffffffffffff168173ffffffffffffffffffffffffffffffffffffffff16149450505050505b9392505050565b5f830361257a576040517f08c379a00000000000000000000000000000000000000000000000000000000081526004016125719061525d565b60405180910390fd5b5f73ffffffffffffffffffffffffffffffffffffffff163373ffffffffffffffffffffffffffffffffffffffff16036125e8576040517f08c379a00000000000000000000000000000000000000000000000000000000081526004016125df906152c5565b60405180910390fd5b5f6014015f9054906101000a900460ff1615612639576040517f08c379a00000000000000000000000000000000000000000000000000000000081526004016126309061532d565b60405180910390fd5b5f6010015f80600c015f8681526020019081526020015f205f015f9054906101000a900473ffffffffffffffffffffffffffffffffffffffff1673ffffffffffffffffffffffffffffffffffffffff1673ffffffffffffffffffffffffffffffffffffffff1681526020019081526020015f206008015f9054906101000a900460ff166126fb576040517f08c379a00000000000000000000000000000000000000000000000000000000081526004016126f2906153bb565b60405180910390fd5b6001821161273e576040517f08c379a000000000000000000000000000000000000000000000000000000000815260040161273590615449565b60405180910390fd5b5f600e015f8481526020019081526020015f20600201548114612796576040517f08c379a000000000000000000000000000000000000000000000000000000000815260040161278d906154d7565b60405180910390fd5b426127a0846116a5565b111580156127b657505f6127b3846116a5565b14155b6127f5576040517f08c379a00000000000000000000000000000000000000000000000000000000081526004016127ec90615565565b60405180910390fd5b426127ff8461175f565b1015612840576040517f08c379a0000000000000000000000000000000000000000000000000000000008152600401612837906155cd565b60405180910390fd5b808211612882576040517f08c379a00000000000000000000000000000000000000000000000000000000081526004016128799061565b565b60405180910390fd5b61288b836111c2565b826128969190614bab565b61289f84611b08565b6128a8856111c2565b6128b29190615679565b826128bd9190614bab565b11156128fe576040517f08c379a00000000000000000000000000000000000000000000000000000000081526004016128f59061571c565b60405180910390fd5b6129078361127d565b426129129190615679565b61291b8461175f565b101561299e5761292a8361127d565b426129359190615679565b5f600e015f8581526020019081526020015f2060070181905550827f2e7f50c8a01968bd8edfe9b3ae46a4d0fa3ce89e533d76245c2684ee9882c0cb5f600e015f8681526020019081526020015f20600701546040516129959190613e45565b60405180910390a25b5f80600e015f8581526020019081526020015f206004015490505f80600e015f8681526020019081526020015f206001015f9054906101000a900473ffffffffffffffffffffffffffffffffffffffff1690505f80600e015f8781526020019081526020015f206002015490505f73ffffffffffffffffffffffffffffffffffffffff168273ffffffffffffffffffffffffffffffffffffffff1614612a8e578173ffffffffffffffffffffffffffffffffffffffff16867ffff24e92e1cbce6e08fa0c957732709b2be79be2ce26c732bcfae1cc368356e583604051612a859190613e45565b60405180910390a35b5f8314612b2157825f600e015f8881526020019081526020015f2060030154612ab79190615679565b5f600e015f8881526020019081526020015f20600301819055508173ffffffffffffffffffffffffffffffffffffffff16867fc6330f2f35039b6e7bcfdeb0c2e959d355b88d8c2292ca4a4c42f514cc958be385604051612b189190613e45565b60405180910390a35b612b2b8686613b15565b5f600e015f8881526020019081526020015f2060040181905550335f600e015f8881526020019081526020015f206001015f6101000a81548173ffffffffffffffffffffffffffffffffffffffff021916908373ffffffffffffffffffffffffffffffffffffffff160217905550845f600e015f8881526020019081526020015f20600201819055505f600b015f9054906101000a900473ffffffffffffffffffffffffffffffffffffffff1673ffffffffffffffffffffffffffffffffffffffff166323b872dd3330886040518463ffffffff1660e01b8152600401612c1493929190614c49565b6020604051808303815f875af1158015612c30573d5f803e3d5ffd5b505050506040513d601f19601f82011682018060405250810190612c549190614b80565b503373ffffffffffffffffffffffffffffffffffffffff16867f1cd77ec6c10f614681f30c7aa33ebc645b4d597aaf7039f6210e71d0e15c918187604051612c9c9190613e45565b60405180910390a3335f600e015f8881526020019081526020015f206001015f6101000a81548173ffffffffffffffffffffffffffffffffffffffff021916908373ffffffffffffffffffffffffffffffffffffffff160217905550845f600e015f8881526020019081526020015f20600201819055505f8382612d209190615679565b14612e7c575f600b015f9054906101000a900473ffffffffffffffffffffffffffffffffffffffff1673ffffffffffffffffffffffffffffffffffffffff1663095ea7b3308584612d719190615679565b6040518363ffffffff1660e01b8152600401612d8e929190614b45565b6020604051808303815f875af1158015612daa573d5f803e3d5ffd5b505050506040513d601f19601f82011682018060405250810190612dce9190614b80565b505f600b015f9054906101000a900473ffffffffffffffffffffffffffffffffffffffff1673ffffffffffffffffffffffffffffffffffffffff166323b872dd30848685612e1c9190615679565b6040518463ffffffff1660e01b8152600401612e3a93929190614c49565b6020604051808303815f875af1158015612e56573d5f803e3d5ffd5b505050506040513d601f19601f82011682018060405250810190612e7a9190614b80565b505b505050505050565b80612f7e575f6011015f8773ffffffffffffffffffffffffffffffffffffffff1673ffffffffffffffffffffffffffffffffffffffff1681526020019081526020015f205f8681526020019081526020015f205491505f80600d015f8873ffffffffffffffffffffffffffffffffffffffff1673ffffffffffffffffffffffffffffffffffffffff1681526020019081526020015f205f8781526020019081526020015f205f8481526020019081526020015f205414612f79576040517f08c379a0000000000000000000000000000000000000000000000000000000008152600401612f70906157aa565b60405180910390fd5b61301e565b5f80600d015f8873ffffffffffffffffffffffffffffffffffffffff1673ffffffffffffffffffffffffffffffffffffffff1681526020019081526020015f205f8781526020019081526020015f205f8481526020019081526020015f20540361301d576040517f08c379a000000000000000000000000000000000000000000000000000000000815260040161301490615838565b60405180910390fd5b5b7f73ad2146b3d3a286642c794379d750360a2d53a3459a11b3e5d6cc900f55f44a7bffffffffffffffffffffffffffffffffffffffffffffffffffffffff1916847bffffffffffffffffffffffffffffffffffffffffffffffffffffffff191614806130e757507f973bb64086f173ec8099b7ed3d43da984f4a332e4417a08bc6a286e6402b05867bffffffffffffffffffffffffffffffffffffffffffffffffffffffff1916847bffffffffffffffffffffffffffffffffffffffffffffffffffffffff1916145b613126576040517f08c379a000000000000000000000000000000000000000000000000000000000815260040161311d906158ec565b60405180910390fd5b61312e613d74565b86815f019073ffffffffffffffffffffffffffffffffffffffff16908173ffffffffffffffffffffffffffffffffffffffff1681525050858160200181815250508481604001907bffffffffffffffffffffffffffffffffffffffffffffffffffffffff191690817bffffffffffffffffffffffffffffffffffffffffffffffffffffffff1916815250505f7f73ad2146b3d3a286642c794379d750360a2d53a3459a11b3e5d6cc900f55f44a7bffffffffffffffffffffffffffffffffffffffffffffffffffffffff1916867bffffffffffffffffffffffffffffffffffffffffffffffffffffffff19160361343c578773ffffffffffffffffffffffffffffffffffffffff16638da5cb5b6040518163ffffffff1660e01b8152600401602060405180830381865afa158015613268573d5f803e3d5ffd5b505050506040513d601f19601f8201168201806040525081019061328c919061591e565b73ffffffffffffffffffffffffffffffffffffffff163373ffffffffffffffffffffffffffffffffffffffff16148061336757508773ffffffffffffffffffffffffffffffffffffffff16636352211e886040518263ffffffff1660e01b81526004016132f99190613e45565b602060405180830381865afa158015613314573d5f803e3d5ffd5b505050506040513d601f19601f82011682018060405250810190613338919061591e565b73ffffffffffffffffffffffffffffffffffffffff163073ffffffffffffffffffffffffffffffffffffffff16145b6133a6576040517f08c379a000000000000000000000000000000000000000000000000000000000815260040161339d906159df565b60405180910390fd5b8787876040516020016133bb93929190615a1d565b604051602081830303815290604052805190602001205f1c9050805f600d015f8a73ffffffffffffffffffffffffffffffffffffffff1673ffffffffffffffffffffffffffffffffffffffff1681526020019081526020015f205f8981526020019081526020015f205f8081526020019081526020015f208190555061386b565b8773ffffffffffffffffffffffffffffffffffffffff16638da5cb5b6040518163ffffffff1660e01b8152600401602060405180830381865afa158015613485573d5f803e3d5ffd5b505050506040513d601f19601f820116820180604052508101906134a9919061591e565b73ffffffffffffffffffffffffffffffffffffffff163373ffffffffffffffffffffffffffffffffffffffff1614806135a757508773ffffffffffffffffffffffffffffffffffffffff1662fdd58e30896040518363ffffffff1660e01b8152600401613517929190614b45565b602060405180830381865afa158015613532573d5f803e3d5ffd5b505050506040513d601f19601f820116820180604052508101906135569190615a6d565b5f6012015f8a73ffffffffffffffffffffffffffffffffffffffff1673ffffffffffffffffffffffffffffffffffffffff1681526020019081526020015f205f8981526020019081526020015f2054105b6135e6576040517f08c379a00000000000000000000000000000000000000000000000000000000081526004016135dd90615b2e565b60405180910390fd5b5f6011015f8973ffffffffffffffffffffffffffffffffffffffff1673ffffffffffffffffffffffffffffffffffffffff1681526020019081526020015f205f8881526020019081526020015f2054841115613677576040517f08c379a000000000000000000000000000000000000000000000000000000000815260040161366e90615be2565b60405180910390fd5b8787878660405160200161368e9493929190615c00565b604051602081830303815290604052805190602001205f1c9050826138085760015f6011015f8a73ffffffffffffffffffffffffffffffffffffffff1673ffffffffffffffffffffffffffffffffffffffff1681526020019081526020015f205f8981526020019081526020015f20546137089190615679565b5f6011015f8a73ffffffffffffffffffffffffffffffffffffffff1673ffffffffffffffffffffffffffffffffffffffff1681526020019081526020015f205f8981526020019081526020015f208190555060015f6012015f8a73ffffffffffffffffffffffffffffffffffffffff1673ffffffffffffffffffffffffffffffffffffffff1681526020019081526020015f205f8981526020019081526020015f20546137b59190615679565b5f6012015f8a73ffffffffffffffffffffffffffffffffffffffff1673ffffffffffffffffffffffffffffffffffffffff1681526020019081526020015f205f8981526020019081526020015f20819055505b805f600d015f8a73ffffffffffffffffffffffffffffffffffffffff1673ffffffffffffffffffffffffffffffffffffffff1681526020019081526020015f205f8981526020019081526020015f205f8681526020019081526020015f20819055505b815f600c015f8381526020019081526020015f205f820151815f015f6101000a81548173ffffffffffffffffffffffffffffffffffffffff021916908373ffffffffffffffffffffffffffffffffffffffff160217905550602082015181600101556040820151816002015f6101000a81548163ffffffff021916908360e01c02179055509050508415613a6357613901612365565b5f600e015f8381526020019081526020015f205f015f6101000a81548173ffffffffffffffffffffffffffffffffffffffff021916908373ffffffffffffffffffffffffffffffffffffffff1602179055505f6003015f01545f600e015f8381526020019081526020015f20600601819055505f600301600101545f600e015f8381526020019081526020015f20600701819055505f600301600201545f600e015f8381526020019081526020015f20600801819055505f600301600301545f600e015f8381526020019081526020015f20600901819055505f600301600401545f600e015f8381526020019081526020015f20600a01819055505f600301600501545f600e015f8381526020019081526020015f20600b01819055505f600301600601545f600e015f8381526020019081526020015f20600c01819055505f600301600701545f600e015f8381526020019081526020015f20600d01819055505b8387827fc641d58f17231edb197007e15eeca939850103e030c936a165de466e56991c1f8b8a604051613a97929190615c4d565b60405180910390a4807f13868ce1b50a84aac263efd89923de989e831c1c1184925e076d0db83d2b1453613aca836116a5565b604051613ad79190613e45565b60405180910390a25050505050505050565b5f807fc8fcad8db84d3cc18b4c41d551ea0ee66dd599cde068d998e57d5e09332c131c90508091505090565b5f808303613b58576040517f08c379a0000000000000000000000000000000000000000000000000000000008152600401613b4f90615ce4565b60405180910390fd5b5f8211613b9a576040517f08c379a0000000000000000000000000000000000000000000000000000000008152600401613b9190615d72565b60405180910390fd5b5f613ba4846111c2565b90505f613bb085611a0f565b90505f82613bbd87611b08565b84613bc89190615679565b5f600e015f8981526020019081526020015f2060020154613be99190614bab565b613bf39190614c19565b90505f8103613c0157600190505b5f83613c0c88611bc3565b613c169190614bab565b828388613c239190614b12565b613c2c8a611954565b87613c379190614bab565b613c419190614bab565b613c4b9190614c19565b613c559190615679565b90508284613c639190614bab565b811115613c79578284613c769190614bab565b90505b5f8485613c869190614bab565b8288613c929190614bab565b613c9c9190614c19565b90505f600a88613cac9190614c19565b905080821115613cba578091505b81965050505050505092915050565b604051806101e001604052805f73ffffffffffffffffffffffffffffffffffffffff1681526020015f73ffffffffffffffffffffffffffffffffffffffff1681526020015f81526020015f81526020015f81526020015f73ffffffffffffffffffffffffffffffffffffffff1681526020015f81526020015f81526020015f81526020015f81526020015f81526020015f81526020015f81526020015f81526020015f151581525090565b60405180606001604052805f73ffffffffffffffffffffffffffffffffffffffff1681526020015f81526020015f7bffffffffffffffffffffffffffffffffffffffffffffffffffffffff191681525090565b5f604051905090565b5f80fd5b5f80fd5b5f819050919050565b613dea81613dd8565b8114613df4575f80fd5b50565b5f81359050613e0581613de1565b92915050565b5f60208284031215613e2057613e1f613dd0565b5b5f613e2d84828501613df7565b91505092915050565b613e3f81613dd8565b82525050565b5f602082019050613e585f830184613e36565b92915050565b5f7fffffffff0000000000000000000000000000000000000000000000000000000082169050919050565b613e9281613e5e565b82525050565b5f602082019050613eab5f830184613e89565b92915050565b5f73ffffffffffffffffffffffffffffffffffffffff82169050919050565b5f613eda82613eb1565b9050919050565b613eea81613ed0565b82525050565b5f602082019050613f035f830184613ee1565b92915050565b613f1281613ed0565b8114613f1c575f80fd5b50565b5f81359050613f2d81613f09565b92915050565b5f80fd5b5f80fd5b5f80fd5b5f8083601f840112613f5457613f53613f33565b5b8235905067ffffffffffffffff811115613f7157613f70613f37565b5b602083019150836001820283011115613f8d57613f8c613f3b565b5b9250929050565b5f805f805f60808688031215613fad57613fac613dd0565b5b5f613fba88828901613f1f565b9550506020613fcb88828901613f1f565b9450506040613fdc88828901613df7565b935050606086013567ffffffffffffffff811115613ffd57613ffc613dd4565b5b61400988828901613f3f565b92509250509295509295909350565b5f8115159050919050565b61402c81614018565b8114614036575f80fd5b50565b5f8135905061404781614023565b92915050565b5f806040838503121561406357614062613dd0565b5b5f61407085828601613f1f565b925050602061408185828601614039565b9150509250929050565b5f80fd5b5f601f19601f8301169050919050565b7f4e487b71000000000000000000000000000000000000000000000000000000005f52604160045260245ffd5b6140d58261408f565b810181811067ffffffffffffffff821117156140f4576140f361409f565b5b80604052505050565b5f614106613dc7565b905061411282826140cc565b919050565b5f67ffffffffffffffff8211156141315761413061409f565b5b61413a8261408f565b9050602081019050919050565b828183375f83830152505050565b5f61416761416284614117565b6140fd565b9050828152602081018484840111156141835761418261408b565b5b61418e848285614147565b509392505050565b5f82601f8301126141aa576141a9613f33565b5b81356141ba848260208601614155565b91505092915050565b5f805f805f60a086880312156141dc576141db613dd0565b5b5f6141e988828901613df7565b95505060206141fa88828901613df7565b945050604061420b88828901613df7565b935050606061421c88828901613df7565b925050608086013567ffffffffffffffff81111561423d5761423c613dd4565b5b61424988828901614196565b9150509295509295909350565b5f806040838503121561426c5761426b613dd0565b5b5f61427985828601613f1f565b925050602061428a85828601613df7565b9150509250929050565b5f805f805f8060c087890312156142ae576142ad613dd0565b5b5f6142bb89828a01613f1f565b96505060206142cc89828a01614039565b95505060406142dd89828a01613f1f565b94505060606142ee89828a01613df7565b93505060806142ff89828a01613df7565b92505060a061431089828a01613df7565b9150509295509295509295565b61432681613e5e565b8114614330575f80fd5b50565b5f813590506143418161431d565b92915050565b5f805f806080858703121561435f5761435e613dd0565b5b5f61436c87828801613f1f565b945050602061437d87828801613df7565b935050604061438e87828801614333565b925050606061439f87828801614039565b91505092959194509250565b5f8083601f8401126143c0576143bf613f33565b5b8235905067ffffffffffffffff8111156143dd576143dc613f37565b5b6020830191508360208202830111156143f9576143f8613f3b565b5b9250929050565b5f805f805f805f8060a0898b03121561441c5761441b613dd0565b5b5f6144298b828c01613f1f565b985050602061443a8b828c01613f1f565b975050604089013567ffffffffffffffff81111561445b5761445a613dd4565b5b6144678b828c016143ab565b9650965050606089013567ffffffffffffffff81111561448a57614489613dd4565b5b6144968b828c016143ab565b9450945050608089013567ffffffffffffffff8111156144b9576144b8613dd4565b5b6144c58b828c01613f3f565b92509250509295985092959890939650565b5f67ffffffffffffffff8211156144f1576144f061409f565b5b602082029050602081019050919050565b5f61451461450f846144d7565b6140fd565b9050808382526020820190506020840283018581111561453757614536613f3b565b5b835b81811015614560578061454c8882613df7565b845260208401935050602081019050614539565b5050509392505050565b5f82601f83011261457e5761457d613f33565b5b813561458e848260208601614502565b91505092915050565b5f602082840312156145ac576145ab613dd0565b5b5f82013567ffffffffffffffff8111156145c9576145c8613dd4565b5b6145d58482850161456a565b91505092915050565b5f602082840312156145f3576145f2613dd0565b5b5f61460084828501613f1f565b91505092915050565b5f805f806080858703121561462157614620613dd0565b5b5f61462e87828801613f1f565b945050602061463f87828801614039565b935050604061465087828801613f1f565b925050606085013567ffffffffffffffff81111561467157614670613dd4565b5b61467d8782880161456a565b91505092959194509250565b5f805f805f8060a087890312156146a3576146a2613dd0565b5b5f6146b089828a01613f1f565b96505060206146c189828a01613f1f565b95505060406146d289828a01613df7565b94505060606146e389828a01613df7565b935050608087013567ffffffffffffffff81111561470457614703613dd4565b5b61471089828a01613f3f565b92509250509295509295509295565b5f805f6060848603121561473657614735613dd0565b5b5f61474386828701613f1f565b935050602061475486828701613df7565b925050604061476586828701613df7565b9150509250925092565b61477881613ed0565b82525050565b61478781613dd8565b82525050565b61479681614018565b82525050565b6101e082015f8201516147b15f85018261476f565b5060208201516147c4602085018261476f565b5060408201516147d7604085018261477e565b5060608201516147ea606085018261477e565b5060808201516147fd608085018261477e565b5060a082015161481060a085018261476f565b5060c082015161482360c085018261477e565b5060e082015161483660e085018261477e565b5061010082015161484b61010085018261477e565b5061012082015161486061012085018261477e565b5061014082015161487561014085018261477e565b5061016082015161488a61016085018261477e565b5061018082015161489f61018085018261477e565b506101a08201516148b46101a085018261477e565b506101c08201516148c96101c085018261478d565b50505050565b5f6101e0820190506148e35f83018461479c565b92915050565b5f82825260208201905092915050565b7f636c61696d3a20636f6e747261637420697320706175736564000000000000005f82015250565b5f61492d6019836148e9565b9150614938826148f9565b602082019050919050565b5f6020820190508181035f83015261495a81614921565b9050919050565b7f636c61696d3a20436c61696d696e672069732063757272656e746c79206e6f745f8201527f20616c6c6f776564000000000000000000000000000000000000000000000000602082015250565b5f6149bb6028836148e9565b91506149c682614961565b604082019050919050565b5f6020820190508181035f8301526149e8816149af565b9050919050565b7f636c61696d3a2041756374696f6e20686173206e6f742079657420656e6465645f82015250565b5f614a236020836148e9565b9150614a2e826149ef565b602082019050919050565b5f6020820190508181035f830152614a5081614a17565b9050919050565b7f636c61696d3a204974656d2068617320616c7265616479206265656e20636c615f8201527f696d656400000000000000000000000000000000000000000000000000000000602082015250565b5f614ab16024836148e9565b9150614abc82614a57565b604082019050919050565b5f6020820190508181035f830152614ade81614aa5565b9050919050565b7f4e487b71000000000000000000000000000000000000000000000000000000005f52601160045260245ffd5b5f614b1c82613dd8565b9150614b2783613dd8565b9250828203905081811115614b3f57614b3e614ae5565b5b92915050565b5f604082019050614b585f830185613ee1565b614b656020830184613e36565b9392505050565b5f81519050614b7a81614023565b92915050565b5f60208284031215614b9557614b94613dd0565b5b5f614ba284828501614b6c565b91505092915050565b5f614bb582613dd8565b9150614bc083613dd8565b9250828202614bce81613dd8565b91508282048414831517614be557614be4614ae5565b5b5092915050565b7f4e487b71000000000000000000000000000000000000000000000000000000005f52601260045260245ffd5b5f614c2382613dd8565b9150614c2e83613dd8565b925082614c3e57614c3d614bec565b5b828204905092915050565b5f606082019050614c5c5f830186613ee1565b614c696020830185613ee1565b614c766040830184613e36565b949350505050565b5f819050919050565b5f819050919050565b5f614caa614ca5614ca084614c7e565b614c87565b613dd8565b9050919050565b614cba81614c90565b82525050565b5f82825260208201905092915050565b50565b5f614cde5f83614cc0565b9150614ce982614cd0565b5f82019050919050565b5f60a082019050614d065f830187613ee1565b614d136020830186613ee1565b614d206040830185613e36565b614d2d6060830184614cb1565b8181036080830152614d3e81614cd3565b905095945050505050565b614d5281614018565b82525050565b5f602082019050614d6b5f830184614d49565b92915050565b7f636f6d6d69744269643a205369676e61747572652065787069726564000000005f82015250565b5f614da5601c836148e9565b9150614db082614d71565b602082019050919050565b5f6020820190508181035f830152614dd281614d99565b9050919050565b5f8160601b9050919050565b5f614def82614dd9565b9050919050565b5f614e0082614de5565b9050919050565b614e18614e1382613ed0565b614df6565b82525050565b5f819050919050565b614e38614e3382613dd8565b614e1e565b82525050565b5f614e498288614e07565b601482019150614e598287614e27565b602082019150614e698286614e27565b602082019150614e798285614e27565b602082019150614e898284614e27565b6020820191508190509695505050505050565b7f4e487b71000000000000000000000000000000000000000000000000000000005f52602260045260245ffd5b5f6002820490506001821680614ee057607f821691505b602082108103614ef357614ef2614e9c565b5b50919050565b7f6269643a20496e76616c6964207369676e6174757265000000000000000000005f82015250565b5f614f2d6016836148e9565b9150614f3882614ef9565b602082019050919050565b5f6020820190508181035f830152614f5a81614f21565b9050919050565b5f60a082019050614f745f830187613ee1565b614f816020830186613ee1565b614f8e6040830185613e36565b614f9b6060830184613e36565b8181036080830152614fac81614cd3565b905095945050505050565b5f614fc182613dd8565b91507fffffffffffffffffffffffffffffffffffffffffffffffffffffffffffffffff8203614ff357614ff2614ae5565b5b600182019050919050565b7f4e487b71000000000000000000000000000000000000000000000000000000005f52603260045260245ffd5b7f4e6f2061756374696f6e7320746f2063726561746500000000000000000000005f82015250565b5f61505f6015836148e9565b915061506a8261502b565b602082019050919050565b5f6020820190508181035f83015261508c81615053565b9050919050565b5f6080820190506150a65f830186613ee1565b6150b36020830185613ee1565b6150c06040830184613e36565b81810360608301526150d181614cd3565b9050949350505050565b7f4c69624469616d6f6e643a204d75737420626520636f6e7472616374206f776e5f8201527f6572000000000000000000000000000000000000000000000000000000000000602082015250565b5f6151356022836148e9565b9150615140826150db565b604082019050919050565b5f6020820190508181035f83015261516281615129565b9050919050565b5f60ff82169050919050565b5f61517f82615169565b915061518a83615169565b9250828201905060ff8111156151a3576151a2614ae5565b5b92915050565b5f819050919050565b6151bb816151a9565b82525050565b6151ca81615169565b82525050565b5f6080820190506151e35f8301876151b2565b6151f060208301866151c1565b6151fd60408301856151b2565b61520a60608301846151b2565b95945050505050565b7f6269643a2061756374696f6e2049442063616e6e6f74206265207a65726f00005f82015250565b5f615247601e836148e9565b915061525282615213565b602082019050919050565b5f6020820190508181035f8301526152748161523b565b9050919050565b7f6269643a20696e76616c69642073656e646572206164647265737300000000005f82015250565b5f6152af601b836148e9565b91506152ba8261527b565b602082019050919050565b5f6020820190508181035f8301526152dc816152a3565b9050919050565b7f6269643a20636f6e7472616374206973207061757365640000000000000000005f82015250565b5f6153176017836148e9565b9150615322826152e3565b602082019050919050565b5f6020820190508181035f8301526153448161530b565b9050919050565b7f6269643a2062696464696e672069732063757272656e746c79206e6f7420616c5f8201527f6c6f776564000000000000000000000000000000000000000000000000000000602082015250565b5f6153a56025836148e9565b91506153b08261534b565b604082019050919050565b5f6020820190508181035f8301526153d281615399565b9050919050565b7f6269643a2062696420616d6f756e74206d7573742062652067726561746572205f8201527f7468616e20310000000000000000000000000000000000000000000000000000602082015250565b5f6154336026836148e9565b915061543e826153d9565b604082019050919050565b5f6020820190508181035f83015261546081615427565b9050919050565b7f6269643a206869676865737420626964206d69736d61746368202d20726566725f8201527f6573682061756374696f6e206461746100000000000000000000000000000000602082015250565b5f6154c16030836148e9565b91506154cc82615467565b604082019050919050565b5f6020820190508181035f8301526154ee816154b5565b9050919050565b7f6269643a2061756374696f6e20686173206e6f742073746172746564207965745f8201527f206f7220646f6573206e6f742065786973740000000000000000000000000000602082015250565b5f61554f6032836148e9565b915061555a826154f5565b604082019050919050565b5f6020820190508181035f83015261557c81615543565b9050919050565b7f6269643a2061756374696f6e2068617320616c726561647920656e64656400005f82015250565b5f6155b7601e836148e9565b91506155c282615583565b602082019050919050565b5f6020820190508181035f8301526155e4816155ab565b9050919050565b7f6269643a205f626964416d6f756e74206d7573742062652068696768657220745f8201527f68616e205f686967686573744269640000000000000000000000000000000000602082015250565b5f615645602f836148e9565b9150615650826155eb565b604082019050919050565b5f6020820190508181035f83015261567281615639565b9050919050565b5f61568382613dd8565b915061568e83613dd8565b92508282019050808211156156a6576156a5614ae5565b5b92915050565b7f6269643a2062696420616d6f756e7420746f6f206c6f77202d206d75737420655f8201527f7863656564206d696e696d756d20696e6372656d656e74000000000000000000602082015250565b5f6157066037836148e9565b9150615711826156ac565b604082019050919050565b5f6020820190508181035f830152615733816156fa565b9050919050565b7f5468652061756374696f6e20616c6561647920657869737420666f72207468655f8201527f2073706563696669656420746f6b656e00000000000000000000000000000000602082015250565b5f6157946030836148e9565b915061579f8261573a565b604082019050919050565b5f6020820190508181035f8301526157c181615788565b9050919050565b7f5468652061756374696f6e20646f65736e27742065786973742079657420666f5f8201527f72207468652073706563696669656420746f6b656e0000000000000000000000602082015250565b5f6158226035836148e9565b915061582d826157c8565b604082019050919050565b5f6020820190508181035f83015261584f81615816565b9050919050565b7f7265676973746572416e41756374696f6e546f6b656e3a204f6e6c79204552435f8201527f3131353520616e642045524337323120746f6b656e732061726520737570706f60208201527f7274656400000000000000000000000000000000000000000000000000000000604082015250565b5f6158d66044836148e9565b91506158e182615856565b606082019050919050565b5f6020820190508181035f830152615903816158ca565b9050919050565b5f8151905061591881613f09565b92915050565b5f6020828403121561593357615932613dd0565b5b5f6159408482850161590a565b91505092915050565b7f7265676973746572416e41756374696f6e546f6b656e3a2074686520737065635f8201527f6966696564204552432d37323120746f6b656e2063616e6e6f7420626520617560208201527f6374696f6e656400000000000000000000000000000000000000000000000000604082015250565b5f6159c96047836148e9565b91506159d482615949565b606082019050919050565b5f6020820190508181035f8301526159f6816159bd565b9050919050565b5f819050919050565b615a17615a1282613e5e565b6159fd565b82525050565b5f615a288286614e07565b601482019150615a388285614e27565b602082019150615a488284615a06565b600482019150819050949350505050565b5f81519050615a6781613de1565b92915050565b5f60208284031215615a8257615a81613dd0565b5b5f615a8f84828501615a59565b91505092915050565b7f7265676973746572416e41756374696f6e546f6b656e3a2020746865207370655f8201527f636966696564204552432d3131353520746f6b656e2063616e6e6f742062652060208201527f61756374696f6e6e656400000000000000000000000000000000000000000000604082015250565b5f615b18604a836148e9565b9150615b2382615a98565b606082019050919050565b5f6020820190508181035f830152615b4581615b0c565b9050919050565b7f54686520737065636966696564205f31313535496e6465782068617665206e6f5f8201527f74206265656e20726561636865642079657420666f72207468697320746f6b6560208201527f6e00000000000000000000000000000000000000000000000000000000000000604082015250565b5f615bcc6041836148e9565b9150615bd782615b4c565b606082019050919050565b5f6020820190508181035f830152615bf981615bc0565b9050919050565b5f615c0b8287614e07565b601482019150615c1b8286614e27565b602082019150615c2b8285615a06565b600482019150615c3b8284614e27565b60208201915081905095945050505050565b5f604082019050615c605f830185613ee1565b615c6d6020830184613e89565b9392505050565b7f63616c63756c617465496e63656e74697665733a20696e76616c6964206175635f8201527f74696f6e20494400000000000000000000000000000000000000000000000000602082015250565b5f615cce6027836148e9565b9150615cd982615c74565b604082019050919050565b5f6020820190508181035f830152615cfb81615cc2565b9050919050565b7f63616c63756c617465496e63656e74697665733a206269642076616c7565206d5f8201527f75737420626520706f7369746976650000000000000000000000000000000000602082015250565b5f615d5c602f836148e9565b9150615d6782615d02565b604082019050919050565b5f6020820190508181035f830152615d8981615d50565b905091905056fea26469706673582212208757fbe353ebc36225858e7d5bdd4d3a0ae73a68f9ffa0b03914d5367124347c64736f6c63430008140033","opcodes":"PUSH1 0x80 PUSH1 0x40 MSTORE CALLVALUE DUP1 ISZERO PUSH2 0xF JUMPI PUSH0 DUP1 REVERT JUMPDEST POP PUSH2 0x5DC6 DUP1 PUSH3 0x1E PUSH0 CODECOPY PUSH0 RETURN INVALID PUSH1 0x80 PUSH1 0x40 MSTORE CALLVALUE DUP1 ISZERO PUSH2 0xF JUMPI PUSH0 DUP1 REVERT JUMPDEST POP PUSH1 0x4 CALLDATASIZE LT PUSH2 0x1E3 JUMPI PUSH0 CALLDATALOAD PUSH1 0xE0 SHR DUP1 PUSH4 0xAC478F3D GT PUSH2 0x10D JUMPI DUP1 PUSH4 0xDFAB114B GT PUSH2 0xA0 JUMPI DUP1 PUSH4 0xF23A6E61 GT PUSH2 0x6F JUMPI DUP1 PUSH4 0xF23A6E61 EQ PUSH2 0x645 JUMPI DUP1 PUSH4 0xF48D6F70 EQ PUSH2 0x675 JUMPI DUP1 PUSH4 0xF5DE1000 EQ PUSH2 0x691 JUMPI DUP1 PUSH4 0xFC3FC4ED EQ PUSH2 0x6C1 JUMPI PUSH2 0x1E3 JUMP JUMPDEST DUP1 PUSH4 0xDFAB114B EQ PUSH2 0x599 JUMPI DUP1 PUSH4 0xE07BC69C EQ PUSH2 0x5C9 JUMPI DUP1 PUSH4 0xEF8C55FD EQ PUSH2 0x5F9 JUMPI DUP1 PUSH4 0xEF8CA484 EQ PUSH2 0x629 JUMPI PUSH2 0x1E3 JUMP JUMPDEST DUP1 PUSH4 0xC26E748C GT PUSH2 0xDC JUMPI DUP1 PUSH4 0xC26E748C EQ PUSH2 0x4ED JUMPI DUP1 PUSH4 0xCA27E209 EQ PUSH2 0x51D JUMPI DUP1 PUSH4 0xDA081C94 EQ PUSH2 0x539 JUMPI DUP1 PUSH4 0xDB145701 EQ PUSH2 0x569 JUMPI PUSH2 0x1E3 JUMP JUMPDEST DUP1 PUSH4 0xAC478F3D EQ PUSH2 0x455 JUMPI DUP1 PUSH4 0xAEFA7D98 EQ PUSH2 0x471 JUMPI DUP1 PUSH4 0xBC197C81 EQ PUSH2 0x4A1 JUMPI DUP1 PUSH4 0xBC292782 EQ PUSH2 0x4D1 JUMPI PUSH2 0x1E3 JUMP JUMPDEST DUP1 PUSH4 0x470E9F8D GT PUSH2 0x185 JUMPI DUP1 PUSH4 0x6B9A894E GT PUSH2 0x154 JUMPI DUP1 PUSH4 0x6B9A894E EQ PUSH2 0x3A9 JUMPI DUP1 PUSH4 0x73E72E9C EQ PUSH2 0x3D9 JUMPI DUP1 PUSH4 0x919E84F5 EQ PUSH2 0x3F5 JUMPI DUP1 PUSH4 0x930E79F1 EQ PUSH2 0x425 JUMPI PUSH2 0x1E3 JUMP JUMPDEST DUP1 PUSH4 0x470E9F8D EQ PUSH2 0x311 JUMPI DUP1 PUSH4 0x50D265D4 EQ PUSH2 0x341 JUMPI DUP1 PUSH4 0x5B364873 EQ PUSH2 0x35D JUMPI DUP1 PUSH4 0x64EFA1FD EQ PUSH2 0x379 JUMPI PUSH2 0x1E3 JUMP JUMPDEST DUP1 PUSH4 0x14FF5EA3 GT PUSH2 0x1C1 JUMPI DUP1 PUSH4 0x14FF5EA3 EQ PUSH2 0x265 JUMPI DUP1 PUSH4 0x150B7A02 EQ PUSH2 0x295 JUMPI DUP1 PUSH4 0x379607F5 EQ PUSH2 0x2C5 JUMPI DUP1 PUSH4 0x3F21CF81 EQ PUSH2 0x2E1 JUMPI PUSH2 0x1E3 JUMP JUMPDEST DUP1 PUSH4 0x3EA66A4 EQ PUSH2 0x1E7 JUMPI DUP1 PUSH4 0xFACEBEA EQ PUSH2 0x217 JUMPI DUP1 PUSH4 0x12004C7F EQ PUSH2 0x247 JUMPI JUMPDEST PUSH0 DUP1 REVERT JUMPDEST PUSH2 0x201 PUSH1 0x4 DUP1 CALLDATASIZE SUB DUP2 ADD SWAP1 PUSH2 0x1FC SWAP2 SWAP1 PUSH2 0x3E0B JUMP JUMPDEST PUSH2 0x6F1 JUMP JUMPDEST PUSH1 0x40 MLOAD PUSH2 0x20E SWAP2 SWAP1 PUSH2 0x3E45 JUMP JUMPDEST PUSH1 0x40 MLOAD DUP1 SWAP2 SUB SWAP1 RETURN JUMPDEST PUSH2 0x231 PUSH1 0x4 DUP1 CALLDATASIZE SUB DUP2 ADD SWAP1 PUSH2 0x22C SWAP2 SWAP1 PUSH2 0x3E0B JUMP JUMPDEST PUSH2 0x710 JUMP JUMPDEST PUSH1 0x40 MLOAD PUSH2 0x23E SWAP2 SWAP1 PUSH2 0x3E98 JUMP JUMPDEST PUSH1 0x40 MLOAD DUP1 SWAP2 SUB SWAP1 RETURN JUMPDEST PUSH2 0x24F PUSH2 0x73B JUMP JUMPDEST PUSH1 0x40 MLOAD PUSH2 0x25C SWAP2 SWAP1 PUSH2 0x3EF0 JUMP JUMPDEST PUSH1 0x40 MLOAD DUP1 SWAP2 SUB SWAP1 RETURN JUMPDEST PUSH2 0x27F PUSH1 0x4 DUP1 CALLDATASIZE SUB DUP2 ADD SWAP1 PUSH2 0x27A SWAP2 SWAP1 PUSH2 0x3E0B JUMP JUMPDEST PUSH2 0x765 JUMP JUMPDEST PUSH1 0x40 MLOAD PUSH2 0x28C SWAP2 SWAP1 PUSH2 0x3E45 JUMP JUMPDEST PUSH1 0x40 MLOAD DUP1 SWAP2 SUB SWAP1 RETURN JUMPDEST PUSH2 0x2AF PUSH1 0x4 DUP1 CALLDATASIZE SUB DUP2 ADD SWAP1 PUSH2 0x2AA SWAP2 SWAP1 PUSH2 0x3F94 JUMP JUMPDEST PUSH2 0x784 JUMP JUMPDEST PUSH1 0x40 MLOAD PUSH2 0x2BC SWAP2 SWAP1 PUSH2 0x3E98 JUMP JUMPDEST PUSH1 0x40 MLOAD DUP1 SWAP2 SUB SWAP1 RETURN JUMPDEST PUSH2 0x2DF PUSH1 0x4 DUP1 CALLDATASIZE SUB DUP2 ADD SWAP1 PUSH2 0x2DA SWAP2 SWAP1 PUSH2 0x3E0B JUMP JUMPDEST PUSH2 0x7B1 JUMP JUMPDEST STOP JUMPDEST PUSH2 0x2FB PUSH1 0x4 DUP1 CALLDATASIZE SUB DUP2 ADD SWAP1 PUSH2 0x2F6 SWAP2 SWAP1 PUSH2 0x3E0B JUMP JUMPDEST PUSH2 0x11C2 JUMP JUMPDEST PUSH1 0x40 MLOAD PUSH2 0x308 SWAP2 SWAP1 PUSH2 0x3E45 JUMP JUMPDEST PUSH1 0x40 MLOAD DUP1 SWAP2 SUB SWAP1 RETURN JUMPDEST PUSH2 0x32B PUSH1 0x4 DUP1 CALLDATASIZE SUB DUP2 ADD SWAP1 PUSH2 0x326 SWAP2 SWAP1 PUSH2 0x3E0B JUMP JUMPDEST PUSH2 0x127D JUMP JUMPDEST PUSH1 0x40 MLOAD PUSH2 0x338 SWAP2 SWAP1 PUSH2 0x3E45 JUMP JUMPDEST PUSH1 0x40 MLOAD DUP1 SWAP2 SUB SWAP1 RETURN JUMPDEST PUSH2 0x35B PUSH1 0x4 DUP1 CALLDATASIZE SUB DUP2 ADD SWAP1 PUSH2 0x356 SWAP2 SWAP1 PUSH2 0x404D JUMP JUMPDEST PUSH2 0x1338 JUMP JUMPDEST STOP JUMPDEST PUSH2 0x377 PUSH1 0x4 DUP1 CALLDATASIZE SUB DUP2 ADD SWAP1 PUSH2 0x372 SWAP2 SWAP1 PUSH2 0x41C3 JUMP JUMPDEST PUSH2 0x13EB JUMP JUMPDEST STOP JUMPDEST PUSH2 0x393 PUSH1 0x4 DUP1 CALLDATASIZE SUB DUP2 ADD SWAP1 PUSH2 0x38E SWAP2 SWAP1 PUSH2 0x4256 JUMP JUMPDEST PUSH2 0x1547 JUMP JUMPDEST PUSH1 0x40 MLOAD PUSH2 0x3A0 SWAP2 SWAP1 PUSH2 0x3E45 JUMP JUMPDEST PUSH1 0x40 MLOAD DUP1 SWAP2 SUB SWAP1 RETURN JUMPDEST PUSH2 0x3C3 PUSH1 0x4 DUP1 CALLDATASIZE SUB DUP2 ADD SWAP1 PUSH2 0x3BE SWAP2 SWAP1 PUSH2 0x3E0B JUMP JUMPDEST PUSH2 0x15AE JUMP JUMPDEST PUSH1 0x40 MLOAD PUSH2 0x3D0 SWAP2 SWAP1 PUSH2 0x3E45 JUMP JUMPDEST PUSH1 0x40 MLOAD DUP1 SWAP2 SUB SWAP1 RETURN JUMPDEST PUSH2 0x3F3 PUSH1 0x4 DUP1 CALLDATASIZE SUB DUP2 ADD SWAP1 PUSH2 0x3EE SWAP2 SWAP1 PUSH2 0x4294 JUMP JUMPDEST PUSH2 0x15CD JUMP JUMPDEST STOP JUMPDEST PUSH2 0x40F PUSH1 0x4 DUP1 CALLDATASIZE SUB DUP2 ADD SWAP1 PUSH2 0x40A SWAP2 SWAP1 PUSH2 0x3E0B JUMP JUMPDEST PUSH2 0x16A5 JUMP JUMPDEST PUSH1 0x40 MLOAD PUSH2 0x41C SWAP2 SWAP1 PUSH2 0x3E45 JUMP JUMPDEST PUSH1 0x40 MLOAD DUP1 SWAP2 SUB SWAP1 RETURN JUMPDEST PUSH2 0x43F PUSH1 0x4 DUP1 CALLDATASIZE SUB DUP2 ADD SWAP1 PUSH2 0x43A SWAP2 SWAP1 PUSH2 0x3E0B JUMP JUMPDEST PUSH2 0x175F JUMP JUMPDEST PUSH1 0x40 MLOAD PUSH2 0x44C SWAP2 SWAP1 PUSH2 0x3E45 JUMP JUMPDEST PUSH1 0x40 MLOAD DUP1 SWAP2 SUB SWAP1 RETURN JUMPDEST PUSH2 0x46F PUSH1 0x4 DUP1 CALLDATASIZE SUB DUP2 ADD SWAP1 PUSH2 0x46A SWAP2 SWAP1 PUSH2 0x4347 JUMP JUMPDEST PUSH2 0x181A JUMP JUMPDEST STOP JUMPDEST PUSH2 0x48B PUSH1 0x4 DUP1 CALLDATASIZE SUB DUP2 ADD SWAP1 PUSH2 0x486 SWAP2 SWAP1 PUSH2 0x3E0B JUMP JUMPDEST PUSH2 0x1836 JUMP JUMPDEST PUSH1 0x40 MLOAD PUSH2 0x498 SWAP2 SWAP1 PUSH2 0x3EF0 JUMP JUMPDEST PUSH1 0x40 MLOAD DUP1 SWAP2 SUB SWAP1 RETURN JUMPDEST PUSH2 0x4BB PUSH1 0x4 DUP1 CALLDATASIZE SUB DUP2 ADD SWAP1 PUSH2 0x4B6 SWAP2 SWAP1 PUSH2 0x4400 JUMP JUMPDEST PUSH2 0x1873 JUMP JUMPDEST PUSH1 0x40 MLOAD PUSH2 0x4C8 SWAP2 SWAP1 PUSH2 0x3E98 JUMP JUMPDEST PUSH1 0x40 MLOAD DUP1 SWAP2 SUB SWAP1 RETURN JUMPDEST PUSH2 0x4EB PUSH1 0x4 DUP1 CALLDATASIZE SUB DUP2 ADD SWAP1 PUSH2 0x4E6 SWAP2 SWAP1 PUSH2 0x4597 JUMP JUMPDEST PUSH2 0x18A3 JUMP JUMPDEST STOP JUMPDEST PUSH2 0x507 PUSH1 0x4 DUP1 CALLDATASIZE SUB DUP2 ADD SWAP1 PUSH2 0x502 SWAP2 SWAP1 PUSH2 0x3E0B JUMP JUMPDEST PUSH2 0x18E8 JUMP JUMPDEST PUSH1 0x40 MLOAD PUSH2 0x514 SWAP2 SWAP1 PUSH2 0x3E45 JUMP JUMPDEST PUSH1 0x40 MLOAD DUP1 SWAP2 SUB SWAP1 RETURN JUMPDEST PUSH2 0x537 PUSH1 0x4 DUP1 CALLDATASIZE SUB DUP2 ADD SWAP1 PUSH2 0x532 SWAP2 SWAP1 PUSH2 0x45DE JUMP JUMPDEST PUSH2 0x1907 JUMP JUMPDEST STOP JUMPDEST PUSH2 0x553 PUSH1 0x4 DUP1 CALLDATASIZE SUB DUP2 ADD SWAP1 PUSH2 0x54E SWAP2 SWAP1 PUSH2 0x3E0B JUMP JUMPDEST PUSH2 0x1954 JUMP JUMPDEST PUSH1 0x40 MLOAD PUSH2 0x560 SWAP2 SWAP1 PUSH2 0x3E45 JUMP JUMPDEST PUSH1 0x40 MLOAD DUP1 SWAP2 SUB SWAP1 RETURN JUMPDEST PUSH2 0x583 PUSH1 0x4 DUP1 CALLDATASIZE SUB DUP2 ADD SWAP1 PUSH2 0x57E SWAP2 SWAP1 PUSH2 0x3E0B JUMP JUMPDEST PUSH2 0x1A0F JUMP JUMPDEST PUSH1 0x40 MLOAD PUSH2 0x590 SWAP2 SWAP1 PUSH2 0x3E45 JUMP JUMPDEST PUSH1 0x40 MLOAD DUP1 SWAP2 SUB SWAP1 RETURN JUMPDEST PUSH2 0x5B3 PUSH1 0x4 DUP1 CALLDATASIZE SUB DUP2 ADD SWAP1 PUSH2 0x5AE SWAP2 SWAP1 PUSH2 0x3E0B JUMP JUMPDEST PUSH2 0x1ACA JUMP JUMPDEST PUSH1 0x40 MLOAD PUSH2 0x5C0 SWAP2 SWAP1 PUSH2 0x3EF0 JUMP JUMPDEST PUSH1 0x40 MLOAD DUP1 SWAP2 SUB SWAP1 RETURN JUMPDEST PUSH2 0x5E3 PUSH1 0x4 DUP1 CALLDATASIZE SUB DUP2 ADD SWAP1 PUSH2 0x5DE SWAP2 SWAP1 PUSH2 0x3E0B JUMP JUMPDEST PUSH2 0x1B08 JUMP JUMPDEST PUSH1 0x40 MLOAD PUSH2 0x5F0 SWAP2 SWAP1 PUSH2 0x3E45 JUMP JUMPDEST PUSH1 0x40 MLOAD DUP1 SWAP2 SUB SWAP1 RETURN JUMPDEST PUSH2 0x613 PUSH1 0x4 DUP1 CALLDATASIZE SUB DUP2 ADD SWAP1 PUSH2 0x60E SWAP2 SWAP1 PUSH2 0x3E0B JUMP JUMPDEST PUSH2 0x1BC3 JUMP JUMPDEST PUSH1 0x40 MLOAD PUSH2 0x620 SWAP2 SWAP1 PUSH2 0x3E45 JUMP JUMPDEST PUSH1 0x40 MLOAD DUP1 SWAP2 SUB SWAP1 RETURN JUMPDEST PUSH2 0x643 PUSH1 0x4 DUP1 CALLDATASIZE SUB DUP2 ADD SWAP1 PUSH2 0x63E SWAP2 SWAP1 PUSH2 0x4609 JUMP JUMPDEST PUSH2 0x1C7E JUMP JUMPDEST STOP JUMPDEST PUSH2 0x65F PUSH1 0x4 DUP1 CALLDATASIZE SUB DUP2 ADD SWAP1 PUSH2 0x65A SWAP2 SWAP1 PUSH2 0x4689 JUMP JUMPDEST PUSH2 0x1DA3 JUMP JUMPDEST PUSH1 0x40 MLOAD PUSH2 0x66C SWAP2 SWAP1 PUSH2 0x3E98 JUMP JUMPDEST PUSH1 0x40 MLOAD DUP1 SWAP2 SUB SWAP1 RETURN JUMPDEST PUSH2 0x68F PUSH1 0x4 DUP1 CALLDATASIZE SUB DUP2 ADD SWAP1 PUSH2 0x68A SWAP2 SWAP1 PUSH2 0x45DE JUMP JUMPDEST PUSH2 0x1DD1 JUMP JUMPDEST STOP JUMPDEST PUSH2 0x6AB PUSH1 0x4 DUP1 CALLDATASIZE SUB DUP2 ADD SWAP1 PUSH2 0x6A6 SWAP2 SWAP1 PUSH2 0x471F JUMP JUMPDEST PUSH2 0x204A JUMP JUMPDEST PUSH1 0x40 MLOAD PUSH2 0x6B8 SWAP2 SWAP1 PUSH2 0x3E45 JUMP JUMPDEST PUSH1 0x40 MLOAD DUP1 SWAP2 SUB SWAP1 RETURN JUMPDEST PUSH2 0x6DB PUSH1 0x4 DUP1 CALLDATASIZE SUB DUP2 ADD SWAP1 PUSH2 0x6D6 SWAP2 SWAP1 PUSH2 0x3E0B JUMP JUMPDEST PUSH2 0x20B2 JUMP JUMPDEST PUSH1 0x40 MLOAD PUSH2 0x6E8 SWAP2 SWAP1 PUSH2 0x48CF JUMP JUMPDEST PUSH1 0x40 MLOAD DUP1 SWAP2 SUB SWAP1 RETURN JUMPDEST PUSH0 DUP1 PUSH1 0xE ADD PUSH0 DUP4 DUP2 MSTORE PUSH1 0x20 ADD SWAP1 DUP2 MSTORE PUSH1 0x20 ADD PUSH0 KECCAK256 PUSH1 0x4 ADD SLOAD SWAP1 POP SWAP2 SWAP1 POP JUMP JUMPDEST PUSH0 DUP1 PUSH1 0xC ADD PUSH0 DUP4 DUP2 MSTORE PUSH1 0x20 ADD SWAP1 DUP2 MSTORE PUSH1 0x20 ADD PUSH0 KECCAK256 PUSH1 0x2 ADD PUSH0 SWAP1 SLOAD SWAP1 PUSH2 0x100 EXP SWAP1 DIV PUSH1 0xE0 SHL SWAP1 POP SWAP2 SWAP1 POP JUMP JUMPDEST PUSH0 DUP1 PUSH1 0xB ADD PUSH0 SWAP1 SLOAD SWAP1 PUSH2 0x100 EXP SWAP1 DIV PUSH20 0xFFFFFFFFFFFFFFFFFFFFFFFFFFFFFFFFFFFFFFFF AND SWAP1 POP SWAP1 JUMP JUMPDEST PUSH0 DUP1 PUSH1 0xC ADD PUSH0 DUP4 DUP2 MSTORE PUSH1 0x20 ADD SWAP1 DUP2 MSTORE PUSH1 0x20 ADD PUSH0 KECCAK256 PUSH1 0x1 ADD SLOAD SWAP1 POP SWAP2 SWAP1 POP JUMP JUMPDEST PUSH0 PUSH32 0x150B7A023D4804D13E8C85FB27262CB750CF6BA9F9DD3BB30D90F482CEEB4B1F SWAP1 POP SWAP6 SWAP5 POP POP POP POP POP JUMP JUMPDEST PUSH0 DUP1 PUSH1 0xC ADD PUSH0 DUP4 DUP2 MSTORE PUSH1 0x20 ADD SWAP1 DUP2 MSTORE PUSH1 0x20 ADD PUSH0 KECCAK256 PUSH0 ADD PUSH0 SWAP1 SLOAD SWAP1 PUSH2 0x100 EXP SWAP1 DIV PUSH20 0xFFFFFFFFFFFFFFFFFFFFFFFFFFFFFFFFFFFFFFFF AND SWAP1 POP PUSH0 DUP1 PUSH1 0xC ADD PUSH0 DUP5 DUP2 MSTORE PUSH1 0x20 ADD SWAP1 DUP2 MSTORE PUSH1 0x20 ADD PUSH0 KECCAK256 PUSH1 0x1 ADD SLOAD SWAP1 POP PUSH0 PUSH1 0x14 ADD PUSH0 SWAP1 SLOAD SWAP1 PUSH2 0x100 EXP SWAP1 DIV PUSH1 0xFF AND ISZERO PUSH2 0x854 JUMPI PUSH1 0x40 MLOAD PUSH32 0x8C379A000000000000000000000000000000000000000000000000000000000 DUP2 MSTORE PUSH1 0x4 ADD PUSH2 0x84B SWAP1 PUSH2 0x4943 JUMP JUMPDEST PUSH1 0x40 MLOAD DUP1 SWAP2 SUB SWAP1 REVERT JUMPDEST PUSH0 PUSH1 0x10 ADD PUSH0 DUP4 PUSH20 0xFFFFFFFFFFFFFFFFFFFFFFFFFFFFFFFFFFFFFFFF AND PUSH20 0xFFFFFFFFFFFFFFFFFFFFFFFFFFFFFFFFFFFFFFFF AND DUP2 MSTORE PUSH1 0x20 ADD SWAP1 DUP2 MSTORE PUSH1 0x20 ADD PUSH0 KECCAK256 PUSH1 0x8 ADD PUSH0 SWAP1 SLOAD SWAP1 PUSH2 0x100 EXP SWAP1 DIV PUSH1 0xFF AND PUSH2 0x8E2 JUMPI PUSH1 0x40 MLOAD PUSH32 0x8C379A000000000000000000000000000000000000000000000000000000000 DUP2 MSTORE PUSH1 0x4 ADD PUSH2 0x8D9 SWAP1 PUSH2 0x49D1 JUMP JUMPDEST PUSH1 0x40 MLOAD DUP1 SWAP2 SUB SWAP1 REVERT JUMPDEST TIMESTAMP PUSH2 0x8EC DUP5 PUSH2 0x175F JUMP JUMPDEST LT PUSH2 0x92C JUMPI PUSH1 0x40 MLOAD PUSH32 0x8C379A000000000000000000000000000000000000000000000000000000000 DUP2 MSTORE PUSH1 0x4 ADD PUSH2 0x923 SWAP1 PUSH2 0x4A39 JUMP JUMPDEST PUSH1 0x40 MLOAD DUP1 SWAP2 SUB SWAP1 REVERT JUMPDEST PUSH0 ISZERO ISZERO PUSH0 PUSH1 0xF ADD PUSH0 DUP6 DUP2 MSTORE PUSH1 0x20 ADD SWAP1 DUP2 MSTORE PUSH1 0x20 ADD PUSH0 KECCAK256 PUSH0 SWAP1 SLOAD SWAP1 PUSH2 0x100 EXP SWAP1 DIV PUSH1 0xFF AND ISZERO ISZERO EQ PUSH2 0x991 JUMPI PUSH1 0x40 MLOAD PUSH32 0x8C379A000000000000000000000000000000000000000000000000000000000 DUP2 MSTORE PUSH1 0x4 ADD PUSH2 0x988 SWAP1 PUSH2 0x4AC7 JUMP JUMPDEST PUSH1 0x40 MLOAD DUP1 SWAP2 SUB SWAP1 REVERT JUMPDEST PUSH1 0x1 PUSH0 PUSH1 0xF ADD PUSH0 DUP6 DUP2 MSTORE PUSH1 0x20 ADD SWAP1 DUP2 MSTORE PUSH1 0x20 ADD PUSH0 KECCAK256 PUSH0 PUSH2 0x100 EXP DUP2 SLOAD DUP2 PUSH1 0xFF MUL NOT AND SWAP1 DUP4 ISZERO ISZERO MUL OR SWAP1 SSTORE POP PUSH0 DUP1 PUSH1 0xE ADD PUSH0 DUP6 DUP2 MSTORE PUSH1 0x20 ADD SWAP1 DUP2 MSTORE PUSH1 0x20 ADD PUSH0 KECCAK256 PUSH1 0x3 ADD SLOAD PUSH0 PUSH1 0xE ADD PUSH0 DUP7 DUP2 MSTORE PUSH1 0x20 ADD SWAP1 DUP2 MSTORE PUSH1 0x20 ADD PUSH0 KECCAK256 PUSH1 0x2 ADD SLOAD PUSH2 0x9F5 SWAP2 SWAP1 PUSH2 0x4B12 JUMP JUMPDEST SWAP1 POP PUSH0 PUSH1 0xB ADD PUSH0 SWAP1 SLOAD SWAP1 PUSH2 0x100 EXP SWAP1 DIV PUSH20 0xFFFFFFFFFFFFFFFFFFFFFFFFFFFFFFFFFFFFFFFF AND PUSH20 0xFFFFFFFFFFFFFFFFFFFFFFFFFFFFFFFFFFFFFFFF AND PUSH4 0x95EA7B3 ADDRESS DUP4 PUSH1 0x40 MLOAD DUP4 PUSH4 0xFFFFFFFF AND PUSH1 0xE0 SHL DUP2 MSTORE PUSH1 0x4 ADD PUSH2 0xA55 SWAP3 SWAP2 SWAP1 PUSH2 0x4B45 JUMP JUMPDEST PUSH1 0x20 PUSH1 0x40 MLOAD DUP1 DUP4 SUB DUP2 PUSH0 DUP8 GAS CALL ISZERO DUP1 ISZERO PUSH2 0xA71 JUMPI RETURNDATASIZE PUSH0 DUP1 RETURNDATACOPY RETURNDATASIZE PUSH0 REVERT JUMPDEST POP POP POP POP PUSH1 0x40 MLOAD RETURNDATASIZE PUSH1 0x1F NOT PUSH1 0x1F DUP3 ADD AND DUP3 ADD DUP1 PUSH1 0x40 MSTORE POP DUP2 ADD SWAP1 PUSH2 0xA95 SWAP2 SWAP1 PUSH2 0x4B80 JUMP JUMPDEST POP PUSH0 PUSH1 0x64 PUSH1 0x5 DUP4 PUSH2 0xAA6 SWAP2 SWAP1 PUSH2 0x4BAB JUMP JUMPDEST PUSH2 0xAB0 SWAP2 SWAP1 PUSH2 0x4C19 JUMP JUMPDEST SWAP1 POP PUSH0 PUSH1 0x64 PUSH1 0x28 DUP5 PUSH2 0xAC2 SWAP2 SWAP1 PUSH2 0x4BAB JUMP JUMPDEST PUSH2 0xACC SWAP2 SWAP1 PUSH2 0x4C19 JUMP JUMPDEST SWAP1 POP PUSH0 PUSH1 0x5 PUSH1 0x2 DUP6 PUSH2 0xADE SWAP2 SWAP1 PUSH2 0x4BAB JUMP JUMPDEST PUSH2 0xAE8 SWAP2 SWAP1 PUSH2 0x4C19 JUMP JUMPDEST SWAP1 POP PUSH0 DUP2 DUP4 DUP6 DUP8 PUSH2 0xAF9 SWAP2 SWAP1 PUSH2 0x4B12 JUMP JUMPDEST PUSH2 0xB03 SWAP2 SWAP1 PUSH2 0x4B12 JUMP JUMPDEST PUSH2 0xB0D SWAP2 SWAP1 PUSH2 0x4B12 JUMP JUMPDEST SWAP1 POP PUSH0 PUSH1 0xB ADD PUSH0 SWAP1 SLOAD SWAP1 PUSH2 0x100 EXP SWAP1 DIV PUSH20 0xFFFFFFFFFFFFFFFFFFFFFFFFFFFFFFFFFFFFFFFF AND PUSH20 0xFFFFFFFFFFFFFFFFFFFFFFFFFFFFFFFFFFFFFFFF AND PUSH4 0x23B872DD ADDRESS PUSH20 0xFFFFFFFFFFFFFFFFFFFFFFFFFFFFFFFFFFFFFFFF DUP8 PUSH1 0x40 MLOAD DUP5 PUSH4 0xFFFFFFFF AND PUSH1 0xE0 SHL DUP2 MSTORE PUSH1 0x4 ADD PUSH2 0xB83 SWAP4 SWAP3 SWAP2 SWAP1 PUSH2 0x4C49 JUMP JUMPDEST PUSH1 0x20 PUSH1 0x40 MLOAD DUP1 DUP4 SUB DUP2 PUSH0 DUP8 GAS CALL ISZERO DUP1 ISZERO PUSH2 0xB9F JUMPI RETURNDATASIZE PUSH0 DUP1 RETURNDATACOPY RETURNDATASIZE PUSH0 REVERT JUMPDEST POP POP POP POP PUSH1 0x40 MLOAD RETURNDATASIZE PUSH1 0x1F NOT PUSH1 0x1F DUP3 ADD AND DUP3 ADD DUP1 PUSH1 0x40 MSTORE POP DUP2 ADD SWAP1 PUSH2 0xBC3 SWAP2 SWAP1 PUSH2 0x4B80 JUMP JUMPDEST POP PUSH0 PUSH1 0xB ADD PUSH0 SWAP1 SLOAD SWAP1 PUSH2 0x100 EXP SWAP1 DIV PUSH20 0xFFFFFFFFFFFFFFFFFFFFFFFFFFFFFFFFFFFFFFFF AND PUSH20 0xFFFFFFFFFFFFFFFFFFFFFFFFFFFFFFFFFFFFFFFF AND PUSH4 0x23B872DD ADDRESS PUSH0 DUP1 ADD PUSH0 SWAP1 SLOAD SWAP1 PUSH2 0x100 EXP SWAP1 DIV PUSH20 0xFFFFFFFFFFFFFFFFFFFFFFFFFFFFFFFFFFFFFFFF AND DUP7 PUSH1 0x40 MLOAD DUP5 PUSH4 0xFFFFFFFF AND PUSH1 0xE0 SHL DUP2 MSTORE PUSH1 0x4 ADD PUSH2 0xC46 SWAP4 SWAP3 SWAP2 SWAP1 PUSH2 0x4C49 JUMP JUMPDEST PUSH1 0x20 PUSH1 0x40 MLOAD DUP1 DUP4 SUB DUP2 PUSH0 DUP8 GAS CALL ISZERO DUP1 ISZERO PUSH2 0xC62 JUMPI RETURNDATASIZE PUSH0 DUP1 RETURNDATACOPY RETURNDATASIZE PUSH0 REVERT JUMPDEST POP POP POP POP PUSH1 0x40 MLOAD RETURNDATASIZE PUSH1 0x1F NOT PUSH1 0x1F DUP3 ADD AND DUP3 ADD DUP1 PUSH1 0x40 MSTORE POP DUP2 ADD SWAP1 PUSH2 0xC86 SWAP2 SWAP1 PUSH2 0x4B80 JUMP JUMPDEST POP PUSH0 PUSH1 0xB ADD PUSH0 SWAP1 SLOAD SWAP1 PUSH2 0x100 EXP SWAP1 DIV PUSH20 0xFFFFFFFFFFFFFFFFFFFFFFFFFFFFFFFFFFFFFFFF AND PUSH20 0xFFFFFFFFFFFFFFFFFFFFFFFFFFFFFFFFFFFFFFFF AND PUSH4 0x23B872DD ADDRESS PUSH0 PUSH1 0x1 ADD PUSH0 SWAP1 SLOAD SWAP1 PUSH2 0x100 EXP SWAP1 DIV PUSH20 0xFFFFFFFFFFFFFFFFFFFFFFFFFFFFFFFFFFFFFFFF AND DUP6 PUSH1 0x40 MLOAD DUP5 PUSH4 0xFFFFFFFF AND PUSH1 0xE0 SHL DUP2 MSTORE PUSH1 0x4 ADD PUSH2 0xD0A SWAP4 SWAP3 SWAP2 SWAP1 PUSH2 0x4C49 JUMP JUMPDEST PUSH1 0x20 PUSH1 0x40 MLOAD DUP1 DUP4 SUB DUP2 PUSH0 DUP8 GAS CALL ISZERO DUP1 ISZERO PUSH2 0xD26 JUMPI RETURNDATASIZE PUSH0 DUP1 RETURNDATACOPY RETURNDATASIZE PUSH0 REVERT JUMPDEST POP POP POP POP PUSH1 0x40 MLOAD RETURNDATASIZE PUSH1 0x1F NOT PUSH1 0x1F DUP3 ADD AND DUP3 ADD DUP1 PUSH1 0x40 MSTORE POP DUP2 ADD SWAP1 PUSH2 0xD4A SWAP2 SWAP1 PUSH2 0x4B80 JUMP JUMPDEST POP PUSH0 PUSH1 0xB ADD PUSH0 SWAP1 SLOAD SWAP1 PUSH2 0x100 EXP SWAP1 DIV PUSH20 0xFFFFFFFFFFFFFFFFFFFFFFFFFFFFFFFFFFFFFFFF AND PUSH20 0xFFFFFFFFFFFFFFFFFFFFFFFFFFFFFFFFFFFFFFFF AND PUSH4 0x23B872DD ADDRESS PUSH0 PUSH1 0x2 ADD PUSH0 SWAP1 SLOAD SWAP1 PUSH2 0x100 EXP SWAP1 DIV PUSH20 0xFFFFFFFFFFFFFFFFFFFFFFFFFFFFFFFFFFFFFFFF AND DUP5 PUSH1 0x40 MLOAD DUP5 PUSH4 0xFFFFFFFF AND PUSH1 0xE0 SHL DUP2 MSTORE PUSH1 0x4 ADD PUSH2 0xDCE SWAP4 SWAP3 SWAP2 SWAP1 PUSH2 0x4C49 JUMP JUMPDEST PUSH1 0x20 PUSH1 0x40 MLOAD DUP1 DUP4 SUB DUP2 PUSH0 DUP8 GAS CALL ISZERO DUP1 ISZERO PUSH2 0xDEA JUMPI RETURNDATASIZE PUSH0 DUP1 RETURNDATACOPY RETURNDATASIZE PUSH0 REVERT JUMPDEST POP POP POP POP PUSH1 0x40 MLOAD RETURNDATASIZE PUSH1 0x1F NOT PUSH1 0x1F DUP3 ADD AND DUP3 ADD DUP1 PUSH1 0x40 MSTORE POP DUP2 ADD SWAP1 PUSH2 0xE0E SWAP2 SWAP1 PUSH2 0x4B80 JUMP JUMPDEST POP PUSH0 DUP1 PUSH1 0xE ADD PUSH0 DUP11 DUP2 MSTORE PUSH1 0x20 ADD SWAP1 DUP2 MSTORE PUSH1 0x20 ADD PUSH0 KECCAK256 PUSH1 0x2 ADD SLOAD SUB PUSH2 0xE88 JUMPI PUSH2 0xE34 PUSH2 0x2365 JUMP JUMPDEST PUSH0 PUSH1 0xE ADD PUSH0 DUP11 DUP2 MSTORE PUSH1 0x20 ADD SWAP1 DUP2 MSTORE PUSH1 0x20 ADD PUSH0 KECCAK256 PUSH1 0x1 ADD PUSH0 PUSH2 0x100 EXP DUP2 SLOAD DUP2 PUSH20 0xFFFFFFFFFFFFFFFFFFFFFFFFFFFFFFFFFFFFFFFF MUL NOT AND SWAP1 DUP4 PUSH20 0xFFFFFFFFFFFFFFFFFFFFFFFFFFFFFFFFFFFFFFFF AND MUL OR SWAP1 SSTORE POP JUMPDEST PUSH32 0x73AD2146B3D3A286642C794379D750360A2D53A3459A11B3E5D6CC900F55F44A PUSH28 0xFFFFFFFFFFFFFFFFFFFFFFFFFFFFFFFFFFFFFFFFFFFFFFFFFFFFFFFF NOT AND PUSH0 PUSH1 0xC ADD PUSH0 DUP11 DUP2 MSTORE PUSH1 0x20 ADD SWAP1 DUP2 MSTORE PUSH1 0x20 ADD PUSH0 KECCAK256 PUSH1 0x2 ADD PUSH0 SWAP1 SLOAD SWAP1 PUSH2 0x100 EXP SWAP1 DIV PUSH1 0xE0 SHL PUSH28 0xFFFFFFFFFFFFFFFFFFFFFFFFFFFFFFFFFFFFFFFFFFFFFFFFFFFFFFFF NOT AND SUB PUSH2 0xFB3 JUMPI DUP7 PUSH20 0xFFFFFFFFFFFFFFFFFFFFFFFFFFFFFFFFFFFFFFFF AND PUSH4 0x42842E0E ADDRESS PUSH0 PUSH1 0xE ADD PUSH0 DUP13 DUP2 MSTORE PUSH1 0x20 ADD SWAP1 DUP2 MSTORE PUSH1 0x20 ADD PUSH0 KECCAK256 PUSH1 0x1 ADD PUSH0 SWAP1 SLOAD SWAP1 PUSH2 0x100 EXP SWAP1 DIV PUSH20 0xFFFFFFFFFFFFFFFFFFFFFFFFFFFFFFFFFFFFFFFF AND DUP10 PUSH1 0x40 MLOAD DUP5 PUSH4 0xFFFFFFFF AND PUSH1 0xE0 SHL DUP2 MSTORE PUSH1 0x4 ADD PUSH2 0xF81 SWAP4 SWAP3 SWAP2 SWAP1 PUSH2 0x4C49 JUMP JUMPDEST PUSH0 PUSH1 0x40 MLOAD DUP1 DUP4 SUB DUP2 PUSH0 DUP8 DUP1 EXTCODESIZE ISZERO DUP1 ISZERO PUSH2 0xF98 JUMPI PUSH0 DUP1 REVERT JUMPDEST POP GAS CALL ISZERO DUP1 ISZERO PUSH2 0xFAA JUMPI RETURNDATASIZE PUSH0 DUP1 RETURNDATACOPY RETURNDATASIZE PUSH0 REVERT JUMPDEST POP POP POP POP PUSH2 0x118B JUMP JUMPDEST PUSH32 0x973BB64086F173EC8099B7ED3D43DA984F4A332E4417A08BC6A286E6402B0586 PUSH28 0xFFFFFFFFFFFFFFFFFFFFFFFFFFFFFFFFFFFFFFFFFFFFFFFFFFFFFFFF NOT AND PUSH0 PUSH1 0xC ADD PUSH0 DUP11 DUP2 MSTORE PUSH1 0x20 ADD SWAP1 DUP2 MSTORE PUSH1 0x20 ADD PUSH0 KECCAK256 PUSH1 0x2 ADD PUSH0 SWAP1 SLOAD SWAP1 PUSH2 0x100 EXP SWAP1 DIV PUSH1 0xE0 SHL PUSH28 0xFFFFFFFFFFFFFFFFFFFFFFFFFFFFFFFFFFFFFFFFFFFFFFFFFFFFFFFF NOT AND SUB PUSH2 0x118A JUMPI DUP7 PUSH20 0xFFFFFFFFFFFFFFFFFFFFFFFFFFFFFFFFFFFFFFFF AND PUSH4 0xF242432A ADDRESS PUSH0 PUSH1 0xE ADD PUSH0 DUP13 DUP2 MSTORE PUSH1 0x20 ADD SWAP1 DUP2 MSTORE PUSH1 0x20 ADD PUSH0 KECCAK256 PUSH1 0x1 ADD PUSH0 SWAP1 SLOAD SWAP1 PUSH2 0x100 EXP SWAP1 DIV PUSH20 0xFFFFFFFFFFFFFFFFFFFFFFFFFFFFFFFFFFFFFFFF AND DUP10 PUSH1 0x1 PUSH1 0x40 MLOAD DUP6 PUSH4 0xFFFFFFFF AND PUSH1 0xE0 SHL DUP2 MSTORE PUSH1 0x4 ADD PUSH2 0x10AF SWAP5 SWAP4 SWAP3 SWAP2 SWAP1 PUSH2 0x4CF3 JUMP JUMPDEST PUSH0 PUSH1 0x40 MLOAD DUP1 DUP4 SUB DUP2 PUSH0 DUP8 DUP1 EXTCODESIZE ISZERO DUP1 ISZERO PUSH2 0x10C6 JUMPI PUSH0 DUP1 REVERT JUMPDEST POP GAS CALL ISZERO DUP1 ISZERO PUSH2 0x10D8 JUMPI RETURNDATASIZE PUSH0 DUP1 RETURNDATACOPY RETURNDATASIZE PUSH0 REVERT JUMPDEST POP POP POP POP PUSH1 0x1 PUSH0 PUSH1 0x12 ADD PUSH0 DUP10 PUSH20 0xFFFFFFFFFFFFFFFFFFFFFFFFFFFFFFFFFFFFFFFF AND PUSH20 0xFFFFFFFFFFFFFFFFFFFFFFFFFFFFFFFFFFFFFFFF AND DUP2 MSTORE PUSH1 0x20 ADD SWAP1 DUP2 MSTORE PUSH1 0x20 ADD PUSH0 KECCAK256 PUSH0 DUP9 DUP2 MSTORE PUSH1 0x20 ADD SWAP1 DUP2 MSTORE PUSH1 0x20 ADD PUSH0 KECCAK256 SLOAD PUSH2 0x1137 SWAP2 SWAP1 PUSH2 0x4B12 JUMP JUMPDEST PUSH0 PUSH1 0x12 ADD PUSH0 DUP10 PUSH20 0xFFFFFFFFFFFFFFFFFFFFFFFFFFFFFFFFFFFFFFFF AND PUSH20 0xFFFFFFFFFFFFFFFFFFFFFFFFFFFFFFFFFFFFFFFF AND DUP2 MSTORE PUSH1 0x20 ADD SWAP1 DUP2 MSTORE PUSH1 0x20 ADD PUSH0 KECCAK256 PUSH0 DUP9 DUP2 MSTORE PUSH1 0x20 ADD SWAP1 DUP2 MSTORE PUSH1 0x20 ADD PUSH0 KECCAK256 DUP2 SWAP1 SSTORE POP JUMPDEST JUMPDEST DUP8 PUSH32 0x36C817B01BDBC20B542BCC10CA808780E14AA4C1043A66966A7692DE51DF5113 PUSH1 0x40 MLOAD PUSH1 0x40 MLOAD DUP1 SWAP2 SUB SWAP1 LOG2 POP POP POP POP POP POP POP POP JUMP JUMPDEST PUSH0 DUP1 PUSH0 PUSH1 0xE ADD PUSH0 DUP5 DUP2 MSTORE PUSH1 0x20 ADD SWAP1 DUP2 MSTORE PUSH1 0x20 ADD PUSH0 KECCAK256 PUSH1 0x9 ADD SLOAD EQ PUSH2 0x11FE JUMPI PUSH0 PUSH1 0xE ADD PUSH0 DUP4 DUP2 MSTORE PUSH1 0x20 ADD SWAP1 DUP2 MSTORE PUSH1 0x20 ADD PUSH0 KECCAK256 PUSH1 0x9 ADD SLOAD SWAP1 POP PUSH2 0x1278 JUMP JUMPDEST PUSH0 PUSH1 0x10 ADD PUSH0 DUP1 PUSH1 0xC ADD PUSH0 DUP6 DUP2 MSTORE PUSH1 0x20 ADD SWAP1 DUP2 MSTORE PUSH1 0x20 ADD PUSH0 KECCAK256 PUSH0 ADD PUSH0 SWAP1 SLOAD SWAP1 PUSH2 0x100 EXP SWAP1 DIV PUSH20 0xFFFFFFFFFFFFFFFFFFFFFFFFFFFFFFFFFFFFFFFF AND PUSH20 0xFFFFFFFFFFFFFFFFFFFFFFFFFFFFFFFFFFFFFFFF AND PUSH20 0xFFFFFFFFFFFFFFFFFFFFFFFFFFFFFFFFFFFFFFFF AND DUP2 MSTORE PUSH1 0x20 ADD SWAP1 DUP2 MSTORE PUSH1 0x20 ADD PUSH0 KECCAK256 PUSH1 0x3 ADD SLOAD SWAP1 POP JUMPDEST SWAP2 SWAP1 POP JUMP JUMPDEST PUSH0 DUP1 PUSH0 PUSH1 0xE ADD PUSH0 DUP5 DUP2 MSTORE PUSH1 0x20 ADD SWAP1 DUP2 MSTORE PUSH1 0x20 ADD PUSH0 KECCAK256 PUSH1 0x8 ADD SLOAD EQ PUSH2 0x12B9 JUMPI PUSH0 PUSH1 0xE ADD PUSH0 DUP4 DUP2 MSTORE PUSH1 0x20 ADD SWAP1 DUP2 MSTORE PUSH1 0x20 ADD PUSH0 KECCAK256 PUSH1 0x8 ADD SLOAD SWAP1 POP PUSH2 0x1333 JUMP JUMPDEST PUSH0 PUSH1 0x10 ADD PUSH0 DUP1 PUSH1 0xC ADD PUSH0 DUP6 DUP2 MSTORE PUSH1 0x20 ADD SWAP1 DUP2 MSTORE PUSH1 0x20 ADD PUSH0 KECCAK256 PUSH0 ADD PUSH0 SWAP1 SLOAD SWAP1 PUSH2 0x100 EXP SWAP1 DIV PUSH20 0xFFFFFFFFFFFFFFFFFFFFFFFFFFFFFFFFFFFFFFFF AND PUSH20 0xFFFFFFFFFFFFFFFFFFFFFFFFFFFFFFFFFFFFFFFF AND PUSH20 0xFFFFFFFFFFFFFFFFFFFFFFFFFFFFFFFFFFFFFFFF AND DUP2 MSTORE PUSH1 0x20 ADD SWAP1 DUP2 MSTORE PUSH1 0x20 ADD PUSH0 KECCAK256 PUSH1 0x2 ADD SLOAD SWAP1 POP JUMPDEST SWAP2 SWAP1 POP JUMP JUMPDEST PUSH2 0x1340 PUSH2 0x2396 JUMP JUMPDEST DUP1 PUSH0 PUSH1 0x10 ADD PUSH0 DUP5 PUSH20 0xFFFFFFFFFFFFFFFFFFFFFFFFFFFFFFFFFFFFFFFF AND PUSH20 0xFFFFFFFFFFFFFFFFFFFFFFFFFFFFFFFFFFFFFFFF AND DUP2 MSTORE PUSH1 0x20 ADD SWAP1 DUP2 MSTORE PUSH1 0x20 ADD PUSH0 KECCAK256 PUSH1 0x8 ADD PUSH0 PUSH2 0x100 EXP DUP2 SLOAD DUP2 PUSH1 0xFF MUL NOT AND SWAP1 DUP4 ISZERO ISZERO MUL OR SWAP1 SSTORE POP DUP2 PUSH20 0xFFFFFFFFFFFFFFFFFFFFFFFFFFFFFFFFFFFFFFFF AND PUSH32 0xB4EA68D808F372A5097F85B16D5E69E050D94A33668FD980F8876593BB8E571 DUP3 PUSH1 0x40 MLOAD PUSH2 0x13DF SWAP2 SWAP1 PUSH2 0x4D58 JUMP JUMPDEST PUSH1 0x40 MLOAD DUP1 SWAP2 SUB SWAP1 LOG2 POP POP JUMP JUMPDEST DUP2 TIMESTAMP GT ISZERO PUSH2 0x142E JUMPI PUSH1 0x40 MLOAD PUSH32 0x8C379A000000000000000000000000000000000000000000000000000000000 DUP2 MSTORE PUSH1 0x4 ADD PUSH2 0x1425 SWAP1 PUSH2 0x4DBB JUMP JUMPDEST PUSH1 0x40 MLOAD DUP1 SWAP2 SUB SWAP1 REVERT JUMPDEST PUSH0 CALLER DUP7 DUP7 DUP7 DUP7 PUSH1 0x40 MLOAD PUSH1 0x20 ADD PUSH2 0x1448 SWAP6 SWAP5 SWAP4 SWAP3 SWAP2 SWAP1 PUSH2 0x4E3E JUMP JUMPDEST PUSH1 0x40 MLOAD PUSH1 0x20 DUP2 DUP4 SUB SUB DUP2 MSTORE SWAP1 PUSH1 0x40 MSTORE DUP1 MLOAD SWAP1 PUSH1 0x20 ADD KECCAK256 SWAP1 POP PUSH2 0x14F5 DUP2 DUP4 PUSH0 PUSH1 0x13 ADD DUP1 SLOAD PUSH2 0x1474 SWAP1 PUSH2 0x4EC9 JUMP JUMPDEST DUP1 PUSH1 0x1F ADD PUSH1 0x20 DUP1 SWAP2 DIV MUL PUSH1 0x20 ADD PUSH1 0x40 MLOAD SWAP1 DUP2 ADD PUSH1 0x40 MSTORE DUP1 SWAP3 SWAP2 SWAP1 DUP2 DUP2 MSTORE PUSH1 0x20 ADD DUP3 DUP1 SLOAD PUSH2 0x14A0 SWAP1 PUSH2 0x4EC9 JUMP JUMPDEST DUP1 ISZERO PUSH2 0x14EB JUMPI DUP1 PUSH1 0x1F LT PUSH2 0x14C2 JUMPI PUSH2 0x100 DUP1 DUP4 SLOAD DIV MUL DUP4 MSTORE SWAP2 PUSH1 0x20 ADD SWAP2 PUSH2 0x14EB JUMP JUMPDEST DUP3 ADD SWAP2 SWAP1 PUSH0 MSTORE PUSH1 0x20 PUSH0 KECCAK256 SWAP1 JUMPDEST DUP2 SLOAD DUP2 MSTORE SWAP1 PUSH1 0x1 ADD SWAP1 PUSH1 0x20 ADD DUP1 DUP4 GT PUSH2 0x14CE JUMPI DUP3 SWAP1 SUB PUSH1 0x1F AND DUP3 ADD SWAP2 JUMPDEST POP POP POP POP POP PUSH2 0x2430 JUMP JUMPDEST PUSH2 0x1534 JUMPI PUSH1 0x40 MLOAD PUSH32 0x8C379A000000000000000000000000000000000000000000000000000000000 DUP2 MSTORE PUSH1 0x4 ADD PUSH2 0x152B SWAP1 PUSH2 0x4F43 JUMP JUMPDEST PUSH1 0x40 MLOAD DUP1 SWAP2 SUB SWAP1 REVERT JUMPDEST PUSH2 0x153F DUP7 DUP7 DUP7 PUSH2 0x2538 JUMP JUMPDEST POP POP POP POP POP POP JUMP JUMPDEST PUSH0 DUP1 PUSH1 0xD ADD PUSH0 DUP5 PUSH20 0xFFFFFFFFFFFFFFFFFFFFFFFFFFFFFFFFFFFFFFFF AND PUSH20 0xFFFFFFFFFFFFFFFFFFFFFFFFFFFFFFFFFFFFFFFF AND DUP2 MSTORE PUSH1 0x20 ADD SWAP1 DUP2 MSTORE PUSH1 0x20 ADD PUSH0 KECCAK256 PUSH0 DUP4 DUP2 MSTORE PUSH1 0x20 ADD SWAP1 DUP2 MSTORE PUSH1 0x20 ADD PUSH0 KECCAK256 PUSH0 DUP1 DUP2 MSTORE PUSH1 0x20 ADD SWAP1 DUP2 MSTORE PUSH1 0x20 ADD PUSH0 KECCAK256 SLOAD SWAP1 POP SWAP3 SWAP2 POP POP JUMP JUMPDEST PUSH0 DUP1 PUSH1 0xE ADD PUSH0 DUP4 DUP2 MSTORE PUSH1 0x20 ADD SWAP1 DUP2 MSTORE PUSH1 0x20 ADD PUSH0 KECCAK256 PUSH1 0x3 ADD SLOAD SWAP1 POP SWAP2 SWAP1 POP JUMP JUMPDEST PUSH2 0x15D5 PUSH2 0x2396 JUMP JUMPDEST PUSH2 0x15DE DUP5 PUSH2 0x1DD1 JUMP JUMPDEST DUP4 PUSH20 0xFFFFFFFFFFFFFFFFFFFFFFFFFFFFFFFFFFFFFFFF AND PUSH4 0xF242432A CALLER DUP9 DUP7 DUP7 DUP7 PUSH2 0x1609 SWAP2 SWAP1 PUSH2 0x4B12 JUMP JUMPDEST PUSH1 0x40 MLOAD DUP6 PUSH4 0xFFFFFFFF AND PUSH1 0xE0 SHL DUP2 MSTORE PUSH1 0x4 ADD PUSH2 0x1628 SWAP5 SWAP4 SWAP3 SWAP2 SWAP1 PUSH2 0x4F61 JUMP JUMPDEST PUSH0 PUSH1 0x40 MLOAD DUP1 DUP4 SUB DUP2 PUSH0 DUP8 DUP1 EXTCODESIZE ISZERO DUP1 ISZERO PUSH2 0x163F JUMPI PUSH0 DUP1 REVERT JUMPDEST POP GAS CALL ISZERO DUP1 ISZERO PUSH2 0x1651 JUMPI RETURNDATASIZE PUSH0 DUP1 RETURNDATACOPY RETURNDATASIZE PUSH0 REVERT JUMPDEST POP POP POP POP JUMPDEST DUP1 DUP3 LT ISZERO PUSH2 0x169D JUMPI PUSH2 0x168A DUP5 DUP5 PUSH32 0x973BB64086F173EC8099B7ED3D43DA984F4A332E4417A08BC6A286E6402B0586 DUP9 PUSH2 0x181A JUMP JUMPDEST DUP2 DUP1 PUSH2 0x1695 SWAP1 PUSH2 0x4FB7 JUMP JUMPDEST SWAP3 POP POP PUSH2 0x1656 JUMP JUMPDEST POP POP POP POP POP POP JUMP JUMPDEST PUSH0 DUP1 PUSH0 PUSH1 0xE ADD PUSH0 DUP5 DUP2 MSTORE PUSH1 0x20 ADD SWAP1 DUP2 MSTORE PUSH1 0x20 ADD PUSH0 KECCAK256 PUSH1 0x6 ADD SLOAD EQ PUSH2 0x16E1 JUMPI PUSH0 PUSH1 0xE ADD PUSH0 DUP4 DUP2 MSTORE PUSH1 0x20 ADD SWAP1 DUP2 MSTORE PUSH1 0x20 ADD PUSH0 KECCAK256 PUSH1 0x6 ADD SLOAD SWAP1 POP PUSH2 0x175A JUMP JUMPDEST PUSH0 PUSH1 0x10 ADD PUSH0 DUP1 PUSH1 0xC ADD PUSH0 DUP6 DUP2 MSTORE PUSH1 0x20 ADD SWAP1 DUP2 MSTORE PUSH1 0x20 ADD PUSH0 KECCAK256 PUSH0 ADD PUSH0 SWAP1 SLOAD SWAP1 PUSH2 0x100 EXP SWAP1 DIV PUSH20 0xFFFFFFFFFFFFFFFFFFFFFFFFFFFFFFFFFFFFFFFF AND PUSH20 0xFFFFFFFFFFFFFFFFFFFFFFFFFFFFFFFFFFFFFFFF AND PUSH20 0xFFFFFFFFFFFFFFFFFFFFFFFFFFFFFFFFFFFFFFFF AND DUP2 MSTORE PUSH1 0x20 ADD SWAP1 DUP2 MSTORE PUSH1 0x20 ADD PUSH0 KECCAK256 PUSH0 ADD SLOAD SWAP1 POP JUMPDEST SWAP2 SWAP1 POP JUMP JUMPDEST PUSH0 DUP1 PUSH0 PUSH1 0xE ADD PUSH0 DUP5 DUP2 MSTORE PUSH1 0x20 ADD SWAP1 DUP2 MSTORE PUSH1 0x20 ADD PUSH0 KECCAK256 PUSH1 0x7 ADD SLOAD EQ PUSH2 0x179B JUMPI PUSH0 PUSH1 0xE ADD PUSH0 DUP4 DUP2 MSTORE PUSH1 0x20 ADD SWAP1 DUP2 MSTORE PUSH1 0x20 ADD PUSH0 KECCAK256 PUSH1 0x7 ADD SLOAD SWAP1 POP PUSH2 0x1815 JUMP JUMPDEST PUSH0 PUSH1 0x10 ADD PUSH0 DUP1 PUSH1 0xC ADD PUSH0 DUP6 DUP2 MSTORE PUSH1 0x20 ADD SWAP1 DUP2 MSTORE PUSH1 0x20 ADD PUSH0 KECCAK256 PUSH0 ADD PUSH0 SWAP1 SLOAD SWAP1 PUSH2 0x100 EXP SWAP1 DIV PUSH20 0xFFFFFFFFFFFFFFFFFFFFFFFFFFFFFFFFFFFFFFFF AND PUSH20 0xFFFFFFFFFFFFFFFFFFFFFFFFFFFFFFFFFFFFFFFF AND PUSH20 0xFFFFFFFFFFFFFFFFFFFFFFFFFFFFFFFFFFFFFFFF AND DUP2 MSTORE PUSH1 0x20 ADD SWAP1 DUP2 MSTORE PUSH1 0x20 ADD PUSH0 KECCAK256 PUSH1 0x1 ADD SLOAD SWAP1 POP JUMPDEST SWAP2 SWAP1 POP JUMP JUMPDEST PUSH2 0x1822 PUSH2 0x2396 JUMP JUMPDEST PUSH2 0x1830 DUP5 DUP5 DUP5 DUP5 PUSH0 DUP1 PUSH2 0x2E84 JUMP JUMPDEST POP POP POP POP JUMP JUMPDEST PUSH0 DUP1 PUSH1 0xC ADD PUSH0 DUP4 DUP2 MSTORE PUSH1 0x20 ADD SWAP1 DUP2 MSTORE PUSH1 0x20 ADD PUSH0 KECCAK256 PUSH0 ADD PUSH0 SWAP1 SLOAD SWAP1 PUSH2 0x100 EXP SWAP1 DIV PUSH20 0xFFFFFFFFFFFFFFFFFFFFFFFFFFFFFFFFFFFFFFFF AND SWAP1 POP SWAP2 SWAP1 POP JUMP JUMPDEST PUSH0 PUSH32 0xBC197C819B3E337A6F9652DD10BECD7EEF83032AF3B9D958D3D42F6694146621 SWAP1 POP SWAP9 SWAP8 POP POP POP POP POP POP POP POP JUMP JUMPDEST PUSH0 JUMPDEST DUP2 MLOAD DUP2 LT ISZERO PUSH2 0x18E4 JUMPI PUSH2 0x18D1 DUP3 DUP3 DUP2 MLOAD DUP2 LT PUSH2 0x18C4 JUMPI PUSH2 0x18C3 PUSH2 0x4FFE JUMP JUMPDEST JUMPDEST PUSH1 0x20 MUL PUSH1 0x20 ADD ADD MLOAD PUSH2 0x7B1 JUMP JUMPDEST DUP1 DUP1 PUSH2 0x18DC SWAP1 PUSH2 0x4FB7 JUMP JUMPDEST SWAP2 POP POP PUSH2 0x18A5 JUMP JUMPDEST POP POP JUMP JUMPDEST PUSH0 DUP1 PUSH1 0xE ADD PUSH0 DUP4 DUP2 MSTORE PUSH1 0x20 ADD SWAP1 DUP2 MSTORE PUSH1 0x20 ADD PUSH0 KECCAK256 PUSH1 0x2 ADD SLOAD SWAP1 POP SWAP2 SWAP1 POP JUMP JUMPDEST PUSH2 0x190F PUSH2 0x2396 JUMP JUMPDEST DUP1 PUSH0 PUSH1 0x1 ADD PUSH0 PUSH2 0x100 EXP DUP2 SLOAD DUP2 PUSH20 0xFFFFFFFFFFFFFFFFFFFFFFFFFFFFFFFFFFFFFFFF MUL NOT AND SWAP1 DUP4 PUSH20 0xFFFFFFFFFFFFFFFFFFFFFFFFFFFFFFFFFFFFFFFF AND MUL OR SWAP1 SSTORE POP POP JUMP JUMPDEST PUSH0 DUP1 PUSH0 PUSH1 0xE ADD PUSH0 DUP5 DUP2 MSTORE PUSH1 0x20 ADD SWAP1 DUP2 MSTORE PUSH1 0x20 ADD PUSH0 KECCAK256 PUSH1 0xD ADD SLOAD EQ PUSH2 0x1990 JUMPI PUSH0 PUSH1 0xE ADD PUSH0 DUP4 DUP2 MSTORE PUSH1 0x20 ADD SWAP1 DUP2 MSTORE PUSH1 0x20 ADD PUSH0 KECCAK256 PUSH1 0xD ADD SLOAD SWAP1 POP PUSH2 0x1A0A JUMP JUMPDEST PUSH0 PUSH1 0x10 ADD PUSH0 DUP1 PUSH1 0xC ADD PUSH0 DUP6 DUP2 MSTORE PUSH1 0x20 ADD SWAP1 DUP2 MSTORE PUSH1 0x20 ADD PUSH0 KECCAK256 PUSH0 ADD PUSH0 SWAP1 SLOAD SWAP1 PUSH2 0x100 EXP SWAP1 DIV PUSH20 0xFFFFFFFFFFFFFFFFFFFFFFFFFFFFFFFFFFFFFFFF AND PUSH20 0xFFFFFFFFFFFFFFFFFFFFFFFFFFFFFFFFFFFFFFFF AND PUSH20 0xFFFFFFFFFFFFFFFFFFFFFFFFFFFFFFFFFFFFFFFF AND DUP2 MSTORE PUSH1 0x20 ADD SWAP1 DUP2 MSTORE PUSH1 0x20 ADD PUSH0 KECCAK256 PUSH1 0x7 ADD SLOAD SWAP1 POP JUMPDEST SWAP2 SWAP1 POP JUMP JUMPDEST PUSH0 DUP1 PUSH0 PUSH1 0xE ADD PUSH0 DUP5 DUP2 MSTORE PUSH1 0x20 ADD SWAP1 DUP2 MSTORE PUSH1 0x20 ADD PUSH0 KECCAK256 PUSH1 0xC ADD SLOAD EQ PUSH2 0x1A4B JUMPI PUSH0 PUSH1 0xE ADD PUSH0 DUP4 DUP2 MSTORE PUSH1 0x20 ADD SWAP1 DUP2 MSTORE PUSH1 0x20 ADD PUSH0 KECCAK256 PUSH1 0xC ADD SLOAD SWAP1 POP PUSH2 0x1AC5 JUMP JUMPDEST PUSH0 PUSH1 0x10 ADD PUSH0 DUP1 PUSH1 0xC ADD PUSH0 DUP6 DUP2 MSTORE PUSH1 0x20 ADD SWAP1 DUP2 MSTORE PUSH1 0x20 ADD PUSH0 KECCAK256 PUSH0 ADD PUSH0 SWAP1 SLOAD SWAP1 PUSH2 0x100 EXP SWAP1 DIV PUSH20 0xFFFFFFFFFFFFFFFFFFFFFFFFFFFFFFFFFFFFFFFF AND PUSH20 0xFFFFFFFFFFFFFFFFFFFFFFFFFFFFFFFFFFFFFFFF AND PUSH20 0xFFFFFFFFFFFFFFFFFFFFFFFFFFFFFFFFFFFFFFFF AND DUP2 MSTORE PUSH1 0x20 ADD SWAP1 DUP2 MSTORE PUSH1 0x20 ADD PUSH0 KECCAK256 PUSH1 0x6 ADD SLOAD SWAP1 POP JUMPDEST SWAP2 SWAP1 POP JUMP JUMPDEST PUSH0 DUP1 PUSH1 0xE ADD PUSH0 DUP4 DUP2 MSTORE PUSH1 0x20 ADD SWAP1 DUP2 MSTORE PUSH1 0x20 ADD PUSH0 KECCAK256 PUSH1 0x1 ADD PUSH0 SWAP1 SLOAD SWAP1 PUSH2 0x100 EXP SWAP1 DIV PUSH20 0xFFFFFFFFFFFFFFFFFFFFFFFFFFFFFFFFFFFFFFFF AND SWAP1 POP SWAP2 SWAP1 POP JUMP JUMPDEST PUSH0 DUP1 PUSH0 PUSH1 0xE ADD PUSH0 DUP5 DUP2 MSTORE PUSH1 0x20 ADD SWAP1 DUP2 MSTORE PUSH1 0x20 ADD PUSH0 KECCAK256 PUSH1 0xA ADD SLOAD EQ PUSH2 0x1B44 JUMPI PUSH0 PUSH1 0xE ADD PUSH0 DUP4 DUP2 MSTORE PUSH1 0x20 ADD SWAP1 DUP2 MSTORE PUSH1 0x20 ADD PUSH0 KECCAK256 PUSH1 0xA ADD SLOAD SWAP1 POP PUSH2 0x1BBE JUMP JUMPDEST PUSH0 PUSH1 0x10 ADD PUSH0 DUP1 PUSH1 0xC ADD PUSH0 DUP6 DUP2 MSTORE PUSH1 0x20 ADD SWAP1 DUP2 MSTORE PUSH1 0x20 ADD PUSH0 KECCAK256 PUSH0 ADD PUSH0 SWAP1 SLOAD SWAP1 PUSH2 0x100 EXP SWAP1 DIV PUSH20 0xFFFFFFFFFFFFFFFFFFFFFFFFFFFFFFFFFFFFFFFF AND PUSH20 0xFFFFFFFFFFFFFFFFFFFFFFFFFFFFFFFFFFFFFFFF AND PUSH20 0xFFFFFFFFFFFFFFFFFFFFFFFFFFFFFFFFFFFFFFFF AND DUP2 MSTORE PUSH1 0x20 ADD SWAP1 DUP2 MSTORE PUSH1 0x20 ADD PUSH0 KECCAK256 PUSH1 0x4 ADD SLOAD SWAP1 POP JUMPDEST SWAP2 SWAP1 POP JUMP JUMPDEST PUSH0 DUP1 PUSH0 PUSH1 0xE ADD PUSH0 DUP5 DUP2 MSTORE PUSH1 0x20 ADD SWAP1 DUP2 MSTORE PUSH1 0x20 ADD PUSH0 KECCAK256 PUSH1 0xB ADD SLOAD EQ PUSH2 0x1BFF JUMPI PUSH0 PUSH1 0xE ADD PUSH0 DUP4 DUP2 MSTORE PUSH1 0x20 ADD SWAP1 DUP2 MSTORE PUSH1 0x20 ADD PUSH0 KECCAK256 PUSH1 0xB ADD SLOAD SWAP1 POP PUSH2 0x1C79 JUMP JUMPDEST PUSH0 PUSH1 0x10 ADD PUSH0 DUP1 PUSH1 0xC ADD PUSH0 DUP6 DUP2 MSTORE PUSH1 0x20 ADD SWAP1 DUP2 MSTORE PUSH1 0x20 ADD PUSH0 KECCAK256 PUSH0 ADD PUSH0 SWAP1 SLOAD SWAP1 PUSH2 0x100 EXP SWAP1 DIV PUSH20 0xFFFFFFFFFFFFFFFFFFFFFFFFFFFFFFFFFFFFFFFF AND PUSH20 0xFFFFFFFFFFFFFFFFFFFFFFFFFFFFFFFFFFFFFFFF AND PUSH20 0xFFFFFFFFFFFFFFFFFFFFFFFFFFFFFFFFFFFFFFFF AND DUP2 MSTORE PUSH1 0x20 ADD SWAP1 DUP2 MSTORE PUSH1 0x20 ADD PUSH0 KECCAK256 PUSH1 0x5 ADD SLOAD SWAP1 POP JUMPDEST SWAP2 SWAP1 POP JUMP JUMPDEST PUSH2 0x1C86 PUSH2 0x2396 JUMP JUMPDEST PUSH0 DUP2 MLOAD GT PUSH2 0x1CC9 JUMPI PUSH1 0x40 MLOAD PUSH32 0x8C379A000000000000000000000000000000000000000000000000000000000 DUP2 MSTORE PUSH1 0x4 ADD PUSH2 0x1CC0 SWAP1 PUSH2 0x5075 JUMP JUMPDEST PUSH1 0x40 MLOAD DUP1 SWAP2 SUB SWAP1 REVERT JUMPDEST PUSH0 JUMPDEST DUP2 MLOAD DUP2 LT ISZERO PUSH2 0x1D9C JUMPI PUSH0 DUP3 DUP3 DUP2 MLOAD DUP2 LT PUSH2 0x1CE8 JUMPI PUSH2 0x1CE7 PUSH2 0x4FFE JUMP JUMPDEST JUMPDEST PUSH1 0x20 MUL PUSH1 0x20 ADD ADD MLOAD SWAP1 POP DUP4 PUSH20 0xFFFFFFFFFFFFFFFFFFFFFFFFFFFFFFFFFFFFFFFF AND PUSH4 0xB88D4FDE CALLER DUP9 DUP5 PUSH1 0x40 MLOAD DUP5 PUSH4 0xFFFFFFFF AND PUSH1 0xE0 SHL DUP2 MSTORE PUSH1 0x4 ADD PUSH2 0x1D2F SWAP4 SWAP3 SWAP2 SWAP1 PUSH2 0x5093 JUMP JUMPDEST PUSH0 PUSH1 0x40 MLOAD DUP1 DUP4 SUB DUP2 PUSH0 DUP8 DUP1 EXTCODESIZE ISZERO DUP1 ISZERO PUSH2 0x1D46 JUMPI PUSH0 DUP1 REVERT JUMPDEST POP GAS CALL ISZERO DUP1 ISZERO PUSH2 0x1D58 JUMPI RETURNDATASIZE PUSH0 DUP1 RETURNDATACOPY RETURNDATASIZE PUSH0 REVERT JUMPDEST POP POP POP POP PUSH2 0x1D88 DUP5 DUP3 PUSH32 0x73AD2146B3D3A286642C794379D750360A2D53A3459A11B3E5D6CC900F55F44A DUP9 PUSH2 0x181A JUMP JUMPDEST POP DUP1 DUP1 PUSH2 0x1D94 SWAP1 PUSH2 0x4FB7 JUMP JUMPDEST SWAP2 POP POP PUSH2 0x1CCB JUMP JUMPDEST POP POP POP POP POP JUMP JUMPDEST PUSH0 PUSH32 0xF23A6E612E1FF4830E658FE43F4E3CB4A5F8170BD5D9E69FB5D7A7FA9E4FDF97 SWAP1 POP SWAP7 SWAP6 POP POP POP POP POP POP JUMP JUMPDEST PUSH2 0x1DD9 PUSH2 0x2396 JUMP JUMPDEST PUSH0 PUSH1 0x3 ADD PUSH0 ADD SLOAD PUSH0 PUSH1 0x10 ADD PUSH0 DUP4 PUSH20 0xFFFFFFFFFFFFFFFFFFFFFFFFFFFFFFFFFFFFFFFF AND PUSH20 0xFFFFFFFFFFFFFFFFFFFFFFFFFFFFFFFFFFFFFFFF AND DUP2 MSTORE PUSH1 0x20 ADD SWAP1 DUP2 MSTORE PUSH1 0x20 ADD PUSH0 KECCAK256 PUSH0 ADD DUP2 SWAP1 SSTORE POP PUSH0 PUSH1 0x3 ADD PUSH1 0x1 ADD SLOAD PUSH0 PUSH1 0x10 ADD PUSH0 DUP4 PUSH20 0xFFFFFFFFFFFFFFFFFFFFFFFFFFFFFFFFFFFFFFFF AND PUSH20 0xFFFFFFFFFFFFFFFFFFFFFFFFFFFFFFFFFFFFFFFF AND DUP2 MSTORE PUSH1 0x20 ADD SWAP1 DUP2 MSTORE PUSH1 0x20 ADD PUSH0 KECCAK256 PUSH1 0x1 ADD DUP2 SWAP1 SSTORE POP PUSH0 PUSH1 0x3 ADD PUSH1 0x2 ADD SLOAD PUSH0 PUSH1 0x10 ADD PUSH0 DUP4 PUSH20 0xFFFFFFFFFFFFFFFFFFFFFFFFFFFFFFFFFFFFFFFF AND PUSH20 0xFFFFFFFFFFFFFFFFFFFFFFFFFFFFFFFFFFFFFFFF AND DUP2 MSTORE PUSH1 0x20 ADD SWAP1 DUP2 MSTORE PUSH1 0x20 ADD PUSH0 KECCAK256 PUSH1 0x2 ADD DUP2 SWAP1 SSTORE POP PUSH0 PUSH1 0x3 ADD PUSH1 0x3 ADD SLOAD PUSH0 PUSH1 0x10 ADD PUSH0 DUP4 PUSH20 0xFFFFFFFFFFFFFFFFFFFFFFFFFFFFFFFFFFFFFFFF AND PUSH20 0xFFFFFFFFFFFFFFFFFFFFFFFFFFFFFFFFFFFFFFFF AND DUP2 MSTORE PUSH1 0x20 ADD SWAP1 DUP2 MSTORE PUSH1 0x20 ADD PUSH0 KECCAK256 PUSH1 0x3 ADD DUP2 SWAP1 SSTORE POP PUSH0 PUSH1 0x3 ADD PUSH1 0x4 ADD SLOAD PUSH0 PUSH1 0x10 ADD PUSH0 DUP4 PUSH20 0xFFFFFFFFFFFFFFFFFFFFFFFFFFFFFFFFFFFFFFFF AND PUSH20 0xFFFFFFFFFFFFFFFFFFFFFFFFFFFFFFFFFFFFFFFF AND DUP2 MSTORE PUSH1 0x20 ADD SWAP1 DUP2 MSTORE PUSH1 0x20 ADD PUSH0 KECCAK256 PUSH1 0x4 ADD DUP2 SWAP1 SSTORE POP PUSH0 PUSH1 0x3 ADD PUSH1 0x5 ADD SLOAD PUSH0 PUSH1 0x10 ADD PUSH0 DUP4 PUSH20 0xFFFFFFFFFFFFFFFFFFFFFFFFFFFFFFFFFFFFFFFF AND PUSH20 0xFFFFFFFFFFFFFFFFFFFFFFFFFFFFFFFFFFFFFFFF AND DUP2 MSTORE PUSH1 0x20 ADD SWAP1 DUP2 MSTORE PUSH1 0x20 ADD PUSH0 KECCAK256 PUSH1 0x5 ADD DUP2 SWAP1 SSTORE POP PUSH0 PUSH1 0x3 ADD PUSH1 0x6 ADD SLOAD PUSH0 PUSH1 0x10 ADD PUSH0 DUP4 PUSH20 0xFFFFFFFFFFFFFFFFFFFFFFFFFFFFFFFFFFFFFFFF AND PUSH20 0xFFFFFFFFFFFFFFFFFFFFFFFFFFFFFFFFFFFFFFFF AND DUP2 MSTORE PUSH1 0x20 ADD SWAP1 DUP2 MSTORE PUSH1 0x20 ADD PUSH0 KECCAK256 PUSH1 0x6 ADD DUP2 SWAP1 SSTORE POP PUSH0 PUSH1 0x3 ADD PUSH1 0x7 ADD SLOAD PUSH0 PUSH1 0x10 ADD PUSH0 DUP4 PUSH20 0xFFFFFFFFFFFFFFFFFFFFFFFFFFFFFFFFFFFFFFFF AND PUSH20 0xFFFFFFFFFFFFFFFFFFFFFFFFFFFFFFFFFFFFFFFF AND DUP2 MSTORE PUSH1 0x20 ADD SWAP1 DUP2 MSTORE PUSH1 0x20 ADD PUSH0 KECCAK256 PUSH1 0x7 ADD DUP2 SWAP1 SSTORE POP POP JUMP JUMPDEST PUSH0 DUP1 PUSH1 0xD ADD PUSH0 DUP6 PUSH20 0xFFFFFFFFFFFFFFFFFFFFFFFFFFFFFFFFFFFFFFFF AND PUSH20 0xFFFFFFFFFFFFFFFFFFFFFFFFFFFFFFFFFFFFFFFF AND DUP2 MSTORE PUSH1 0x20 ADD SWAP1 DUP2 MSTORE PUSH1 0x20 ADD PUSH0 KECCAK256 PUSH0 DUP5 DUP2 MSTORE PUSH1 0x20 ADD SWAP1 DUP2 MSTORE PUSH1 0x20 ADD PUSH0 KECCAK256 PUSH0 DUP4 DUP2 MSTORE PUSH1 0x20 ADD SWAP1 DUP2 MSTORE PUSH1 0x20 ADD PUSH0 KECCAK256 SLOAD SWAP1 POP SWAP4 SWAP3 POP POP POP JUMP JUMPDEST PUSH2 0x20BA PUSH2 0x3CC9 JUMP JUMPDEST PUSH0 PUSH1 0xE ADD PUSH0 DUP4 DUP2 MSTORE PUSH1 0x20 ADD SWAP1 DUP2 MSTORE PUSH1 0x20 ADD PUSH0 KECCAK256 PUSH1 0x40 MLOAD DUP1 PUSH2 0x1E0 ADD PUSH1 0x40 MSTORE SWAP1 DUP2 PUSH0 DUP3 ADD PUSH0 SWAP1 SLOAD SWAP1 PUSH2 0x100 EXP SWAP1 DIV PUSH20 0xFFFFFFFFFFFFFFFFFFFFFFFFFFFFFFFFFFFFFFFF AND PUSH20 0xFFFFFFFFFFFFFFFFFFFFFFFFFFFFFFFFFFFFFFFF AND PUSH20 0xFFFFFFFFFFFFFFFFFFFFFFFFFFFFFFFFFFFFFFFF AND DUP2 MSTORE PUSH1 0x20 ADD PUSH1 0x1 DUP3 ADD PUSH0 SWAP1 SLOAD SWAP1 PUSH2 0x100 EXP SWAP1 DIV PUSH20 0xFFFFFFFFFFFFFFFFFFFFFFFFFFFFFFFFFFFFFFFF AND PUSH20 0xFFFFFFFFFFFFFFFFFFFFFFFFFFFFFFFFFFFFFFFF AND PUSH20 0xFFFFFFFFFFFFFFFFFFFFFFFFFFFFFFFFFFFFFFFF AND DUP2 MSTORE PUSH1 0x20 ADD PUSH1 0x2 DUP3 ADD SLOAD DUP2 MSTORE PUSH1 0x20 ADD PUSH1 0x3 DUP3 ADD SLOAD DUP2 MSTORE PUSH1 0x20 ADD PUSH1 0x4 DUP3 ADD SLOAD DUP2 MSTORE PUSH1 0x20 ADD PUSH1 0x5 DUP3 ADD PUSH0 SWAP1 SLOAD SWAP1 PUSH2 0x100 EXP SWAP1 DIV PUSH20 0xFFFFFFFFFFFFFFFFFFFFFFFFFFFFFFFFFFFFFFFF AND PUSH20 0xFFFFFFFFFFFFFFFFFFFFFFFFFFFFFFFFFFFFFFFF AND PUSH20 0xFFFFFFFFFFFFFFFFFFFFFFFFFFFFFFFFFFFFFFFF AND DUP2 MSTORE PUSH1 0x20 ADD PUSH1 0x6 DUP3 ADD SLOAD DUP2 MSTORE PUSH1 0x20 ADD PUSH1 0x7 DUP3 ADD SLOAD DUP2 MSTORE PUSH1 0x20 ADD PUSH1 0x8 DUP3 ADD SLOAD DUP2 MSTORE PUSH1 0x20 ADD PUSH1 0x9 DUP3 ADD SLOAD DUP2 MSTORE PUSH1 0x20 ADD PUSH1 0xA DUP3 ADD SLOAD DUP2 MSTORE PUSH1 0x20 ADD PUSH1 0xB DUP3 ADD SLOAD DUP2 MSTORE PUSH1 0x20 ADD PUSH1 0xC DUP3 ADD SLOAD DUP2 MSTORE PUSH1 0x20 ADD PUSH1 0xD DUP3 ADD SLOAD DUP2 MSTORE PUSH1 0x20 ADD PUSH1 0xE DUP3 ADD PUSH0 SWAP1 SLOAD SWAP1 PUSH2 0x100 EXP SWAP1 DIV PUSH1 0xFF AND ISZERO ISZERO ISZERO ISZERO DUP2 MSTORE POP POP SWAP1 POP PUSH0 PUSH1 0xC ADD PUSH0 DUP4 DUP2 MSTORE PUSH1 0x20 ADD SWAP1 DUP2 MSTORE PUSH1 0x20 ADD PUSH0 KECCAK256 PUSH0 ADD PUSH0 SWAP1 SLOAD SWAP1 PUSH2 0x100 EXP SWAP1 DIV PUSH20 0xFFFFFFFFFFFFFFFFFFFFFFFFFFFFFFFFFFFFFFFF AND DUP2 PUSH1 0xA0 ADD SWAP1 PUSH20 0xFFFFFFFFFFFFFFFFFFFFFFFFFFFFFFFFFFFFFFFF AND SWAP1 DUP2 PUSH20 0xFFFFFFFFFFFFFFFFFFFFFFFFFFFFFFFFFFFFFFFF AND DUP2 MSTORE POP POP PUSH0 PUSH1 0x10 ADD PUSH0 DUP1 PUSH1 0xC ADD PUSH0 DUP6 DUP2 MSTORE PUSH1 0x20 ADD SWAP1 DUP2 MSTORE PUSH1 0x20 ADD PUSH0 KECCAK256 PUSH0 ADD PUSH0 SWAP1 SLOAD SWAP1 PUSH2 0x100 EXP SWAP1 DIV PUSH20 0xFFFFFFFFFFFFFFFFFFFFFFFFFFFFFFFFFFFFFFFF AND PUSH20 0xFFFFFFFFFFFFFFFFFFFFFFFFFFFFFFFFFFFFFFFF AND PUSH20 0xFFFFFFFFFFFFFFFFFFFFFFFFFFFFFFFFFFFFFFFF AND DUP2 MSTORE PUSH1 0x20 ADD SWAP1 DUP2 MSTORE PUSH1 0x20 ADD PUSH0 KECCAK256 PUSH1 0x8 ADD PUSH0 SWAP1 SLOAD SWAP1 PUSH2 0x100 EXP SWAP1 DIV PUSH1 0xFF AND DUP2 PUSH2 0x1C0 ADD SWAP1 ISZERO ISZERO SWAP1 DUP2 ISZERO ISZERO DUP2 MSTORE POP POP SWAP2 SWAP1 POP JUMP JUMPDEST PUSH0 PUSH2 0x236E PUSH2 0x3AE9 JUMP JUMPDEST PUSH1 0x4 ADD PUSH0 SWAP1 SLOAD SWAP1 PUSH2 0x100 EXP SWAP1 DIV PUSH20 0xFFFFFFFFFFFFFFFFFFFFFFFFFFFFFFFFFFFFFFFF AND SWAP1 POP SWAP1 JUMP JUMPDEST PUSH2 0x239E PUSH2 0x3AE9 JUMP JUMPDEST PUSH1 0x4 ADD PUSH0 SWAP1 SLOAD SWAP1 PUSH2 0x100 EXP SWAP1 DIV PUSH20 0xFFFFFFFFFFFFFFFFFFFFFFFFFFFFFFFFFFFFFFFF AND PUSH20 0xFFFFFFFFFFFFFFFFFFFFFFFFFFFFFFFFFFFFFFFF AND CALLER PUSH20 0xFFFFFFFFFFFFFFFFFFFFFFFFFFFFFFFFFFFFFFFF AND EQ PUSH2 0x242E JUMPI PUSH1 0x40 MLOAD PUSH32 0x8C379A000000000000000000000000000000000000000000000000000000000 DUP2 MSTORE PUSH1 0x4 ADD PUSH2 0x2425 SWAP1 PUSH2 0x514B JUMP JUMPDEST PUSH1 0x40 MLOAD DUP1 SWAP2 SUB SWAP1 REVERT JUMPDEST JUMP JUMPDEST PUSH0 DUP1 PUSH0 DUP1 PUSH1 0x41 DUP7 MLOAD EQ PUSH2 0x2448 JUMPI PUSH0 SWAP4 POP POP POP POP PUSH2 0x2531 JUMP JUMPDEST PUSH1 0x20 DUP7 ADD MLOAD SWAP3 POP PUSH1 0x40 DUP7 ADD MLOAD SWAP2 POP PUSH1 0x60 DUP7 ADD MLOAD PUSH0 BYTE SWAP1 POP PUSH1 0x1B DUP2 PUSH1 0xFF AND LT ISZERO PUSH2 0x247B JUMPI PUSH1 0x1B DUP2 PUSH2 0x2478 SWAP2 SWAP1 PUSH2 0x5175 JUMP JUMPDEST SWAP1 POP JUMPDEST PUSH1 0x1B DUP2 PUSH1 0xFF AND EQ ISZERO DUP1 ISZERO PUSH2 0x2493 JUMPI POP PUSH1 0x1C DUP2 PUSH1 0xFF AND EQ ISZERO JUMPDEST ISZERO PUSH2 0x24A3 JUMPI PUSH0 SWAP4 POP POP POP POP PUSH2 0x2531 JUMP JUMPDEST PUSH0 PUSH1 0x1 DUP9 DUP4 DUP7 DUP7 PUSH1 0x40 MLOAD PUSH0 DUP2 MSTORE PUSH1 0x20 ADD PUSH1 0x40 MSTORE PUSH1 0x40 MLOAD PUSH2 0x24C6 SWAP5 SWAP4 SWAP3 SWAP2 SWAP1 PUSH2 0x51D0 JUMP JUMPDEST PUSH1 0x20 PUSH1 0x40 MLOAD PUSH1 0x20 DUP2 SUB SWAP1 DUP1 DUP5 SUB SWAP1 DUP6 GAS STATICCALL ISZERO DUP1 ISZERO PUSH2 0x24E6 JUMPI RETURNDATASIZE PUSH0 DUP1 RETURNDATACOPY RETURNDATASIZE PUSH0 REVERT JUMPDEST POP POP POP PUSH1 0x20 PUSH1 0x40 MLOAD SUB MLOAD SWAP1 POP DUP6 DUP1 MLOAD SWAP1 PUSH1 0x20 ADD KECCAK256 PUSH0 SHR PUSH20 0xFFFFFFFFFFFFFFFFFFFFFFFFFFFFFFFFFFFFFFFF AND DUP2 PUSH20 0xFFFFFFFFFFFFFFFFFFFFFFFFFFFFFFFFFFFFFFFF AND EQ SWAP5 POP POP POP POP POP JUMPDEST SWAP4 SWAP3 POP POP POP JUMP JUMPDEST PUSH0 DUP4 SUB PUSH2 0x257A JUMPI PUSH1 0x40 MLOAD PUSH32 0x8C379A000000000000000000000000000000000000000000000000000000000 DUP2 MSTORE PUSH1 0x4 ADD PUSH2 0x2571 SWAP1 PUSH2 0x525D JUMP JUMPDEST PUSH1 0x40 MLOAD DUP1 SWAP2 SUB SWAP1 REVERT JUMPDEST PUSH0 PUSH20 0xFFFFFFFFFFFFFFFFFFFFFFFFFFFFFFFFFFFFFFFF AND CALLER PUSH20 0xFFFFFFFFFFFFFFFFFFFFFFFFFFFFFFFFFFFFFFFF AND SUB PUSH2 0x25E8 JUMPI PUSH1 0x40 MLOAD PUSH32 0x8C379A000000000000000000000000000000000000000000000000000000000 DUP2 MSTORE PUSH1 0x4 ADD PUSH2 0x25DF SWAP1 PUSH2 0x52C5 JUMP JUMPDEST PUSH1 0x40 MLOAD DUP1 SWAP2 SUB SWAP1 REVERT JUMPDEST PUSH0 PUSH1 0x14 ADD PUSH0 SWAP1 SLOAD SWAP1 PUSH2 0x100 EXP SWAP1 DIV PUSH1 0xFF AND ISZERO PUSH2 0x2639 JUMPI PUSH1 0x40 MLOAD PUSH32 0x8C379A000000000000000000000000000000000000000000000000000000000 DUP2 MSTORE PUSH1 0x4 ADD PUSH2 0x2630 SWAP1 PUSH2 0x532D JUMP JUMPDEST PUSH1 0x40 MLOAD DUP1 SWAP2 SUB SWAP1 REVERT JUMPDEST PUSH0 PUSH1 0x10 ADD PUSH0 DUP1 PUSH1 0xC ADD PUSH0 DUP7 DUP2 MSTORE PUSH1 0x20 ADD SWAP1 DUP2 MSTORE PUSH1 0x20 ADD PUSH0 KECCAK256 PUSH0 ADD PUSH0 SWAP1 SLOAD SWAP1 PUSH2 0x100 EXP SWAP1 DIV PUSH20 0xFFFFFFFFFFFFFFFFFFFFFFFFFFFFFFFFFFFFFFFF AND PUSH20 0xFFFFFFFFFFFFFFFFFFFFFFFFFFFFFFFFFFFFFFFF AND PUSH20 0xFFFFFFFFFFFFFFFFFFFFFFFFFFFFFFFFFFFFFFFF AND DUP2 MSTORE PUSH1 0x20 ADD SWAP1 DUP2 MSTORE PUSH1 0x20 ADD PUSH0 KECCAK256 PUSH1 0x8 ADD PUSH0 SWAP1 SLOAD SWAP1 PUSH2 0x100 EXP SWAP1 DIV PUSH1 0xFF AND PUSH2 0x26FB JUMPI PUSH1 0x40 MLOAD PUSH32 0x8C379A000000000000000000000000000000000000000000000000000000000 DUP2 MSTORE PUSH1 0x4 ADD PUSH2 0x26F2 SWAP1 PUSH2 0x53BB JUMP JUMPDEST PUSH1 0x40 MLOAD DUP1 SWAP2 SUB SWAP1 REVERT JUMPDEST PUSH1 0x1 DUP3 GT PUSH2 0x273E JUMPI PUSH1 0x40 MLOAD PUSH32 0x8C379A000000000000000000000000000000000000000000000000000000000 DUP2 MSTORE PUSH1 0x4 ADD PUSH2 0x2735 SWAP1 PUSH2 0x5449 JUMP JUMPDEST PUSH1 0x40 MLOAD DUP1 SWAP2 SUB SWAP1 REVERT JUMPDEST PUSH0 PUSH1 0xE ADD PUSH0 DUP5 DUP2 MSTORE PUSH1 0x20 ADD SWAP1 DUP2 MSTORE PUSH1 0x20 ADD PUSH0 KECCAK256 PUSH1 0x2 ADD SLOAD DUP2 EQ PUSH2 0x2796 JUMPI PUSH1 0x40 MLOAD PUSH32 0x8C379A000000000000000000000000000000000000000000000000000000000 DUP2 MSTORE PUSH1 0x4 ADD PUSH2 0x278D SWAP1 PUSH2 0x54D7 JUMP JUMPDEST PUSH1 0x40 MLOAD DUP1 SWAP2 SUB SWAP1 REVERT JUMPDEST TIMESTAMP PUSH2 0x27A0 DUP5 PUSH2 0x16A5 JUMP JUMPDEST GT ISZERO DUP1 ISZERO PUSH2 0x27B6 JUMPI POP PUSH0 PUSH2 0x27B3 DUP5 PUSH2 0x16A5 JUMP JUMPDEST EQ ISZERO JUMPDEST PUSH2 0x27F5 JUMPI PUSH1 0x40 MLOAD PUSH32 0x8C379A000000000000000000000000000000000000000000000000000000000 DUP2 MSTORE PUSH1 0x4 ADD PUSH2 0x27EC SWAP1 PUSH2 0x5565 JUMP JUMPDEST PUSH1 0x40 MLOAD DUP1 SWAP2 SUB SWAP1 REVERT JUMPDEST TIMESTAMP PUSH2 0x27FF DUP5 PUSH2 0x175F JUMP JUMPDEST LT ISZERO PUSH2 0x2840 JUMPI PUSH1 0x40 MLOAD PUSH32 0x8C379A000000000000000000000000000000000000000000000000000000000 DUP2 MSTORE PUSH1 0x4 ADD PUSH2 0x2837 SWAP1 PUSH2 0x55CD JUMP JUMPDEST PUSH1 0x40 MLOAD DUP1 SWAP2 SUB SWAP1 REVERT JUMPDEST DUP1 DUP3 GT PUSH2 0x2882 JUMPI PUSH1 0x40 MLOAD PUSH32 0x8C379A000000000000000000000000000000000000000000000000000000000 DUP2 MSTORE PUSH1 0x4 ADD PUSH2 0x2879 SWAP1 PUSH2 0x565B JUMP JUMPDEST PUSH1 0x40 MLOAD DUP1 SWAP2 SUB SWAP1 REVERT JUMPDEST PUSH2 0x288B DUP4 PUSH2 0x11C2 JUMP JUMPDEST DUP3 PUSH2 0x2896 SWAP2 SWAP1 PUSH2 0x4BAB JUMP JUMPDEST PUSH2 0x289F DUP5 PUSH2 0x1B08 JUMP JUMPDEST PUSH2 0x28A8 DUP6 PUSH2 0x11C2 JUMP JUMPDEST PUSH2 0x28B2 SWAP2 SWAP1 PUSH2 0x5679 JUMP JUMPDEST DUP3 PUSH2 0x28BD SWAP2 SWAP1 PUSH2 0x4BAB JUMP JUMPDEST GT ISZERO PUSH2 0x28FE JUMPI PUSH1 0x40 MLOAD PUSH32 0x8C379A000000000000000000000000000000000000000000000000000000000 DUP2 MSTORE PUSH1 0x4 ADD PUSH2 0x28F5 SWAP1 PUSH2 0x571C JUMP JUMPDEST PUSH1 0x40 MLOAD DUP1 SWAP2 SUB SWAP1 REVERT JUMPDEST PUSH2 0x2907 DUP4 PUSH2 0x127D JUMP JUMPDEST TIMESTAMP PUSH2 0x2912 SWAP2 SWAP1 PUSH2 0x5679 JUMP JUMPDEST PUSH2 0x291B DUP5 PUSH2 0x175F JUMP JUMPDEST LT ISZERO PUSH2 0x299E JUMPI PUSH2 0x292A DUP4 PUSH2 0x127D JUMP JUMPDEST TIMESTAMP PUSH2 0x2935 SWAP2 SWAP1 PUSH2 0x5679 JUMP JUMPDEST PUSH0 PUSH1 0xE ADD PUSH0 DUP6 DUP2 MSTORE PUSH1 0x20 ADD SWAP1 DUP2 MSTORE PUSH1 0x20 ADD PUSH0 KECCAK256 PUSH1 0x7 ADD DUP2 SWAP1 SSTORE POP DUP3 PUSH32 0x2E7F50C8A01968BD8EDFE9B3AE46A4D0FA3CE89E533D76245C2684EE9882C0CB PUSH0 PUSH1 0xE ADD PUSH0 DUP7 DUP2 MSTORE PUSH1 0x20 ADD SWAP1 DUP2 MSTORE PUSH1 0x20 ADD PUSH0 KECCAK256 PUSH1 0x7 ADD SLOAD PUSH1 0x40 MLOAD PUSH2 0x2995 SWAP2 SWAP1 PUSH2 0x3E45 JUMP JUMPDEST PUSH1 0x40 MLOAD DUP1 SWAP2 SUB SWAP1 LOG2 JUMPDEST PUSH0 DUP1 PUSH1 0xE ADD PUSH0 DUP6 DUP2 MSTORE PUSH1 0x20 ADD SWAP1 DUP2 MSTORE PUSH1 0x20 ADD PUSH0 KECCAK256 PUSH1 0x4 ADD SLOAD SWAP1 POP PUSH0 DUP1 PUSH1 0xE ADD PUSH0 DUP7 DUP2 MSTORE PUSH1 0x20 ADD SWAP1 DUP2 MSTORE PUSH1 0x20 ADD PUSH0 KECCAK256 PUSH1 0x1 ADD PUSH0 SWAP1 SLOAD SWAP1 PUSH2 0x100 EXP SWAP1 DIV PUSH20 0xFFFFFFFFFFFFFFFFFFFFFFFFFFFFFFFFFFFFFFFF AND SWAP1 POP PUSH0 DUP1 PUSH1 0xE ADD PUSH0 DUP8 DUP2 MSTORE PUSH1 0x20 ADD SWAP1 DUP2 MSTORE PUSH1 0x20 ADD PUSH0 KECCAK256 PUSH1 0x2 ADD SLOAD SWAP1 POP PUSH0 PUSH20 0xFFFFFFFFFFFFFFFFFFFFFFFFFFFFFFFFFFFFFFFF AND DUP3 PUSH20 0xFFFFFFFFFFFFFFFFFFFFFFFFFFFFFFFFFFFFFFFF AND EQ PUSH2 0x2A8E JUMPI DUP2 PUSH20 0xFFFFFFFFFFFFFFFFFFFFFFFFFFFFFFFFFFFFFFFF AND DUP7 PUSH32 0xFFF24E92E1CBCE6E08FA0C957732709B2BE79BE2CE26C732BCFAE1CC368356E5 DUP4 PUSH1 0x40 MLOAD PUSH2 0x2A85 SWAP2 SWAP1 PUSH2 0x3E45 JUMP JUMPDEST PUSH1 0x40 MLOAD DUP1 SWAP2 SUB SWAP1 LOG3 JUMPDEST PUSH0 DUP4 EQ PUSH2 0x2B21 JUMPI DUP3 PUSH0 PUSH1 0xE ADD PUSH0 DUP9 DUP2 MSTORE PUSH1 0x20 ADD SWAP1 DUP2 MSTORE PUSH1 0x20 ADD PUSH0 KECCAK256 PUSH1 0x3 ADD SLOAD PUSH2 0x2AB7 SWAP2 SWAP1 PUSH2 0x5679 JUMP JUMPDEST PUSH0 PUSH1 0xE ADD PUSH0 DUP9 DUP2 MSTORE PUSH1 0x20 ADD SWAP1 DUP2 MSTORE PUSH1 0x20 ADD PUSH0 KECCAK256 PUSH1 0x3 ADD DUP2 SWAP1 SSTORE POP DUP2 PUSH20 0xFFFFFFFFFFFFFFFFFFFFFFFFFFFFFFFFFFFFFFFF AND DUP7 PUSH32 0xC6330F2F35039B6E7BCFDEB0C2E959D355B88D8C2292CA4A4C42F514CC958BE3 DUP6 PUSH1 0x40 MLOAD PUSH2 0x2B18 SWAP2 SWAP1 PUSH2 0x3E45 JUMP JUMPDEST PUSH1 0x40 MLOAD DUP1 SWAP2 SUB SWAP1 LOG3 JUMPDEST PUSH2 0x2B2B DUP7 DUP7 PUSH2 0x3B15 JUMP JUMPDEST PUSH0 PUSH1 0xE ADD PUSH0 DUP9 DUP2 MSTORE PUSH1 0x20 ADD SWAP1 DUP2 MSTORE PUSH1 0x20 ADD PUSH0 KECCAK256 PUSH1 0x4 ADD DUP2 SWAP1 SSTORE POP CALLER PUSH0 PUSH1 0xE ADD PUSH0 DUP9 DUP2 MSTORE PUSH1 0x20 ADD SWAP1 DUP2 MSTORE PUSH1 0x20 ADD PUSH0 KECCAK256 PUSH1 0x1 ADD PUSH0 PUSH2 0x100 EXP DUP2 SLOAD DUP2 PUSH20 0xFFFFFFFFFFFFFFFFFFFFFFFFFFFFFFFFFFFFFFFF MUL NOT AND SWAP1 DUP4 PUSH20 0xFFFFFFFFFFFFFFFFFFFFFFFFFFFFFFFFFFFFFFFF AND MUL OR SWAP1 SSTORE POP DUP5 PUSH0 PUSH1 0xE ADD PUSH0 DUP9 DUP2 MSTORE PUSH1 0x20 ADD SWAP1 DUP2 MSTORE PUSH1 0x20 ADD PUSH0 KECCAK256 PUSH1 0x2 ADD DUP2 SWAP1 SSTORE POP PUSH0 PUSH1 0xB ADD PUSH0 SWAP1 SLOAD SWAP1 PUSH2 0x100 EXP SWAP1 DIV PUSH20 0xFFFFFFFFFFFFFFFFFFFFFFFFFFFFFFFFFFFFFFFF AND PUSH20 0xFFFFFFFFFFFFFFFFFFFFFFFFFFFFFFFFFFFFFFFF AND PUSH4 0x23B872DD CALLER ADDRESS DUP9 PUSH1 0x40 MLOAD DUP5 PUSH4 0xFFFFFFFF AND PUSH1 0xE0 SHL DUP2 MSTORE PUSH1 0x4 ADD PUSH2 0x2C14 SWAP4 SWAP3 SWAP2 SWAP1 PUSH2 0x4C49 JUMP JUMPDEST PUSH1 0x20 PUSH1 0x40 MLOAD DUP1 DUP4 SUB DUP2 PUSH0 DUP8 GAS CALL ISZERO DUP1 ISZERO PUSH2 0x2C30 JUMPI RETURNDATASIZE PUSH0 DUP1 RETURNDATACOPY RETURNDATASIZE PUSH0 REVERT JUMPDEST POP POP POP POP PUSH1 0x40 MLOAD RETURNDATASIZE PUSH1 0x1F NOT PUSH1 0x1F DUP3 ADD AND DUP3 ADD DUP1 PUSH1 0x40 MSTORE POP DUP2 ADD SWAP1 PUSH2 0x2C54 SWAP2 SWAP1 PUSH2 0x4B80 JUMP JUMPDEST POP CALLER PUSH20 0xFFFFFFFFFFFFFFFFFFFFFFFFFFFFFFFFFFFFFFFF AND DUP7 PUSH32 0x1CD77EC6C10F614681F30C7AA33EBC645B4D597AAF7039F6210E71D0E15C9181 DUP8 PUSH1 0x40 MLOAD PUSH2 0x2C9C SWAP2 SWAP1 PUSH2 0x3E45 JUMP JUMPDEST PUSH1 0x40 MLOAD DUP1 SWAP2 SUB SWAP1 LOG3 CALLER PUSH0 PUSH1 0xE ADD PUSH0 DUP9 DUP2 MSTORE PUSH1 0x20 ADD SWAP1 DUP2 MSTORE PUSH1 0x20 ADD PUSH0 KECCAK256 PUSH1 0x1 ADD PUSH0 PUSH2 0x100 EXP DUP2 SLOAD DUP2 PUSH20 0xFFFFFFFFFFFFFFFFFFFFFFFFFFFFFFFFFFFFFFFF MUL NOT AND SWAP1 DUP4 PUSH20 0xFFFFFFFFFFFFFFFFFFFFFFFFFFFFFFFFFFFFFFFF AND MUL OR SWAP1 SSTORE POP DUP5 PUSH0 PUSH1 0xE ADD PUSH0 DUP9 DUP2 MSTORE PUSH1 0x20 ADD SWAP1 DUP2 MSTORE PUSH1 0x20 ADD PUSH0 KECCAK256 PUSH1 0x2 ADD DUP2 SWAP1 SSTORE POP PUSH0 DUP4 DUP3 PUSH2 0x2D20 SWAP2 SWAP1 PUSH2 0x5679 JUMP JUMPDEST EQ PUSH2 0x2E7C JUMPI PUSH0 PUSH1 0xB ADD PUSH0 SWAP1 SLOAD SWAP1 PUSH2 0x100 EXP SWAP1 DIV PUSH20 0xFFFFFFFFFFFFFFFFFFFFFFFFFFFFFFFFFFFFFFFF AND PUSH20 0xFFFFFFFFFFFFFFFFFFFFFFFFFFFFFFFFFFFFFFFF AND PUSH4 0x95EA7B3 ADDRESS DUP6 DUP5 PUSH2 0x2D71 SWAP2 SWAP1 PUSH2 0x5679 JUMP JUMPDEST PUSH1 0x40 MLOAD DUP4 PUSH4 0xFFFFFFFF AND PUSH1 0xE0 SHL DUP2 MSTORE PUSH1 0x4 ADD PUSH2 0x2D8E SWAP3 SWAP2 SWAP1 PUSH2 0x4B45 JUMP JUMPDEST PUSH1 0x20 PUSH1 0x40 MLOAD DUP1 DUP4 SUB DUP2 PUSH0 DUP8 GAS CALL ISZERO DUP1 ISZERO PUSH2 0x2DAA JUMPI RETURNDATASIZE PUSH0 DUP1 RETURNDATACOPY RETURNDATASIZE PUSH0 REVERT JUMPDEST POP POP POP POP PUSH1 0x40 MLOAD RETURNDATASIZE PUSH1 0x1F NOT PUSH1 0x1F DUP3 ADD AND DUP3 ADD DUP1 PUSH1 0x40 MSTORE POP DUP2 ADD SWAP1 PUSH2 0x2DCE SWAP2 SWAP1 PUSH2 0x4B80 JUMP JUMPDEST POP PUSH0 PUSH1 0xB ADD PUSH0 SWAP1 SLOAD SWAP1 PUSH2 0x100 EXP SWAP1 DIV PUSH20 0xFFFFFFFFFFFFFFFFFFFFFFFFFFFFFFFFFFFFFFFF AND PUSH20 0xFFFFFFFFFFFFFFFFFFFFFFFFFFFFFFFFFFFFFFFF AND PUSH4 0x23B872DD ADDRESS DUP5 DUP7 DUP6 PUSH2 0x2E1C SWAP2 SWAP1 PUSH2 0x5679 JUMP JUMPDEST PUSH1 0x40 MLOAD DUP5 PUSH4 0xFFFFFFFF AND PUSH1 0xE0 SHL DUP2 MSTORE PUSH1 0x4 ADD PUSH2 0x2E3A SWAP4 SWAP3 SWAP2 SWAP1 PUSH2 0x4C49 JUMP JUMPDEST PUSH1 0x20 PUSH1 0x40 MLOAD DUP1 DUP4 SUB DUP2 PUSH0 DUP8 GAS CALL ISZERO DUP1 ISZERO PUSH2 0x2E56 JUMPI RETURNDATASIZE PUSH0 DUP1 RETURNDATACOPY RETURNDATASIZE PUSH0 REVERT JUMPDEST POP POP POP POP PUSH1 0x40 MLOAD RETURNDATASIZE PUSH1 0x1F NOT PUSH1 0x1F DUP3 ADD AND DUP3 ADD DUP1 PUSH1 0x40 MSTORE POP DUP2 ADD SWAP1 PUSH2 0x2E7A SWAP2 SWAP1 PUSH2 0x4B80 JUMP JUMPDEST POP JUMPDEST POP POP POP POP POP POP JUMP JUMPDEST DUP1 PUSH2 0x2F7E JUMPI PUSH0 PUSH1 0x11 ADD PUSH0 DUP8 PUSH20 0xFFFFFFFFFFFFFFFFFFFFFFFFFFFFFFFFFFFFFFFF AND PUSH20 0xFFFFFFFFFFFFFFFFFFFFFFFFFFFFFFFFFFFFFFFF AND DUP2 MSTORE PUSH1 0x20 ADD SWAP1 DUP2 MSTORE PUSH1 0x20 ADD PUSH0 KECCAK256 PUSH0 DUP7 DUP2 MSTORE PUSH1 0x20 ADD SWAP1 DUP2 MSTORE PUSH1 0x20 ADD PUSH0 KECCAK256 SLOAD SWAP2 POP PUSH0 DUP1 PUSH1 0xD ADD PUSH0 DUP9 PUSH20 0xFFFFFFFFFFFFFFFFFFFFFFFFFFFFFFFFFFFFFFFF AND PUSH20 0xFFFFFFFFFFFFFFFFFFFFFFFFFFFFFFFFFFFFFFFF AND DUP2 MSTORE PUSH1 0x20 ADD SWAP1 DUP2 MSTORE PUSH1 0x20 ADD PUSH0 KECCAK256 PUSH0 DUP8 DUP2 MSTORE PUSH1 0x20 ADD SWAP1 DUP2 MSTORE PUSH1 0x20 ADD PUSH0 KECCAK256 PUSH0 DUP5 DUP2 MSTORE PUSH1 0x20 ADD SWAP1 DUP2 MSTORE PUSH1 0x20 ADD PUSH0 KECCAK256 SLOAD EQ PUSH2 0x2F79 JUMPI PUSH1 0x40 MLOAD PUSH32 0x8C379A000000000000000000000000000000000000000000000000000000000 DUP2 MSTORE PUSH1 0x4 ADD PUSH2 0x2F70 SWAP1 PUSH2 0x57AA JUMP JUMPDEST PUSH1 0x40 MLOAD DUP1 SWAP2 SUB SWAP1 REVERT JUMPDEST PUSH2 0x301E JUMP JUMPDEST PUSH0 DUP1 PUSH1 0xD ADD PUSH0 DUP9 PUSH20 0xFFFFFFFFFFFFFFFFFFFFFFFFFFFFFFFFFFFFFFFF AND PUSH20 0xFFFFFFFFFFFFFFFFFFFFFFFFFFFFFFFFFFFFFFFF AND DUP2 MSTORE PUSH1 0x20 ADD SWAP1 DUP2 MSTORE PUSH1 0x20 ADD PUSH0 KECCAK256 PUSH0 DUP8 DUP2 MSTORE PUSH1 0x20 ADD SWAP1 DUP2 MSTORE PUSH1 0x20 ADD PUSH0 KECCAK256 PUSH0 DUP5 DUP2 MSTORE PUSH1 0x20 ADD SWAP1 DUP2 MSTORE PUSH1 0x20 ADD PUSH0 KECCAK256 SLOAD SUB PUSH2 0x301D JUMPI PUSH1 0x40 MLOAD PUSH32 0x8C379A000000000000000000000000000000000000000000000000000000000 DUP2 MSTORE PUSH1 0x4 ADD PUSH2 0x3014 SWAP1 PUSH2 0x5838 JUMP JUMPDEST PUSH1 0x40 MLOAD DUP1 SWAP2 SUB SWAP1 REVERT JUMPDEST JUMPDEST PUSH32 0x73AD2146B3D3A286642C794379D750360A2D53A3459A11B3E5D6CC900F55F44A PUSH28 0xFFFFFFFFFFFFFFFFFFFFFFFFFFFFFFFFFFFFFFFFFFFFFFFFFFFFFFFF NOT AND DUP5 PUSH28 0xFFFFFFFFFFFFFFFFFFFFFFFFFFFFFFFFFFFFFFFFFFFFFFFFFFFFFFFF NOT AND EQ DUP1 PUSH2 0x30E7 JUMPI POP PUSH32 0x973BB64086F173EC8099B7ED3D43DA984F4A332E4417A08BC6A286E6402B0586 PUSH28 0xFFFFFFFFFFFFFFFFFFFFFFFFFFFFFFFFFFFFFFFFFFFFFFFFFFFFFFFF NOT AND DUP5 PUSH28 0xFFFFFFFFFFFFFFFFFFFFFFFFFFFFFFFFFFFFFFFFFFFFFFFFFFFFFFFF NOT AND EQ JUMPDEST PUSH2 0x3126 JUMPI PUSH1 0x40 MLOAD PUSH32 0x8C379A000000000000000000000000000000000000000000000000000000000 DUP2 MSTORE PUSH1 0x4 ADD PUSH2 0x311D SWAP1 PUSH2 0x58EC JUMP JUMPDEST PUSH1 0x40 MLOAD DUP1 SWAP2 SUB SWAP1 REVERT JUMPDEST PUSH2 0x312E PUSH2 0x3D74 JUMP JUMPDEST DUP7 DUP2 PUSH0 ADD SWAP1 PUSH20 0xFFFFFFFFFFFFFFFFFFFFFFFFFFFFFFFFFFFFFFFF AND SWAP1 DUP2 PUSH20 0xFFFFFFFFFFFFFFFFFFFFFFFFFFFFFFFFFFFFFFFF AND DUP2 MSTORE POP POP DUP6 DUP2 PUSH1 0x20 ADD DUP2 DUP2 MSTORE POP POP DUP5 DUP2 PUSH1 0x40 ADD SWAP1 PUSH28 0xFFFFFFFFFFFFFFFFFFFFFFFFFFFFFFFFFFFFFFFFFFFFFFFFFFFFFFFF NOT AND SWAP1 DUP2 PUSH28 0xFFFFFFFFFFFFFFFFFFFFFFFFFFFFFFFFFFFFFFFFFFFFFFFFFFFFFFFF NOT AND DUP2 MSTORE POP POP PUSH0 PUSH32 0x73AD2146B3D3A286642C794379D750360A2D53A3459A11B3E5D6CC900F55F44A PUSH28 0xFFFFFFFFFFFFFFFFFFFFFFFFFFFFFFFFFFFFFFFFFFFFFFFFFFFFFFFF NOT AND DUP7 PUSH28 0xFFFFFFFFFFFFFFFFFFFFFFFFFFFFFFFFFFFFFFFFFFFFFFFFFFFFFFFF NOT AND SUB PUSH2 0x343C JUMPI DUP8 PUSH20 0xFFFFFFFFFFFFFFFFFFFFFFFFFFFFFFFFFFFFFFFF AND PUSH4 0x8DA5CB5B PUSH1 0x40 MLOAD DUP2 PUSH4 0xFFFFFFFF AND PUSH1 0xE0 SHL DUP2 MSTORE PUSH1 0x4 ADD PUSH1 0x20 PUSH1 0x40 MLOAD DUP1 DUP4 SUB DUP2 DUP7 GAS STATICCALL ISZERO DUP1 ISZERO PUSH2 0x3268 JUMPI RETURNDATASIZE PUSH0 DUP1 RETURNDATACOPY RETURNDATASIZE PUSH0 REVERT JUMPDEST POP POP POP POP PUSH1 0x40 MLOAD RETURNDATASIZE PUSH1 0x1F NOT PUSH1 0x1F DUP3 ADD AND DUP3 ADD DUP1 PUSH1 0x40 MSTORE POP DUP2 ADD SWAP1 PUSH2 0x328C SWAP2 SWAP1 PUSH2 0x591E JUMP JUMPDEST PUSH20 0xFFFFFFFFFFFFFFFFFFFFFFFFFFFFFFFFFFFFFFFF AND CALLER PUSH20 0xFFFFFFFFFFFFFFFFFFFFFFFFFFFFFFFFFFFFFFFF AND EQ DUP1 PUSH2 0x3367 JUMPI POP DUP8 PUSH20 0xFFFFFFFFFFFFFFFFFFFFFFFFFFFFFFFFFFFFFFFF AND PUSH4 0x6352211E DUP9 PUSH1 0x40 MLOAD DUP3 PUSH4 0xFFFFFFFF AND PUSH1 0xE0 SHL DUP2 MSTORE PUSH1 0x4 ADD PUSH2 0x32F9 SWAP2 SWAP1 PUSH2 0x3E45 JUMP JUMPDEST PUSH1 0x20 PUSH1 0x40 MLOAD DUP1 DUP4 SUB DUP2 DUP7 GAS STATICCALL ISZERO DUP1 ISZERO PUSH2 0x3314 JUMPI RETURNDATASIZE PUSH0 DUP1 RETURNDATACOPY RETURNDATASIZE PUSH0 REVERT JUMPDEST POP POP POP POP PUSH1 0x40 MLOAD RETURNDATASIZE PUSH1 0x1F NOT PUSH1 0x1F DUP3 ADD AND DUP3 ADD DUP1 PUSH1 0x40 MSTORE POP DUP2 ADD SWAP1 PUSH2 0x3338 SWAP2 SWAP1 PUSH2 0x591E JUMP JUMPDEST PUSH20 0xFFFFFFFFFFFFFFFFFFFFFFFFFFFFFFFFFFFFFFFF AND ADDRESS PUSH20 0xFFFFFFFFFFFFFFFFFFFFFFFFFFFFFFFFFFFFFFFF AND EQ JUMPDEST PUSH2 0x33A6 JUMPI PUSH1 0x40 MLOAD PUSH32 0x8C379A000000000000000000000000000000000000000000000000000000000 DUP2 MSTORE PUSH1 0x4 ADD PUSH2 0x339D SWAP1 PUSH2 0x59DF JUMP JUMPDEST PUSH1 0x40 MLOAD DUP1 SWAP2 SUB SWAP1 REVERT JUMPDEST DUP8 DUP8 DUP8 PUSH1 0x40 MLOAD PUSH1 0x20 ADD PUSH2 0x33BB SWAP4 SWAP3 SWAP2 SWAP1 PUSH2 0x5A1D JUMP JUMPDEST PUSH1 0x40 MLOAD PUSH1 0x20 DUP2 DUP4 SUB SUB DUP2 MSTORE SWAP1 PUSH1 0x40 MSTORE DUP1 MLOAD SWAP1 PUSH1 0x20 ADD KECCAK256 PUSH0 SHR SWAP1 POP DUP1 PUSH0 PUSH1 0xD ADD PUSH0 DUP11 PUSH20 0xFFFFFFFFFFFFFFFFFFFFFFFFFFFFFFFFFFFFFFFF AND PUSH20 0xFFFFFFFFFFFFFFFFFFFFFFFFFFFFFFFFFFFFFFFF AND DUP2 MSTORE PUSH1 0x20 ADD SWAP1 DUP2 MSTORE PUSH1 0x20 ADD PUSH0 KECCAK256 PUSH0 DUP10 DUP2 MSTORE PUSH1 0x20 ADD SWAP1 DUP2 MSTORE PUSH1 0x20 ADD PUSH0 KECCAK256 PUSH0 DUP1 DUP2 MSTORE PUSH1 0x20 ADD SWAP1 DUP2 MSTORE PUSH1 0x20 ADD PUSH0 KECCAK256 DUP2 SWAP1 SSTORE POP PUSH2 0x386B JUMP JUMPDEST DUP8 PUSH20 0xFFFFFFFFFFFFFFFFFFFFFFFFFFFFFFFFFFFFFFFF AND PUSH4 0x8DA5CB5B PUSH1 0x40 MLOAD DUP2 PUSH4 0xFFFFFFFF AND PUSH1 0xE0 SHL DUP2 MSTORE PUSH1 0x4 ADD PUSH1 0x20 PUSH1 0x40 MLOAD DUP1 DUP4 SUB DUP2 DUP7 GAS STATICCALL ISZERO DUP1 ISZERO PUSH2 0x3485 JUMPI RETURNDATASIZE PUSH0 DUP1 RETURNDATACOPY RETURNDATASIZE PUSH0 REVERT JUMPDEST POP POP POP POP PUSH1 0x40 MLOAD RETURNDATASIZE PUSH1 0x1F NOT PUSH1 0x1F DUP3 ADD AND DUP3 ADD DUP1 PUSH1 0x40 MSTORE POP DUP2 ADD SWAP1 PUSH2 0x34A9 SWAP2 SWAP1 PUSH2 0x591E JUMP JUMPDEST PUSH20 0xFFFFFFFFFFFFFFFFFFFFFFFFFFFFFFFFFFFFFFFF AND CALLER PUSH20 0xFFFFFFFFFFFFFFFFFFFFFFFFFFFFFFFFFFFFFFFF AND EQ DUP1 PUSH2 0x35A7 JUMPI POP DUP8 PUSH20 0xFFFFFFFFFFFFFFFFFFFFFFFFFFFFFFFFFFFFFFFF AND PUSH3 0xFDD58E ADDRESS DUP10 PUSH1 0x40 MLOAD DUP4 PUSH4 0xFFFFFFFF AND PUSH1 0xE0 SHL DUP2 MSTORE PUSH1 0x4 ADD PUSH2 0x3517 SWAP3 SWAP2 SWAP1 PUSH2 0x4B45 JUMP JUMPDEST PUSH1 0x20 PUSH1 0x40 MLOAD DUP1 DUP4 SUB DUP2 DUP7 GAS STATICCALL ISZERO DUP1 ISZERO PUSH2 0x3532 JUMPI RETURNDATASIZE PUSH0 DUP1 RETURNDATACOPY RETURNDATASIZE PUSH0 REVERT JUMPDEST POP POP POP POP PUSH1 0x40 MLOAD RETURNDATASIZE PUSH1 0x1F NOT PUSH1 0x1F DUP3 ADD AND DUP3 ADD DUP1 PUSH1 0x40 MSTORE POP DUP2 ADD SWAP1 PUSH2 0x3556 SWAP2 SWAP1 PUSH2 0x5A6D JUMP JUMPDEST PUSH0 PUSH1 0x12 ADD PUSH0 DUP11 PUSH20 0xFFFFFFFFFFFFFFFFFFFFFFFFFFFFFFFFFFFFFFFF AND PUSH20 0xFFFFFFFFFFFFFFFFFFFFFFFFFFFFFFFFFFFFFFFF AND DUP2 MSTORE PUSH1 0x20 ADD SWAP1 DUP2 MSTORE PUSH1 0x20 ADD PUSH0 KECCAK256 PUSH0 DUP10 DUP2 MSTORE PUSH1 0x20 ADD SWAP1 DUP2 MSTORE PUSH1 0x20 ADD PUSH0 KECCAK256 SLOAD LT JUMPDEST PUSH2 0x35E6 JUMPI PUSH1 0x40 MLOAD PUSH32 0x8C379A000000000000000000000000000000000000000000000000000000000 DUP2 MSTORE PUSH1 0x4 ADD PUSH2 0x35DD SWAP1 PUSH2 0x5B2E JUMP JUMPDEST PUSH1 0x40 MLOAD DUP1 SWAP2 SUB SWAP1 REVERT JUMPDEST PUSH0 PUSH1 0x11 ADD PUSH0 DUP10 PUSH20 0xFFFFFFFFFFFFFFFFFFFFFFFFFFFFFFFFFFFFFFFF AND PUSH20 0xFFFFFFFFFFFFFFFFFFFFFFFFFFFFFFFFFFFFFFFF AND DUP2 MSTORE PUSH1 0x20 ADD SWAP1 DUP2 MSTORE PUSH1 0x20 ADD PUSH0 KECCAK256 PUSH0 DUP9 DUP2 MSTORE PUSH1 0x20 ADD SWAP1 DUP2 MSTORE PUSH1 0x20 ADD PUSH0 KECCAK256 SLOAD DUP5 GT ISZERO PUSH2 0x3677 JUMPI PUSH1 0x40 MLOAD PUSH32 0x8C379A000000000000000000000000000000000000000000000000000000000 DUP2 MSTORE PUSH1 0x4 ADD PUSH2 0x366E SWAP1 PUSH2 0x5BE2 JUMP JUMPDEST PUSH1 0x40 MLOAD DUP1 SWAP2 SUB SWAP1 REVERT JUMPDEST DUP8 DUP8 DUP8 DUP7 PUSH1 0x40 MLOAD PUSH1 0x20 ADD PUSH2 0x368E SWAP5 SWAP4 SWAP3 SWAP2 SWAP1 PUSH2 0x5C00 JUMP JUMPDEST PUSH1 0x40 MLOAD PUSH1 0x20 DUP2 DUP4 SUB SUB DUP2 MSTORE SWAP1 PUSH1 0x40 MSTORE DUP1 MLOAD SWAP1 PUSH1 0x20 ADD KECCAK256 PUSH0 SHR SWAP1 POP DUP3 PUSH2 0x3808 JUMPI PUSH1 0x1 PUSH0 PUSH1 0x11 ADD PUSH0 DUP11 PUSH20 0xFFFFFFFFFFFFFFFFFFFFFFFFFFFFFFFFFFFFFFFF AND PUSH20 0xFFFFFFFFFFFFFFFFFFFFFFFFFFFFFFFFFFFFFFFF AND DUP2 MSTORE PUSH1 0x20 ADD SWAP1 DUP2 MSTORE PUSH1 0x20 ADD PUSH0 KECCAK256 PUSH0 DUP10 DUP2 MSTORE PUSH1 0x20 ADD SWAP1 DUP2 MSTORE PUSH1 0x20 ADD PUSH0 KECCAK256 SLOAD PUSH2 0x3708 SWAP2 SWAP1 PUSH2 0x5679 JUMP JUMPDEST PUSH0 PUSH1 0x11 ADD PUSH0 DUP11 PUSH20 0xFFFFFFFFFFFFFFFFFFFFFFFFFFFFFFFFFFFFFFFF AND PUSH20 0xFFFFFFFFFFFFFFFFFFFFFFFFFFFFFFFFFFFFFFFF AND DUP2 MSTORE PUSH1 0x20 ADD SWAP1 DUP2 MSTORE PUSH1 0x20 ADD PUSH0 KECCAK256 PUSH0 DUP10 DUP2 MSTORE PUSH1 0x20 ADD SWAP1 DUP2 MSTORE PUSH1 0x20 ADD PUSH0 KECCAK256 DUP2 SWAP1 SSTORE POP PUSH1 0x1 PUSH0 PUSH1 0x12 ADD PUSH0 DUP11 PUSH20 0xFFFFFFFFFFFFFFFFFFFFFFFFFFFFFFFFFFFFFFFF AND PUSH20 0xFFFFFFFFFFFFFFFFFFFFFFFFFFFFFFFFFFFFFFFF AND DUP2 MSTORE PUSH1 0x20 ADD SWAP1 DUP2 MSTORE PUSH1 0x20 ADD PUSH0 KECCAK256 PUSH0 DUP10 DUP2 MSTORE PUSH1 0x20 ADD SWAP1 DUP2 MSTORE PUSH1 0x20 ADD PUSH0 KECCAK256 SLOAD PUSH2 0x37B5 SWAP2 SWAP1 PUSH2 0x5679 JUMP JUMPDEST PUSH0 PUSH1 0x12 ADD PUSH0 DUP11 PUSH20 0xFFFFFFFFFFFFFFFFFFFFFFFFFFFFFFFFFFFFFFFF AND PUSH20 0xFFFFFFFFFFFFFFFFFFFFFFFFFFFFFFFFFFFFFFFF AND DUP2 MSTORE PUSH1 0x20 ADD SWAP1 DUP2 MSTORE PUSH1 0x20 ADD PUSH0 KECCAK256 PUSH0 DUP10 DUP2 MSTORE PUSH1 0x20 ADD SWAP1 DUP2 MSTORE PUSH1 0x20 ADD PUSH0 KECCAK256 DUP2 SWAP1 SSTORE POP JUMPDEST DUP1 PUSH0 PUSH1 0xD ADD PUSH0 DUP11 PUSH20 0xFFFFFFFFFFFFFFFFFFFFFFFFFFFFFFFFFFFFFFFF AND PUSH20 0xFFFFFFFFFFFFFFFFFFFFFFFFFFFFFFFFFFFFFFFF AND DUP2 MSTORE PUSH1 0x20 ADD SWAP1 DUP2 MSTORE PUSH1 0x20 ADD PUSH0 KECCAK256 PUSH0 DUP10 DUP2 MSTORE PUSH1 0x20 ADD SWAP1 DUP2 MSTORE PUSH1 0x20 ADD PUSH0 KECCAK256 PUSH0 DUP7 DUP2 MSTORE PUSH1 0x20 ADD SWAP1 DUP2 MSTORE PUSH1 0x20 ADD PUSH0 KECCAK256 DUP2 SWAP1 SSTORE POP JUMPDEST DUP2 PUSH0 PUSH1 0xC ADD PUSH0 DUP4 DUP2 MSTORE PUSH1 0x20 ADD SWAP1 DUP2 MSTORE PUSH1 0x20 ADD PUSH0 KECCAK256 PUSH0 DUP3 ADD MLOAD DUP2 PUSH0 ADD PUSH0 PUSH2 0x100 EXP DUP2 SLOAD DUP2 PUSH20 0xFFFFFFFFFFFFFFFFFFFFFFFFFFFFFFFFFFFFFFFF MUL NOT AND SWAP1 DUP4 PUSH20 0xFFFFFFFFFFFFFFFFFFFFFFFFFFFFFFFFFFFFFFFF AND MUL OR SWAP1 SSTORE POP PUSH1 0x20 DUP3 ADD MLOAD DUP2 PUSH1 0x1 ADD SSTORE PUSH1 0x40 DUP3 ADD MLOAD DUP2 PUSH1 0x2 ADD PUSH0 PUSH2 0x100 EXP DUP2 SLOAD DUP2 PUSH4 0xFFFFFFFF MUL NOT AND SWAP1 DUP4 PUSH1 0xE0 SHR MUL OR SWAP1 SSTORE POP SWAP1 POP POP DUP5 ISZERO PUSH2 0x3A63 JUMPI PUSH2 0x3901 PUSH2 0x2365 JUMP JUMPDEST PUSH0 PUSH1 0xE ADD PUSH0 DUP4 DUP2 MSTORE PUSH1 0x20 ADD SWAP1 DUP2 MSTORE PUSH1 0x20 ADD PUSH0 KECCAK256 PUSH0 ADD PUSH0 PUSH2 0x100 EXP DUP2 SLOAD DUP2 PUSH20 0xFFFFFFFFFFFFFFFFFFFFFFFFFFFFFFFFFFFFFFFF MUL NOT AND SWAP1 DUP4 PUSH20 0xFFFFFFFFFFFFFFFFFFFFFFFFFFFFFFFFFFFFFFFF AND MUL OR SWAP1 SSTORE POP PUSH0 PUSH1 0x3 ADD PUSH0 ADD SLOAD PUSH0 PUSH1 0xE ADD PUSH0 DUP4 DUP2 MSTORE PUSH1 0x20 ADD SWAP1 DUP2 MSTORE PUSH1 0x20 ADD PUSH0 KECCAK256 PUSH1 0x6 ADD DUP2 SWAP1 SSTORE POP PUSH0 PUSH1 0x3 ADD PUSH1 0x1 ADD SLOAD PUSH0 PUSH1 0xE ADD PUSH0 DUP4 DUP2 MSTORE PUSH1 0x20 ADD SWAP1 DUP2 MSTORE PUSH1 0x20 ADD PUSH0 KECCAK256 PUSH1 0x7 ADD DUP2 SWAP1 SSTORE POP PUSH0 PUSH1 0x3 ADD PUSH1 0x2 ADD SLOAD PUSH0 PUSH1 0xE ADD PUSH0 DUP4 DUP2 MSTORE PUSH1 0x20 ADD SWAP1 DUP2 MSTORE PUSH1 0x20 ADD PUSH0 KECCAK256 PUSH1 0x8 ADD DUP2 SWAP1 SSTORE POP PUSH0 PUSH1 0x3 ADD PUSH1 0x3 ADD SLOAD PUSH0 PUSH1 0xE ADD PUSH0 DUP4 DUP2 MSTORE PUSH1 0x20 ADD SWAP1 DUP2 MSTORE PUSH1 0x20 ADD PUSH0 KECCAK256 PUSH1 0x9 ADD DUP2 SWAP1 SSTORE POP PUSH0 PUSH1 0x3 ADD PUSH1 0x4 ADD SLOAD PUSH0 PUSH1 0xE ADD PUSH0 DUP4 DUP2 MSTORE PUSH1 0x20 ADD SWAP1 DUP2 MSTORE PUSH1 0x20 ADD PUSH0 KECCAK256 PUSH1 0xA ADD DUP2 SWAP1 SSTORE POP PUSH0 PUSH1 0x3 ADD PUSH1 0x5 ADD SLOAD PUSH0 PUSH1 0xE ADD PUSH0 DUP4 DUP2 MSTORE PUSH1 0x20 ADD SWAP1 DUP2 MSTORE PUSH1 0x20 ADD PUSH0 KECCAK256 PUSH1 0xB ADD DUP2 SWAP1 SSTORE POP PUSH0 PUSH1 0x3 ADD PUSH1 0x6 ADD SLOAD PUSH0 PUSH1 0xE ADD PUSH0 DUP4 DUP2 MSTORE PUSH1 0x20 ADD SWAP1 DUP2 MSTORE PUSH1 0x20 ADD PUSH0 KECCAK256 PUSH1 0xC ADD DUP2 SWAP1 SSTORE POP PUSH0 PUSH1 0x3 ADD PUSH1 0x7 ADD SLOAD PUSH0 PUSH1 0xE ADD PUSH0 DUP4 DUP2 MSTORE PUSH1 0x20 ADD SWAP1 DUP2 MSTORE PUSH1 0x20 ADD PUSH0 KECCAK256 PUSH1 0xD ADD DUP2 SWAP1 SSTORE POP JUMPDEST DUP4 DUP8 DUP3 PUSH32 0xC641D58F17231EDB197007E15EECA939850103E030C936A165DE466E56991C1F DUP12 DUP11 PUSH1 0x40 MLOAD PUSH2 0x3A97 SWAP3 SWAP2 SWAP1 PUSH2 0x5C4D JUMP JUMPDEST PUSH1 0x40 MLOAD DUP1 SWAP2 SUB SWAP1 LOG4 DUP1 PUSH32 0x13868CE1B50A84AAC263EFD89923DE989E831C1C1184925E076D0DB83D2B1453 PUSH2 0x3ACA DUP4 PUSH2 0x16A5 JUMP JUMPDEST PUSH1 0x40 MLOAD PUSH2 0x3AD7 SWAP2 SWAP1 PUSH2 0x3E45 JUMP JUMPDEST PUSH1 0x40 MLOAD DUP1 SWAP2 SUB SWAP1 LOG2 POP POP POP POP POP POP POP POP JUMP JUMPDEST PUSH0 DUP1 PUSH32 0xC8FCAD8DB84D3CC18B4C41D551EA0EE66DD599CDE068D998E57D5E09332C131C SWAP1 POP DUP1 SWAP2 POP POP SWAP1 JUMP JUMPDEST PUSH0 DUP1 DUP4 SUB PUSH2 0x3B58 JUMPI PUSH1 0x40 MLOAD PUSH32 0x8C379A000000000000000000000000000000000000000000000000000000000 DUP2 MSTORE PUSH1 0x4 ADD PUSH2 0x3B4F SWAP1 PUSH2 0x5CE4 JUMP JUMPDEST PUSH1 0x40 MLOAD DUP1 SWAP2 SUB SWAP1 REVERT JUMPDEST PUSH0 DUP3 GT PUSH2 0x3B9A JUMPI PUSH1 0x40 MLOAD PUSH32 0x8C379A000000000000000000000000000000000000000000000000000000000 DUP2 MSTORE PUSH1 0x4 ADD PUSH2 0x3B91 SWAP1 PUSH2 0x5D72 JUMP JUMPDEST PUSH1 0x40 MLOAD DUP1 SWAP2 SUB SWAP1 REVERT JUMPDEST PUSH0 PUSH2 0x3BA4 DUP5 PUSH2 0x11C2 JUMP JUMPDEST SWAP1 POP PUSH0 PUSH2 0x3BB0 DUP6 PUSH2 0x1A0F JUMP JUMPDEST SWAP1 POP PUSH0 DUP3 PUSH2 0x3BBD DUP8 PUSH2 0x1B08 JUMP JUMPDEST DUP5 PUSH2 0x3BC8 SWAP2 SWAP1 PUSH2 0x5679 JUMP JUMPDEST PUSH0 PUSH1 0xE ADD PUSH0 DUP10 DUP2 MSTORE PUSH1 0x20 ADD SWAP1 DUP2 MSTORE PUSH1 0x20 ADD PUSH0 KECCAK256 PUSH1 0x2 ADD SLOAD PUSH2 0x3BE9 SWAP2 SWAP1 PUSH2 0x4BAB JUMP JUMPDEST PUSH2 0x3BF3 SWAP2 SWAP1 PUSH2 0x4C19 JUMP JUMPDEST SWAP1 POP PUSH0 DUP2 SUB PUSH2 0x3C01 JUMPI PUSH1 0x1 SWAP1 POP JUMPDEST PUSH0 DUP4 PUSH2 0x3C0C DUP9 PUSH2 0x1BC3 JUMP JUMPDEST PUSH2 0x3C16 SWAP2 SWAP1 PUSH2 0x4BAB JUMP JUMPDEST DUP3 DUP4 DUP9 PUSH2 0x3C23 SWAP2 SWAP1 PUSH2 0x4B12 JUMP JUMPDEST PUSH2 0x3C2C DUP11 PUSH2 0x1954 JUMP JUMPDEST DUP8 PUSH2 0x3C37 SWAP2 SWAP1 PUSH2 0x4BAB JUMP JUMPDEST PUSH2 0x3C41 SWAP2 SWAP1 PUSH2 0x4BAB JUMP JUMPDEST PUSH2 0x3C4B SWAP2 SWAP1 PUSH2 0x4C19 JUMP JUMPDEST PUSH2 0x3C55 SWAP2 SWAP1 PUSH2 0x5679 JUMP JUMPDEST SWAP1 POP DUP3 DUP5 PUSH2 0x3C63 SWAP2 SWAP1 PUSH2 0x4BAB JUMP JUMPDEST DUP2 GT ISZERO PUSH2 0x3C79 JUMPI DUP3 DUP5 PUSH2 0x3C76 SWAP2 SWAP1 PUSH2 0x4BAB JUMP JUMPDEST SWAP1 POP JUMPDEST PUSH0 DUP5 DUP6 PUSH2 0x3C86 SWAP2 SWAP1 PUSH2 0x4BAB JUMP JUMPDEST DUP3 DUP9 PUSH2 0x3C92 SWAP2 SWAP1 PUSH2 0x4BAB JUMP JUMPDEST PUSH2 0x3C9C SWAP2 SWAP1 PUSH2 0x4C19 JUMP JUMPDEST SWAP1 POP PUSH0 PUSH1 0xA DUP9 PUSH2 0x3CAC SWAP2 SWAP1 PUSH2 0x4C19 JUMP JUMPDEST SWAP1 POP DUP1 DUP3 GT ISZERO PUSH2 0x3CBA JUMPI DUP1 SWAP2 POP JUMPDEST DUP2 SWAP7 POP POP POP POP POP POP POP SWAP3 SWAP2 POP POP JUMP JUMPDEST PUSH1 0x40 MLOAD DUP1 PUSH2 0x1E0 ADD PUSH1 0x40 MSTORE DUP1 PUSH0 PUSH20 0xFFFFFFFFFFFFFFFFFFFFFFFFFFFFFFFFFFFFFFFF AND DUP2 MSTORE PUSH1 0x20 ADD PUSH0 PUSH20 0xFFFFFFFFFFFFFFFFFFFFFFFFFFFFFFFFFFFFFFFF AND DUP2 MSTORE PUSH1 0x20 ADD PUSH0 DUP2 MSTORE PUSH1 0x20 ADD PUSH0 DUP2 MSTORE PUSH1 0x20 ADD PUSH0 DUP2 MSTORE PUSH1 0x20 ADD PUSH0 PUSH20 0xFFFFFFFFFFFFFFFFFFFFFFFFFFFFFFFFFFFFFFFF AND DUP2 MSTORE PUSH1 0x20 ADD PUSH0 DUP2 MSTORE PUSH1 0x20 ADD PUSH0 DUP2 MSTORE PUSH1 0x20 ADD PUSH0 DUP2 MSTORE PUSH1 0x20 ADD PUSH0 DUP2 MSTORE PUSH1 0x20 ADD PUSH0 DUP2 MSTORE PUSH1 0x20 ADD PUSH0 DUP2 MSTORE PUSH1 0x20 ADD PUSH0 DUP2 MSTORE PUSH1 0x20 ADD PUSH0 DUP2 MSTORE PUSH1 0x20 ADD PUSH0 ISZERO ISZERO DUP2 MSTORE POP SWAP1 JUMP JUMPDEST PUSH1 0x40 MLOAD DUP1 PUSH1 0x60 ADD PUSH1 0x40 MSTORE DUP1 PUSH0 PUSH20 0xFFFFFFFFFFFFFFFFFFFFFFFFFFFFFFFFFFFFFFFF AND DUP2 MSTORE PUSH1 0x20 ADD PUSH0 DUP2 MSTORE PUSH1 0x20 ADD PUSH0 PUSH28 0xFFFFFFFFFFFFFFFFFFFFFFFFFFFFFFFFFFFFFFFFFFFFFFFFFFFFFFFF NOT AND DUP2 MSTORE POP SWAP1 JUMP JUMPDEST PUSH0 PUSH1 0x40 MLOAD SWAP1 POP SWAP1 JUMP JUMPDEST PUSH0 DUP1 REVERT JUMPDEST PUSH0 DUP1 REVERT JUMPDEST PUSH0 DUP2 SWAP1 POP SWAP2 SWAP1 POP JUMP JUMPDEST PUSH2 0x3DEA DUP2 PUSH2 0x3DD8 JUMP JUMPDEST DUP2 EQ PUSH2 0x3DF4 JUMPI PUSH0 DUP1 REVERT JUMPDEST POP JUMP JUMPDEST PUSH0 DUP2 CALLDATALOAD SWAP1 POP PUSH2 0x3E05 DUP2 PUSH2 0x3DE1 JUMP JUMPDEST SWAP3 SWAP2 POP POP JUMP JUMPDEST PUSH0 PUSH1 0x20 DUP3 DUP5 SUB SLT ISZERO PUSH2 0x3E20 JUMPI PUSH2 0x3E1F PUSH2 0x3DD0 JUMP JUMPDEST JUMPDEST PUSH0 PUSH2 0x3E2D DUP5 DUP3 DUP6 ADD PUSH2 0x3DF7 JUMP JUMPDEST SWAP2 POP POP SWAP3 SWAP2 POP POP JUMP JUMPDEST PUSH2 0x3E3F DUP2 PUSH2 0x3DD8 JUMP JUMPDEST DUP3 MSTORE POP POP JUMP JUMPDEST PUSH0 PUSH1 0x20 DUP3 ADD SWAP1 POP PUSH2 0x3E58 PUSH0 DUP4 ADD DUP5 PUSH2 0x3E36 JUMP JUMPDEST SWAP3 SWAP2 POP POP JUMP JUMPDEST PUSH0 PUSH32 0xFFFFFFFF00000000000000000000000000000000000000000000000000000000 DUP3 AND SWAP1 POP SWAP2 SWAP1 POP JUMP JUMPDEST PUSH2 0x3E92 DUP2 PUSH2 0x3E5E JUMP JUMPDEST DUP3 MSTORE POP POP JUMP JUMPDEST PUSH0 PUSH1 0x20 DUP3 ADD SWAP1 POP PUSH2 0x3EAB PUSH0 DUP4 ADD DUP5 PUSH2 0x3E89 JUMP JUMPDEST SWAP3 SWAP2 POP POP JUMP JUMPDEST PUSH0 PUSH20 0xFFFFFFFFFFFFFFFFFFFFFFFFFFFFFFFFFFFFFFFF DUP3 AND SWAP1 POP SWAP2 SWAP1 POP JUMP JUMPDEST PUSH0 PUSH2 0x3EDA DUP3 PUSH2 0x3EB1 JUMP JUMPDEST SWAP1 POP SWAP2 SWAP1 POP JUMP JUMPDEST PUSH2 0x3EEA DUP2 PUSH2 0x3ED0 JUMP JUMPDEST DUP3 MSTORE POP POP JUMP JUMPDEST PUSH0 PUSH1 0x20 DUP3 ADD SWAP1 POP PUSH2 0x3F03 PUSH0 DUP4 ADD DUP5 PUSH2 0x3EE1 JUMP JUMPDEST SWAP3 SWAP2 POP POP JUMP JUMPDEST PUSH2 0x3F12 DUP2 PUSH2 0x3ED0 JUMP JUMPDEST DUP2 EQ PUSH2 0x3F1C JUMPI PUSH0 DUP1 REVERT JUMPDEST POP JUMP JUMPDEST PUSH0 DUP2 CALLDATALOAD SWAP1 POP PUSH2 0x3F2D DUP2 PUSH2 0x3F09 JUMP JUMPDEST SWAP3 SWAP2 POP POP JUMP JUMPDEST PUSH0 DUP1 REVERT JUMPDEST PUSH0 DUP1 REVERT JUMPDEST PUSH0 DUP1 REVERT JUMPDEST PUSH0 DUP1 DUP4 PUSH1 0x1F DUP5 ADD SLT PUSH2 0x3F54 JUMPI PUSH2 0x3F53 PUSH2 0x3F33 JUMP JUMPDEST JUMPDEST DUP3 CALLDATALOAD SWAP1 POP PUSH8 0xFFFFFFFFFFFFFFFF DUP2 GT ISZERO PUSH2 0x3F71 JUMPI PUSH2 0x3F70 PUSH2 0x3F37 JUMP JUMPDEST JUMPDEST PUSH1 0x20 DUP4 ADD SWAP2 POP DUP4 PUSH1 0x1 DUP3 MUL DUP4 ADD GT ISZERO PUSH2 0x3F8D JUMPI PUSH2 0x3F8C PUSH2 0x3F3B JUMP JUMPDEST JUMPDEST SWAP3 POP SWAP3 SWAP1 POP JUMP JUMPDEST PUSH0 DUP1 PUSH0 DUP1 PUSH0 PUSH1 0x80 DUP7 DUP9 SUB SLT ISZERO PUSH2 0x3FAD JUMPI PUSH2 0x3FAC PUSH2 0x3DD0 JUMP JUMPDEST JUMPDEST PUSH0 PUSH2 0x3FBA DUP9 DUP3 DUP10 ADD PUSH2 0x3F1F JUMP JUMPDEST SWAP6 POP POP PUSH1 0x20 PUSH2 0x3FCB DUP9 DUP3 DUP10 ADD PUSH2 0x3F1F JUMP JUMPDEST SWAP5 POP POP PUSH1 0x40 PUSH2 0x3FDC DUP9 DUP3 DUP10 ADD PUSH2 0x3DF7 JUMP JUMPDEST SWAP4 POP POP PUSH1 0x60 DUP7 ADD CALLDATALOAD PUSH8 0xFFFFFFFFFFFFFFFF DUP2 GT ISZERO PUSH2 0x3FFD JUMPI PUSH2 0x3FFC PUSH2 0x3DD4 JUMP JUMPDEST JUMPDEST PUSH2 0x4009 DUP9 DUP3 DUP10 ADD PUSH2 0x3F3F JUMP JUMPDEST SWAP3 POP SWAP3 POP POP SWAP3 SWAP6 POP SWAP3 SWAP6 SWAP1 SWAP4 POP JUMP JUMPDEST PUSH0 DUP2 ISZERO ISZERO SWAP1 POP SWAP2 SWAP1 POP JUMP JUMPDEST PUSH2 0x402C DUP2 PUSH2 0x4018 JUMP JUMPDEST DUP2 EQ PUSH2 0x4036 JUMPI PUSH0 DUP1 REVERT JUMPDEST POP JUMP JUMPDEST PUSH0 DUP2 CALLDATALOAD SWAP1 POP PUSH2 0x4047 DUP2 PUSH2 0x4023 JUMP JUMPDEST SWAP3 SWAP2 POP POP JUMP JUMPDEST PUSH0 DUP1 PUSH1 0x40 DUP4 DUP6 SUB SLT ISZERO PUSH2 0x4063 JUMPI PUSH2 0x4062 PUSH2 0x3DD0 JUMP JUMPDEST JUMPDEST PUSH0 PUSH2 0x4070 DUP6 DUP3 DUP7 ADD PUSH2 0x3F1F JUMP JUMPDEST SWAP3 POP POP PUSH1 0x20 PUSH2 0x4081 DUP6 DUP3 DUP7 ADD PUSH2 0x4039 JUMP JUMPDEST SWAP2 POP POP SWAP3 POP SWAP3 SWAP1 POP JUMP JUMPDEST PUSH0 DUP1 REVERT JUMPDEST PUSH0 PUSH1 0x1F NOT PUSH1 0x1F DUP4 ADD AND SWAP1 POP SWAP2 SWAP1 POP JUMP JUMPDEST PUSH32 0x4E487B7100000000000000000000000000000000000000000000000000000000 PUSH0 MSTORE PUSH1 0x41 PUSH1 0x4 MSTORE PUSH1 0x24 PUSH0 REVERT JUMPDEST PUSH2 0x40D5 DUP3 PUSH2 0x408F JUMP JUMPDEST DUP2 ADD DUP2 DUP2 LT PUSH8 0xFFFFFFFFFFFFFFFF DUP3 GT OR ISZERO PUSH2 0x40F4 JUMPI PUSH2 0x40F3 PUSH2 0x409F JUMP JUMPDEST JUMPDEST DUP1 PUSH1 0x40 MSTORE POP POP POP JUMP JUMPDEST PUSH0 PUSH2 0x4106 PUSH2 0x3DC7 JUMP JUMPDEST SWAP1 POP PUSH2 0x4112 DUP3 DUP3 PUSH2 0x40CC JUMP JUMPDEST SWAP2 SWAP1 POP JUMP JUMPDEST PUSH0 PUSH8 0xFFFFFFFFFFFFFFFF DUP3 GT ISZERO PUSH2 0x4131 JUMPI PUSH2 0x4130 PUSH2 0x409F JUMP JUMPDEST JUMPDEST PUSH2 0x413A DUP3 PUSH2 0x408F JUMP JUMPDEST SWAP1 POP PUSH1 0x20 DUP2 ADD SWAP1 POP SWAP2 SWAP1 POP JUMP JUMPDEST DUP3 DUP2 DUP4 CALLDATACOPY PUSH0 DUP4 DUP4 ADD MSTORE POP POP POP JUMP JUMPDEST PUSH0 PUSH2 0x4167 PUSH2 0x4162 DUP5 PUSH2 0x4117 JUMP JUMPDEST PUSH2 0x40FD JUMP JUMPDEST SWAP1 POP DUP3 DUP2 MSTORE PUSH1 0x20 DUP2 ADD DUP5 DUP5 DUP5 ADD GT ISZERO PUSH2 0x4183 JUMPI PUSH2 0x4182 PUSH2 0x408B JUMP JUMPDEST JUMPDEST PUSH2 0x418E DUP5 DUP3 DUP6 PUSH2 0x4147 JUMP JUMPDEST POP SWAP4 SWAP3 POP POP POP JUMP JUMPDEST PUSH0 DUP3 PUSH1 0x1F DUP4 ADD SLT PUSH2 0x41AA JUMPI PUSH2 0x41A9 PUSH2 0x3F33 JUMP JUMPDEST JUMPDEST DUP2 CALLDATALOAD PUSH2 0x41BA DUP5 DUP3 PUSH1 0x20 DUP7 ADD PUSH2 0x4155 JUMP JUMPDEST SWAP2 POP POP SWAP3 SWAP2 POP POP JUMP JUMPDEST PUSH0 DUP1 PUSH0 DUP1 PUSH0 PUSH1 0xA0 DUP7 DUP9 SUB SLT ISZERO PUSH2 0x41DC JUMPI PUSH2 0x41DB PUSH2 0x3DD0 JUMP JUMPDEST JUMPDEST PUSH0 PUSH2 0x41E9 DUP9 DUP3 DUP10 ADD PUSH2 0x3DF7 JUMP JUMPDEST SWAP6 POP POP PUSH1 0x20 PUSH2 0x41FA DUP9 DUP3 DUP10 ADD PUSH2 0x3DF7 JUMP JUMPDEST SWAP5 POP POP PUSH1 0x40 PUSH2 0x420B DUP9 DUP3 DUP10 ADD PUSH2 0x3DF7 JUMP JUMPDEST SWAP4 POP POP PUSH1 0x60 PUSH2 0x421C DUP9 DUP3 DUP10 ADD PUSH2 0x3DF7 JUMP JUMPDEST SWAP3 POP POP PUSH1 0x80 DUP7 ADD CALLDATALOAD PUSH8 0xFFFFFFFFFFFFFFFF DUP2 GT ISZERO PUSH2 0x423D JUMPI PUSH2 0x423C PUSH2 0x3DD4 JUMP JUMPDEST JUMPDEST PUSH2 0x4249 DUP9 DUP3 DUP10 ADD PUSH2 0x4196 JUMP JUMPDEST SWAP2 POP POP SWAP3 SWAP6 POP SWAP3 SWAP6 SWAP1 SWAP4 POP JUMP JUMPDEST PUSH0 DUP1 PUSH1 0x40 DUP4 DUP6 SUB SLT ISZERO PUSH2 0x426C JUMPI PUSH2 0x426B PUSH2 0x3DD0 JUMP JUMPDEST JUMPDEST PUSH0 PUSH2 0x4279 DUP6 DUP3 DUP7 ADD PUSH2 0x3F1F JUMP JUMPDEST SWAP3 POP POP PUSH1 0x20 PUSH2 0x428A DUP6 DUP3 DUP7 ADD PUSH2 0x3DF7 JUMP JUMPDEST SWAP2 POP POP SWAP3 POP SWAP3 SWAP1 POP JUMP JUMPDEST PUSH0 DUP1 PUSH0 DUP1 PUSH0 DUP1 PUSH1 0xC0 DUP8 DUP10 SUB SLT ISZERO PUSH2 0x42AE JUMPI PUSH2 0x42AD PUSH2 0x3DD0 JUMP JUMPDEST JUMPDEST PUSH0 PUSH2 0x42BB DUP10 DUP3 DUP11 ADD PUSH2 0x3F1F JUMP JUMPDEST SWAP7 POP POP PUSH1 0x20 PUSH2 0x42CC DUP10 DUP3 DUP11 ADD PUSH2 0x4039 JUMP JUMPDEST SWAP6 POP POP PUSH1 0x40 PUSH2 0x42DD DUP10 DUP3 DUP11 ADD PUSH2 0x3F1F JUMP JUMPDEST SWAP5 POP POP PUSH1 0x60 PUSH2 0x42EE DUP10 DUP3 DUP11 ADD PUSH2 0x3DF7 JUMP JUMPDEST SWAP4 POP POP PUSH1 0x80 PUSH2 0x42FF DUP10 DUP3 DUP11 ADD PUSH2 0x3DF7 JUMP JUMPDEST SWAP3 POP POP PUSH1 0xA0 PUSH2 0x4310 DUP10 DUP3 DUP11 ADD PUSH2 0x3DF7 JUMP JUMPDEST SWAP2 POP POP SWAP3 SWAP6 POP SWAP3 SWAP6 POP SWAP3 SWAP6 JUMP JUMPDEST PUSH2 0x4326 DUP2 PUSH2 0x3E5E JUMP JUMPDEST DUP2 EQ PUSH2 0x4330 JUMPI PUSH0 DUP1 REVERT JUMPDEST POP JUMP JUMPDEST PUSH0 DUP2 CALLDATALOAD SWAP1 POP PUSH2 0x4341 DUP2 PUSH2 0x431D JUMP JUMPDEST SWAP3 SWAP2 POP POP JUMP JUMPDEST PUSH0 DUP1 PUSH0 DUP1 PUSH1 0x80 DUP6 DUP8 SUB SLT ISZERO PUSH2 0x435F JUMPI PUSH2 0x435E PUSH2 0x3DD0 JUMP JUMPDEST JUMPDEST PUSH0 PUSH2 0x436C DUP8 DUP3 DUP9 ADD PUSH2 0x3F1F JUMP JUMPDEST SWAP5 POP POP PUSH1 0x20 PUSH2 0x437D DUP8 DUP3 DUP9 ADD PUSH2 0x3DF7 JUMP JUMPDEST SWAP4 POP POP PUSH1 0x40 PUSH2 0x438E DUP8 DUP3 DUP9 ADD PUSH2 0x4333 JUMP JUMPDEST SWAP3 POP POP PUSH1 0x60 PUSH2 0x439F DUP8 DUP3 DUP9 ADD PUSH2 0x4039 JUMP JUMPDEST SWAP2 POP POP SWAP3 SWAP6 SWAP2 SWAP5 POP SWAP3 POP JUMP JUMPDEST PUSH0 DUP1 DUP4 PUSH1 0x1F DUP5 ADD SLT PUSH2 0x43C0 JUMPI PUSH2 0x43BF PUSH2 0x3F33 JUMP JUMPDEST JUMPDEST DUP3 CALLDATALOAD SWAP1 POP PUSH8 0xFFFFFFFFFFFFFFFF DUP2 GT ISZERO PUSH2 0x43DD JUMPI PUSH2 0x43DC PUSH2 0x3F37 JUMP JUMPDEST JUMPDEST PUSH1 0x20 DUP4 ADD SWAP2 POP DUP4 PUSH1 0x20 DUP3 MUL DUP4 ADD GT ISZERO PUSH2 0x43F9 JUMPI PUSH2 0x43F8 PUSH2 0x3F3B JUMP JUMPDEST JUMPDEST SWAP3 POP SWAP3 SWAP1 POP JUMP JUMPDEST PUSH0 DUP1 PUSH0 DUP1 PUSH0 DUP1 PUSH0 DUP1 PUSH1 0xA0 DUP10 DUP12 SUB SLT ISZERO PUSH2 0x441C JUMPI PUSH2 0x441B PUSH2 0x3DD0 JUMP JUMPDEST JUMPDEST PUSH0 PUSH2 0x4429 DUP12 DUP3 DUP13 ADD PUSH2 0x3F1F JUMP JUMPDEST SWAP9 POP POP PUSH1 0x20 PUSH2 0x443A DUP12 DUP3 DUP13 ADD PUSH2 0x3F1F JUMP JUMPDEST SWAP8 POP POP PUSH1 0x40 DUP10 ADD CALLDATALOAD PUSH8 0xFFFFFFFFFFFFFFFF DUP2 GT ISZERO PUSH2 0x445B JUMPI PUSH2 0x445A PUSH2 0x3DD4 JUMP JUMPDEST JUMPDEST PUSH2 0x4467 DUP12 DUP3 DUP13 ADD PUSH2 0x43AB JUMP JUMPDEST SWAP7 POP SWAP7 POP POP PUSH1 0x60 DUP10 ADD CALLDATALOAD PUSH8 0xFFFFFFFFFFFFFFFF DUP2 GT ISZERO PUSH2 0x448A JUMPI PUSH2 0x4489 PUSH2 0x3DD4 JUMP JUMPDEST JUMPDEST PUSH2 0x4496 DUP12 DUP3 DUP13 ADD PUSH2 0x43AB JUMP JUMPDEST SWAP5 POP SWAP5 POP POP PUSH1 0x80 DUP10 ADD CALLDATALOAD PUSH8 0xFFFFFFFFFFFFFFFF DUP2 GT ISZERO PUSH2 0x44B9 JUMPI PUSH2 0x44B8 PUSH2 0x3DD4 JUMP JUMPDEST JUMPDEST PUSH2 0x44C5 DUP12 DUP3 DUP13 ADD PUSH2 0x3F3F JUMP JUMPDEST SWAP3 POP SWAP3 POP POP SWAP3 SWAP6 SWAP9 POP SWAP3 SWAP6 SWAP9 SWAP1 SWAP4 SWAP7 POP JUMP JUMPDEST PUSH0 PUSH8 0xFFFFFFFFFFFFFFFF DUP3 GT ISZERO PUSH2 0x44F1 JUMPI PUSH2 0x44F0 PUSH2 0x409F JUMP JUMPDEST JUMPDEST PUSH1 0x20 DUP3 MUL SWAP1 POP PUSH1 0x20 DUP2 ADD SWAP1 POP SWAP2 SWAP1 POP JUMP JUMPDEST PUSH0 PUSH2 0x4514 PUSH2 0x450F DUP5 PUSH2 0x44D7 JUMP JUMPDEST PUSH2 0x40FD JUMP JUMPDEST SWAP1 POP DUP1 DUP4 DUP3 MSTORE PUSH1 0x20 DUP3 ADD SWAP1 POP PUSH1 0x20 DUP5 MUL DUP4 ADD DUP6 DUP2 GT ISZERO PUSH2 0x4537 JUMPI PUSH2 0x4536 PUSH2 0x3F3B JUMP JUMPDEST JUMPDEST DUP4 JUMPDEST DUP2 DUP2 LT ISZERO PUSH2 0x4560 JUMPI DUP1 PUSH2 0x454C DUP9 DUP3 PUSH2 0x3DF7 JUMP JUMPDEST DUP5 MSTORE PUSH1 0x20 DUP5 ADD SWAP4 POP POP PUSH1 0x20 DUP2 ADD SWAP1 POP PUSH2 0x4539 JUMP JUMPDEST POP POP POP SWAP4 SWAP3 POP POP POP JUMP JUMPDEST PUSH0 DUP3 PUSH1 0x1F DUP4 ADD SLT PUSH2 0x457E JUMPI PUSH2 0x457D PUSH2 0x3F33 JUMP JUMPDEST JUMPDEST DUP2 CALLDATALOAD PUSH2 0x458E DUP5 DUP3 PUSH1 0x20 DUP7 ADD PUSH2 0x4502 JUMP JUMPDEST SWAP2 POP POP SWAP3 SWAP2 POP POP JUMP JUMPDEST PUSH0 PUSH1 0x20 DUP3 DUP5 SUB SLT ISZERO PUSH2 0x45AC JUMPI PUSH2 0x45AB PUSH2 0x3DD0 JUMP JUMPDEST JUMPDEST PUSH0 DUP3 ADD CALLDATALOAD PUSH8 0xFFFFFFFFFFFFFFFF DUP2 GT ISZERO PUSH2 0x45C9 JUMPI PUSH2 0x45C8 PUSH2 0x3DD4 JUMP JUMPDEST JUMPDEST PUSH2 0x45D5 DUP5 DUP3 DUP6 ADD PUSH2 0x456A JUMP JUMPDEST SWAP2 POP POP SWAP3 SWAP2 POP POP JUMP JUMPDEST PUSH0 PUSH1 0x20 DUP3 DUP5 SUB SLT ISZERO PUSH2 0x45F3 JUMPI PUSH2 0x45F2 PUSH2 0x3DD0 JUMP JUMPDEST JUMPDEST PUSH0 PUSH2 0x4600 DUP5 DUP3 DUP6 ADD PUSH2 0x3F1F JUMP JUMPDEST SWAP2 POP POP SWAP3 SWAP2 POP POP JUMP JUMPDEST PUSH0 DUP1 PUSH0 DUP1 PUSH1 0x80 DUP6 DUP8 SUB SLT ISZERO PUSH2 0x4621 JUMPI PUSH2 0x4620 PUSH2 0x3DD0 JUMP JUMPDEST JUMPDEST PUSH0 PUSH2 0x462E DUP8 DUP3 DUP9 ADD PUSH2 0x3F1F JUMP JUMPDEST SWAP5 POP POP PUSH1 0x20 PUSH2 0x463F DUP8 DUP3 DUP9 ADD PUSH2 0x4039 JUMP JUMPDEST SWAP4 POP POP PUSH1 0x40 PUSH2 0x4650 DUP8 DUP3 DUP9 ADD PUSH2 0x3F1F JUMP JUMPDEST SWAP3 POP POP PUSH1 0x60 DUP6 ADD CALLDATALOAD PUSH8 0xFFFFFFFFFFFFFFFF DUP2 GT ISZERO PUSH2 0x4671 JUMPI PUSH2 0x4670 PUSH2 0x3DD4 JUMP JUMPDEST JUMPDEST PUSH2 0x467D DUP8 DUP3 DUP9 ADD PUSH2 0x456A JUMP JUMPDEST SWAP2 POP POP SWAP3 SWAP6 SWAP2 SWAP5 POP SWAP3 POP JUMP JUMPDEST PUSH0 DUP1 PUSH0 DUP1 PUSH0 DUP1 PUSH1 0xA0 DUP8 DUP10 SUB SLT ISZERO PUSH2 0x46A3 JUMPI PUSH2 0x46A2 PUSH2 0x3DD0 JUMP JUMPDEST JUMPDEST PUSH0 PUSH2 0x46B0 DUP10 DUP3 DUP11 ADD PUSH2 0x3F1F JUMP JUMPDEST SWAP7 POP POP PUSH1 0x20 PUSH2 0x46C1 DUP10 DUP3 DUP11 ADD PUSH2 0x3F1F JUMP JUMPDEST SWAP6 POP POP PUSH1 0x40 PUSH2 0x46D2 DUP10 DUP3 DUP11 ADD PUSH2 0x3DF7 JUMP JUMPDEST SWAP5 POP POP PUSH1 0x60 PUSH2 0x46E3 DUP10 DUP3 DUP11 ADD PUSH2 0x3DF7 JUMP JUMPDEST SWAP4 POP POP PUSH1 0x80 DUP8 ADD CALLDATALOAD PUSH8 0xFFFFFFFFFFFFFFFF DUP2 GT ISZERO PUSH2 0x4704 JUMPI PUSH2 0x4703 PUSH2 0x3DD4 JUMP JUMPDEST JUMPDEST PUSH2 0x4710 DUP10 DUP3 DUP11 ADD PUSH2 0x3F3F JUMP JUMPDEST SWAP3 POP SWAP3 POP POP SWAP3 SWAP6 POP SWAP3 SWAP6 POP SWAP3 SWAP6 JUMP JUMPDEST PUSH0 DUP1 PUSH0 PUSH1 0x60 DUP5 DUP7 SUB SLT ISZERO PUSH2 0x4736 JUMPI PUSH2 0x4735 PUSH2 0x3DD0 JUMP JUMPDEST JUMPDEST PUSH0 PUSH2 0x4743 DUP7 DUP3 DUP8 ADD PUSH2 0x3F1F JUMP JUMPDEST SWAP4 POP POP PUSH1 0x20 PUSH2 0x4754 DUP7 DUP3 DUP8 ADD PUSH2 0x3DF7 JUMP JUMPDEST SWAP3 POP POP PUSH1 0x40 PUSH2 0x4765 DUP7 DUP3 DUP8 ADD PUSH2 0x3DF7 JUMP JUMPDEST SWAP2 POP POP SWAP3 POP SWAP3 POP SWAP3 JUMP JUMPDEST PUSH2 0x4778 DUP2 PUSH2 0x3ED0 JUMP JUMPDEST DUP3 MSTORE POP POP JUMP JUMPDEST PUSH2 0x4787 DUP2 PUSH2 0x3DD8 JUMP JUMPDEST DUP3 MSTORE POP POP JUMP JUMPDEST PUSH2 0x4796 DUP2 PUSH2 0x4018 JUMP JUMPDEST DUP3 MSTORE POP POP JUMP JUMPDEST PUSH2 0x1E0 DUP3 ADD PUSH0 DUP3 ADD MLOAD PUSH2 0x47B1 PUSH0 DUP6 ADD DUP3 PUSH2 0x476F JUMP JUMPDEST POP PUSH1 0x20 DUP3 ADD MLOAD PUSH2 0x47C4 PUSH1 0x20 DUP6 ADD DUP3 PUSH2 0x476F JUMP JUMPDEST POP PUSH1 0x40 DUP3 ADD MLOAD PUSH2 0x47D7 PUSH1 0x40 DUP6 ADD DUP3 PUSH2 0x477E JUMP JUMPDEST POP PUSH1 0x60 DUP3 ADD MLOAD PUSH2 0x47EA PUSH1 0x60 DUP6 ADD DUP3 PUSH2 0x477E JUMP JUMPDEST POP PUSH1 0x80 DUP3 ADD MLOAD PUSH2 0x47FD PUSH1 0x80 DUP6 ADD DUP3 PUSH2 0x477E JUMP JUMPDEST POP PUSH1 0xA0 DUP3 ADD MLOAD PUSH2 0x4810 PUSH1 0xA0 DUP6 ADD DUP3 PUSH2 0x476F JUMP JUMPDEST POP PUSH1 0xC0 DUP3 ADD MLOAD PUSH2 0x4823 PUSH1 0xC0 DUP6 ADD DUP3 PUSH2 0x477E JUMP JUMPDEST POP PUSH1 0xE0 DUP3 ADD MLOAD PUSH2 0x4836 PUSH1 0xE0 DUP6 ADD DUP3 PUSH2 0x477E JUMP JUMPDEST POP PUSH2 0x100 DUP3 ADD MLOAD PUSH2 0x484B PUSH2 0x100 DUP6 ADD DUP3 PUSH2 0x477E JUMP JUMPDEST POP PUSH2 0x120 DUP3 ADD MLOAD PUSH2 0x4860 PUSH2 0x120 DUP6 ADD DUP3 PUSH2 0x477E JUMP JUMPDEST POP PUSH2 0x140 DUP3 ADD MLOAD PUSH2 0x4875 PUSH2 0x140 DUP6 ADD DUP3 PUSH2 0x477E JUMP JUMPDEST POP PUSH2 0x160 DUP3 ADD MLOAD PUSH2 0x488A PUSH2 0x160 DUP6 ADD DUP3 PUSH2 0x477E JUMP JUMPDEST POP PUSH2 0x180 DUP3 ADD MLOAD PUSH2 0x489F PUSH2 0x180 DUP6 ADD DUP3 PUSH2 0x477E JUMP JUMPDEST POP PUSH2 0x1A0 DUP3 ADD MLOAD PUSH2 0x48B4 PUSH2 0x1A0 DUP6 ADD DUP3 PUSH2 0x477E JUMP JUMPDEST POP PUSH2 0x1C0 DUP3 ADD MLOAD PUSH2 0x48C9 PUSH2 0x1C0 DUP6 ADD DUP3 PUSH2 0x478D JUMP JUMPDEST POP POP POP POP JUMP JUMPDEST PUSH0 PUSH2 0x1E0 DUP3 ADD SWAP1 POP PUSH2 0x48E3 PUSH0 DUP4 ADD DUP5 PUSH2 0x479C JUMP JUMPDEST SWAP3 SWAP2 POP POP JUMP JUMPDEST PUSH0 DUP3 DUP3 MSTORE PUSH1 0x20 DUP3 ADD SWAP1 POP SWAP3 SWAP2 POP POP JUMP JUMPDEST PUSH32 0x636C61696D3A20636F6E74726163742069732070617573656400000000000000 PUSH0 DUP3 ADD MSTORE POP JUMP JUMPDEST PUSH0 PUSH2 0x492D PUSH1 0x19 DUP4 PUSH2 0x48E9 JUMP JUMPDEST SWAP2 POP PUSH2 0x4938 DUP3 PUSH2 0x48F9 JUMP JUMPDEST PUSH1 0x20 DUP3 ADD SWAP1 POP SWAP2 SWAP1 POP JUMP JUMPDEST PUSH0 PUSH1 0x20 DUP3 ADD SWAP1 POP DUP2 DUP2 SUB PUSH0 DUP4 ADD MSTORE PUSH2 0x495A DUP2 PUSH2 0x4921 JUMP JUMPDEST SWAP1 POP SWAP2 SWAP1 POP JUMP JUMPDEST PUSH32 0x636C61696D3A20436C61696D696E672069732063757272656E746C79206E6F74 PUSH0 DUP3 ADD MSTORE PUSH32 0x20616C6C6F776564000000000000000000000000000000000000000000000000 PUSH1 0x20 DUP3 ADD MSTORE POP JUMP JUMPDEST PUSH0 PUSH2 0x49BB PUSH1 0x28 DUP4 PUSH2 0x48E9 JUMP JUMPDEST SWAP2 POP PUSH2 0x49C6 DUP3 PUSH2 0x4961 JUMP JUMPDEST PUSH1 0x40 DUP3 ADD SWAP1 POP SWAP2 SWAP1 POP JUMP JUMPDEST PUSH0 PUSH1 0x20 DUP3 ADD SWAP1 POP DUP2 DUP2 SUB PUSH0 DUP4 ADD MSTORE PUSH2 0x49E8 DUP2 PUSH2 0x49AF JUMP JUMPDEST SWAP1 POP SWAP2 SWAP1 POP JUMP JUMPDEST PUSH32 0x636C61696D3A2041756374696F6E20686173206E6F742079657420656E646564 PUSH0 DUP3 ADD MSTORE POP JUMP JUMPDEST PUSH0 PUSH2 0x4A23 PUSH1 0x20 DUP4 PUSH2 0x48E9 JUMP JUMPDEST SWAP2 POP PUSH2 0x4A2E DUP3 PUSH2 0x49EF JUMP JUMPDEST PUSH1 0x20 DUP3 ADD SWAP1 POP SWAP2 SWAP1 POP JUMP JUMPDEST PUSH0 PUSH1 0x20 DUP3 ADD SWAP1 POP DUP2 DUP2 SUB PUSH0 DUP4 ADD MSTORE PUSH2 0x4A50 DUP2 PUSH2 0x4A17 JUMP JUMPDEST SWAP1 POP SWAP2 SWAP1 POP JUMP JUMPDEST PUSH32 0x636C61696D3A204974656D2068617320616C7265616479206265656E20636C61 PUSH0 DUP3 ADD MSTORE PUSH32 0x696D656400000000000000000000000000000000000000000000000000000000 PUSH1 0x20 DUP3 ADD MSTORE POP JUMP JUMPDEST PUSH0 PUSH2 0x4AB1 PUSH1 0x24 DUP4 PUSH2 0x48E9 JUMP JUMPDEST SWAP2 POP PUSH2 0x4ABC DUP3 PUSH2 0x4A57 JUMP JUMPDEST PUSH1 0x40 DUP3 ADD SWAP1 POP SWAP2 SWAP1 POP JUMP JUMPDEST PUSH0 PUSH1 0x20 DUP3 ADD SWAP1 POP DUP2 DUP2 SUB PUSH0 DUP4 ADD MSTORE PUSH2 0x4ADE DUP2 PUSH2 0x4AA5 JUMP JUMPDEST SWAP1 POP SWAP2 SWAP1 POP JUMP JUMPDEST PUSH32 0x4E487B7100000000000000000000000000000000000000000000000000000000 PUSH0 MSTORE PUSH1 0x11 PUSH1 0x4 MSTORE PUSH1 0x24 PUSH0 REVERT JUMPDEST PUSH0 PUSH2 0x4B1C DUP3 PUSH2 0x3DD8 JUMP JUMPDEST SWAP2 POP PUSH2 0x4B27 DUP4 PUSH2 0x3DD8 JUMP JUMPDEST SWAP3 POP DUP3 DUP3 SUB SWAP1 POP DUP2 DUP2 GT ISZERO PUSH2 0x4B3F JUMPI PUSH2 0x4B3E PUSH2 0x4AE5 JUMP JUMPDEST JUMPDEST SWAP3 SWAP2 POP POP JUMP JUMPDEST PUSH0 PUSH1 0x40 DUP3 ADD SWAP1 POP PUSH2 0x4B58 PUSH0 DUP4 ADD DUP6 PUSH2 0x3EE1 JUMP JUMPDEST PUSH2 0x4B65 PUSH1 0x20 DUP4 ADD DUP5 PUSH2 0x3E36 JUMP JUMPDEST SWAP4 SWAP3 POP POP POP JUMP JUMPDEST PUSH0 DUP2 MLOAD SWAP1 POP PUSH2 0x4B7A DUP2 PUSH2 0x4023 JUMP JUMPDEST SWAP3 SWAP2 POP POP JUMP JUMPDEST PUSH0 PUSH1 0x20 DUP3 DUP5 SUB SLT ISZERO PUSH2 0x4B95 JUMPI PUSH2 0x4B94 PUSH2 0x3DD0 JUMP JUMPDEST JUMPDEST PUSH0 PUSH2 0x4BA2 DUP5 DUP3 DUP6 ADD PUSH2 0x4B6C JUMP JUMPDEST SWAP2 POP POP SWAP3 SWAP2 POP POP JUMP JUMPDEST PUSH0 PUSH2 0x4BB5 DUP3 PUSH2 0x3DD8 JUMP JUMPDEST SWAP2 POP PUSH2 0x4BC0 DUP4 PUSH2 0x3DD8 JUMP JUMPDEST SWAP3 POP DUP3 DUP3 MUL PUSH2 0x4BCE DUP2 PUSH2 0x3DD8 JUMP JUMPDEST SWAP2 POP DUP3 DUP3 DIV DUP5 EQ DUP4 ISZERO OR PUSH2 0x4BE5 JUMPI PUSH2 0x4BE4 PUSH2 0x4AE5 JUMP JUMPDEST JUMPDEST POP SWAP3 SWAP2 POP POP JUMP JUMPDEST PUSH32 0x4E487B7100000000000000000000000000000000000000000000000000000000 PUSH0 MSTORE PUSH1 0x12 PUSH1 0x4 MSTORE PUSH1 0x24 PUSH0 REVERT JUMPDEST PUSH0 PUSH2 0x4C23 DUP3 PUSH2 0x3DD8 JUMP JUMPDEST SWAP2 POP PUSH2 0x4C2E DUP4 PUSH2 0x3DD8 JUMP JUMPDEST SWAP3 POP DUP3 PUSH2 0x4C3E JUMPI PUSH2 0x4C3D PUSH2 0x4BEC JUMP JUMPDEST JUMPDEST DUP3 DUP3 DIV SWAP1 POP SWAP3 SWAP2 POP POP JUMP JUMPDEST PUSH0 PUSH1 0x60 DUP3 ADD SWAP1 POP PUSH2 0x4C5C PUSH0 DUP4 ADD DUP7 PUSH2 0x3EE1 JUMP JUMPDEST PUSH2 0x4C69 PUSH1 0x20 DUP4 ADD DUP6 PUSH2 0x3EE1 JUMP JUMPDEST PUSH2 0x4C76 PUSH1 0x40 DUP4 ADD DUP5 PUSH2 0x3E36 JUMP JUMPDEST SWAP5 SWAP4 POP POP POP POP JUMP JUMPDEST PUSH0 DUP2 SWAP1 POP SWAP2 SWAP1 POP JUMP JUMPDEST PUSH0 DUP2 SWAP1 POP SWAP2 SWAP1 POP JUMP JUMPDEST PUSH0 PUSH2 0x4CAA PUSH2 0x4CA5 PUSH2 0x4CA0 DUP5 PUSH2 0x4C7E JUMP JUMPDEST PUSH2 0x4C87 JUMP JUMPDEST PUSH2 0x3DD8 JUMP JUMPDEST SWAP1 POP SWAP2 SWAP1 POP JUMP JUMPDEST PUSH2 0x4CBA DUP2 PUSH2 0x4C90 JUMP JUMPDEST DUP3 MSTORE POP POP JUMP JUMPDEST PUSH0 DUP3 DUP3 MSTORE PUSH1 0x20 DUP3 ADD SWAP1 POP SWAP3 SWAP2 POP POP JUMP JUMPDEST POP JUMP JUMPDEST PUSH0 PUSH2 0x4CDE PUSH0 DUP4 PUSH2 0x4CC0 JUMP JUMPDEST SWAP2 POP PUSH2 0x4CE9 DUP3 PUSH2 0x4CD0 JUMP JUMPDEST PUSH0 DUP3 ADD SWAP1 POP SWAP2 SWAP1 POP JUMP JUMPDEST PUSH0 PUSH1 0xA0 DUP3 ADD SWAP1 POP PUSH2 0x4D06 PUSH0 DUP4 ADD DUP8 PUSH2 0x3EE1 JUMP JUMPDEST PUSH2 0x4D13 PUSH1 0x20 DUP4 ADD DUP7 PUSH2 0x3EE1 JUMP JUMPDEST PUSH2 0x4D20 PUSH1 0x40 DUP4 ADD DUP6 PUSH2 0x3E36 JUMP JUMPDEST PUSH2 0x4D2D PUSH1 0x60 DUP4 ADD DUP5 PUSH2 0x4CB1 JUMP JUMPDEST DUP2 DUP2 SUB PUSH1 0x80 DUP4 ADD MSTORE PUSH2 0x4D3E DUP2 PUSH2 0x4CD3 JUMP JUMPDEST SWAP1 POP SWAP6 SWAP5 POP POP POP POP POP JUMP JUMPDEST PUSH2 0x4D52 DUP2 PUSH2 0x4018 JUMP JUMPDEST DUP3 MSTORE POP POP JUMP JUMPDEST PUSH0 PUSH1 0x20 DUP3 ADD SWAP1 POP PUSH2 0x4D6B PUSH0 DUP4 ADD DUP5 PUSH2 0x4D49 JUMP JUMPDEST SWAP3 SWAP2 POP POP JUMP JUMPDEST PUSH32 0x636F6D6D69744269643A205369676E6174757265206578706972656400000000 PUSH0 DUP3 ADD MSTORE POP JUMP JUMPDEST PUSH0 PUSH2 0x4DA5 PUSH1 0x1C DUP4 PUSH2 0x48E9 JUMP JUMPDEST SWAP2 POP PUSH2 0x4DB0 DUP3 PUSH2 0x4D71 JUMP JUMPDEST PUSH1 0x20 DUP3 ADD SWAP1 POP SWAP2 SWAP1 POP JUMP JUMPDEST PUSH0 PUSH1 0x20 DUP3 ADD SWAP1 POP DUP2 DUP2 SUB PUSH0 DUP4 ADD MSTORE PUSH2 0x4DD2 DUP2 PUSH2 0x4D99 JUMP JUMPDEST SWAP1 POP SWAP2 SWAP1 POP JUMP JUMPDEST PUSH0 DUP2 PUSH1 0x60 SHL SWAP1 POP SWAP2 SWAP1 POP JUMP JUMPDEST PUSH0 PUSH2 0x4DEF DUP3 PUSH2 0x4DD9 JUMP JUMPDEST SWAP1 POP SWAP2 SWAP1 POP JUMP JUMPDEST PUSH0 PUSH2 0x4E00 DUP3 PUSH2 0x4DE5 JUMP JUMPDEST SWAP1 POP SWAP2 SWAP1 POP JUMP JUMPDEST PUSH2 0x4E18 PUSH2 0x4E13 DUP3 PUSH2 0x3ED0 JUMP JUMPDEST PUSH2 0x4DF6 JUMP JUMPDEST DUP3 MSTORE POP POP JUMP JUMPDEST PUSH0 DUP2 SWAP1 POP SWAP2 SWAP1 POP JUMP JUMPDEST PUSH2 0x4E38 PUSH2 0x4E33 DUP3 PUSH2 0x3DD8 JUMP JUMPDEST PUSH2 0x4E1E JUMP JUMPDEST DUP3 MSTORE POP POP JUMP JUMPDEST PUSH0 PUSH2 0x4E49 DUP3 DUP9 PUSH2 0x4E07 JUMP JUMPDEST PUSH1 0x14 DUP3 ADD SWAP2 POP PUSH2 0x4E59 DUP3 DUP8 PUSH2 0x4E27 JUMP JUMPDEST PUSH1 0x20 DUP3 ADD SWAP2 POP PUSH2 0x4E69 DUP3 DUP7 PUSH2 0x4E27 JUMP JUMPDEST PUSH1 0x20 DUP3 ADD SWAP2 POP PUSH2 0x4E79 DUP3 DUP6 PUSH2 0x4E27 JUMP JUMPDEST PUSH1 0x20 DUP3 ADD SWAP2 POP PUSH2 0x4E89 DUP3 DUP5 PUSH2 0x4E27 JUMP JUMPDEST PUSH1 0x20 DUP3 ADD SWAP2 POP DUP2 SWAP1 POP SWAP7 SWAP6 POP POP POP POP POP POP JUMP JUMPDEST PUSH32 0x4E487B7100000000000000000000000000000000000000000000000000000000 PUSH0 MSTORE PUSH1 0x22 PUSH1 0x4 MSTORE PUSH1 0x24 PUSH0 REVERT JUMPDEST PUSH0 PUSH1 0x2 DUP3 DIV SWAP1 POP PUSH1 0x1 DUP3 AND DUP1 PUSH2 0x4EE0 JUMPI PUSH1 0x7F DUP3 AND SWAP2 POP JUMPDEST PUSH1 0x20 DUP3 LT DUP2 SUB PUSH2 0x4EF3 JUMPI PUSH2 0x4EF2 PUSH2 0x4E9C JUMP JUMPDEST JUMPDEST POP SWAP2 SWAP1 POP JUMP JUMPDEST PUSH32 0x6269643A20496E76616C6964207369676E617475726500000000000000000000 PUSH0 DUP3 ADD MSTORE POP JUMP JUMPDEST PUSH0 PUSH2 0x4F2D PUSH1 0x16 DUP4 PUSH2 0x48E9 JUMP JUMPDEST SWAP2 POP PUSH2 0x4F38 DUP3 PUSH2 0x4EF9 JUMP JUMPDEST PUSH1 0x20 DUP3 ADD SWAP1 POP SWAP2 SWAP1 POP JUMP JUMPDEST PUSH0 PUSH1 0x20 DUP3 ADD SWAP1 POP DUP2 DUP2 SUB PUSH0 DUP4 ADD MSTORE PUSH2 0x4F5A DUP2 PUSH2 0x4F21 JUMP JUMPDEST SWAP1 POP SWAP2 SWAP1 POP JUMP JUMPDEST PUSH0 PUSH1 0xA0 DUP3 ADD SWAP1 POP PUSH2 0x4F74 PUSH0 DUP4 ADD DUP8 PUSH2 0x3EE1 JUMP JUMPDEST PUSH2 0x4F81 PUSH1 0x20 DUP4 ADD DUP7 PUSH2 0x3EE1 JUMP JUMPDEST PUSH2 0x4F8E PUSH1 0x40 DUP4 ADD DUP6 PUSH2 0x3E36 JUMP JUMPDEST PUSH2 0x4F9B PUSH1 0x60 DUP4 ADD DUP5 PUSH2 0x3E36 JUMP JUMPDEST DUP2 DUP2 SUB PUSH1 0x80 DUP4 ADD MSTORE PUSH2 0x4FAC DUP2 PUSH2 0x4CD3 JUMP JUMPDEST SWAP1 POP SWAP6 SWAP5 POP POP POP POP POP JUMP JUMPDEST PUSH0 PUSH2 0x4FC1 DUP3 PUSH2 0x3DD8 JUMP JUMPDEST SWAP2 POP PUSH32 0xFFFFFFFFFFFFFFFFFFFFFFFFFFFFFFFFFFFFFFFFFFFFFFFFFFFFFFFFFFFFFFFF DUP3 SUB PUSH2 0x4FF3 JUMPI PUSH2 0x4FF2 PUSH2 0x4AE5 JUMP JUMPDEST JUMPDEST PUSH1 0x1 DUP3 ADD SWAP1 POP SWAP2 SWAP1 POP JUMP JUMPDEST PUSH32 0x4E487B7100000000000000000000000000000000000000000000000000000000 PUSH0 MSTORE PUSH1 0x32 PUSH1 0x4 MSTORE PUSH1 0x24 PUSH0 REVERT JUMPDEST PUSH32 0x4E6F2061756374696F6E7320746F206372656174650000000000000000000000 PUSH0 DUP3 ADD MSTORE POP JUMP JUMPDEST PUSH0 PUSH2 0x505F PUSH1 0x15 DUP4 PUSH2 0x48E9 JUMP JUMPDEST SWAP2 POP PUSH2 0x506A DUP3 PUSH2 0x502B JUMP JUMPDEST PUSH1 0x20 DUP3 ADD SWAP1 POP SWAP2 SWAP1 POP JUMP JUMPDEST PUSH0 PUSH1 0x20 DUP3 ADD SWAP1 POP DUP2 DUP2 SUB PUSH0 DUP4 ADD MSTORE PUSH2 0x508C DUP2 PUSH2 0x5053 JUMP JUMPDEST SWAP1 POP SWAP2 SWAP1 POP JUMP JUMPDEST PUSH0 PUSH1 0x80 DUP3 ADD SWAP1 POP PUSH2 0x50A6 PUSH0 DUP4 ADD DUP7 PUSH2 0x3EE1 JUMP JUMPDEST PUSH2 0x50B3 PUSH1 0x20 DUP4 ADD DUP6 PUSH2 0x3EE1 JUMP JUMPDEST PUSH2 0x50C0 PUSH1 0x40 DUP4 ADD DUP5 PUSH2 0x3E36 JUMP JUMPDEST DUP2 DUP2 SUB PUSH1 0x60 DUP4 ADD MSTORE PUSH2 0x50D1 DUP2 PUSH2 0x4CD3 JUMP JUMPDEST SWAP1 POP SWAP5 SWAP4 POP POP POP POP JUMP JUMPDEST PUSH32 0x4C69624469616D6F6E643A204D75737420626520636F6E7472616374206F776E PUSH0 DUP3 ADD MSTORE PUSH32 0x6572000000000000000000000000000000000000000000000000000000000000 PUSH1 0x20 DUP3 ADD MSTORE POP JUMP JUMPDEST PUSH0 PUSH2 0x5135 PUSH1 0x22 DUP4 PUSH2 0x48E9 JUMP JUMPDEST SWAP2 POP PUSH2 0x5140 DUP3 PUSH2 0x50DB JUMP JUMPDEST PUSH1 0x40 DUP3 ADD SWAP1 POP SWAP2 SWAP1 POP JUMP JUMPDEST PUSH0 PUSH1 0x20 DUP3 ADD SWAP1 POP DUP2 DUP2 SUB PUSH0 DUP4 ADD MSTORE PUSH2 0x5162 DUP2 PUSH2 0x5129 JUMP JUMPDEST SWAP1 POP SWAP2 SWAP1 POP JUMP JUMPDEST PUSH0 PUSH1 0xFF DUP3 AND SWAP1 POP SWAP2 SWAP1 POP JUMP JUMPDEST PUSH0 PUSH2 0x517F DUP3 PUSH2 0x5169 JUMP JUMPDEST SWAP2 POP PUSH2 0x518A DUP4 PUSH2 0x5169 JUMP JUMPDEST SWAP3 POP DUP3 DUP3 ADD SWAP1 POP PUSH1 0xFF DUP2 GT ISZERO PUSH2 0x51A3 JUMPI PUSH2 0x51A2 PUSH2 0x4AE5 JUMP JUMPDEST JUMPDEST SWAP3 SWAP2 POP POP JUMP JUMPDEST PUSH0 DUP2 SWAP1 POP SWAP2 SWAP1 POP JUMP JUMPDEST PUSH2 0x51BB DUP2 PUSH2 0x51A9 JUMP JUMPDEST DUP3 MSTORE POP POP JUMP JUMPDEST PUSH2 0x51CA DUP2 PUSH2 0x5169 JUMP JUMPDEST DUP3 MSTORE POP POP JUMP JUMPDEST PUSH0 PUSH1 0x80 DUP3 ADD SWAP1 POP PUSH2 0x51E3 PUSH0 DUP4 ADD DUP8 PUSH2 0x51B2 JUMP JUMPDEST PUSH2 0x51F0 PUSH1 0x20 DUP4 ADD DUP7 PUSH2 0x51C1 JUMP JUMPDEST PUSH2 0x51FD PUSH1 0x40 DUP4 ADD DUP6 PUSH2 0x51B2 JUMP JUMPDEST PUSH2 0x520A PUSH1 0x60 DUP4 ADD DUP5 PUSH2 0x51B2 JUMP JUMPDEST SWAP6 SWAP5 POP POP POP POP POP JUMP JUMPDEST PUSH32 0x6269643A2061756374696F6E2049442063616E6E6F74206265207A65726F0000 PUSH0 DUP3 ADD MSTORE POP JUMP JUMPDEST PUSH0 PUSH2 0x5247 PUSH1 0x1E DUP4 PUSH2 0x48E9 JUMP JUMPDEST SWAP2 POP PUSH2 0x5252 DUP3 PUSH2 0x5213 JUMP JUMPDEST PUSH1 0x20 DUP3 ADD SWAP1 POP SWAP2 SWAP1 POP JUMP JUMPDEST PUSH0 PUSH1 0x20 DUP3 ADD SWAP1 POP DUP2 DUP2 SUB PUSH0 DUP4 ADD MSTORE PUSH2 0x5274 DUP2 PUSH2 0x523B JUMP JUMPDEST SWAP1 POP SWAP2 SWAP1 POP JUMP JUMPDEST PUSH32 0x6269643A20696E76616C69642073656E64657220616464726573730000000000 PUSH0 DUP3 ADD MSTORE POP JUMP JUMPDEST PUSH0 PUSH2 0x52AF PUSH1 0x1B DUP4 PUSH2 0x48E9 JUMP JUMPDEST SWAP2 POP PUSH2 0x52BA DUP3 PUSH2 0x527B JUMP JUMPDEST PUSH1 0x20 DUP3 ADD SWAP1 POP SWAP2 SWAP1 POP JUMP JUMPDEST PUSH0 PUSH1 0x20 DUP3 ADD SWAP1 POP DUP2 DUP2 SUB PUSH0 DUP4 ADD MSTORE PUSH2 0x52DC DUP2 PUSH2 0x52A3 JUMP JUMPDEST SWAP1 POP SWAP2 SWAP1 POP JUMP JUMPDEST PUSH32 0x6269643A20636F6E747261637420697320706175736564000000000000000000 PUSH0 DUP3 ADD MSTORE POP JUMP JUMPDEST PUSH0 PUSH2 0x5317 PUSH1 0x17 DUP4 PUSH2 0x48E9 JUMP JUMPDEST SWAP2 POP PUSH2 0x5322 DUP3 PUSH2 0x52E3 JUMP JUMPDEST PUSH1 0x20 DUP3 ADD SWAP1 POP SWAP2 SWAP1 POP JUMP JUMPDEST PUSH0 PUSH1 0x20 DUP3 ADD SWAP1 POP DUP2 DUP2 SUB PUSH0 DUP4 ADD MSTORE PUSH2 0x5344 DUP2 PUSH2 0x530B JUMP JUMPDEST SWAP1 POP SWAP2 SWAP1 POP JUMP JUMPDEST PUSH32 0x6269643A2062696464696E672069732063757272656E746C79206E6F7420616C PUSH0 DUP3 ADD MSTORE PUSH32 0x6C6F776564000000000000000000000000000000000000000000000000000000 PUSH1 0x20 DUP3 ADD MSTORE POP JUMP JUMPDEST PUSH0 PUSH2 0x53A5 PUSH1 0x25 DUP4 PUSH2 0x48E9 JUMP JUMPDEST SWAP2 POP PUSH2 0x53B0 DUP3 PUSH2 0x534B JUMP JUMPDEST PUSH1 0x40 DUP3 ADD SWAP1 POP SWAP2 SWAP1 POP JUMP JUMPDEST PUSH0 PUSH1 0x20 DUP3 ADD SWAP1 POP DUP2 DUP2 SUB PUSH0 DUP4 ADD MSTORE PUSH2 0x53D2 DUP2 PUSH2 0x5399 JUMP JUMPDEST SWAP1 POP SWAP2 SWAP1 POP JUMP JUMPDEST PUSH32 0x6269643A2062696420616D6F756E74206D757374206265206772656174657220 PUSH0 DUP3 ADD MSTORE PUSH32 0x7468616E20310000000000000000000000000000000000000000000000000000 PUSH1 0x20 DUP3 ADD MSTORE POP JUMP JUMPDEST PUSH0 PUSH2 0x5433 PUSH1 0x26 DUP4 PUSH2 0x48E9 JUMP JUMPDEST SWAP2 POP PUSH2 0x543E DUP3 PUSH2 0x53D9 JUMP JUMPDEST PUSH1 0x40 DUP3 ADD SWAP1 POP SWAP2 SWAP1 POP JUMP JUMPDEST PUSH0 PUSH1 0x20 DUP3 ADD SWAP1 POP DUP2 DUP2 SUB PUSH0 DUP4 ADD MSTORE PUSH2 0x5460 DUP2 PUSH2 0x5427 JUMP JUMPDEST SWAP1 POP SWAP2 SWAP1 POP JUMP JUMPDEST PUSH32 0x6269643A206869676865737420626964206D69736D61746368202D2072656672 PUSH0 DUP3 ADD MSTORE PUSH32 0x6573682061756374696F6E206461746100000000000000000000000000000000 PUSH1 0x20 DUP3 ADD MSTORE POP JUMP JUMPDEST PUSH0 PUSH2 0x54C1 PUSH1 0x30 DUP4 PUSH2 0x48E9 JUMP JUMPDEST SWAP2 POP PUSH2 0x54CC DUP3 PUSH2 0x5467 JUMP JUMPDEST PUSH1 0x40 DUP3 ADD SWAP1 POP SWAP2 SWAP1 POP JUMP JUMPDEST PUSH0 PUSH1 0x20 DUP3 ADD SWAP1 POP DUP2 DUP2 SUB PUSH0 DUP4 ADD MSTORE PUSH2 0x54EE DUP2 PUSH2 0x54B5 JUMP JUMPDEST SWAP1 POP SWAP2 SWAP1 POP JUMP JUMPDEST PUSH32 0x6269643A2061756374696F6E20686173206E6F74207374617274656420796574 PUSH0 DUP3 ADD MSTORE PUSH32 0x206F7220646F6573206E6F742065786973740000000000000000000000000000 PUSH1 0x20 DUP3 ADD MSTORE POP JUMP JUMPDEST PUSH0 PUSH2 0x554F PUSH1 0x32 DUP4 PUSH2 0x48E9 JUMP JUMPDEST SWAP2 POP PUSH2 0x555A DUP3 PUSH2 0x54F5 JUMP JUMPDEST PUSH1 0x40 DUP3 ADD SWAP1 POP SWAP2 SWAP1 POP JUMP JUMPDEST PUSH0 PUSH1 0x20 DUP3 ADD SWAP1 POP DUP2 DUP2 SUB PUSH0 DUP4 ADD MSTORE PUSH2 0x557C DUP2 PUSH2 0x5543 JUMP JUMPDEST SWAP1 POP SWAP2 SWAP1 POP JUMP JUMPDEST PUSH32 0x6269643A2061756374696F6E2068617320616C726561647920656E6465640000 PUSH0 DUP3 ADD MSTORE POP JUMP JUMPDEST PUSH0 PUSH2 0x55B7 PUSH1 0x1E DUP4 PUSH2 0x48E9 JUMP JUMPDEST SWAP2 POP PUSH2 0x55C2 DUP3 PUSH2 0x5583 JUMP JUMPDEST PUSH1 0x20 DUP3 ADD SWAP1 POP SWAP2 SWAP1 POP JUMP JUMPDEST PUSH0 PUSH1 0x20 DUP3 ADD SWAP1 POP DUP2 DUP2 SUB PUSH0 DUP4 ADD MSTORE PUSH2 0x55E4 DUP2 PUSH2 0x55AB JUMP JUMPDEST SWAP1 POP SWAP2 SWAP1 POP JUMP JUMPDEST PUSH32 0x6269643A205F626964416D6F756E74206D757374206265206869676865722074 PUSH0 DUP3 ADD MSTORE PUSH32 0x68616E205F686967686573744269640000000000000000000000000000000000 PUSH1 0x20 DUP3 ADD MSTORE POP JUMP JUMPDEST PUSH0 PUSH2 0x5645 PUSH1 0x2F DUP4 PUSH2 0x48E9 JUMP JUMPDEST SWAP2 POP PUSH2 0x5650 DUP3 PUSH2 0x55EB JUMP JUMPDEST PUSH1 0x40 DUP3 ADD SWAP1 POP SWAP2 SWAP1 POP JUMP JUMPDEST PUSH0 PUSH1 0x20 DUP3 ADD SWAP1 POP DUP2 DUP2 SUB PUSH0 DUP4 ADD MSTORE PUSH2 0x5672 DUP2 PUSH2 0x5639 JUMP JUMPDEST SWAP1 POP SWAP2 SWAP1 POP JUMP JUMPDEST PUSH0 PUSH2 0x5683 DUP3 PUSH2 0x3DD8 JUMP JUMPDEST SWAP2 POP PUSH2 0x568E DUP4 PUSH2 0x3DD8 JUMP JUMPDEST SWAP3 POP DUP3 DUP3 ADD SWAP1 POP DUP1 DUP3 GT ISZERO PUSH2 0x56A6 JUMPI PUSH2 0x56A5 PUSH2 0x4AE5 JUMP JUMPDEST JUMPDEST SWAP3 SWAP2 POP POP JUMP JUMPDEST PUSH32 0x6269643A2062696420616D6F756E7420746F6F206C6F77202D206D7573742065 PUSH0 DUP3 ADD MSTORE PUSH32 0x7863656564206D696E696D756D20696E6372656D656E74000000000000000000 PUSH1 0x20 DUP3 ADD MSTORE POP JUMP JUMPDEST PUSH0 PUSH2 0x5706 PUSH1 0x37 DUP4 PUSH2 0x48E9 JUMP JUMPDEST SWAP2 POP PUSH2 0x5711 DUP3 PUSH2 0x56AC JUMP JUMPDEST PUSH1 0x40 DUP3 ADD SWAP1 POP SWAP2 SWAP1 POP JUMP JUMPDEST PUSH0 PUSH1 0x20 DUP3 ADD SWAP1 POP DUP2 DUP2 SUB PUSH0 DUP4 ADD MSTORE PUSH2 0x5733 DUP2 PUSH2 0x56FA JUMP JUMPDEST SWAP1 POP SWAP2 SWAP1 POP JUMP JUMPDEST PUSH32 0x5468652061756374696F6E20616C6561647920657869737420666F7220746865 PUSH0 DUP3 ADD MSTORE PUSH32 0x2073706563696669656420746F6B656E00000000000000000000000000000000 PUSH1 0x20 DUP3 ADD MSTORE POP JUMP JUMPDEST PUSH0 PUSH2 0x5794 PUSH1 0x30 DUP4 PUSH2 0x48E9 JUMP JUMPDEST SWAP2 POP PUSH2 0x579F DUP3 PUSH2 0x573A JUMP JUMPDEST PUSH1 0x40 DUP3 ADD SWAP1 POP SWAP2 SWAP1 POP JUMP JUMPDEST PUSH0 PUSH1 0x20 DUP3 ADD SWAP1 POP DUP2 DUP2 SUB PUSH0 DUP4 ADD MSTORE PUSH2 0x57C1 DUP2 PUSH2 0x5788 JUMP JUMPDEST SWAP1 POP SWAP2 SWAP1 POP JUMP JUMPDEST PUSH32 0x5468652061756374696F6E20646F65736E27742065786973742079657420666F PUSH0 DUP3 ADD MSTORE PUSH32 0x72207468652073706563696669656420746F6B656E0000000000000000000000 PUSH1 0x20 DUP3 ADD MSTORE POP JUMP JUMPDEST PUSH0 PUSH2 0x5822 PUSH1 0x35 DUP4 PUSH2 0x48E9 JUMP JUMPDEST SWAP2 POP PUSH2 0x582D DUP3 PUSH2 0x57C8 JUMP JUMPDEST PUSH1 0x40 DUP3 ADD SWAP1 POP SWAP2 SWAP1 POP JUMP JUMPDEST PUSH0 PUSH1 0x20 DUP3 ADD SWAP1 POP DUP2 DUP2 SUB PUSH0 DUP4 ADD MSTORE PUSH2 0x584F DUP2 PUSH2 0x5816 JUMP JUMPDEST SWAP1 POP SWAP2 SWAP1 POP JUMP JUMPDEST PUSH32 0x7265676973746572416E41756374696F6E546F6B656E3A204F6E6C7920455243 PUSH0 DUP3 ADD MSTORE PUSH32 0x3131353520616E642045524337323120746F6B656E732061726520737570706F PUSH1 0x20 DUP3 ADD MSTORE PUSH32 0x7274656400000000000000000000000000000000000000000000000000000000 PUSH1 0x40 DUP3 ADD MSTORE POP JUMP JUMPDEST PUSH0 PUSH2 0x58D6 PUSH1 0x44 DUP4 PUSH2 0x48E9 JUMP JUMPDEST SWAP2 POP PUSH2 0x58E1 DUP3 PUSH2 0x5856 JUMP JUMPDEST PUSH1 0x60 DUP3 ADD SWAP1 POP SWAP2 SWAP1 POP JUMP JUMPDEST PUSH0 PUSH1 0x20 DUP3 ADD SWAP1 POP DUP2 DUP2 SUB PUSH0 DUP4 ADD MSTORE PUSH2 0x5903 DUP2 PUSH2 0x58CA JUMP JUMPDEST SWAP1 POP SWAP2 SWAP1 POP JUMP JUMPDEST PUSH0 DUP2 MLOAD SWAP1 POP PUSH2 0x5918 DUP2 PUSH2 0x3F09 JUMP JUMPDEST SWAP3 SWAP2 POP POP JUMP JUMPDEST PUSH0 PUSH1 0x20 DUP3 DUP5 SUB SLT ISZERO PUSH2 0x5933 JUMPI PUSH2 0x5932 PUSH2 0x3DD0 JUMP JUMPDEST JUMPDEST PUSH0 PUSH2 0x5940 DUP5 DUP3 DUP6 ADD PUSH2 0x590A JUMP JUMPDEST SWAP2 POP POP SWAP3 SWAP2 POP POP JUMP JUMPDEST PUSH32 0x7265676973746572416E41756374696F6E546F6B656E3A207468652073706563 PUSH0 DUP3 ADD MSTORE PUSH32 0x6966696564204552432D37323120746F6B656E2063616E6E6F74206265206175 PUSH1 0x20 DUP3 ADD MSTORE PUSH32 0x6374696F6E656400000000000000000000000000000000000000000000000000 PUSH1 0x40 DUP3 ADD MSTORE POP JUMP JUMPDEST PUSH0 PUSH2 0x59C9 PUSH1 0x47 DUP4 PUSH2 0x48E9 JUMP JUMPDEST SWAP2 POP PUSH2 0x59D4 DUP3 PUSH2 0x5949 JUMP JUMPDEST PUSH1 0x60 DUP3 ADD SWAP1 POP SWAP2 SWAP1 POP JUMP JUMPDEST PUSH0 PUSH1 0x20 DUP3 ADD SWAP1 POP DUP2 DUP2 SUB PUSH0 DUP4 ADD MSTORE PUSH2 0x59F6 DUP2 PUSH2 0x59BD JUMP JUMPDEST SWAP1 POP SWAP2 SWAP1 POP JUMP JUMPDEST PUSH0 DUP2 SWAP1 POP SWAP2 SWAP1 POP JUMP JUMPDEST PUSH2 0x5A17 PUSH2 0x5A12 DUP3 PUSH2 0x3E5E JUMP JUMPDEST PUSH2 0x59FD JUMP JUMPDEST DUP3 MSTORE POP POP JUMP JUMPDEST PUSH0 PUSH2 0x5A28 DUP3 DUP7 PUSH2 0x4E07 JUMP JUMPDEST PUSH1 0x14 DUP3 ADD SWAP2 POP PUSH2 0x5A38 DUP3 DUP6 PUSH2 0x4E27 JUMP JUMPDEST PUSH1 0x20 DUP3 ADD SWAP2 POP PUSH2 0x5A48 DUP3 DUP5 PUSH2 0x5A06 JUMP JUMPDEST PUSH1 0x4 DUP3 ADD SWAP2 POP DUP2 SWAP1 POP SWAP5 SWAP4 POP POP POP POP JUMP JUMPDEST PUSH0 DUP2 MLOAD SWAP1 POP PUSH2 0x5A67 DUP2 PUSH2 0x3DE1 JUMP JUMPDEST SWAP3 SWAP2 POP POP JUMP JUMPDEST PUSH0 PUSH1 0x20 DUP3 DUP5 SUB SLT ISZERO PUSH2 0x5A82 JUMPI PUSH2 0x5A81 PUSH2 0x3DD0 JUMP JUMPDEST JUMPDEST PUSH0 PUSH2 0x5A8F DUP5 DUP3 DUP6 ADD PUSH2 0x5A59 JUMP JUMPDEST SWAP2 POP POP SWAP3 SWAP2 POP POP JUMP JUMPDEST PUSH32 0x7265676973746572416E41756374696F6E546F6B656E3A202074686520737065 PUSH0 DUP3 ADD MSTORE PUSH32 0x636966696564204552432D3131353520746F6B656E2063616E6E6F7420626520 PUSH1 0x20 DUP3 ADD MSTORE PUSH32 0x61756374696F6E6E656400000000000000000000000000000000000000000000 PUSH1 0x40 DUP3 ADD MSTORE POP JUMP JUMPDEST PUSH0 PUSH2 0x5B18 PUSH1 0x4A DUP4 PUSH2 0x48E9 JUMP JUMPDEST SWAP2 POP PUSH2 0x5B23 DUP3 PUSH2 0x5A98 JUMP JUMPDEST PUSH1 0x60 DUP3 ADD SWAP1 POP SWAP2 SWAP1 POP JUMP JUMPDEST PUSH0 PUSH1 0x20 DUP3 ADD SWAP1 POP DUP2 DUP2 SUB PUSH0 DUP4 ADD MSTORE PUSH2 0x5B45 DUP2 PUSH2 0x5B0C JUMP JUMPDEST SWAP1 POP SWAP2 SWAP1 POP JUMP JUMPDEST PUSH32 0x54686520737065636966696564205F31313535496E6465782068617665206E6F PUSH0 DUP3 ADD MSTORE PUSH32 0x74206265656E20726561636865642079657420666F72207468697320746F6B65 PUSH1 0x20 DUP3 ADD MSTORE PUSH32 0x6E00000000000000000000000000000000000000000000000000000000000000 PUSH1 0x40 DUP3 ADD MSTORE POP JUMP JUMPDEST PUSH0 PUSH2 0x5BCC PUSH1 0x41 DUP4 PUSH2 0x48E9 JUMP JUMPDEST SWAP2 POP PUSH2 0x5BD7 DUP3 PUSH2 0x5B4C JUMP JUMPDEST PUSH1 0x60 DUP3 ADD SWAP1 POP SWAP2 SWAP1 POP JUMP JUMPDEST PUSH0 PUSH1 0x20 DUP3 ADD SWAP1 POP DUP2 DUP2 SUB PUSH0 DUP4 ADD MSTORE PUSH2 0x5BF9 DUP2 PUSH2 0x5BC0 JUMP JUMPDEST SWAP1 POP SWAP2 SWAP1 POP JUMP JUMPDEST PUSH0 PUSH2 0x5C0B DUP3 DUP8 PUSH2 0x4E07 JUMP JUMPDEST PUSH1 0x14 DUP3 ADD SWAP2 POP PUSH2 0x5C1B DUP3 DUP7 PUSH2 0x4E27 JUMP JUMPDEST PUSH1 0x20 DUP3 ADD SWAP2 POP PUSH2 0x5C2B DUP3 DUP6 PUSH2 0x5A06 JUMP JUMPDEST PUSH1 0x4 DUP3 ADD SWAP2 POP PUSH2 0x5C3B DUP3 DUP5 PUSH2 0x4E27 JUMP JUMPDEST PUSH1 0x20 DUP3 ADD SWAP2 POP DUP2 SWAP1 POP SWAP6 SWAP5 POP POP POP POP POP JUMP JUMPDEST PUSH0 PUSH1 0x40 DUP3 ADD SWAP1 POP PUSH2 0x5C60 PUSH0 DUP4 ADD DUP6 PUSH2 0x3EE1 JUMP JUMPDEST PUSH2 0x5C6D PUSH1 0x20 DUP4 ADD DUP5 PUSH2 0x3E89 JUMP JUMPDEST SWAP4 SWAP3 POP POP POP JUMP JUMPDEST PUSH32 0x63616C63756C617465496E63656E74697665733A20696E76616C696420617563 PUSH0 DUP3 ADD MSTORE PUSH32 0x74696F6E20494400000000000000000000000000000000000000000000000000 PUSH1 0x20 DUP3 ADD MSTORE POP JUMP JUMPDEST PUSH0 PUSH2 0x5CCE PUSH1 0x27 DUP4 PUSH2 0x48E9 JUMP JUMPDEST SWAP2 POP PUSH2 0x5CD9 DUP3 PUSH2 0x5C74 JUMP JUMPDEST PUSH1 0x40 DUP3 ADD SWAP1 POP SWAP2 SWAP1 POP JUMP JUMPDEST PUSH0 PUSH1 0x20 DUP3 ADD SWAP1 POP DUP2 DUP2 SUB PUSH0 DUP4 ADD MSTORE PUSH2 0x5CFB DUP2 PUSH2 0x5CC2 JUMP JUMPDEST SWAP1 POP SWAP2 SWAP1 POP JUMP JUMPDEST PUSH32 0x63616C63756C617465496E63656E74697665733A206269642076616C7565206D PUSH0 DUP3 ADD MSTORE PUSH32 0x75737420626520706F7369746976650000000000000000000000000000000000 PUSH1 0x20 DUP3 ADD MSTORE POP JUMP JUMPDEST PUSH0 PUSH2 0x5D5C PUSH1 0x2F DUP4 PUSH2 0x48E9 JUMP JUMPDEST SWAP2 POP PUSH2 0x5D67 DUP3 PUSH2 0x5D02 JUMP JUMPDEST PUSH1 0x40 DUP3 ADD SWAP1 POP SWAP2 SWAP1 POP JUMP JUMPDEST PUSH0 PUSH1 0x20 DUP3 ADD SWAP1 POP DUP2 DUP2 SUB PUSH0 DUP4 ADD MSTORE PUSH2 0x5D89 DUP2 PUSH2 0x5D50 JUMP JUMPDEST SWAP1 POP SWAP2 SWAP1 POP JUMP INVALID LOG2 PUSH5 0x6970667358 0x22 SLT KECCAK256 DUP8 JUMPI 0xFB 0xE3 MSTORE8 0xEB 0xC3 PUSH3 0x25858E PUSH30 0x5BDD4D3A0AE73A68F9FFA0B03914D5367124347C64736F6C634300081400 CALLER "},"methodIdentifiers":{"batchClaim(uint256[])":"bc292782","claim(uint256)":"379607f5","commitBid(uint256,uint256,uint256,uint256,bytes)":"5b364873","erc20Currency()":"12004c7f","getAuctionBidDecimals(uint256)":"3f21cf81","getAuctionBidMultiplier(uint256)":"da081c94","getAuctionDebt(uint256)":"6b9a894e","getAuctionDueIncentives(uint256)":"03ea66a4","getAuctionEndTime(uint256)":"930e79f1","getAuctionHammerTimeDuration(uint256)":"470e9f8d","getAuctionHighestBid(uint256)":"c26e748c","getAuctionHighestBidder(uint256)":"dfab114b","getAuctionID(address,uint256)":"64efa1fd","getAuctionID(address,uint256,uint256)":"f5de1000","getAuctionIncMax(uint256)":"db145701","getAuctionIncMin(uint256)":"ef8c55fd","getAuctionInfo(uint256)":"fc3fc4ed","getAuctionStartTime(uint256)":"919e84f5","getAuctionStepMin(uint256)":"e07bc69c","getContractAddress(uint256)":"aefa7d98","getTokenId(uint256)":"14ff5ea3","getTokenKind(uint256)":"0facebea","onERC1155BatchReceived(address,address,uint256[],uint256[],bytes)":"bc197c81","onERC1155Received(address,address,uint256,uint256,bytes)":"f23a6e61","onERC721Received(address,address,uint256,bytes)":"150b7a02","registerAnAuctionContract(address)":"f48d6f70","registerAnAuctionToken(address,uint256,bytes4,bool)":"ac478f3d","registerMassERC1155Each(address,bool,address,uint256,uint256,uint256)":"73e72e9c","registerMassERC721Each(address,bool,address,uint256[])":"ef8ca484","setBiddingAllowed(address,bool)":"50d265d4","updatePlayerRewardsAddress(address)":"ca27e209"}}}}}