{
  "_format": "hh3-artifact-1",
  "contractName": "SettingsFacet",
  "sourceName": "contracts/gbm/facets/SettingsFacet.sol",
  "abi": [
    {
      "inputs": [
        {
          "internalType": "uint256",
          "name": "",
          "type": "uint256"
        }
      ],
      "name": "getBidDecimals",
      "outputs": [
        {
          "internalType": "uint256",
          "name": "",
          "type": "uint256"
        }
      ],
      "stateMutability": "view",
      "type": "function"
    },
    {
      "inputs": [
        {
          "internalType": "uint256",
          "name": "",
          "type": "uint256"
        }
      ],
      "name": "getBidMultiplier",
      "outputs": [
        {
          "internalType": "uint256",
          "name": "",
          "type": "uint256"
        }
      ],
      "stateMutability": "view",
      "type": "function"
    },
    {
      "inputs": [
        {
          "internalType": "uint256",
          "name": "",
          "type": "uint256"
        }
      ],
      "name": "getEndTime",
      "outputs": [
        {
          "internalType": "uint256",
          "name": "",
          "type": "uint256"
        }
      ],
      "stateMutability": "view",
      "type": "function"
    },
    {
      "inputs": [
        {
          "internalType": "uint256",
          "name": "",
          "type": "uint256"
        }
      ],
      "name": "getHammerTimeDuration",
      "outputs": [
        {
          "internalType": "uint256",
          "name": "",
          "type": "uint256"
        }
      ],
      "stateMutability": "view",
      "type": "function"
    },
    {
      "inputs": [
        {
          "internalType": "uint256",
          "name": "",
          "type": "uint256"
        }
      ],
      "name": "getIncMax",
      "outputs": [
        {
          "internalType": "uint256",
          "name": "",
          "type": "uint256"
        }
      ],
      "stateMutability": "view",
      "type": "function"
    },
    {
      "inputs": [
        {
          "internalType": "uint256",
          "name": "",
          "type": "uint256"
        }
      ],
      "name": "getIncMin",
      "outputs": [
        {
          "internalType": "uint256",
          "name": "",
          "type": "uint256"
        }
      ],
      "stateMutability": "view",
      "type": "function"
    },
    {
      "inputs": [],
      "name": "getInitiatorInfo",
      "outputs": [
        {
          "components": [
            {
              "internalType": "uint256",
              "name": "startTime",
              "type": "uint256"
            },
            {
              "internalType": "uint256",
              "name": "endTime",
              "type": "uint256"
            },
            {
              "internalType": "uint256",
              "name": "hammerTimeDuration",
              "type": "uint256"
            },
            {
              "internalType": "uint256",
              "name": "bidDecimals",
              "type": "uint256"
            },
            {
              "internalType": "uint256",
              "name": "stepMin",
              "type": "uint256"
            },
            {
              "internalType": "uint256",
              "name": "incMin",
              "type": "uint256"
            },
            {
              "internalType": "uint256",
              "name": "incMax",
              "type": "uint256"
            },
            {
              "internalType": "uint256",
              "name": "bidMultiplier",
              "type": "uint256"
            }
          ],
          "internalType": "struct InitiatorInfo",
          "name": "",
          "type": "tuple"
        }
      ],
      "stateMutability": "view",
      "type": "function"
    },
    {
      "inputs": [
        {
          "internalType": "uint256",
          "name": "",
          "type": "uint256"
        }
      ],
      "name": "getStartTime",
      "outputs": [
        {
          "internalType": "uint256",
          "name": "",
          "type": "uint256"
        }
      ],
      "stateMutability": "view",
      "type": "function"
    },
    {
      "inputs": [
        {
          "internalType": "uint256",
          "name": "",
          "type": "uint256"
        }
      ],
      "name": "getStepMin",
      "outputs": [
        {
          "internalType": "uint256",
          "name": "",
          "type": "uint256"
        }
      ],
      "stateMutability": "view",
      "type": "function"
    },
    {
      "inputs": [
        {
          "internalType": "bytes",
          "name": "_backendPubKey",
          "type": "bytes"
        }
      ],
      "name": "setBackendPubKey",
      "outputs": [],
      "stateMutability": "nonpayable",
      "type": "function"
    },
    {
      "inputs": [
        {
          "components": [
            {
              "internalType": "uint256",
              "name": "startTime",
              "type": "uint256"
            },
            {
              "internalType": "uint256",
              "name": "endTime",
              "type": "uint256"
            },
            {
              "internalType": "uint256",
              "name": "hammerTimeDuration",
              "type": "uint256"
            },
            {
              "internalType": "uint256",
              "name": "bidDecimals",
              "type": "uint256"
            },
            {
              "internalType": "uint256",
              "name": "stepMin",
              "type": "uint256"
            },
            {
              "internalType": "uint256",
              "name": "incMin",
              "type": "uint256"
            },
            {
              "internalType": "uint256",
              "name": "incMax",
              "type": "uint256"
            },
            {
              "internalType": "uint256",
              "name": "bidMultiplier",
              "type": "uint256"
            }
          ],
          "internalType": "struct InitiatorInfo",
          "name": "_info",
          "type": "tuple"
        }
      ],
      "name": "setInitiatorInfo",
      "outputs": [],
      "stateMutability": "nonpayable",
      "type": "function"
    }
  ],
  "bytecode": "0x608060405234801561000f575f80fd5b50610c6e8061001d5f395ff3fe608060405234801561000f575f80fd5b50600436106100a7575f3560e01c80639067b6771161006f5780639067b67714610173578063a388033f146101a3578063bc2be1be146101c1578063c68802b4146101f1578063cb7020e414610221578063fc62c87414610251576100a7565b806306340c4e146100ab5780631cf31f8e146100c75780632ec461c9146100f757806367be4bfd14610127578063874c91b614610143575b5f80fd5b6100c560048036038101906100c0919061063a565b610281565b005b6100e160048036038101906100dc91906106b4565b61029e565b6040516100ee91906106ee565b60405180910390f35b610111600480360381019061010c91906106b4565b6102ae565b60405161011e91906106ee565b60405180910390f35b610141600480360381019061013c91906107d2565b6102be565b005b61015d600480360381019061015891906106b4565b61031f565b60405161016a91906106ee565b60405180910390f35b61018d600480360381019061018891906106b4565b61032f565b60405161019a91906106ee565b60405180910390f35b6101ab61033f565b6040516101b891906108ad565b60405180910390f35b6101db60048036038101906101d691906106b4565b6103ab565b6040516101e891906106ee565b60405180910390f35b61020b600480360381019061020691906106b4565b6103ba565b60405161021891906106ee565b60405180910390f35b61023b600480360381019061023691906106b4565b6103ca565b60405161024891906106ee565b60405180910390f35b61026b600480360381019061026691906106b4565b6103da565b60405161027891906106ee565b60405180910390f35b6102896103ea565b805f601301908161029a9190610acb565b5050565b5f80600301600501549050919050565b5f80600301600401549050919050565b6102c66103ea565b805f6003015f820151815f01556020820151816001015560408201518160020155606082015181600301556080820151816004015560a0820151816005015560c0820151816006015560e0820151816007015590505050565b5f80600301600301549050919050565b5f80600301600101549050919050565b6103476104b0565b5f600301604051806101000160405290815f8201548152602001600182015481526020016002820154815260200160038201548152602001600482015481526020016005820154815260200160068201548152602001600782015481525050905090565b5f806003015f01549050919050565b5f80600301600601549050919050565b5f80600301600201549050919050565b5f80600301600701549050919050565b6103f2610484565b6004015f9054906101000a900473ffffffffffffffffffffffffffffffffffffffff1673ffffffffffffffffffffffffffffffffffffffff163373ffffffffffffffffffffffffffffffffffffffff1614610482576040517f08c379a000000000000000000000000000000000000000000000000000000000815260040161047990610c1a565b60405180910390fd5b565b5f807fc8fcad8db84d3cc18b4c41d551ea0ee66dd599cde068d998e57d5e09332c131c90508091505090565b6040518061010001604052805f81526020015f81526020015f81526020015f81526020015f81526020015f81526020015f81526020015f81525090565b5f604051905090565b5f80fd5b5f80fd5b5f80fd5b5f80fd5b5f601f19601f8301169050919050565b7f4e487b71000000000000000000000000000000000000000000000000000000005f52604160045260245ffd5b61054c82610506565b810181811067ffffffffffffffff8211171561056b5761056a610516565b5b80604052505050565b5f61057d6104ed565b90506105898282610543565b919050565b5f67ffffffffffffffff8211156105a8576105a7610516565b5b6105b182610506565b9050602081019050919050565b828183375f83830152505050565b5f6105de6105d98461058e565b610574565b9050828152602081018484840111156105fa576105f9610502565b5b6106058482856105be565b509392505050565b5f82601f830112610621576106206104fe565b5b81356106318482602086016105cc565b91505092915050565b5f6020828403121561064f5761064e6104f6565b5b5f82013567ffffffffffffffff81111561066c5761066b6104fa565b5b6106788482850161060d565b91505092915050565b5f819050919050565b61069381610681565b811461069d575f80fd5b50565b5f813590506106ae8161068a565b92915050565b5f602082840312156106c9576106c86104f6565b5b5f6106d6848285016106a0565b91505092915050565b6106e881610681565b82525050565b5f6020820190506107015f8301846106df565b92915050565b5f80fd5b5f610100828403121561072157610720610707565b5b61072c610100610574565b90505f61073b848285016106a0565b5f83015250602061074e848285016106a0565b6020830152506040610762848285016106a0565b6040830152506060610776848285016106a0565b606083015250608061078a848285016106a0565b60808301525060a061079e848285016106a0565b60a08301525060c06107b2848285016106a0565b60c08301525060e06107c6848285016106a0565b60e08301525092915050565b5f61010082840312156107e8576107e76104f6565b5b5f6107f58482850161070b565b91505092915050565b61080781610681565b82525050565b61010082015f8201516108225f8501826107fe565b50602082015161083560208501826107fe565b50604082015161084860408501826107fe565b50606082015161085b60608501826107fe565b50608082015161086e60808501826107fe565b5060a082015161088160a08501826107fe565b5060c082015161089460c08501826107fe565b5060e08201516108a760e08501826107fe565b50505050565b5f610100820190506108c15f83018461080d565b92915050565b5f81519050919050565b7f4e487b71000000000000000000000000000000000000000000000000000000005f52602260045260245ffd5b5f600282049050600182168061091557607f821691505b602082108103610928576109276108d1565b5b50919050565b5f819050815f5260205f209050919050565b5f6020601f8301049050919050565b5f82821b905092915050565b5f6008830261098a7fffffffffffffffffffffffffffffffffffffffffffffffffffffffffffffffff8261094f565b610994868361094f565b95508019841693508086168417925050509392505050565b5f819050919050565b5f6109cf6109ca6109c584610681565b6109ac565b610681565b9050919050565b5f819050919050565b6109e8836109b5565b6109fc6109f4826109d6565b84845461095b565b825550505050565b5f90565b610a10610a04565b610a1b8184846109df565b505050565b5b81811015610a3e57610a335f82610a08565b600181019050610a21565b5050565b601f821115610a8357610a548161092e565b610a5d84610940565b81016020851015610a6c578190505b610a80610a7885610940565b830182610a20565b50505b505050565b5f82821c905092915050565b5f610aa35f1984600802610a88565b1980831691505092915050565b5f610abb8383610a94565b9150826002028217905092915050565b610ad4826108c7565b67ffffffffffffffff811115610aed57610aec610516565b5b610af782546108fe565b610b02828285610a42565b5f60209050601f831160018114610b33575f8415610b21578287015190505b610b2b8582610ab0565b865550610b92565b601f198416610b418661092e565b5f5b82811015610b6857848901518255600182019150602085019450602081019050610b43565b86831015610b855784890151610b81601f891682610a94565b8355505b6001600288020188555050505b505050505050565b5f82825260208201905092915050565b7f4c69624469616d6f6e643a204d75737420626520636f6e7472616374206f776e5f8201527f6572000000000000000000000000000000000000000000000000000000000000602082015250565b5f610c04602283610b9a565b9150610c0f82610baa565b604082019050919050565b5f6020820190508181035f830152610c3181610bf8565b905091905056fea2646970667358221220b1bc87a812c2f69c5401acbbce96a073b28e4b8ed97aeee1f6095f25fd12209764736f6c63430008140033",
  "linkReferences": {},
  "deployedLinkReferences": {},
  "immutableReferences": {},
  "inputSourceName": "project/contracts/gbm/facets/SettingsFacet.sol",
  "buildInfoId": "solc-0_8_20-6f2bb91fe730bdfdfde5b1a672c80169b7927823"
}