{
  "_format": "hh3-artifact-1",
  "contractName": "DiamondCutFacet",
  "sourceName": "contracts/gbm/facets/DiamondCutFacet.sol",
  "abi": [
    {
      "anonymous": false,
      "inputs": [
        {
          "components": [
            {
              "internalType": "address",
              "name": "facetAddress",
              "type": "address"
            },
            {
              "internalType": "enum IDiamondCut.FacetCutAction",
              "name": "action",
              "type": "uint8"
            },
            {
              "internalType": "bytes4[]",
              "name": "functionSelectors",
              "type": "bytes4[]"
            }
          ],
          "indexed": false,
          "internalType": "struct IDiamondCut.FacetCut[]",
          "name": "_diamondCut",
          "type": "tuple[]"
        },
        {
          "indexed": false,
          "internalType": "address",
          "name": "_init",
          "type": "address"
        },
        {
          "indexed": false,
          "internalType": "bytes",
          "name": "_calldata",
          "type": "bytes"
        }
      ],
      "name": "DiamondCut",
      "type": "event"
    },
    {
      "inputs": [
        {
          "components": [
            {
              "internalType": "address",
              "name": "facetAddress",
              "type": "address"
            },
            {
              "internalType": "enum IDiamondCut.FacetCutAction",
              "name": "action",
              "type": "uint8"
            },
            {
              "internalType": "bytes4[]",
              "name": "functionSelectors",
              "type": "bytes4[]"
            }
          ],
          "internalType": "struct IDiamondCut.FacetCut[]",
          "name": "_diamondCut",
          "type": "tuple[]"
        },
        {
          "internalType": "address",
          "name": "_init",
          "type": "address"
        },
        {
          "internalType": "bytes",
          "name": "_calldata",
          "type": "bytes"
        }
      ],
      "name": "diamondCut",
      "outputs": [],
      "stateMutability": "nonpayable",
      "type": "function"
    }
  ],
  "bytecode": "0x608060405234801561000f575f80fd5b5061214c8061001d5f395ff3fe608060405234801561000f575f80fd5b5060043610610029575f3560e01c80631f931c1c1461002d575b5f80fd5b6100476004803603810190610042919061117f565b610049565b005b610051610298565b5f61005a610332565b90505f816002015f9054906101000a900461ffff1661ffff1690505f8190505f806007831611156100a057836001015f600384901c81526020019081526020015f205490505b5f5b898990508110156101b25761019783838c8c858181106100c5576100c4611210565b5b90506020028101906100d79190611249565b5f0160208101906100e89190611270565b8d8d868181106100fb576100fa611210565b5b905060200281019061010d9190611249565b602001602081019061011f91906112be565b8e8e8781811061013257610131611210565b5b90506020028101906101449190611249565b806040019061015391906112e9565b808060200260200160405190810160405280939291908181526020018383602002808284375f81840152601f19601f8201169050808301925050505050505061035e565b809350819450505080806101aa90611381565b9150506100a2565b508282146101d95781846002015f6101000a81548161ffff021916908361ffff1602179055505b5f6007831611156102015780846001015f600385901c81526020019081526020015f20819055505b7f8faa70878671ccd212d20771b795c50af8fd3ff6cf27f4bde57e5d4de0aeb6738989898989604051610238959493929190611796565b60405180910390a161028d8787878080601f0160208091040260200160405190810160405280939291908181526020018383808284375f81840152601f19601f82011690508083019250505050505050610e0d565b505050505050505050565b6102a0610332565b6004015f9054906101000a900473ffffffffffffffffffffffffffffffffffffffff1673ffffffffffffffffffffffffffffffffffffffff163373ffffffffffffffffffffffffffffffffffffffff1614610330576040517f08c379a00000000000000000000000000000000000000000000000000000000081526004016103279061185d565b60405180910390fd5b565b5f807fc8fcad8db84d3cc18b4c41d551ea0ee66dd599cde068d998e57d5e09332c131c90508091505090565b5f805f610369610332565b90505f8451116103ae576040517f08c379a00000000000000000000000000000000000000000000000000000000081526004016103a5906118eb565b60405180910390fd5b5f60028111156103c1576103c061141c565b5b8560028111156103d4576103d361141c565b5b03610602576103fb866040518060600160405280602481526020016120a360249139611017565b5f5b84518110156105fc575f85828151811061041a57610419611210565b5b602002602001015190505f835f015f837bffffffffffffffffffffffffffffffffffffffffffffffffffffffff19167bffffffffffffffffffffffffffffffffffffffffffffffffffffffff191681526020019081526020015f205490505f73ffffffffffffffffffffffffffffffffffffffff168160601c73ffffffffffffffffffffffffffffffffffffffff16146104e9576040517f08c379a00000000000000000000000000000000000000000000000000000000081526004016104e090611979565b60405180910390fd5b8a5f1b8960601b6bffffffffffffffffffffffff191617845f015f847bffffffffffffffffffffffffffffffffffffffffffffffffffffffff19167bffffffffffffffffffffffffffffffffffffffffffffffffffffffff191681526020019081526020015f20819055505f600560078d16901b905080837bffffffffffffffffffffffffffffffffffffffffffffffffffffffff1916901c817fffffffff000000000000000000000000000000000000000000000000000000005f1b901c198c16179a5060e081036105d8578a856001015f60038f901c81526020019081526020015f20819055505f801b9a505b8b806105e390611381565b9c505050505080806105f490611381565b9150506103fd565b50610dfc565b600160028111156106165761061561141c565b5b8560028111156106295761062861141c565b5b036108b357610650866040518060600160405280602881526020016120ef60289139611017565b5f5b84518110156108ad575f85828151811061066f5761066e611210565b5b602002602001015190505f835f015f837bffffffffffffffffffffffffffffffffffffffffffffffffffffffff19167bffffffffffffffffffffffffffffffffffffffffffffffffffffffff191681526020019081526020015f205490505f8160601c90503073ffffffffffffffffffffffffffffffffffffffff168173ffffffffffffffffffffffffffffffffffffffff1603610742576040517f08c379a000000000000000000000000000000000000000000000000000000000815260040161073990611a07565b60405180910390fd5b8973ffffffffffffffffffffffffffffffffffffffff168173ffffffffffffffffffffffffffffffffffffffff16036107b0576040517f08c379a00000000000000000000000000000000000000000000000000000000081526004016107a790611a95565b60405180910390fd5b5f73ffffffffffffffffffffffffffffffffffffffff168173ffffffffffffffffffffffffffffffffffffffff160361081e576040517f08c379a000000000000000000000000000000000000000000000000000000000815260040161081590611b23565b60405180910390fd5b8960601b6bffffffffffffffffffffffff19166bffffffffffffffffffffffff5f1b831617855f015f857bffffffffffffffffffffffffffffffffffffffffffffffffffffffff19167bffffffffffffffffffffffffffffffffffffffffffffffffffffffff191681526020019081526020015f208190555050505080806108a590611381565b915050610652565b50610dfb565b6002808111156108c6576108c561141c565b5b8560028111156108d9576108d861141c565b5b03610dbf575f73ffffffffffffffffffffffffffffffffffffffff168673ffffffffffffffffffffffffffffffffffffffff161461094c576040517f08c379a000000000000000000000000000000000000000000000000000000000815260040161094390611bb1565b60405180910390fd5b5f600389901c90505f60078a1690505f5b8651811015610d9d575f801b8a0361099c57828061097a90611bcf565b935050836001015f8481526020019081526020015f20549950600791506109ab565b81806109a790611bcf565b9250505b5f805f808a85815181106109c2576109c1611210565b5b602002602001015190505f885f015f837bffffffffffffffffffffffffffffffffffffffffffffffffffffffff19167bffffffffffffffffffffffffffffffffffffffffffffffffffffffff191681526020019081526020015f205490505f73ffffffffffffffffffffffffffffffffffffffff168160601c73ffffffffffffffffffffffffffffffffffffffff1603610a91576040517f08c379a0000000000000000000000000000000000000000000000000000000008152600401610a8890611c66565b60405180910390fd5b3073ffffffffffffffffffffffffffffffffffffffff168160601c73ffffffffffffffffffffffffffffffffffffffff1603610b02576040517f08c379a0000000000000000000000000000000000000000000000000000000008152600401610af990611cf4565b60405180910390fd5b600587901b8f901b9450817bffffffffffffffffffffffffffffffffffffffffffffffffffffffff1916857bffffffffffffffffffffffffffffffffffffffffffffffffffffffff191614610c1857885f015f867bffffffffffffffffffffffffffffffffffffffffffffffffffffffff19167bffffffffffffffffffffffffffffffffffffffffffffffffffffffff191681526020019081526020015f20546bffffffffffffffffffffffff19166bffffffffffffffffffffffff5f1b821617895f015f877bffffffffffffffffffffffffffffffffffffffffffffffffffffffff19167bffffffffffffffffffffffffffffffffffffffffffffffffffffffff191681526020019081526020015f20819055505b885f015f837bffffffffffffffffffffffffffffffffffffffffffffffffffffffff19167bffffffffffffffffffffffffffffffffffffffffffffffffffffffff191681526020019081526020015f205f90555f815f1c61ffff169050600381901c9450600560078216901b9350505050858214610d14575f876001015f8481526020019081526020015f2054905081847bffffffffffffffffffffffffffffffffffffffffffffffffffffffff1916901c827fffffffff000000000000000000000000000000000000000000000000000000005f1b901c19821617905080886001015f8581526020019081526020015f208190555050610d64565b80837bffffffffffffffffffffffffffffffffffffffffffffffffffffffff1916901c817fffffffff000000000000000000000000000000000000000000000000000000005f1b901c198e16179c505b5f8503610d8757866001015f8781526020019081526020015f205f90555f801b9c505b5050508080610d9590611381565b91505061095d565b5080600883610dac9190611d12565b610db69190611d53565b99505050610dfa565b6040517f08c379a0000000000000000000000000000000000000000000000000000000008152600401610df190611df6565b60405180910390fd5b5b5b878792509250509550959350505050565b5f73ffffffffffffffffffffffffffffffffffffffff168273ffffffffffffffffffffffffffffffffffffffff1603610e88575f815114610e83576040517f08c379a0000000000000000000000000000000000000000000000000000000008152600401610e7a90611e84565b60405180910390fd5b611013565b5f815111610ecb576040517f08c379a0000000000000000000000000000000000000000000000000000000008152600401610ec290611f12565b60405180910390fd5b3073ffffffffffffffffffffffffffffffffffffffff168273ffffffffffffffffffffffffffffffffffffffff1614610f2157610f20826040518060600160405280602881526020016120c760289139611017565b5b5f808373ffffffffffffffffffffffffffffffffffffffff1683604051610f489190611f9c565b5f60405180830381855af49150503d805f8114610f80576040519150601f19603f3d011682016040523d82523d5f602084013e610f85565b606091505b509150915081611010575f81511115610fd557806040517f08c379a0000000000000000000000000000000000000000000000000000000008152600401610fcc9190611ff4565b60405180910390fd5b6040517f08c379a000000000000000000000000000000000000000000000000000000000815260040161100790612084565b60405180910390fd5b50505b5050565b5f823b90505f81118290611061576040517f08c379a00000000000000000000000000000000000000000000000000000000081526004016110589190611ff4565b60405180910390fd5b50505050565b5f80fd5b5f80fd5b5f80fd5b5f80fd5b5f80fd5b5f8083601f8401126110905761108f61106f565b5b8235905067ffffffffffffffff8111156110ad576110ac611073565b5b6020830191508360208202830111156110c9576110c8611077565b5b9250929050565b5f73ffffffffffffffffffffffffffffffffffffffff82169050919050565b5f6110f9826110d0565b9050919050565b611109816110ef565b8114611113575f80fd5b50565b5f8135905061112481611100565b92915050565b5f8083601f84011261113f5761113e61106f565b5b8235905067ffffffffffffffff81111561115c5761115b611073565b5b60208301915083600182028301111561117857611177611077565b5b9250929050565b5f805f805f6060868803121561119857611197611067565b5b5f86013567ffffffffffffffff8111156111b5576111b461106b565b5b6111c18882890161107b565b955095505060206111d488828901611116565b935050604086013567ffffffffffffffff8111156111f5576111f461106b565b5b6112018882890161112a565b92509250509295509295909350565b7f4e487b71000000000000000000000000000000000000000000000000000000005f52603260045260245ffd5b5f80fd5b5f80fd5b5f80fd5b5f823560016060038336030381126112645761126361123d565b5b80830191505092915050565b5f6020828403121561128557611284611067565b5b5f61129284828501611116565b91505092915050565b600381106112a7575f80fd5b50565b5f813590506112b88161129b565b92915050565b5f602082840312156112d3576112d2611067565b5b5f6112e0848285016112aa565b91505092915050565b5f80833560016020038436030381126113055761130461123d565b5b80840192508235915067ffffffffffffffff82111561132757611326611241565b5b60208301925060208202360383131561134357611342611245565b5b509250929050565b7f4e487b71000000000000000000000000000000000000000000000000000000005f52601160045260245ffd5b5f819050919050565b5f61138b82611378565b91507fffffffffffffffffffffffffffffffffffffffffffffffffffffffffffffffff82036113bd576113bc61134b565b5b600182019050919050565b5f82825260208201905092915050565b5f819050919050565b5f6113ef6020840184611116565b905092915050565b611400816110ef565b82525050565b5f61141460208401846112aa565b905092915050565b7f4e487b71000000000000000000000000000000000000000000000000000000005f52602160045260245ffd5b6003811061145a5761145961141c565b5b50565b5f81905061146a82611449565b919050565b5f6114798261145d565b9050919050565b6114898161146f565b82525050565b5f80fd5b5f80fd5b5f80fd5b5f80833560016020038436030381126114b7576114b6611497565b5b83810192508235915060208301925067ffffffffffffffff8211156114df576114de61148f565b5b6020820236038313156114f5576114f4611493565b5b509250929050565b5f82825260208201905092915050565b5f819050919050565b5f7fffffffff0000000000000000000000000000000000000000000000000000000082169050919050565b61154a81611516565b82525050565b5f61155b8383611541565b60208301905092915050565b61157081611516565b811461157a575f80fd5b50565b5f8135905061158b81611567565b92915050565b5f61159f602084018461157d565b905092915050565b5f602082019050919050565b5f6115be83856114fd565b93506115c98261150d565b805f5b85811015611601576115de8284611591565b6115e88882611550565b97506115f3836115a7565b9250506001810190506115cc565b5085925050509392505050565b5f6060830161161f5f8401846113e1565b61162b5f8601826113f7565b506116396020840184611406565b6116466020860182611480565b50611654604084018461149b565b85830360408701526116678382846115b3565b925050508091505092915050565b5f611680838361160e565b905092915050565b5f823560016060038336030381126116a3576116a2611497565b5b82810191505092915050565b5f602082019050919050565b5f6116c683856113c8565b9350836020840285016116d8846113d8565b805f5b8781101561171b5784840389526116f28284611688565b6116fc8582611675565b9450611707836116af565b925060208a019950506001810190506116db565b50829750879450505050509392505050565b611736816110ef565b82525050565b5f82825260208201905092915050565b828183375f83830152505050565b5f601f19601f8301169050919050565b5f611775838561173c565b935061178283858461174c565b61178b8361175a565b840190509392505050565b5f6060820190508181035f8301526117af8187896116bb565b90506117be602083018661172d565b81810360408301526117d181848661176a565b90509695505050505050565b5f82825260208201905092915050565b7f4c69624469616d6f6e643a204d75737420626520636f6e7472616374206f776e5f8201527f6572000000000000000000000000000000000000000000000000000000000000602082015250565b5f6118476022836117dd565b9150611852826117ed565b604082019050919050565b5f6020820190508181035f8301526118748161183b565b9050919050565b7f4c69624469616d6f6e644375743a204e6f2073656c6563746f727320696e20665f8201527f6163657420746f20637574000000000000000000000000000000000000000000602082015250565b5f6118d5602b836117dd565b91506118e08261187b565b604082019050919050565b5f6020820190508181035f830152611902816118c9565b9050919050565b7f4c69624469616d6f6e644375743a2043616e2774206164642066756e6374696f5f8201527f6e207468617420616c7265616479206578697374730000000000000000000000602082015250565b5f6119636035836117dd565b915061196e82611909565b604082019050919050565b5f6020820190508181035f83015261199081611957565b9050919050565b7f4c69624469616d6f6e644375743a2043616e2774207265706c61636520696d6d5f8201527f757461626c652066756e6374696f6e0000000000000000000000000000000000602082015250565b5f6119f1602f836117dd565b91506119fc82611997565b604082019050919050565b5f6020820190508181035f830152611a1e816119e5565b9050919050565b7f4c69624469616d6f6e644375743a2043616e2774207265706c6163652066756e5f8201527f6374696f6e20776974682073616d652066756e6374696f6e0000000000000000602082015250565b5f611a7f6038836117dd565b9150611a8a82611a25565b604082019050919050565b5f6020820190508181035f830152611aac81611a73565b9050919050565b7f4c69624469616d6f6e644375743a2043616e2774207265706c6163652066756e5f8201527f6374696f6e207468617420646f65736e27742065786973740000000000000000602082015250565b5f611b0d6038836117dd565b9150611b1882611ab3565b604082019050919050565b5f6020820190508181035f830152611b3a81611b01565b9050919050565b7f4c69624469616d6f6e644375743a2052656d6f766520666163657420616464725f8201527f657373206d757374206265206164647265737328302900000000000000000000602082015250565b5f611b9b6036836117dd565b9150611ba682611b41565b604082019050919050565b5f6020820190508181035f830152611bc881611b8f565b9050919050565b5f611bd982611378565b91505f8203611beb57611bea61134b565b5b600182039050919050565b7f4c69624469616d6f6e644375743a2043616e27742072656d6f76652066756e635f8201527f74696f6e207468617420646f65736e2774206578697374000000000000000000602082015250565b5f611c506037836117dd565b9150611c5b82611bf6565b604082019050919050565b5f6020820190508181035f830152611c7d81611c44565b9050919050565b7f4c69624469616d6f6e644375743a2043616e27742072656d6f766520696d6d755f8201527f7461626c652066756e6374696f6e000000000000000000000000000000000000602082015250565b5f611cde602e836117dd565b9150611ce982611c84565b604082019050919050565b5f6020820190508181035f830152611d0b81611cd2565b9050919050565b5f611d1c82611378565b9150611d2783611378565b9250828202611d3581611378565b91508282048414831517611d4c57611d4b61134b565b5b5092915050565b5f611d5d82611378565b9150611d6883611378565b9250828201905080821115611d8057611d7f61134b565b5b92915050565b7f4c69624469616d6f6e644375743a20496e636f727265637420466163657443755f8201527f74416374696f6e00000000000000000000000000000000000000000000000000602082015250565b5f611de06027836117dd565b9150611deb82611d86565b604082019050919050565b5f6020820190508181035f830152611e0d81611dd4565b9050919050565b7f4c69624469616d6f6e644375743a205f696e69742069732061646472657373285f8201527f3029206275745f63616c6c64617461206973206e6f7420656d70747900000000602082015250565b5f611e6e603c836117dd565b9150611e7982611e14565b604082019050919050565b5f6020820190508181035f830152611e9b81611e62565b9050919050565b7f4c69624469616d6f6e644375743a205f63616c6c6461746120697320656d70745f8201527f7920627574205f696e6974206973206e6f742061646472657373283029000000602082015250565b5f611efc603d836117dd565b9150611f0782611ea2565b604082019050919050565b5f6020820190508181035f830152611f2981611ef0565b9050919050565b5f81519050919050565b5f81905092915050565b5f5b83811015611f61578082015181840152602081019050611f46565b5f8484015250505050565b5f611f7682611f30565b611f808185611f3a565b9350611f90818560208601611f44565b80840191505092915050565b5f611fa78284611f6c565b915081905092915050565b5f81519050919050565b5f611fc682611fb2565b611fd081856117dd565b9350611fe0818560208601611f44565b611fe98161175a565b840191505092915050565b5f6020820190508181035f83015261200c8184611fbc565b905092915050565b7f4c69624469616d6f6e644375743a205f696e69742066756e6374696f6e2072655f8201527f7665727465640000000000000000000000000000000000000000000000000000602082015250565b5f61206e6026836117dd565b915061207982612014565b604082019050919050565b5f6020820190508181035f83015261209b81612062565b905091905056fe4c69624469616d6f6e644375743a2041646420666163657420686173206e6f20636f64654c69624469616d6f6e644375743a205f696e6974206164647265737320686173206e6f20636f64654c69624469616d6f6e644375743a205265706c61636520666163657420686173206e6f20636f6465a2646970667358221220deb767d17a50b49f98b3cad2f70e352ed7b6162c027f3533986bf0b112ad703764736f6c63430008140033",
  "linkReferences": {},
  "deployedLinkReferences": {},
  "immutableReferences": {},
  "inputSourceName": "project/contracts/gbm/facets/DiamondCutFacet.sol",
  "buildInfoId": "solc-0_8_20-6f2bb91fe730bdfdfde5b1a672c80169b7927823"
}