{
  "_format": "hh3-artifact-1",
  "contractName": "MockERC721",
  "sourceName": "test/contracts/MockERC721.sol",
  "abi": [
    {
      "inputs": [
        {
          "internalType": "string",
          "name": "name",
          "type": "string"
        },
        {
          "internalType": "string",
          "name": "symbol",
          "type": "string"
        }
      ],
      "stateMutability": "nonpayable",
      "type": "constructor"
    },
    {
      "inputs": [
        {
          "internalType": "address",
          "name": "sender",
          "type": "address"
        },
        {
          "internalType": "uint256",
          "name": "tokenId",
          "type": "uint256"
        },
        {
          "internalType": "address",
          "name": "owner",
          "type": "address"
        }
      ],
      "name": "ERC721IncorrectOwner",
      "type": "error"
    },
    {
      "inputs": [
        {
          "internalType": "address",
          "name": "operator",
          "type": "address"
        },
        {
          "internalType": "uint256",
          "name": "tokenId",
          "type": "uint256"
        }
      ],
      "name": "ERC721InsufficientApproval",
      "type": "error"
    },
    {
      "inputs": [
        {
          "internalType": "address",
          "name": "approver",
          "type": "address"
        }
      ],
      "name": "ERC721InvalidApprover",
      "type": "error"
    },
    {
      "inputs": [
        {
          "internalType": "address",
          "name": "operator",
          "type": "address"
        }
      ],
      "name": "ERC721InvalidOperator",
      "type": "error"
    },
    {
      "inputs": [
        {
          "internalType": "address",
          "name": "owner",
          "type": "address"
        }
      ],
      "name": "ERC721InvalidOwner",
      "type": "error"
    },
    {
      "inputs": [
        {
          "internalType": "address",
          "name": "receiver",
          "type": "address"
        }
      ],
      "name": "ERC721InvalidReceiver",
      "type": "error"
    },
    {
      "inputs": [
        {
          "internalType": "address",
          "name": "sender",
          "type": "address"
        }
      ],
      "name": "ERC721InvalidSender",
      "type": "error"
    },
    {
      "inputs": [
        {
          "internalType": "uint256",
          "name": "tokenId",
          "type": "uint256"
        }
      ],
      "name": "ERC721NonexistentToken",
      "type": "error"
    },
    {
      "anonymous": false,
      "inputs": [
        {
          "indexed": true,
          "internalType": "address",
          "name": "owner",
          "type": "address"
        },
        {
          "indexed": true,
          "internalType": "address",
          "name": "approved",
          "type": "address"
        },
        {
          "indexed": true,
          "internalType": "uint256",
          "name": "tokenId",
          "type": "uint256"
        }
      ],
      "name": "Approval",
      "type": "event"
    },
    {
      "anonymous": false,
      "inputs": [
        {
          "indexed": true,
          "internalType": "address",
          "name": "owner",
          "type": "address"
        },
        {
          "indexed": true,
          "internalType": "address",
          "name": "operator",
          "type": "address"
        },
        {
          "indexed": false,
          "internalType": "bool",
          "name": "approved",
          "type": "bool"
        }
      ],
      "name": "ApprovalForAll",
      "type": "event"
    },
    {
      "anonymous": false,
      "inputs": [
        {
          "indexed": true,
          "internalType": "address",
          "name": "from",
          "type": "address"
        },
        {
          "indexed": true,
          "internalType": "address",
          "name": "to",
          "type": "address"
        },
        {
          "indexed": true,
          "internalType": "uint256",
          "name": "tokenId",
          "type": "uint256"
        }
      ],
      "name": "Transfer",
      "type": "event"
    },
    {
      "inputs": [
        {
          "internalType": "address",
          "name": "to",
          "type": "address"
        },
        {
          "internalType": "uint256",
          "name": "tokenId",
          "type": "uint256"
        }
      ],
      "name": "approve",
      "outputs": [],
      "stateMutability": "nonpayable",
      "type": "function"
    },
    {
      "inputs": [
        {
          "internalType": "address",
          "name": "owner",
          "type": "address"
        }
      ],
      "name": "balanceOf",
      "outputs": [
        {
          "internalType": "uint256",
          "name": "",
          "type": "uint256"
        }
      ],
      "stateMutability": "view",
      "type": "function"
    },
    {
      "inputs": [
        {
          "internalType": "uint256",
          "name": "tokenId",
          "type": "uint256"
        }
      ],
      "name": "getApproved",
      "outputs": [
        {
          "internalType": "address",
          "name": "",
          "type": "address"
        }
      ],
      "stateMutability": "view",
      "type": "function"
    },
    {
      "inputs": [
        {
          "internalType": "address",
          "name": "owner",
          "type": "address"
        },
        {
          "internalType": "address",
          "name": "operator",
          "type": "address"
        }
      ],
      "name": "isApprovedForAll",
      "outputs": [
        {
          "internalType": "bool",
          "name": "",
          "type": "bool"
        }
      ],
      "stateMutability": "view",
      "type": "function"
    },
    {
      "inputs": [
        {
          "internalType": "address",
          "name": "to",
          "type": "address"
        },
        {
          "internalType": "uint256",
          "name": "tokenId",
          "type": "uint256"
        }
      ],
      "name": "mint",
      "outputs": [],
      "stateMutability": "nonpayable",
      "type": "function"
    },
    {
      "inputs": [],
      "name": "name",
      "outputs": [
        {
          "internalType": "string",
          "name": "",
          "type": "string"
        }
      ],
      "stateMutability": "view",
      "type": "function"
    },
    {
      "inputs": [
        {
          "internalType": "uint256",
          "name": "tokenId",
          "type": "uint256"
        }
      ],
      "name": "ownerOf",
      "outputs": [
        {
          "internalType": "address",
          "name": "",
          "type": "address"
        }
      ],
      "stateMutability": "view",
      "type": "function"
    },
    {
      "inputs": [
        {
          "internalType": "address",
          "name": "to",
          "type": "address"
        },
        {
          "internalType": "uint256",
          "name": "tokenId",
          "type": "uint256"
        }
      ],
      "name": "safeMint",
      "outputs": [],
      "stateMutability": "nonpayable",
      "type": "function"
    },
    {
      "inputs": [
        {
          "internalType": "address",
          "name": "from",
          "type": "address"
        },
        {
          "internalType": "address",
          "name": "to",
          "type": "address"
        },
        {
          "internalType": "uint256",
          "name": "tokenId",
          "type": "uint256"
        }
      ],
      "name": "safeTransferFrom",
      "outputs": [],
      "stateMutability": "nonpayable",
      "type": "function"
    },
    {
      "inputs": [
        {
          "internalType": "address",
          "name": "from",
          "type": "address"
        },
        {
          "internalType": "address",
          "name": "to",
          "type": "address"
        },
        {
          "internalType": "uint256",
          "name": "tokenId",
          "type": "uint256"
        },
        {
          "internalType": "bytes",
          "name": "data",
          "type": "bytes"
        }
      ],
      "name": "safeTransferFrom",
      "outputs": [],
      "stateMutability": "nonpayable",
      "type": "function"
    },
    {
      "inputs": [
        {
          "internalType": "address",
          "name": "operator",
          "type": "address"
        },
        {
          "internalType": "bool",
          "name": "approved",
          "type": "bool"
        }
      ],
      "name": "setApprovalForAll",
      "outputs": [],
      "stateMutability": "nonpayable",
      "type": "function"
    },
    {
      "inputs": [
        {
          "internalType": "bytes4",
          "name": "interfaceId",
          "type": "bytes4"
        }
      ],
      "name": "supportsInterface",
      "outputs": [
        {
          "internalType": "bool",
          "name": "",
          "type": "bool"
        }
      ],
      "stateMutability": "view",
      "type": "function"
    },
    {
      "inputs": [],
      "name": "symbol",
      "outputs": [
        {
          "internalType": "string",
          "name": "",
          "type": "string"
        }
      ],
      "stateMutability": "view",
      "type": "function"
    },
    {
      "inputs": [
        {
          "internalType": "uint256",
          "name": "tokenId",
          "type": "uint256"
        }
      ],
      "name": "tokenURI",
      "outputs": [
        {
          "internalType": "string",
          "name": "",
          "type": "string"
        }
      ],
      "stateMutability": "view",
      "type": "function"
    },
    {
      "inputs": [
        {
          "internalType": "address",
          "name": "from",
          "type": "address"
        },
        {
          "internalType": "address",
          "name": "to",
          "type": "address"
        },
        {
          "internalType": "uint256",
          "name": "tokenId",
          "type": "uint256"
        }
      ],
      "name": "transferFrom",
      "outputs": [],
      "stateMutability": "nonpayable",
      "type": "function"
    }
  ],
  "bytecode": "0x608060405234801562000010575f80fd5b5060405162002323380380620023238339818101604052810190620000369190620001ea565b8181815f9081620000489190620004a4565b5080600190816200005a9190620004a4565b505050505062000588565b5f604051905090565b5f80fd5b5f80fd5b5f80fd5b5f80fd5b5f601f19601f8301169050919050565b7f4e487b71000000000000000000000000000000000000000000000000000000005f52604160045260245ffd5b620000c6826200007e565b810181811067ffffffffffffffff82111715620000e857620000e76200008e565b5b80604052505050565b5f620000fc62000065565b90506200010a8282620000bb565b919050565b5f67ffffffffffffffff8211156200012c576200012b6200008e565b5b62000137826200007e565b9050602081019050919050565b5f5b838110156200016357808201518184015260208101905062000146565b5f8484015250505050565b5f620001846200017e846200010f565b620000f1565b905082815260208101848484011115620001a357620001a26200007a565b5b620001b084828562000144565b509392505050565b5f82601f830112620001cf57620001ce62000076565b5b8151620001e18482602086016200016e565b91505092915050565b5f80604083850312156200020357620002026200006e565b5b5f83015167ffffffffffffffff81111562000223576200022262000072565b5b6200023185828601620001b8565b925050602083015167ffffffffffffffff81111562000255576200025462000072565b5b6200026385828601620001b8565b9150509250929050565b5f81519050919050565b7f4e487b71000000000000000000000000000000000000000000000000000000005f52602260045260245ffd5b5f6002820490506001821680620002bc57607f821691505b602082108103620002d257620002d162000277565b5b50919050565b5f819050815f5260205f209050919050565b5f6020601f8301049050919050565b5f82821b905092915050565b5f60088302620003367fffffffffffffffffffffffffffffffffffffffffffffffffffffffffffffffff82620002f9565b620003428683620002f9565b95508019841693508086168417925050509392505050565b5f819050919050565b5f819050919050565b5f6200038c6200038662000380846200035a565b62000363565b6200035a565b9050919050565b5f819050919050565b620003a7836200036c565b620003bf620003b68262000393565b84845462000305565b825550505050565b5f90565b620003d5620003c7565b620003e28184846200039c565b505050565b5b818110156200040957620003fd5f82620003cb565b600181019050620003e8565b5050565b601f82111562000458576200042281620002d8565b6200042d84620002ea565b810160208510156200043d578190505b620004556200044c85620002ea565b830182620003e7565b50505b505050565b5f82821c905092915050565b5f6200047a5f19846008026200045d565b1980831691505092915050565b5f62000494838362000469565b9150826002028217905092915050565b620004af826200026d565b67ffffffffffffffff811115620004cb57620004ca6200008e565b5b620004d78254620002a4565b620004e48282856200040d565b5f60209050601f8311600181146200051a575f841562000505578287015190505b62000511858262000487565b86555062000580565b601f1984166200052a86620002d8565b5f5b8281101562000553578489015182556001820191506020850194506020810190506200052c565b868310156200057357848901516200056f601f89168262000469565b8355505b6001600288020188555050505b505050505050565b611d8d80620005965f395ff3fe608060405234801561000f575f80fd5b50600436106100f3575f3560e01c80636352211e11610095578063a22cb46511610064578063a22cb4651461027f578063b88d4fde1461029b578063c87b56dd146102b7578063e985e9c5146102e7576100f3565b80636352211e146101e557806370a082311461021557806395d89b4114610245578063a144819414610263576100f3565b8063095ea7b3116100d1578063095ea7b31461017557806323b872dd1461019157806340c10f19146101ad57806342842e0e146101c9576100f3565b806301ffc9a7146100f757806306fdde0314610127578063081812fc14610145575b5f80fd5b610111600480360381019061010c919061161e565b610317565b60405161011e9190611663565b60405180910390f35b61012f6103f8565b60405161013c9190611706565b60405180910390f35b61015f600480360381019061015a9190611759565b610487565b60405161016c91906117c3565b60405180910390f35b61018f600480360381019061018a9190611806565b6104a2565b005b6101ab60048036038101906101a69190611844565b6104b8565b005b6101c760048036038101906101c29190611806565b6105b7565b005b6101e360048036038101906101de9190611844565b6105c5565b005b6101ff60048036038101906101fa9190611759565b6105e4565b60405161020c91906117c3565b60405180910390f35b61022f600480360381019061022a9190611894565b6105f5565b60405161023c91906118ce565b60405180910390f35b61024d6106ab565b60405161025a9190611706565b60405180910390f35b61027d60048036038101906102789190611806565b61073b565b005b61029960048036038101906102949190611911565b610749565b005b6102b560048036038101906102b09190611a7b565b61075f565b005b6102d160048036038101906102cc9190611759565b610784565b6040516102de9190611706565b60405180910390f35b61030160048036038101906102fc9190611afb565b6107ea565b60405161030e9190611663565b60405180910390f35b5f7f80ac58cd000000000000000000000000000000000000000000000000000000007bffffffffffffffffffffffffffffffffffffffffffffffffffffffff1916827bffffffffffffffffffffffffffffffffffffffffffffffffffffffff191614806103e157507f5b5e139f000000000000000000000000000000000000000000000000000000007bffffffffffffffffffffffffffffffffffffffffffffffffffffffff1916827bffffffffffffffffffffffffffffffffffffffffffffffffffffffff1916145b806103f157506103f082610878565b5b9050919050565b60605f805461040690611b66565b80601f016020809104026020016040519081016040528092919081815260200182805461043290611b66565b801561047d5780601f106104545761010080835404028352916020019161047d565b820191905f5260205f20905b81548152906001019060200180831161046057829003601f168201915b5050505050905090565b5f610491826108e1565b5061049b82610967565b9050919050565b6104b482826104af6109a0565b6109a7565b5050565b5f73ffffffffffffffffffffffffffffffffffffffff168273ffffffffffffffffffffffffffffffffffffffff1603610528575f6040517f64a0ae9200000000000000000000000000000000000000000000000000000000815260040161051f91906117c3565b60405180910390fd5b5f61053b83836105366109a0565b6109b9565b90508373ffffffffffffffffffffffffffffffffffffffff168173ffffffffffffffffffffffffffffffffffffffff16146105b1578382826040517f64283d7b0000000000000000000000000000000000000000000000000000000081526004016105a893929190611b96565b60405180910390fd5b50505050565b6105c18282610bc4565b5050565b6105df83838360405180602001604052805f81525061075f565b505050565b5f6105ee826108e1565b9050919050565b5f8073ffffffffffffffffffffffffffffffffffffffff168273ffffffffffffffffffffffffffffffffffffffff1603610666575f6040517f89c62b6400000000000000000000000000000000000000000000000000000000815260040161065d91906117c3565b60405180910390fd5b60035f8373ffffffffffffffffffffffffffffffffffffffff1673ffffffffffffffffffffffffffffffffffffffff1681526020019081526020015f20549050919050565b6060600180546106ba90611b66565b80601f01602080910402602001604051908101604052809291908181526020018280546106e690611b66565b80156107315780601f1061070857610100808354040283529160200191610731565b820191905f5260205f20905b81548152906001019060200180831161071457829003601f168201915b5050505050905090565b6107458282610cb7565b5050565b61075b6107546109a0565b8383610cd4565b5050565b61076a8484846104b8565b61077e6107756109a0565b85858585610e3d565b50505050565b606061078f826108e1565b505f610799610fe9565b90505f8151116107b75760405180602001604052805f8152506107e2565b806107c184610fff565b6040516020016107d2929190611c05565b6040516020818303038152906040525b915050919050565b5f60055f8473ffffffffffffffffffffffffffffffffffffffff1673ffffffffffffffffffffffffffffffffffffffff1681526020019081526020015f205f8373ffffffffffffffffffffffffffffffffffffffff1673ffffffffffffffffffffffffffffffffffffffff1681526020019081526020015f205f9054906101000a900460ff16905092915050565b5f7f01ffc9a7000000000000000000000000000000000000000000000000000000007bffffffffffffffffffffffffffffffffffffffffffffffffffffffff1916827bffffffffffffffffffffffffffffffffffffffffffffffffffffffff1916149050919050565b5f806108ec836110c9565b90505f73ffffffffffffffffffffffffffffffffffffffff168173ffffffffffffffffffffffffffffffffffffffff160361095e57826040517f7e27328900000000000000000000000000000000000000000000000000000000815260040161095591906118ce565b60405180910390fd5b80915050919050565b5f60045f8381526020019081526020015f205f9054906101000a900473ffffffffffffffffffffffffffffffffffffffff169050919050565b5f33905090565b6109b48383836001611102565b505050565b5f806109c4846110c9565b90505f73ffffffffffffffffffffffffffffffffffffffff168373ffffffffffffffffffffffffffffffffffffffff1614610a0557610a048184866112c1565b5b5f73ffffffffffffffffffffffffffffffffffffffff168173ffffffffffffffffffffffffffffffffffffffff1614610a9057610a445f855f80611102565b600160035f8373ffffffffffffffffffffffffffffffffffffffff1673ffffffffffffffffffffffffffffffffffffffff1681526020019081526020015f205f82825403925050819055505b5f73ffffffffffffffffffffffffffffffffffffffff168573ffffffffffffffffffffffffffffffffffffffff1614610b0f57600160035f8773ffffffffffffffffffffffffffffffffffffffff1673ffffffffffffffffffffffffffffffffffffffff1681526020019081526020015f205f82825401925050819055505b8460025f8681526020019081526020015f205f6101000a81548173ffffffffffffffffffffffffffffffffffffffff021916908373ffffffffffffffffffffffffffffffffffffffff160217905550838573ffffffffffffffffffffffffffffffffffffffff168273ffffffffffffffffffffffffffffffffffffffff167fddf252ad1be2c89b69c2b068fc378daa952ba7f163c4a11628f55a4df523b3ef60405160405180910390a4809150509392505050565b5f73ffffffffffffffffffffffffffffffffffffffff168273ffffffffffffffffffffffffffffffffffffffff1603610c34575f6040517f64a0ae92000000000000000000000000000000000000000000000000000000008152600401610c2b91906117c3565b60405180910390fd5b5f610c4083835f6109b9565b90505f73ffffffffffffffffffffffffffffffffffffffff168173ffffffffffffffffffffffffffffffffffffffff1614610cb2575f6040517f73c6ac6e000000000000000000000000000000000000000000000000000000008152600401610ca991906117c3565b60405180910390fd5b505050565b610cd0828260405180602001604052805f815250611384565b5050565b5f73ffffffffffffffffffffffffffffffffffffffff168273ffffffffffffffffffffffffffffffffffffffff1603610d4457816040517f5b08ba18000000000000000000000000000000000000000000000000000000008152600401610d3b91906117c3565b60405180910390fd5b8060055f8573ffffffffffffffffffffffffffffffffffffffff1673ffffffffffffffffffffffffffffffffffffffff1681526020019081526020015f205f8473ffffffffffffffffffffffffffffffffffffffff1673ffffffffffffffffffffffffffffffffffffffff1681526020019081526020015f205f6101000a81548160ff0219169083151502179055508173ffffffffffffffffffffffffffffffffffffffff168373ffffffffffffffffffffffffffffffffffffffff167f17307eab39ab6107e8899845ad3d59bd9653f200f220920489ca2b5937696c3183604051610e309190611663565b60405180910390a3505050565b5f8373ffffffffffffffffffffffffffffffffffffffff163b1115610fe2578273ffffffffffffffffffffffffffffffffffffffff1663150b7a02868685856040518563ffffffff1660e01b8152600401610e9b9493929190611c7a565b6020604051808303815f875af1925050508015610ed657506040513d601f19601f82011682018060405250810190610ed39190611cd8565b60015b610f57573d805f8114610f04576040519150601f19603f3d011682016040523d82523d5f602084013e610f09565b606091505b505f815103610f4f57836040517f64a0ae92000000000000000000000000000000000000000000000000000000008152600401610f4691906117c3565b60405180910390fd5b805160208201fd5b63150b7a0260e01b7bffffffffffffffffffffffffffffffffffffffffffffffffffffffff1916817bffffffffffffffffffffffffffffffffffffffffffffffffffffffff191614610fe057836040517f64a0ae92000000000000000000000000000000000000000000000000000000008152600401610fd791906117c3565b60405180910390fd5b505b5050505050565b606060405180602001604052805f815250905090565b60605f600161100d846113a7565b0190505f8167ffffffffffffffff81111561102b5761102a611957565b5b6040519080825280601f01601f19166020018201604052801561105d5781602001600182028036833780820191505090505b5090505f82602083010190505b6001156110be578080600190039150507f3031323334353637383961626364656600000000000000000000000000000000600a86061a8153600a85816110b3576110b2611d03565b5b0494505f850361106a575b819350505050919050565b5f60025f8381526020019081526020015f205f9054906101000a900473ffffffffffffffffffffffffffffffffffffffff169050919050565b808061113a57505f73ffffffffffffffffffffffffffffffffffffffff168273ffffffffffffffffffffffffffffffffffffffff1614155b1561126c575f611149846108e1565b90505f73ffffffffffffffffffffffffffffffffffffffff168373ffffffffffffffffffffffffffffffffffffffff16141580156111b357508273ffffffffffffffffffffffffffffffffffffffff168173ffffffffffffffffffffffffffffffffffffffff1614155b80156111c657506111c481846107ea565b155b1561120857826040517fa9fbf51f0000000000000000000000000000000000000000000000000000000081526004016111ff91906117c3565b60405180910390fd5b811561126a57838573ffffffffffffffffffffffffffffffffffffffff168273ffffffffffffffffffffffffffffffffffffffff167f8c5be1e5ebec7d5bd14f71427d1e84f3dd0314c0f7b2291e5b200ac8c7c3b92560405160405180910390a45b505b8360045f8581526020019081526020015f205f6101000a81548173ffffffffffffffffffffffffffffffffffffffff021916908373ffffffffffffffffffffffffffffffffffffffff16021790555050505050565b6112cc8383836114f8565b61137f575f73ffffffffffffffffffffffffffffffffffffffff168373ffffffffffffffffffffffffffffffffffffffff160361134057806040517f7e27328900000000000000000000000000000000000000000000000000000000815260040161133791906118ce565b60405180910390fd5b81816040517f177e802f000000000000000000000000000000000000000000000000000000008152600401611376929190611d30565b60405180910390fd5b505050565b61138e8383610bc4565b6113a26113996109a0565b5f858585610e3d565b505050565b5f805f90507a184f03e93ff9f4daa797ed6e38ed64bf6a1f0100000000000000008310611403577a184f03e93ff9f4daa797ed6e38ed64bf6a1f01000000000000000083816113f9576113f8611d03565b5b0492506040810190505b6d04ee2d6d415b85acef81000000008310611440576d04ee2d6d415b85acef8100000000838161143657611435611d03565b5b0492506020810190505b662386f26fc10000831061146f57662386f26fc10000838161146557611464611d03565b5b0492506010810190505b6305f5e1008310611498576305f5e100838161148e5761148d611d03565b5b0492506008810190505b61271083106114bd5761271083816114b3576114b2611d03565b5b0492506004810190505b606483106114e057606483816114d6576114d5611d03565b5b0492506002810190505b600a83106114ef576001810190505b80915050919050565b5f8073ffffffffffffffffffffffffffffffffffffffff168373ffffffffffffffffffffffffffffffffffffffff16141580156115af57508273ffffffffffffffffffffffffffffffffffffffff168473ffffffffffffffffffffffffffffffffffffffff161480611570575061156f84846107ea565b5b806115ae57508273ffffffffffffffffffffffffffffffffffffffff1661159683610967565b73ffffffffffffffffffffffffffffffffffffffff16145b5b90509392505050565b5f604051905090565b5f80fd5b5f80fd5b5f7fffffffff0000000000000000000000000000000000000000000000000000000082169050919050565b6115fd816115c9565b8114611607575f80fd5b50565b5f81359050611618816115f4565b92915050565b5f60208284031215611633576116326115c1565b5b5f6116408482850161160a565b91505092915050565b5f8115159050919050565b61165d81611649565b82525050565b5f6020820190506116765f830184611654565b92915050565b5f81519050919050565b5f82825260208201905092915050565b5f5b838110156116b3578082015181840152602081019050611698565b5f8484015250505050565b5f601f19601f8301169050919050565b5f6116d88261167c565b6116e28185611686565b93506116f2818560208601611696565b6116fb816116be565b840191505092915050565b5f6020820190508181035f83015261171e81846116ce565b905092915050565b5f819050919050565b61173881611726565b8114611742575f80fd5b50565b5f813590506117538161172f565b92915050565b5f6020828403121561176e5761176d6115c1565b5b5f61177b84828501611745565b91505092915050565b5f73ffffffffffffffffffffffffffffffffffffffff82169050919050565b5f6117ad82611784565b9050919050565b6117bd816117a3565b82525050565b5f6020820190506117d65f8301846117b4565b92915050565b6117e5816117a3565b81146117ef575f80fd5b50565b5f81359050611800816117dc565b92915050565b5f806040838503121561181c5761181b6115c1565b5b5f611829858286016117f2565b925050602061183a85828601611745565b9150509250929050565b5f805f6060848603121561185b5761185a6115c1565b5b5f611868868287016117f2565b9350506020611879868287016117f2565b925050604061188a86828701611745565b9150509250925092565b5f602082840312156118a9576118a86115c1565b5b5f6118b6848285016117f2565b91505092915050565b6118c881611726565b82525050565b5f6020820190506118e15f8301846118bf565b92915050565b6118f081611649565b81146118fa575f80fd5b50565b5f8135905061190b816118e7565b92915050565b5f8060408385031215611927576119266115c1565b5b5f611934858286016117f2565b9250506020611945858286016118fd565b9150509250929050565b5f80fd5b5f80fd5b7f4e487b71000000000000000000000000000000000000000000000000000000005f52604160045260245ffd5b61198d826116be565b810181811067ffffffffffffffff821117156119ac576119ab611957565b5b80604052505050565b5f6119be6115b8565b90506119ca8282611984565b919050565b5f67ffffffffffffffff8211156119e9576119e8611957565b5b6119f2826116be565b9050602081019050919050565b828183375f83830152505050565b5f611a1f611a1a846119cf565b6119b5565b905082815260208101848484011115611a3b57611a3a611953565b5b611a468482856119ff565b509392505050565b5f82601f830112611a6257611a6161194f565b5b8135611a72848260208601611a0d565b91505092915050565b5f805f8060808587031215611a9357611a926115c1565b5b5f611aa0878288016117f2565b9450506020611ab1878288016117f2565b9350506040611ac287828801611745565b925050606085013567ffffffffffffffff811115611ae357611ae26115c5565b5b611aef87828801611a4e565b91505092959194509250565b5f8060408385031215611b1157611b106115c1565b5b5f611b1e858286016117f2565b9250506020611b2f858286016117f2565b9150509250929050565b7f4e487b71000000000000000000000000000000000000000000000000000000005f52602260045260245ffd5b5f6002820490506001821680611b7d57607f821691505b602082108103611b9057611b8f611b39565b5b50919050565b5f606082019050611ba95f8301866117b4565b611bb660208301856118bf565b611bc360408301846117b4565b949350505050565b5f81905092915050565b5f611bdf8261167c565b611be98185611bcb565b9350611bf9818560208601611696565b80840191505092915050565b5f611c108285611bd5565b9150611c1c8284611bd5565b91508190509392505050565b5f81519050919050565b5f82825260208201905092915050565b5f611c4c82611c28565b611c568185611c32565b9350611c66818560208601611696565b611c6f816116be565b840191505092915050565b5f608082019050611c8d5f8301876117b4565b611c9a60208301866117b4565b611ca760408301856118bf565b8181036060830152611cb98184611c42565b905095945050505050565b5f81519050611cd2816115f4565b92915050565b5f60208284031215611ced57611cec6115c1565b5b5f611cfa84828501611cc4565b91505092915050565b7f4e487b71000000000000000000000000000000000000000000000000000000005f52601260045260245ffd5b5f604082019050611d435f8301856117b4565b611d5060208301846118bf565b939250505056fea2646970667358221220b07a156a97b2207e530ba5913e326944753c2a0e9e6966068cb384f49be6039d64736f6c63430008140033",
  "linkReferences": {},
  "deployedLinkReferences": {},
  "immutableReferences": {},
  "inputSourceName": "project/test/contracts/MockERC721.sol",
  "buildInfoId": "solc-0_8_20-40f4152586df6dca368fd6242c74cdc5c3cf3164"
}