{
  "address": "0x35a445e40178df990205095767e91e980F309Fa2",
  "abi": [
    {
      "inputs": [],
      "stateMutability": "nonpayable",
      "type": "constructor"
    },
    {
      "inputs": [
        {
          "internalType": "address",
          "name": "sender",
          "type": "address"
        },
        {
          "internalType": "uint256",
          "name": "tokenId",
          "type": "uint256"
        },
        {
          "internalType": "address",
          "name": "owner",
          "type": "address"
        }
      ],
      "name": "ERC721IncorrectOwner",
      "type": "error"
    },
    {
      "inputs": [
        {
          "internalType": "address",
          "name": "operator",
          "type": "address"
        },
        {
          "internalType": "uint256",
          "name": "tokenId",
          "type": "uint256"
        }
      ],
      "name": "ERC721InsufficientApproval",
      "type": "error"
    },
    {
      "inputs": [
        {
          "internalType": "address",
          "name": "approver",
          "type": "address"
        }
      ],
      "name": "ERC721InvalidApprover",
      "type": "error"
    },
    {
      "inputs": [
        {
          "internalType": "address",
          "name": "operator",
          "type": "address"
        }
      ],
      "name": "ERC721InvalidOperator",
      "type": "error"
    },
    {
      "inputs": [
        {
          "internalType": "address",
          "name": "owner",
          "type": "address"
        }
      ],
      "name": "ERC721InvalidOwner",
      "type": "error"
    },
    {
      "inputs": [
        {
          "internalType": "address",
          "name": "receiver",
          "type": "address"
        }
      ],
      "name": "ERC721InvalidReceiver",
      "type": "error"
    },
    {
      "inputs": [
        {
          "internalType": "address",
          "name": "sender",
          "type": "address"
        }
      ],
      "name": "ERC721InvalidSender",
      "type": "error"
    },
    {
      "inputs": [
        {
          "internalType": "uint256",
          "name": "tokenId",
          "type": "uint256"
        }
      ],
      "name": "ERC721NonexistentToken",
      "type": "error"
    },
    {
      "inputs": [
        {
          "internalType": "address",
          "name": "owner",
          "type": "address"
        }
      ],
      "name": "OwnableInvalidOwner",
      "type": "error"
    },
    {
      "inputs": [
        {
          "internalType": "address",
          "name": "account",
          "type": "address"
        }
      ],
      "name": "OwnableUnauthorizedAccount",
      "type": "error"
    },
    {
      "anonymous": false,
      "inputs": [
        {
          "indexed": true,
          "internalType": "address",
          "name": "owner",
          "type": "address"
        },
        {
          "indexed": true,
          "internalType": "address",
          "name": "approved",
          "type": "address"
        },
        {
          "indexed": true,
          "internalType": "uint256",
          "name": "tokenId",
          "type": "uint256"
        }
      ],
      "name": "Approval",
      "type": "event"
    },
    {
      "anonymous": false,
      "inputs": [
        {
          "indexed": true,
          "internalType": "address",
          "name": "owner",
          "type": "address"
        },
        {
          "indexed": true,
          "internalType": "address",
          "name": "operator",
          "type": "address"
        },
        {
          "indexed": false,
          "internalType": "bool",
          "name": "approved",
          "type": "bool"
        }
      ],
      "name": "ApprovalForAll",
      "type": "event"
    },
    {
      "anonymous": false,
      "inputs": [
        {
          "indexed": false,
          "internalType": "uint256",
          "name": "_fromTokenId",
          "type": "uint256"
        },
        {
          "indexed": false,
          "internalType": "uint256",
          "name": "_toTokenId",
          "type": "uint256"
        }
      ],
      "name": "BatchMetadataUpdate",
      "type": "event"
    },
    {
      "anonymous": false,
      "inputs": [
        {
          "indexed": true,
          "internalType": "address",
          "name": "creator",
          "type": "address"
        }
      ],
      "name": "CreatorVerified",
      "type": "event"
    },
    {
      "anonymous": false,
      "inputs": [
        {
          "indexed": false,
          "internalType": "uint256",
          "name": "_tokenId",
          "type": "uint256"
        }
      ],
      "name": "MetadataUpdate",
      "type": "event"
    },
    {
      "anonymous": false,
      "inputs": [
        {
          "indexed": true,
          "internalType": "address",
          "name": "previousOwner",
          "type": "address"
        },
        {
          "indexed": true,
          "internalType": "address",
          "name": "newOwner",
          "type": "address"
        }
      ],
      "name": "OwnershipTransferred",
      "type": "event"
    },
    {
      "anonymous": false,
      "inputs": [
        {
          "indexed": true,
          "internalType": "uint256",
          "name": "tokenId",
          "type": "uint256"
        },
        {
          "indexed": false,
          "internalType": "uint256",
          "name": "price",
          "type": "uint256"
        }
      ],
      "name": "RelicListed",
      "type": "event"
    },
    {
      "anonymous": false,
      "inputs": [
        {
          "indexed": true,
          "internalType": "uint256",
          "name": "tokenId",
          "type": "uint256"
        },
        {
          "indexed": true,
          "internalType": "address",
          "name": "creator",
          "type": "address"
        },
        {
          "indexed": false,
          "internalType": "string",
          "name": "title",
          "type": "string"
        },
        {
          "indexed": false,
          "internalType": "uint256",
          "name": "price",
          "type": "uint256"
        }
      ],
      "name": "RelicMinted",
      "type": "event"
    },
    {
      "anonymous": false,
      "inputs": [
        {
          "indexed": true,
          "internalType": "uint256",
          "name": "tokenId",
          "type": "uint256"
        },
        {
          "indexed": true,
          "internalType": "address",
          "name": "buyer",
          "type": "address"
        },
        {
          "indexed": false,
          "internalType": "uint256",
          "name": "price",
          "type": "uint256"
        }
      ],
      "name": "RelicPurchased",
      "type": "event"
    },
    {
      "anonymous": false,
      "inputs": [
        {
          "indexed": true,
          "internalType": "address",
          "name": "from",
          "type": "address"
        },
        {
          "indexed": true,
          "internalType": "address",
          "name": "to",
          "type": "address"
        },
        {
          "indexed": true,
          "internalType": "uint256",
          "name": "tokenId",
          "type": "uint256"
        }
      ],
      "name": "Transfer",
      "type": "event"
    },
    {
      "inputs": [],
      "name": "CREATOR_ROYALTY",
      "outputs": [
        {
          "internalType": "uint256",
          "name": "",
          "type": "uint256"
        }
      ],
      "stateMutability": "view",
      "type": "function"
    },
    {
      "inputs": [],
      "name": "PLATFORM_FEE",
      "outputs": [
        {
          "internalType": "uint256",
          "name": "",
          "type": "uint256"
        }
      ],
      "stateMutability": "view",
      "type": "function"
    },
    {
      "inputs": [
        {
          "internalType": "address",
          "name": "to",
          "type": "address"
        },
        {
          "internalType": "uint256",
          "name": "tokenId",
          "type": "uint256"
        }
      ],
      "name": "approve",
      "outputs": [],
      "stateMutability": "nonpayable",
      "type": "function"
    },
    {
      "inputs": [
        {
          "internalType": "address",
          "name": "owner",
          "type": "address"
        }
      ],
      "name": "balanceOf",
      "outputs": [
        {
          "internalType": "uint256",
          "name": "",
          "type": "uint256"
        }
      ],
      "stateMutability": "view",
      "type": "function"
    },
    {
      "inputs": [
        {
          "internalType": "uint256",
          "name": "_tokenId",
          "type": "uint256"
        }
      ],
      "name": "cancelListing",
      "outputs": [],
      "stateMutability": "nonpayable",
      "type": "function"
    },
    {
      "inputs": [
        {
          "internalType": "address",
          "name": "",
          "type": "address"
        },
        {
          "internalType": "uint256",
          "name": "",
          "type": "uint256"
        }
      ],
      "name": "creatorTokens",
      "outputs": [
        {
          "internalType": "uint256",
          "name": "",
          "type": "uint256"
        }
      ],
      "stateMutability": "view",
      "type": "function"
    },
    {
      "inputs": [],
      "name": "getAllRelics",
      "outputs": [
        {
          "internalType": "uint256[]",
          "name": "",
          "type": "uint256[]"
        }
      ],
      "stateMutability": "view",
      "type": "function"
    },
    {
      "inputs": [
        {
          "internalType": "uint256",
          "name": "tokenId",
          "type": "uint256"
        }
      ],
      "name": "getApproved",
      "outputs": [
        {
          "internalType": "address",
          "name": "",
          "type": "address"
        }
      ],
      "stateMutability": "view",
      "type": "function"
    },
    {
      "inputs": [
        {
          "internalType": "address",
          "name": "_creator",
          "type": "address"
        }
      ],
      "name": "getCreatorTokens",
      "outputs": [
        {
          "internalType": "uint256[]",
          "name": "",
          "type": "uint256[]"
        }
      ],
      "stateMutability": "view",
      "type": "function"
    },
    {
      "inputs": [],
      "name": "getCurrentTokenId",
      "outputs": [
        {
          "internalType": "uint256",
          "name": "",
          "type": "uint256"
        }
      ],
      "stateMutability": "view",
      "type": "function"
    },
    {
      "inputs": [],
      "name": "getRelicsForSale",
      "outputs": [
        {
          "internalType": "uint256[]",
          "name": "",
          "type": "uint256[]"
        }
      ],
      "stateMutability": "view",
      "type": "function"
    },
    {
      "inputs": [
        {
          "internalType": "address",
          "name": "owner",
          "type": "address"
        },
        {
          "internalType": "address",
          "name": "operator",
          "type": "address"
        }
      ],
      "name": "isApprovedForAll",
      "outputs": [
        {
          "internalType": "bool",
          "name": "",
          "type": "bool"
        }
      ],
      "stateMutability": "view",
      "type": "function"
    },
    {
      "inputs": [
        {
          "internalType": "uint256",
          "name": "_tokenId",
          "type": "uint256"
        },
        {
          "internalType": "uint256",
          "name": "_price",
          "type": "uint256"
        }
      ],
      "name": "listRelic",
      "outputs": [],
      "stateMutability": "nonpayable",
      "type": "function"
    },
    {
      "inputs": [
        {
          "internalType": "string",
          "name": "_title",
          "type": "string"
        },
        {
          "internalType": "string",
          "name": "_tokenURI",
          "type": "string"
        },
        {
          "internalType": "string",
          "name": "_imageURI",
          "type": "string"
        },
        {
          "internalType": "uint256",
          "name": "_price",
          "type": "uint256"
        }
      ],
      "name": "mintRelic",
      "outputs": [
        {
          "internalType": "uint256",
          "name": "",
          "type": "uint256"
        }
      ],
      "stateMutability": "nonpayable",
      "type": "function"
    },
    {
      "inputs": [],
      "name": "name",
      "outputs": [
        {
          "internalType": "string",
          "name": "",
          "type": "string"
        }
      ],
      "stateMutability": "view",
      "type": "function"
    },
    {
      "inputs": [],
      "name": "owner",
      "outputs": [
        {
          "internalType": "address",
          "name": "",
          "type": "address"
        }
      ],
      "stateMutability": "view",
      "type": "function"
    },
    {
      "inputs": [
        {
          "internalType": "uint256",
          "name": "tokenId",
          "type": "uint256"
        }
      ],
      "name": "ownerOf",
      "outputs": [
        {
          "internalType": "address",
          "name": "",
          "type": "address"
        }
      ],
      "stateMutability": "view",
      "type": "function"
    },
    {
      "inputs": [
        {
          "internalType": "uint256",
          "name": "_tokenId",
          "type": "uint256"
        }
      ],
      "name": "purchaseRelic",
      "outputs": [],
      "stateMutability": "payable",
      "type": "function"
    },
    {
      "inputs": [
        {
          "internalType": "uint256",
          "name": "",
          "type": "uint256"
        }
      ],
      "name": "relics",
      "outputs": [
        {
          "internalType": "string",
          "name": "title",
          "type": "string"
        },
        {
          "internalType": "address",
          "name": "creator",
          "type": "address"
        },
        {
          "internalType": "uint256",
          "name": "price",
          "type": "uint256"
        },
        {
          "internalType": "bool",
          "name": "isForSale",
          "type": "bool"
        },
        {
          "internalType": "string",
          "name": "imageURI",
          "type": "string"
        }
      ],
      "stateMutability": "view",
      "type": "function"
    },
    {
      "inputs": [],
      "name": "renounceOwnership",
      "outputs": [],
      "stateMutability": "nonpayable",
      "type": "function"
    },
    {
      "inputs": [
        {
          "internalType": "address",
          "name": "from",
          "type": "address"
        },
        {
          "internalType": "address",
          "name": "to",
          "type": "address"
        },
        {
          "internalType": "uint256",
          "name": "tokenId",
          "type": "uint256"
        }
      ],
      "name": "safeTransferFrom",
      "outputs": [],
      "stateMutability": "nonpayable",
      "type": "function"
    },
    {
      "inputs": [
        {
          "internalType": "address",
          "name": "from",
          "type": "address"
        },
        {
          "internalType": "address",
          "name": "to",
          "type": "address"
        },
        {
          "internalType": "uint256",
          "name": "tokenId",
          "type": "uint256"
        },
        {
          "internalType": "bytes",
          "name": "data",
          "type": "bytes"
        }
      ],
      "name": "safeTransferFrom",
      "outputs": [],
      "stateMutability": "nonpayable",
      "type": "function"
    },
    {
      "inputs": [
        {
          "internalType": "address",
          "name": "operator",
          "type": "address"
        },
        {
          "internalType": "bool",
          "name": "approved",
          "type": "bool"
        }
      ],
      "name": "setApprovalForAll",
      "outputs": [],
      "stateMutability": "nonpayable",
      "type": "function"
    },
    {
      "inputs": [
        {
          "internalType": "bytes4",
          "name": "interfaceId",
          "type": "bytes4"
        }
      ],
      "name": "supportsInterface",
      "outputs": [
        {
          "internalType": "bool",
          "name": "",
          "type": "bool"
        }
      ],
      "stateMutability": "view",
      "type": "function"
    },
    {
      "inputs": [],
      "name": "symbol",
      "outputs": [
        {
          "internalType": "string",
          "name": "",
          "type": "string"
        }
      ],
      "stateMutability": "view",
      "type": "function"
    },
    {
      "inputs": [
        {
          "internalType": "uint256",
          "name": "tokenId",
          "type": "uint256"
        }
      ],
      "name": "tokenURI",
      "outputs": [
        {
          "internalType": "string",
          "name": "",
          "type": "string"
        }
      ],
      "stateMutability": "view",
      "type": "function"
    },
    {
      "inputs": [
        {
          "internalType": "address",
          "name": "from",
          "type": "address"
        },
        {
          "internalType": "address",
          "name": "to",
          "type": "address"
        },
        {
          "internalType": "uint256",
          "name": "tokenId",
          "type": "uint256"
        }
      ],
      "name": "transferFrom",
      "outputs": [],
      "stateMutability": "nonpayable",
      "type": "function"
    },
    {
      "inputs": [
        {
          "internalType": "address",
          "name": "newOwner",
          "type": "address"
        }
      ],
      "name": "transferOwnership",
      "outputs": [],
      "stateMutability": "nonpayable",
      "type": "function"
    },
    {
      "inputs": [
        {
          "internalType": "address",
          "name": "",
          "type": "address"
        }
      ],
      "name": "verifiedCreators",
      "outputs": [
        {
          "internalType": "bool",
          "name": "",
          "type": "bool"
        }
      ],
      "stateMutability": "view",
      "type": "function"
    },
    {
      "inputs": [
        {
          "internalType": "address",
          "name": "_creator",
          "type": "address"
        }
      ],
      "name": "verifyCreator",
      "outputs": [],
      "stateMutability": "nonpayable",
      "type": "function"
    }
  ],
  "transactionHash": "0xfbe9ca56cdd9b27f632a00c17093e71c7b99ff966a68ec00d1cd2a729ef2e27f",
  "args": [],
  "numDeployments": 1,
  "solcInputHash": "bbcae9825989c91543df009aa7254b0b",
  "bytecode": "0x60806040523480156200001157600080fd5b50336040518060400160405280600f81526020016e4f7665726d696e6447616c6c65727960881b8152506040518060400160405280600781526020016647414c4c45525960c81b81525081600090816200006c9190620001b6565b5060016200007b8282620001b6565b5050506001600160a01b038116620000ad57604051631e4fbdf760e01b81526000600482015260240160405180910390fd5b620000b881620000bf565b5062000282565b600780546001600160a01b038381166001600160a01b0319831681179093556040519116919082907f8be0079c531659141344cd1fd0a4f28419497f9722a3daafe3b4186f6b6457e090600090a35050565b634e487b7160e01b600052604160045260246000fd5b600181811c908216806200013c57607f821691505b6020821081036200015d57634e487b7160e01b600052602260045260246000fd5b50919050565b601f821115620001b157600081815260208120601f850160051c810160208610156200018c5750805b601f850160051c820191505b81811015620001ad5782815560010162000198565b5050505b505050565b81516001600160401b03811115620001d257620001d262000111565b620001ea81620001e3845462000127565b8462000163565b602080601f831160018114620002225760008415620002095750858301515b600019600386901b1c1916600185901b178555620001ad565b600085815260208120601f198616915b82811015620002535788860151825594840194600190910190840162000232565b5085821015620002725787850151600019600388901b60f8161c191681555b5050505050600190811b01905550565b61245b80620002926000396000f3fe6080604052600436106101cd5760003560e01c806395d89b41116100f7578063c87b56dd11610095578063e985e9c511610064578063e985e9c514610526578063f2a88f6214610546578063f2fde38b14610559578063ff281c501461057957600080fd5b8063c87b56dd146104a6578063db3fa4cc146104c6578063ddc331c7146104e6578063dfd7e3b41461050657600080fd5b8063a22cb465116100d1578063a22cb46514610405578063add150bc14610425578063b496da8b14610455578063b88d4fde1461048657600080fd5b806395d89b41146103bb57806398dd1b65146103d05780639b57cc0f146103f057600080fd5b806342842e0e1161016f578063715018a61161013e578063715018a61461035b57806374abfa5414610370578063863b5d72146102c35780638da5cb5b1461039d57600080fd5b806342842e0e146102e657806356189236146103065780636352211e1461031b57806370a082311461033b57600080fd5b8063095ea7b3116101ab578063095ea7b31461026157806323b872dd14610283578063305a67a8146102a357806334fbc9a1146102c357600080fd5b806301ffc9a7146101d257806306fdde0314610207578063081812fc14610229575b600080fd5b3480156101de57600080fd5b506101f26101ed366004611d61565b61058e565b60405190151581526020015b60405180910390f35b34801561021357600080fd5b5061021c6105b9565b6040516101fe9190611dce565b34801561023557600080fd5b50610249610244366004611de1565b61064b565b6040516001600160a01b0390911681526020016101fe565b34801561026d57600080fd5b5061028161027c366004611e16565b610674565b005b34801561028f57600080fd5b5061028161029e366004611e40565b610683565b3480156102af57600080fd5b506102816102be366004611de1565b610713565b3480156102cf57600080fd5b506102d860fa81565b6040519081526020016101fe565b3480156102f257600080fd5b50610281610301366004611e40565b6107b2565b34801561031257600080fd5b506008546102d8565b34801561032757600080fd5b50610249610336366004611de1565b6107d2565b34801561034757600080fd5b506102d8610356366004611e7c565b6107dd565b34801561036757600080fd5b50610281610825565b34801561037c57600080fd5b5061039061038b366004611e7c565b610839565b6040516101fe9190611e97565b3480156103a957600080fd5b506007546001600160a01b0316610249565b3480156103c757600080fd5b5061021c6108a5565b3480156103dc57600080fd5b506102816103eb366004611e7c565b6108b4565b3480156103fc57600080fd5b50610390610908565b34801561041157600080fd5b50610281610420366004611edb565b610997565b34801561043157600080fd5b506101f2610440366004611e7c565b600a6020526000908152604090205460ff1681565b34801561046157600080fd5b50610475610470366004611de1565b6109a2565b6040516101fe959493929190611f17565b34801561049257600080fd5b506102816104a1366004611ff2565b610af3565b3480156104b257600080fd5b5061021c6104c1366004611de1565b610b0a565b3480156104d257600080fd5b506102d86104e1366004611e16565b610c1b565b3480156104f257600080fd5b506102d861050136600461208e565b610c4c565b34801561051257600080fd5b5061028161052136600461211e565b610ead565b34801561053257600080fd5b506101f2610541366004612140565b610fe4565b610281610554366004611de1565b611012565b34801561056557600080fd5b50610281610574366004611e7c565b6112ae565b34801561058557600080fd5b506103906112ec565b60006001600160e01b03198216632483248360e11b14806105b357506105b382611432565b92915050565b6060600080546105c890612173565b80601f01602080910402602001604051908101604052809291908181526020018280546105f490612173565b80156106415780601f1061061657610100808354040283529160200191610641565b820191906000526020600020905b81548152906001019060200180831161062457829003601f168201915b5050505050905090565b600061065682611482565b506000828152600460205260409020546001600160a01b03166105b3565b61067f8282336114bb565b5050565b6001600160a01b0382166106b257604051633250574960e11b8152600060048201526024015b60405180910390fd5b60006106bf8383336114c8565b9050836001600160a01b0316816001600160a01b03161461070d576040516364283d7b60e01b81526001600160a01b03808616600483015260248201849052821660448201526064016106a9565b50505050565b6000818152600260205260409020546001600160a01b03166107475760405162461bcd60e51b81526004016106a9906121ad565b33610751826107d2565b6001600160a01b0316146107975760405162461bcd60e51b815260206004820152600d60248201526c2737ba103a34329037bbb732b960991b60448201526064016106a9565b6000908152600960205260409020600301805460ff19169055565b6107cd83838360405180602001604052806000815250610af3565b505050565b60006105b382611482565b60006001600160a01b038216610809576040516322718ad960e21b8152600060048201526024016106a9565b506001600160a01b031660009081526003602052604090205490565b61082d6115c1565b61083760006115ee565b565b6001600160a01b0381166000908152600b602090815260409182902080548351818402810184019094528084526060939283018282801561089957602002820191906000526020600020905b815481526020019060010190808311610885575b50505050509050919050565b6060600180546105c890612173565b6108bc6115c1565b6001600160a01b0381166000818152600a6020526040808220805460ff19166001179055517ff29712ea7553106dc04213b4a8b2d4bd706623bddf1d92ab875d278700e772259190a250565b60085460609060008167ffffffffffffffff81111561092957610929611f66565b604051908082528060200260200182016040528015610952578160200160208202803683370190505b50905060005b828110156109905780828281518110610973576109736121db565b60209081029190910101528061098881612207565b915050610958565b5092915050565b61067f338383611640565b6009602052600090815260409020805481906109bd90612173565b80601f01602080910402602001604051908101604052809291908181526020018280546109e990612173565b8015610a365780601f10610a0b57610100808354040283529160200191610a36565b820191906000526020600020905b815481529060010190602001808311610a1957829003601f168201915b50505060018401546002850154600386015460048701805496976001600160a01b039094169692955060ff909116935090610a7090612173565b80601f0160208091040260200160405190810160405280929190818152602001828054610a9c90612173565b8015610ae95780601f10610abe57610100808354040283529160200191610ae9565b820191906000526020600020905b815481529060010190602001808311610acc57829003601f168201915b5050505050905085565b610afe848484610683565b61070d848484846116df565b6060610b1582611482565b5060008281526006602052604081208054610b2f90612173565b80601f0160208091040260200160405190810160405280929190818152602001828054610b5b90612173565b8015610ba85780601f10610b7d57610100808354040283529160200191610ba8565b820191906000526020600020905b815481529060010190602001808311610b8b57829003601f168201915b505050505090506000610bc660408051602081019091526000815290565b90508051600003610bd8575092915050565b815115610c0a578082604051602001610bf2929190612220565b60405160208183030381529060405292505050919050565b610c1384611808565b949350505050565b600b6020528160005260406000208181548110610c3757600080fd5b90600052602060002001600091509150505481565b600080855111610c965760405162461bcd60e51b81526020600482015260156024820152745469746c652063616e6e6f7420626520656d70747960581b60448201526064016106a9565b6000845111610ce75760405162461bcd60e51b815260206004820152601960248201527f546f6b656e205552492063616e6e6f7420626520656d7074790000000000000060448201526064016106a9565b60008211610d375760405162461bcd60e51b815260206004820152601c60248201527f5072696365206d7573742062652067726561746572207468616e20300000000060448201526064016106a9565b600880549081906000610d4983612207565b9190505550610d58338261187d565b610d628186611897565b6040805160a081018252878152336020808301919091528183018690526001606083015260808201879052600084815260099091529190912081518190610da9908261229d565b5060208201516001820180546001600160a01b0319166001600160a01b0390921691909117905560408201516002820155606082015160038201805460ff191691151591909117905560808201516004820190610e06908261229d565b5050336000818152600b60209081526040808320805460018101825590845291909220018490555190915082907fbfc02a1ff0f97970db158d1069625b1acff6419dc65dbc5098fc3bfeab5400b290610e62908a90889061235d565b60405180910390a3807faa949a75103f5a6d35ad216b82f0b3d50629bf2831a775b2eb780c4778cdc2b084604051610e9c91815260200190565b60405180910390a295945050505050565b6000828152600260205260409020546001600160a01b0316610ee15760405162461bcd60e51b81526004016106a9906121ad565b33610eeb836107d2565b6001600160a01b031614610f315760405162461bcd60e51b815260206004820152600d60248201526c2737ba103a34329037bbb732b960991b60448201526064016106a9565b60008111610f815760405162461bcd60e51b815260206004820152601c60248201527f5072696365206d7573742062652067726561746572207468616e20300000000060448201526064016106a9565b6000828152600960205260409081902060028101839055600301805460ff191660011790555182907faa949a75103f5a6d35ad216b82f0b3d50629bf2831a775b2eb780c4778cdc2b090610fd89084815260200190565b60405180910390a25050565b6001600160a01b03918216600090815260056020908152604080832093909416825291909152205460ff1690565b6000818152600260205260409020546001600160a01b03166110465760405162461bcd60e51b81526004016106a9906121ad565b6000818152600960205260409020600381015460ff166110a05760405162461bcd60e51b815260206004820152601560248201527452656c6963206973206e6f7420666f722073616c6560581b60448201526064016106a9565b80600201543410156110eb5760405162461bcd60e51b8152602060048201526014602482015273125b9cdd59999a58da595b9d081c185e5b595b9d60621b60448201526064016106a9565b336110f5836107d2565b6001600160a01b03160361114b5760405162461bcd60e51b815260206004820152601960248201527f43616e6e6f742062757920796f7572206f776e2072656c69630000000000000060448201526064016106a9565b6000611156836107d2565b9050600061271061116860fa3461237f565b6111729190612396565b9050600061271061118460fa3461237f565b61118e9190612396565b905060008161119d84346123b8565b6111a791906123b8565b90506111b48433886118e7565b60038501805460ff1916905560018501546040516001600160a01b039091169084156108fc029085906000818181858888f193505050501580156111fc573d6000803e3d6000fd5b506007546040516001600160a01b039091169083156108fc029084906000818181858888f19350505050158015611237573d6000803e3d6000fd5b506040516001600160a01b0385169082156108fc029083906000818181858888f1935050505015801561126e573d6000803e3d6000fd5b50604051348152339087907fb559954c901404e21f96f294cd4e8d9ef3f5d86a8901c19b17c20105a3788bd19060200160405180910390a3505050505050565b6112b66115c1565b6001600160a01b0381166112e057604051631e4fbdf760e01b8152600060048201526024016106a9565b6112e9816115ee565b50565b6008546060906000805b8281101561135a5760008181526009602052604090206003015460ff16801561133557506000818152600260205260409020546001600160a01b031615155b15611348578161134481612207565b9250505b8061135281612207565b9150506112f6565b5060008167ffffffffffffffff81111561137657611376611f66565b60405190808252806020026020018201604052801561139f578160200160208202803683370190505b5090506000805b848110156114285760008181526009602052604090206003015460ff1680156113e557506000818152600260205260409020546001600160a01b031615155b1561141657808383815181106113fd576113fd6121db565b60209081029190910101528161141281612207565b9250505b8061142081612207565b9150506113a6565b5090949350505050565b60006001600160e01b031982166380ac58cd60e01b148061146357506001600160e01b03198216635b5e139f60e01b145b806105b357506301ffc9a760e01b6001600160e01b03198316146105b3565b6000818152600260205260408120546001600160a01b0316806105b357604051637e27328960e01b8152600481018490526024016106a9565b6107cd8383836001611997565b6000828152600260205260408120546001600160a01b03908116908316156114f5576114f5818486611a9d565b6001600160a01b0381161561153357611512600085600080611997565b6001600160a01b038116600090815260036020526040902080546000190190555b6001600160a01b03851615611562576001600160a01b0385166000908152600360205260409020805460010190555b60008481526002602052604080822080546001600160a01b0319166001600160a01b0389811691821790925591518793918516917fddf252ad1be2c89b69c2b068fc378daa952ba7f163c4a11628f55a4df523b3ef91a4949350505050565b6007546001600160a01b031633146108375760405163118cdaa760e01b81523360048201526024016106a9565b600780546001600160a01b038381166001600160a01b0319831681179093556040519116919082907f8be0079c531659141344cd1fd0a4f28419497f9722a3daafe3b4186f6b6457e090600090a35050565b6001600160a01b03821661167257604051630b61174360e31b81526001600160a01b03831660048201526024016106a9565b6001600160a01b03838116600081815260056020908152604080832094871680845294825291829020805460ff191686151590811790915591519182527f17307eab39ab6107e8899845ad3d59bd9653f200f220920489ca2b5937696c31910160405180910390a3505050565b6001600160a01b0383163b1561070d57604051630a85bd0160e11b81526001600160a01b0384169063150b7a02906117219033908890879087906004016123cb565b6020604051808303816000875af192505050801561175c575060408051601f3d908101601f1916820190925261175991810190612408565b60015b6117c5573d80801561178a576040519150601f19603f3d011682016040523d82523d6000602084013e61178f565b606091505b5080516000036117bd57604051633250574960e11b81526001600160a01b03851660048201526024016106a9565b805181602001fd5b6001600160e01b03198116630a85bd0160e11b1461180157604051633250574960e11b81526001600160a01b03851660048201526024016106a9565b5050505050565b606061181382611482565b50600061182b60408051602081019091526000815290565b9050600081511161184b5760405180602001604052806000815250611876565b8061185584611b01565b604051602001611866929190612220565b6040516020818303038152906040525b9392505050565b61067f828260405180602001604052806000815250611b94565b60008281526006602052604090206118af828261229d565b506040518281527ff8e1a15aba9398e019f0b49df1a4fde98ee17ae345cb5f6b5e2c27f5033e8ce79060200160405180910390a15050565b6001600160a01b03821661191157604051633250574960e11b8152600060048201526024016106a9565b600061191f838360006114c8565b90506001600160a01b03811661194b57604051637e27328960e01b8152600481018390526024016106a9565b836001600160a01b0316816001600160a01b03161461070d576040516364283d7b60e01b81526001600160a01b03808616600483015260248201849052821660448201526064016106a9565b80806119ab57506001600160a01b03821615155b15611a6d5760006119bb84611482565b90506001600160a01b038316158015906119e75750826001600160a01b0316816001600160a01b031614155b80156119fa57506119f88184610fe4565b155b15611a235760405163a9fbf51f60e01b81526001600160a01b03841660048201526024016106a9565b8115611a6b5783856001600160a01b0316826001600160a01b03167f8c5be1e5ebec7d5bd14f71427d1e84f3dd0314c0f7b2291e5b200ac8c7c3b92560405160405180910390a45b505b5050600090815260046020526040902080546001600160a01b0319166001600160a01b0392909216919091179055565b611aa8838383611bab565b6107cd576001600160a01b038316611ad657604051637e27328960e01b8152600481018290526024016106a9565b60405163177e802f60e01b81526001600160a01b0383166004820152602481018290526044016106a9565b60606000611b0e83611c0e565b600101905060008167ffffffffffffffff811115611b2e57611b2e611f66565b6040519080825280601f01601f191660200182016040528015611b58576020820181803683370190505b5090508181016020015b600019016f181899199a1a9b1b9c1cb0b131b232b360811b600a86061a8153600a8504945084611b6257509392505050565b611b9e8383611ce6565b6107cd60008484846116df565b60006001600160a01b03831615801590610c135750826001600160a01b0316846001600160a01b03161480611be55750611be58484610fe4565b80610c135750506000908152600460205260409020546001600160a01b03908116911614919050565b60008072184f03e93ff9f4daa797ed6e38ed64bf6a1f0160401b8310611c4d5772184f03e93ff9f4daa797ed6e38ed64bf6a1f0160401b830492506040015b6d04ee2d6d415b85acef81000000008310611c79576d04ee2d6d415b85acef8100000000830492506020015b662386f26fc100008310611c9757662386f26fc10000830492506010015b6305f5e1008310611caf576305f5e100830492506008015b6127108310611cc357612710830492506004015b60648310611cd5576064830492506002015b600a83106105b35760010192915050565b6001600160a01b038216611d1057604051633250574960e11b8152600060048201526024016106a9565b6000611d1e838360006114c8565b90506001600160a01b038116156107cd576040516339e3563760e11b8152600060048201526024016106a9565b6001600160e01b0319811681146112e957600080fd5b600060208284031215611d7357600080fd5b813561187681611d4b565b60005b83811015611d99578181015183820152602001611d81565b50506000910152565b60008151808452611dba816020860160208601611d7e565b601f01601f19169290920160200192915050565b6020815260006118766020830184611da2565b600060208284031215611df357600080fd5b5035919050565b80356001600160a01b0381168114611e1157600080fd5b919050565b60008060408385031215611e2957600080fd5b611e3283611dfa565b946020939093013593505050565b600080600060608486031215611e5557600080fd5b611e5e84611dfa565b9250611e6c60208501611dfa565b9150604084013590509250925092565b600060208284031215611e8e57600080fd5b61187682611dfa565b6020808252825182820181905260009190848201906040850190845b81811015611ecf57835183529284019291840191600101611eb3565b50909695505050505050565b60008060408385031215611eee57600080fd5b611ef783611dfa565b915060208301358015158114611f0c57600080fd5b809150509250929050565b60a081526000611f2a60a0830188611da2565b6001600160a01b03871660208401526040830186905284151560608401528281036080840152611f5a8185611da2565b98975050505050505050565b634e487b7160e01b600052604160045260246000fd5b600067ffffffffffffffff80841115611f9757611f97611f66565b604051601f8501601f19908116603f01168101908282118183101715611fbf57611fbf611f66565b81604052809350858152868686011115611fd857600080fd5b858560208301376000602087830101525050509392505050565b6000806000806080858703121561200857600080fd5b61201185611dfa565b935061201f60208601611dfa565b925060408501359150606085013567ffffffffffffffff81111561204257600080fd5b8501601f8101871361205357600080fd5b61206287823560208401611f7c565b91505092959194509250565b600082601f83011261207f57600080fd5b61187683833560208501611f7c565b600080600080608085870312156120a457600080fd5b843567ffffffffffffffff808211156120bc57600080fd5b6120c88883890161206e565b955060208701359150808211156120de57600080fd5b6120ea8883890161206e565b9450604087013591508082111561210057600080fd5b5061210d8782880161206e565b949793965093946060013593505050565b6000806040838503121561213157600080fd5b50508035926020909101359150565b6000806040838503121561215357600080fd5b61215c83611dfa565b915061216a60208401611dfa565b90509250929050565b600181811c9082168061218757607f821691505b6020821081036121a757634e487b7160e01b600052602260045260246000fd5b50919050565b602080825260149082015273151bdad95b88191bd95cc81b9bdd08195e1a5cdd60621b604082015260600190565b634e487b7160e01b600052603260045260246000fd5b634e487b7160e01b600052601160045260246000fd5b600060018201612219576122196121f1565b5060010190565b60008351612232818460208801611d7e565b835190830190612246818360208801611d7e565b01949350505050565b601f8211156107cd57600081815260208120601f850160051c810160208610156122765750805b601f850160051c820191505b8181101561229557828155600101612282565b505050505050565b815167ffffffffffffffff8111156122b7576122b7611f66565b6122cb816122c58454612173565b8461224f565b602080601f83116001811461230057600084156122e85750858301515b600019600386901b1c1916600185901b178555612295565b600085815260208120601f198616915b8281101561232f57888601518255948401946001909101908401612310565b508582101561234d5787850151600019600388901b60f8161c191681555b5050505050600190811b01905550565b6040815260006123706040830185611da2565b90508260208301529392505050565b80820281158282048414176105b3576105b36121f1565b6000826123b357634e487b7160e01b600052601260045260246000fd5b500490565b818103818111156105b3576105b36121f1565b6001600160a01b03858116825284166020820152604081018390526080606082018190526000906123fe90830184611da2565b9695505050505050565b60006020828403121561241a57600080fd5b815161187681611d4b56fea26469706673582212200aaa0407be28ecd3ca30a97db0e955e1c9d7688b911477a8f6e40cd05a799e2864736f6c63430008140033",
  "devdoc": {
    "details": "Sacred NFT artifacts from The Overmind Gallery",
    "errors": {
      "ERC721IncorrectOwner(address,uint256,address)": [
        {
          "details": "Indicates an error related to the ownership over a particular token. Used in transfers.",
          "params": {
            "owner": "Address of the current owner of a token.",
            "sender": "Address whose tokens are being transferred.",
            "tokenId": "Identifier number of a token."
          }
        }
      ],
      "ERC721InsufficientApproval(address,uint256)": [
        {
          "details": "Indicates a failure with the `operator`s approval. Used in transfers.",
          "params": {
            "operator": "Address that may be allowed to operate on tokens without being their owner.",
            "tokenId": "Identifier number of a token."
          }
        }
      ],
      "ERC721InvalidApprover(address)": [
        {
          "details": "Indicates a failure with the `approver` of a token to be approved. Used in approvals.",
          "params": {
            "approver": "Address initiating an approval operation."
          }
        }
      ],
      "ERC721InvalidOperator(address)": [
        {
          "details": "Indicates a failure with the `operator` to be approved. Used in approvals.",
          "params": {
            "operator": "Address that may be allowed to operate on tokens without being their owner."
          }
        }
      ],
      "ERC721InvalidOwner(address)": [
        {
          "details": "Indicates that an address can't be an owner. For example, `address(0)` is a forbidden owner in EIP-20. Used in balance queries.",
          "params": {
            "owner": "Address of the current owner of a token."
          }
        }
      ],
      "ERC721InvalidReceiver(address)": [
        {
          "details": "Indicates a failure with the token `receiver`. Used in transfers.",
          "params": {
            "receiver": "Address to which tokens are being transferred."
          }
        }
      ],
      "ERC721InvalidSender(address)": [
        {
          "details": "Indicates a failure with the token `sender`. Used in transfers.",
          "params": {
            "sender": "Address whose tokens are being transferred."
          }
        }
      ],
      "ERC721NonexistentToken(uint256)": [
        {
          "details": "Indicates a `tokenId` whose `owner` is the zero address.",
          "params": {
            "tokenId": "Identifier number of a token."
          }
        }
      ],
      "OwnableInvalidOwner(address)": [
        {
          "details": "The owner is not a valid owner account. (eg. `address(0)`)"
        }
      ],
      "OwnableUnauthorizedAccount(address)": [
        {
          "details": "The caller account is not authorized to perform an operation."
        }
      ]
    },
    "events": {
      "Approval(address,address,uint256)": {
        "details": "Emitted when `owner` enables `approved` to manage the `tokenId` token."
      },
      "ApprovalForAll(address,address,bool)": {
        "details": "Emitted when `owner` enables or disables (`approved`) `operator` to manage all of its assets."
      },
      "BatchMetadataUpdate(uint256,uint256)": {
        "details": "This event emits when the metadata of a range of tokens is changed. So that the third-party platforms such as NFT market could timely update the images and related attributes of the NFTs."
      },
      "MetadataUpdate(uint256)": {
        "details": "This event emits when the metadata of a token is changed. So that the third-party platforms such as NFT market could timely update the images and related attributes of the NFT."
      },
      "Transfer(address,address,uint256)": {
        "details": "Emitted when `tokenId` token is transferred from `from` to `to`."
      }
    },
    "kind": "dev",
    "methods": {
      "approve(address,uint256)": {
        "details": "See {IERC721-approve}."
      },
      "balanceOf(address)": {
        "details": "See {IERC721-balanceOf}."
      },
      "cancelListing(uint256)": {
        "details": "Cancel listing"
      },
      "getAllRelics()": {
        "details": "Get all relics"
      },
      "getApproved(uint256)": {
        "details": "See {IERC721-getApproved}."
      },
      "getCreatorTokens(address)": {
        "details": "Get creator's tokens"
      },
      "getCurrentTokenId()": {
        "details": "Get current token counter"
      },
      "getRelicsForSale()": {
        "details": "Get relics for sale"
      },
      "isApprovedForAll(address,address)": {
        "details": "See {IERC721-isApprovedForAll}."
      },
      "listRelic(uint256,uint256)": {
        "details": "List a relic for sale"
      },
      "mintRelic(string,string,string,uint256)": {
        "details": "Mint a new sacred relic"
      },
      "name()": {
        "details": "See {IERC721Metadata-name}."
      },
      "owner()": {
        "details": "Returns the address of the current owner."
      },
      "ownerOf(uint256)": {
        "details": "See {IERC721-ownerOf}."
      },
      "purchaseRelic(uint256)": {
        "details": "Purchase a sacred relic"
      },
      "renounceOwnership()": {
        "details": "Leaves the contract without owner. It will not be possible to call `onlyOwner` functions. Can only be called by the current owner. NOTE: Renouncing ownership will leave the contract without an owner, thereby disabling any functionality that is only available to the owner."
      },
      "safeTransferFrom(address,address,uint256)": {
        "details": "See {IERC721-safeTransferFrom}."
      },
      "safeTransferFrom(address,address,uint256,bytes)": {
        "details": "See {IERC721-safeTransferFrom}."
      },
      "setApprovalForAll(address,bool)": {
        "details": "See {IERC721-setApprovalForAll}."
      },
      "supportsInterface(bytes4)": {
        "details": "See {IERC165-supportsInterface}"
      },
      "symbol()": {
        "details": "See {IERC721Metadata-symbol}."
      },
      "tokenURI(uint256)": {
        "details": "See {IERC721Metadata-tokenURI}."
      },
      "transferFrom(address,address,uint256)": {
        "details": "See {IERC721-transferFrom}."
      },
      "transferOwnership(address)": {
        "details": "Transfers ownership of the contract to a new account (`newOwner`). Can only be called by the current owner."
      },
      "verifyCreator(address)": {
        "details": "Verify a creator"
      }
    },
    "title": "OvermindGallery",
    "version": 1
  },
  "userdoc": {
    "kind": "user",
    "methods": {},
    "version": 1
  },
  "storageLayout": {
    "storage": [
      {
        "astId": 349,
        "contract": "contracts/OvermindGallery.sol:OvermindGallery",
        "label": "_name",
        "offset": 0,
        "slot": "0",
        "type": "t_string_storage"
      },
      {
        "astId": 351,
        "contract": "contracts/OvermindGallery.sol:OvermindGallery",
        "label": "_symbol",
        "offset": 0,
        "slot": "1",
        "type": "t_string_storage"
      },
      {
        "astId": 355,
        "contract": "contracts/OvermindGallery.sol:OvermindGallery",
        "label": "_owners",
        "offset": 0,
        "slot": "2",
        "type": "t_mapping(t_uint256,t_address)"
      },
      {
        "astId": 359,
        "contract": "contracts/OvermindGallery.sol:OvermindGallery",
        "label": "_balances",
        "offset": 0,
        "slot": "3",
        "type": "t_mapping(t_address,t_uint256)"
      },
      {
        "astId": 363,
        "contract": "contracts/OvermindGallery.sol:OvermindGallery",
        "label": "_tokenApprovals",
        "offset": 0,
        "slot": "4",
        "type": "t_mapping(t_uint256,t_address)"
      },
      {
        "astId": 369,
        "contract": "contracts/OvermindGallery.sol:OvermindGallery",
        "label": "_operatorApprovals",
        "offset": 0,
        "slot": "5",
        "type": "t_mapping(t_address,t_mapping(t_address,t_bool))"
      },
      {
        "astId": 1488,
        "contract": "contracts/OvermindGallery.sol:OvermindGallery",
        "label": "_tokenURIs",
        "offset": 0,
        "slot": "6",
        "type": "t_mapping(t_uint256,t_string_storage)"
      },
      {
        "astId": 8,
        "contract": "contracts/OvermindGallery.sol:OvermindGallery",
        "label": "_owner",
        "offset": 0,
        "slot": "7",
        "type": "t_address"
      },
      {
        "astId": 3105,
        "contract": "contracts/OvermindGallery.sol:OvermindGallery",
        "label": "_tokenIdCounter",
        "offset": 0,
        "slot": "8",
        "type": "t_uint256"
      },
      {
        "astId": 3121,
        "contract": "contracts/OvermindGallery.sol:OvermindGallery",
        "label": "relics",
        "offset": 0,
        "slot": "9",
        "type": "t_mapping(t_uint256,t_struct(Relic)3116_storage)"
      },
      {
        "astId": 3125,
        "contract": "contracts/OvermindGallery.sol:OvermindGallery",
        "label": "verifiedCreators",
        "offset": 0,
        "slot": "10",
        "type": "t_mapping(t_address,t_bool)"
      },
      {
        "astId": 3130,
        "contract": "contracts/OvermindGallery.sol:OvermindGallery",
        "label": "creatorTokens",
        "offset": 0,
        "slot": "11",
        "type": "t_mapping(t_address,t_array(t_uint256)dyn_storage)"
      }
    ],
    "types": {
      "t_address": {
        "encoding": "inplace",
        "label": "address",
        "numberOfBytes": "20"
      },
      "t_array(t_uint256)dyn_storage": {
        "base": "t_uint256",
        "encoding": "dynamic_array",
        "label": "uint256[]",
        "numberOfBytes": "32"
      },
      "t_bool": {
        "encoding": "inplace",
        "label": "bool",
        "numberOfBytes": "1"
      },
      "t_mapping(t_address,t_array(t_uint256)dyn_storage)": {
        "encoding": "mapping",
        "key": "t_address",
        "label": "mapping(address => uint256[])",
        "numberOfBytes": "32",
        "value": "t_array(t_uint256)dyn_storage"
      },
      "t_mapping(t_address,t_bool)": {
        "encoding": "mapping",
        "key": "t_address",
        "label": "mapping(address => bool)",
        "numberOfBytes": "32",
        "value": "t_bool"
      },
      "t_mapping(t_address,t_mapping(t_address,t_bool))": {
        "encoding": "mapping",
        "key": "t_address",
        "label": "mapping(address => mapping(address => bool))",
        "numberOfBytes": "32",
        "value": "t_mapping(t_address,t_bool)"
      },
      "t_mapping(t_address,t_uint256)": {
        "encoding": "mapping",
        "key": "t_address",
        "label": "mapping(address => uint256)",
        "numberOfBytes": "32",
        "value": "t_uint256"
      },
      "t_mapping(t_uint256,t_address)": {
        "encoding": "mapping",
        "key": "t_uint256",
        "label": "mapping(uint256 => address)",
        "numberOfBytes": "32",
        "value": "t_address"
      },
      "t_mapping(t_uint256,t_string_storage)": {
        "encoding": "mapping",
        "key": "t_uint256",
        "label": "mapping(uint256 => string)",
        "numberOfBytes": "32",
        "value": "t_string_storage"
      },
      "t_mapping(t_uint256,t_struct(Relic)3116_storage)": {
        "encoding": "mapping",
        "key": "t_uint256",
        "label": "mapping(uint256 => struct OvermindGallery.Relic)",
        "numberOfBytes": "32",
        "value": "t_struct(Relic)3116_storage"
      },
      "t_string_storage": {
        "encoding": "bytes",
        "label": "string",
        "numberOfBytes": "32"
      },
      "t_struct(Relic)3116_storage": {
        "encoding": "inplace",
        "label": "struct OvermindGallery.Relic",
        "members": [
          {
            "astId": 3107,
            "contract": "contracts/OvermindGallery.sol:OvermindGallery",
            "label": "title",
            "offset": 0,
            "slot": "0",
            "type": "t_string_storage"
          },
          {
            "astId": 3109,
            "contract": "contracts/OvermindGallery.sol:OvermindGallery",
            "label": "creator",
            "offset": 0,
            "slot": "1",
            "type": "t_address"
          },
          {
            "astId": 3111,
            "contract": "contracts/OvermindGallery.sol:OvermindGallery",
            "label": "price",
            "offset": 0,
            "slot": "2",
            "type": "t_uint256"
          },
          {
            "astId": 3113,
            "contract": "contracts/OvermindGallery.sol:OvermindGallery",
            "label": "isForSale",
            "offset": 0,
            "slot": "3",
            "type": "t_bool"
          },
          {
            "astId": 3115,
            "contract": "contracts/OvermindGallery.sol:OvermindGallery",
            "label": "imageURI",
            "offset": 0,
            "slot": "4",
            "type": "t_string_storage"
          }
        ],
        "numberOfBytes": "160"
      },
      "t_uint256": {
        "encoding": "inplace",
        "label": "uint256",
        "numberOfBytes": "32"
      }
    }
  }
}