{
  "_format": "hh3-artifact-1",
  "contractName": "OvermindMarketplace",
  "sourceName": "contracts/OvermindMarketplace.sol",
  "abi": [
    {
      "inputs": [],
      "stateMutability": "nonpayable",
      "type": "constructor"
    },
    {
      "inputs": [
        {
          "internalType": "address",
          "name": "owner",
          "type": "address"
        }
      ],
      "name": "OwnableInvalidOwner",
      "type": "error"
    },
    {
      "inputs": [
        {
          "internalType": "address",
          "name": "account",
          "type": "address"
        }
      ],
      "name": "OwnableUnauthorizedAccount",
      "type": "error"
    },
    {
      "inputs": [],
      "name": "ReentrancyGuardReentrantCall",
      "type": "error"
    },
    {
      "anonymous": false,
      "inputs": [
        {
          "indexed": true,
          "internalType": "uint256",
          "name": "listingId",
          "type": "uint256"
        }
      ],
      "name": "ListingCancelled",
      "type": "event"
    },
    {
      "anonymous": false,
      "inputs": [
        {
          "indexed": false,
          "internalType": "uint256",
          "name": "newFee",
          "type": "uint256"
        }
      ],
      "name": "MarketplaceFeeUpdated",
      "type": "event"
    },
    {
      "anonymous": false,
      "inputs": [
        {
          "indexed": true,
          "internalType": "address",
          "name": "previousOwner",
          "type": "address"
        },
        {
          "indexed": true,
          "internalType": "address",
          "name": "newOwner",
          "type": "address"
        }
      ],
      "name": "OwnershipTransferred",
      "type": "event"
    },
    {
      "anonymous": false,
      "inputs": [
        {
          "indexed": true,
          "internalType": "uint256",
          "name": "listingId",
          "type": "uint256"
        },
        {
          "indexed": true,
          "internalType": "uint256",
          "name": "tokenId",
          "type": "uint256"
        },
        {
          "indexed": true,
          "internalType": "address",
          "name": "nftContract",
          "type": "address"
        },
        {
          "indexed": false,
          "internalType": "address",
          "name": "seller",
          "type": "address"
        },
        {
          "indexed": false,
          "internalType": "uint256",
          "name": "price",
          "type": "uint256"
        }
      ],
      "name": "RelicListed",
      "type": "event"
    },
    {
      "anonymous": false,
      "inputs": [
        {
          "indexed": true,
          "internalType": "uint256",
          "name": "listingId",
          "type": "uint256"
        },
        {
          "indexed": true,
          "internalType": "uint256",
          "name": "tokenId",
          "type": "uint256"
        },
        {
          "indexed": true,
          "internalType": "address",
          "name": "nftContract",
          "type": "address"
        },
        {
          "indexed": false,
          "internalType": "address",
          "name": "seller",
          "type": "address"
        },
        {
          "indexed": false,
          "internalType": "address",
          "name": "buyer",
          "type": "address"
        },
        {
          "indexed": false,
          "internalType": "uint256",
          "name": "price",
          "type": "uint256"
        }
      ],
      "name": "RelicSold",
      "type": "event"
    },
    {
      "inputs": [
        {
          "internalType": "uint256",
          "name": "listingId",
          "type": "uint256"
        }
      ],
      "name": "buyRelic",
      "outputs": [],
      "stateMutability": "payable",
      "type": "function"
    },
    {
      "inputs": [
        {
          "internalType": "uint256",
          "name": "listingId",
          "type": "uint256"
        }
      ],
      "name": "cancelListing",
      "outputs": [],
      "stateMutability": "nonpayable",
      "type": "function"
    },
    {
      "inputs": [],
      "name": "emergencyWithdraw",
      "outputs": [],
      "stateMutability": "nonpayable",
      "type": "function"
    },
    {
      "inputs": [
        {
          "internalType": "uint256",
          "name": "listingId",
          "type": "uint256"
        }
      ],
      "name": "getListing",
      "outputs": [
        {
          "components": [
            {
              "internalType": "uint256",
              "name": "tokenId",
              "type": "uint256"
            },
            {
              "internalType": "address",
              "name": "nftContract",
              "type": "address"
            },
            {
              "internalType": "address",
              "name": "seller",
              "type": "address"
            },
            {
              "internalType": "uint256",
              "name": "price",
              "type": "uint256"
            },
            {
              "internalType": "bool",
              "name": "active",
              "type": "bool"
            },
            {
              "internalType": "uint256",
              "name": "listedAt",
              "type": "uint256"
            }
          ],
          "internalType": "struct OvermindMarketplace.Listing",
          "name": "",
          "type": "tuple"
        }
      ],
      "stateMutability": "view",
      "type": "function"
    },
    {
      "inputs": [],
      "name": "getListingCounter",
      "outputs": [
        {
          "internalType": "uint256",
          "name": "",
          "type": "uint256"
        }
      ],
      "stateMutability": "view",
      "type": "function"
    },
    {
      "inputs": [
        {
          "internalType": "uint256",
          "name": "listingId",
          "type": "uint256"
        }
      ],
      "name": "isListingActive",
      "outputs": [
        {
          "internalType": "bool",
          "name": "",
          "type": "bool"
        }
      ],
      "stateMutability": "view",
      "type": "function"
    },
    {
      "inputs": [
        {
          "internalType": "address",
          "name": "nftContract",
          "type": "address"
        },
        {
          "internalType": "uint256",
          "name": "tokenId",
          "type": "uint256"
        },
        {
          "internalType": "uint256",
          "name": "price",
          "type": "uint256"
        }
      ],
      "name": "listRelic",
      "outputs": [
        {
          "internalType": "uint256",
          "name": "",
          "type": "uint256"
        }
      ],
      "stateMutability": "nonpayable",
      "type": "function"
    },
    {
      "inputs": [
        {
          "internalType": "uint256",
          "name": "",
          "type": "uint256"
        }
      ],
      "name": "listings",
      "outputs": [
        {
          "internalType": "uint256",
          "name": "tokenId",
          "type": "uint256"
        },
        {
          "internalType": "address",
          "name": "nftContract",
          "type": "address"
        },
        {
          "internalType": "address",
          "name": "seller",
          "type": "address"
        },
        {
          "internalType": "uint256",
          "name": "price",
          "type": "uint256"
        },
        {
          "internalType": "bool",
          "name": "active",
          "type": "bool"
        },
        {
          "internalType": "uint256",
          "name": "listedAt",
          "type": "uint256"
        }
      ],
      "stateMutability": "view",
      "type": "function"
    },
    {
      "inputs": [],
      "name": "marketplaceFee",
      "outputs": [
        {
          "internalType": "uint256",
          "name": "",
          "type": "uint256"
        }
      ],
      "stateMutability": "view",
      "type": "function"
    },
    {
      "inputs": [],
      "name": "owner",
      "outputs": [
        {
          "internalType": "address",
          "name": "",
          "type": "address"
        }
      ],
      "stateMutability": "view",
      "type": "function"
    },
    {
      "inputs": [],
      "name": "renounceOwnership",
      "outputs": [],
      "stateMutability": "nonpayable",
      "type": "function"
    },
    {
      "inputs": [
        {
          "internalType": "uint256",
          "name": "newFee",
          "type": "uint256"
        }
      ],
      "name": "setMarketplaceFee",
      "outputs": [],
      "stateMutability": "nonpayable",
      "type": "function"
    },
    {
      "inputs": [
        {
          "internalType": "address",
          "name": "newOwner",
          "type": "address"
        }
      ],
      "name": "transferOwnership",
      "outputs": [],
      "stateMutability": "nonpayable",
      "type": "function"
    }
  ],
  "bytecode": "0x608060405260fa60025534801562000015575f80fd5b503360015f819055505f73ffffffffffffffffffffffffffffffffffffffff168173ffffffffffffffffffffffffffffffffffffffff160362000091575f6040517f1e4fbdf7000000000000000000000000000000000000000000000000000000008152600401620000889190620001af565b60405180910390fd5b620000a281620000a960201b60201c565b50620001ca565b5f60015f9054906101000a900473ffffffffffffffffffffffffffffffffffffffff1690508160015f6101000a81548173ffffffffffffffffffffffffffffffffffffffff021916908373ffffffffffffffffffffffffffffffffffffffff1602179055508173ffffffffffffffffffffffffffffffffffffffff168173ffffffffffffffffffffffffffffffffffffffff167f8be0079c531659141344cd1fd0a4f28419497f9722a3daafe3b4186f6b6457e060405160405180910390a35050565b5f73ffffffffffffffffffffffffffffffffffffffff82169050919050565b5f62000197826200016c565b9050919050565b620001a9816200018b565b82525050565b5f602082019050620001c45f8301846200019e565b92915050565b6120c080620001d85f395ff3fe6080604052600436106100c1575f3560e01c806388b59fa11161007e578063a948959411610058578063a94895941461025d578063db2e21bc14610279578063de74e57b1461028f578063f2fde38b146102d0576100c1565b806388b59fa1146101e15780638da5cb5b1461020b5780639407ea9814610235576100c1565b8063107a274a146100c55780632c1b002814610101578063305a67a81461013d5780636a16696414610165578063715018a61461018f57806378e30c91146101a5575b5f80fd5b3480156100d0575f80fd5b506100eb60048036038101906100e69190611566565b6102f8565b6040516100f89190611672565b60405180910390f35b34801561010c575f80fd5b50610127600480360381019061012291906116b5565b610404565b6040516101349190611714565b60405180910390f35b348015610148575f80fd5b50610163600480360381019061015e9190611566565b610858565b005b348015610170575f80fd5b506101796109d6565b6040516101869190611714565b60405180910390f35b34801561019a575f80fd5b506101a36109dc565b005b3480156101b0575f80fd5b506101cb60048036038101906101c69190611566565b6109ef565b6040516101d8919061173c565b60405180910390f35b3480156101ec575f80fd5b506101f5610a18565b6040516102029190611714565b60405180910390f35b348015610216575f80fd5b5061021f610a21565b60405161022c9190611764565b60405180910390f35b348015610240575f80fd5b5061025b60048036038101906102569190611566565b610a49565b005b61027760048036038101906102729190611566565b610ad7565b005b348015610284575f80fd5b5061028d61112c565b005b34801561029a575f80fd5b506102b560048036038101906102b09190611566565b61122d565b6040516102c79695949392919061177d565b60405180910390f35b3480156102db575f80fd5b506102f660048036038101906102f191906117dc565b6112af565b005b6103006114d1565b60035f8381526020019081526020015f206040518060c00160405290815f8201548152602001600182015f9054906101000a900473ffffffffffffffffffffffffffffffffffffffff1673ffffffffffffffffffffffffffffffffffffffff1673ffffffffffffffffffffffffffffffffffffffff168152602001600282015f9054906101000a900473ffffffffffffffffffffffffffffffffffffffff1673ffffffffffffffffffffffffffffffffffffffff1673ffffffffffffffffffffffffffffffffffffffff16815260200160038201548152602001600482015f9054906101000a900460ff161515151581526020016005820154815250509050919050565b5f61040d611333565b5f821161044f576040517f08c379a000000000000000000000000000000000000000000000000000000000815260040161044690611861565b60405180910390fd5b5f8490503373ffffffffffffffffffffffffffffffffffffffff168173ffffffffffffffffffffffffffffffffffffffff16636352211e866040518263ffffffff1660e01b81526004016104a39190611714565b602060405180830381865afa1580156104be573d5f803e3d5ffd5b505050506040513d601f19601f820116820180604052508101906104e29190611893565b73ffffffffffffffffffffffffffffffffffffffff1614610538576040517f08c379a000000000000000000000000000000000000000000000000000000000815260040161052f90611908565b60405180910390fd5b3073ffffffffffffffffffffffffffffffffffffffff168173ffffffffffffffffffffffffffffffffffffffff1663081812fc866040518263ffffffff1660e01b81526004016105889190611714565b602060405180830381865afa1580156105a3573d5f803e3d5ffd5b505050506040513d601f19601f820116820180604052508101906105c79190611893565b73ffffffffffffffffffffffffffffffffffffffff16148061065f57508073ffffffffffffffffffffffffffffffffffffffff1663e985e9c533306040518363ffffffff1660e01b815260040161061f929190611926565b602060405180830381865afa15801561063a573d5f803e3d5ffd5b505050506040513d601f19601f8201168201806040525081019061065e9190611977565b5b61069e576040517f08c379a000000000000000000000000000000000000000000000000000000000815260040161069590611a12565b60405180910390fd5b60045f8154809291906106b090611a5d565b91905055505f60045490506040518060c001604052808681526020018773ffffffffffffffffffffffffffffffffffffffff1681526020013373ffffffffffffffffffffffffffffffffffffffff1681526020018581526020016001151581526020014281525060035f8381526020019081526020015f205f820151815f01556020820151816001015f6101000a81548173ffffffffffffffffffffffffffffffffffffffff021916908373ffffffffffffffffffffffffffffffffffffffff1602179055506040820151816002015f6101000a81548173ffffffffffffffffffffffffffffffffffffffff021916908373ffffffffffffffffffffffffffffffffffffffff160217905550606082015181600301556080820151816004015f6101000a81548160ff02191690831515021790555060a082015181600501559050508573ffffffffffffffffffffffffffffffffffffffff1685827f33653dace332ca7c33cd67efc872bc1af2d78ceb2028fc6b18ddcec1a3f28c06338860405161083c929190611aa4565b60405180910390a48092505050610851611377565b9392505050565b5f60035f8381526020019081526020015f209050806004015f9054906101000a900460ff166108bc576040517f08c379a00000000000000000000000000000000000000000000000000000000081526004016108b390611b15565b60405180910390fd5b3373ffffffffffffffffffffffffffffffffffffffff16816002015f9054906101000a900473ffffffffffffffffffffffffffffffffffffffff1673ffffffffffffffffffffffffffffffffffffffff16148061094b575061091c610a21565b73ffffffffffffffffffffffffffffffffffffffff163373ffffffffffffffffffffffffffffffffffffffff16145b61098a576040517f08c379a000000000000000000000000000000000000000000000000000000000815260040161098190611b7d565b60405180910390fd5b5f816004015f6101000a81548160ff021916908315150217905550817f411aee90354c51b1b04cd563fcab2617142a9d50da19232d888547c8a1b7fd8a60405160405180910390a25050565b60025481565b6109e4611380565b6109ed5f611407565b565b5f60035f8381526020019081526020015f206004015f9054906101000a900460ff169050919050565b5f600454905090565b5f60015f9054906101000a900473ffffffffffffffffffffffffffffffffffffffff16905090565b610a51611380565b6103e8811115610a96576040517f08c379a0000000000000000000000000000000000000000000000000000000008152600401610a8d90611be5565b60405180910390fd5b806002819055507fe18aa129833f655a8166b6185277fee7a53f67e46fd32329bc2fc2ac21274d5581604051610acc9190611714565b60405180910390a150565b610adf611333565b5f60035f8381526020019081526020015f209050806004015f9054906101000a900460ff16610b43576040517f08c379a0000000000000000000000000000000000000000000000000000000008152600401610b3a90611b15565b60405180910390fd5b8060030154341015610b8a576040517f08c379a0000000000000000000000000000000000000000000000000000000008152600401610b8190611c4d565b60405180910390fd5b806002015f9054906101000a900473ffffffffffffffffffffffffffffffffffffffff1673ffffffffffffffffffffffffffffffffffffffff163373ffffffffffffffffffffffffffffffffffffffff1603610c1b576040517f08c379a0000000000000000000000000000000000000000000000000000000008152600401610c1290611cb5565b60405180910390fd5b5f816001015f9054906101000a900473ffffffffffffffffffffffffffffffffffffffff169050816002015f9054906101000a900473ffffffffffffffffffffffffffffffffffffffff1673ffffffffffffffffffffffffffffffffffffffff168173ffffffffffffffffffffffffffffffffffffffff16636352211e845f01546040518263ffffffff1660e01b8152600401610cb89190611714565b602060405180830381865afa158015610cd3573d5f803e3d5ffd5b505050506040513d601f19601f82011682018060405250810190610cf79190611893565b73ffffffffffffffffffffffffffffffffffffffff1614610d4d576040517f08c379a0000000000000000000000000000000000000000000000000000000008152600401610d4490611d1d565b60405180910390fd5b5f826004015f6101000a81548160ff0219169083151502179055505f6127106002548460030154610d7e9190611d3b565b610d889190611da9565b90505f818460030154610d9b9190611dd9565b90508273ffffffffffffffffffffffffffffffffffffffff166342842e0e856002015f9054906101000a900473ffffffffffffffffffffffffffffffffffffffff1633875f01546040518463ffffffff1660e01b8152600401610e0093929190611e0c565b5f604051808303815f87803b158015610e17575f80fd5b505af1158015610e29573d5f803e3d5ffd5b505050505f846002015f9054906101000a900473ffffffffffffffffffffffffffffffffffffffff1673ffffffffffffffffffffffffffffffffffffffff1682604051610e7590611e6e565b5f6040518083038185875af1925050503d805f8114610eaf576040519150601f19603f3d011682016040523d82523d5f602084013e610eb4565b606091505b5050905080610ef8576040517f08c379a0000000000000000000000000000000000000000000000000000000008152600401610eef90611ecc565b60405180910390fd5b5f831115610fb1575f610f09610a21565b73ffffffffffffffffffffffffffffffffffffffff1684604051610f2c90611e6e565b5f6040518083038185875af1925050503d805f8114610f66576040519150601f19603f3d011682016040523d82523d5f602084013e610f6b565b606091505b5050905080610faf576040517f08c379a0000000000000000000000000000000000000000000000000000000008152600401610fa690611f34565b60405180910390fd5b505b846003015434111561107b575f856003015434610fce9190611dd9565b90505f3373ffffffffffffffffffffffffffffffffffffffff1682604051610ff590611e6e565b5f6040518083038185875af1925050503d805f811461102f576040519150601f19603f3d011682016040523d82523d5f602084013e611034565b606091505b5050905080611078576040517f08c379a000000000000000000000000000000000000000000000000000000000815260040161106f90611f9c565b60405180910390fd5b50505b846001015f9054906101000a900473ffffffffffffffffffffffffffffffffffffffff1673ffffffffffffffffffffffffffffffffffffffff16855f0154877f12735a1293607b5ee85ca96735d19524c4cfeb4bc2eeabed0338bdbee311eada886002015f9054906101000a900473ffffffffffffffffffffffffffffffffffffffff16338a6003015460405161111493929190611e0c565b60405180910390a45050505050611129611377565b50565b611134611380565b5f4790505f811161117a576040517f08c379a000000000000000000000000000000000000000000000000000000000815260040161117190612004565b60405180910390fd5b5f611183610a21565b73ffffffffffffffffffffffffffffffffffffffff16826040516111a690611e6e565b5f6040518083038185875af1925050503d805f81146111e0576040519150601f19603f3d011682016040523d82523d5f602084013e6111e5565b606091505b5050905080611229576040517f08c379a00000000000000000000000000000000000000000000000000000000081526004016112209061206c565b60405180910390fd5b5050565b6003602052805f5260405f205f91509050805f015490806001015f9054906101000a900473ffffffffffffffffffffffffffffffffffffffff1690806002015f9054906101000a900473ffffffffffffffffffffffffffffffffffffffff1690806003015490806004015f9054906101000a900460ff16908060050154905086565b6112b7611380565b5f73ffffffffffffffffffffffffffffffffffffffff168173ffffffffffffffffffffffffffffffffffffffff1603611327575f6040517f1e4fbdf700000000000000000000000000000000000000000000000000000000815260040161131e9190611764565b60405180910390fd5b61133081611407565b50565b60025f540361136e576040517f3ee5aeb500000000000000000000000000000000000000000000000000000000815260040160405180910390fd5b60025f81905550565b60015f81905550565b6113886114ca565b73ffffffffffffffffffffffffffffffffffffffff166113a6610a21565b73ffffffffffffffffffffffffffffffffffffffff1614611405576113c96114ca565b6040517f118cdaa70000000000000000000000000000000000000000000000000000000081526004016113fc9190611764565b60405180910390fd5b565b5f60015f9054906101000a900473ffffffffffffffffffffffffffffffffffffffff1690508160015f6101000a81548173ffffffffffffffffffffffffffffffffffffffff021916908373ffffffffffffffffffffffffffffffffffffffff1602179055508173ffffffffffffffffffffffffffffffffffffffff168173ffffffffffffffffffffffffffffffffffffffff167f8be0079c531659141344cd1fd0a4f28419497f9722a3daafe3b4186f6b6457e060405160405180910390a35050565b5f33905090565b6040518060c001604052805f81526020015f73ffffffffffffffffffffffffffffffffffffffff1681526020015f73ffffffffffffffffffffffffffffffffffffffff1681526020015f81526020015f151581526020015f81525090565b5f80fd5b5f819050919050565b61154581611533565b811461154f575f80fd5b50565b5f813590506115608161153c565b92915050565b5f6020828403121561157b5761157a61152f565b5b5f61158884828501611552565b91505092915050565b61159a81611533565b82525050565b5f73ffffffffffffffffffffffffffffffffffffffff82169050919050565b5f6115c9826115a0565b9050919050565b6115d9816115bf565b82525050565b5f8115159050919050565b6115f3816115df565b82525050565b60c082015f82015161160d5f850182611591565b50602082015161162060208501826115d0565b50604082015161163360408501826115d0565b5060608201516116466060850182611591565b50608082015161165960808501826115ea565b5060a082015161166c60a0850182611591565b50505050565b5f60c0820190506116855f8301846115f9565b92915050565b611694816115bf565b811461169e575f80fd5b50565b5f813590506116af8161168b565b92915050565b5f805f606084860312156116cc576116cb61152f565b5b5f6116d9868287016116a1565b93505060206116ea86828701611552565b92505060406116fb86828701611552565b9150509250925092565b61170e81611533565b82525050565b5f6020820190506117275f830184611705565b92915050565b611736816115df565b82525050565b5f60208201905061174f5f83018461172d565b92915050565b61175e816115bf565b82525050565b5f6020820190506117775f830184611755565b92915050565b5f60c0820190506117905f830189611705565b61179d6020830188611755565b6117aa6040830187611755565b6117b76060830186611705565b6117c4608083018561172d565b6117d160a0830184611705565b979650505050505050565b5f602082840312156117f1576117f061152f565b5b5f6117fe848285016116a1565b91505092915050565b5f82825260208201905092915050565b7f5072696365206d7573742062652067726561746572207468616e2030000000005f82015250565b5f61184b601c83611807565b915061185682611817565b602082019050919050565b5f6020820190508181035f8301526118788161183f565b9050919050565b5f8151905061188d8161168b565b92915050565b5f602082840312156118a8576118a761152f565b5b5f6118b58482850161187f565b91505092915050565b7f596f7520646f6e2774206f776e20746869732072656c696300000000000000005f82015250565b5f6118f2601883611807565b91506118fd826118be565b602082019050919050565b5f6020820190508181035f83015261191f816118e6565b9050919050565b5f6040820190506119395f830185611755565b6119466020830184611755565b9392505050565b611956816115df565b8114611960575f80fd5b50565b5f815190506119718161194d565b92915050565b5f6020828403121561198c5761198b61152f565b5b5f61199984828501611963565b91505092915050565b7f4d61726b6574706c616365206e6f7420617070726f76656420746f207472616e5f8201527f736665722072656c696300000000000000000000000000000000000000000000602082015250565b5f6119fc602a83611807565b9150611a07826119a2565b604082019050919050565b5f6020820190508181035f830152611a29816119f0565b9050919050565b7f4e487b71000000000000000000000000000000000000000000000000000000005f52601160045260245ffd5b5f611a6782611533565b91507fffffffffffffffffffffffffffffffffffffffffffffffffffffffffffffffff8203611a9957611a98611a30565b5b600182019050919050565b5f604082019050611ab75f830185611755565b611ac46020830184611705565b9392505050565b7f4c697374696e67206e6f742061637469766500000000000000000000000000005f82015250565b5f611aff601283611807565b9150611b0a82611acb565b602082019050919050565b5f6020820190508181035f830152611b2c81611af3565b9050919050565b7f4f6e6c792073656c6c6572206f72206f776e65722063616e2063616e63656c005f82015250565b5f611b67601f83611807565b9150611b7282611b33565b602082019050919050565b5f6020820190508181035f830152611b9481611b5b565b9050919050565b7f4665652063616e6e6f74206578636565642031302500000000000000000000005f82015250565b5f611bcf601583611807565b9150611bda82611b9b565b602082019050919050565b5f6020820190508181035f830152611bfc81611bc3565b9050919050565b7f496e73756666696369656e74207061796d656e740000000000000000000000005f82015250565b5f611c37601483611807565b9150611c4282611c03565b602082019050919050565b5f6020820190508181035f830152611c6481611c2b565b9050919050565b7f43616e6e6f742062757920796f7572206f776e2072656c6963000000000000005f82015250565b5f611c9f601983611807565b9150611caa82611c6b565b602082019050919050565b5f6020820190508181035f830152611ccc81611c93565b9050919050565b7f53656c6c6572206e6f206c6f6e676572206f776e73207468652072656c6963005f82015250565b5f611d07601f83611807565b9150611d1282611cd3565b602082019050919050565b5f6020820190508181035f830152611d3481611cfb565b9050919050565b5f611d4582611533565b9150611d5083611533565b9250828202611d5e81611533565b91508282048414831517611d7557611d74611a30565b5b5092915050565b7f4e487b71000000000000000000000000000000000000000000000000000000005f52601260045260245ffd5b5f611db382611533565b9150611dbe83611533565b925082611dce57611dcd611d7c565b5b828204905092915050565b5f611de382611533565b9150611dee83611533565b9250828203905081811115611e0657611e05611a30565b5b92915050565b5f606082019050611e1f5f830186611755565b611e2c6020830185611755565b611e396040830184611705565b949350505050565b5f81905092915050565b50565b5f611e595f83611e41565b9150611e6482611e4b565b5f82019050919050565b5f611e7882611e4e565b9150819050919050565b7f5061796d656e7420746f2073656c6c6572206661696c656400000000000000005f82015250565b5f611eb6601883611807565b9150611ec182611e82565b602082019050919050565b5f6020820190508181035f830152611ee381611eaa565b9050919050565b7f466565207472616e73666572206661696c6564000000000000000000000000005f82015250565b5f611f1e601383611807565b9150611f2982611eea565b602082019050919050565b5f6020820190508181035f830152611f4b81611f12565b9050919050565b7f526566756e64206661696c6564000000000000000000000000000000000000005f82015250565b5f611f86600d83611807565b9150611f9182611f52565b602082019050919050565b5f6020820190508181035f830152611fb381611f7a565b9050919050565b7f4e6f2066756e647320746f2077697468647261770000000000000000000000005f82015250565b5f611fee601483611807565b9150611ff982611fba565b602082019050919050565b5f6020820190508181035f83015261201b81611fe2565b9050919050565b7f5769746864726177616c206661696c65640000000000000000000000000000005f82015250565b5f612056601183611807565b915061206182612022565b602082019050919050565b5f6020820190508181035f8301526120838161204a565b905091905056fea264697066735822122031ebb001d7fe363eef17e6995e176ca210b95575bddcb402f4a4f50aaacc861664736f6c63430008140033",
  "linkReferences": {},
  "deployedLinkReferences": {},
  "immutableReferences": {},
  "inputSourceName": "project/contracts/OvermindMarketplace.sol",
  "buildInfoId": "solc-0_8_20-c485c291520e227fb130f06525ea7dcb512d950f"
}