{
  "_format": "hh3-artifact-1",
  "contractName": "EmergencyFacet",
  "sourceName": "contracts/gbm/facets/EmergencyFacet.sol",
  "abi": [
    {
      "anonymous": false,
      "inputs": [
        {
          "indexed": true,
          "internalType": "address",
          "name": "caller",
          "type": "address"
        }
      ],
      "name": "EmergencyPaused",
      "type": "event"
    },
    {
      "anonymous": false,
      "inputs": [
        {
          "indexed": true,
          "internalType": "address",
          "name": "caller",
          "type": "address"
        }
      ],
      "name": "EmergencyUnpaused",
      "type": "event"
    },
    {
      "anonymous": false,
      "inputs": [
        {
          "indexed": true,
          "internalType": "address",
          "name": "token",
          "type": "address"
        },
        {
          "indexed": true,
          "internalType": "address",
          "name": "recipient",
          "type": "address"
        },
        {
          "indexed": false,
          "internalType": "uint256",
          "name": "amount",
          "type": "uint256"
        }
      ],
      "name": "EmergencyWithdraw",
      "type": "event"
    },
    {
      "inputs": [],
      "name": "emergencyPause",
      "outputs": [],
      "stateMutability": "nonpayable",
      "type": "function"
    },
    {
      "inputs": [],
      "name": "emergencyUnpause",
      "outputs": [],
      "stateMutability": "nonpayable",
      "type": "function"
    },
    {
      "inputs": [
        {
          "internalType": "address",
          "name": "token",
          "type": "address"
        },
        {
          "internalType": "address",
          "name": "recipient",
          "type": "address"
        },
        {
          "internalType": "uint256",
          "name": "amount",
          "type": "uint256"
        }
      ],
      "name": "emergencyWithdraw",
      "outputs": [],
      "stateMutability": "nonpayable",
      "type": "function"
    },
    {
      "inputs": [],
      "name": "getContractBalance",
      "outputs": [
        {
          "internalType": "uint256",
          "name": "",
          "type": "uint256"
        }
      ],
      "stateMutability": "view",
      "type": "function"
    },
    {
      "inputs": [
        {
          "internalType": "address",
          "name": "token",
          "type": "address"
        }
      ],
      "name": "getTokenBalance",
      "outputs": [
        {
          "internalType": "uint256",
          "name": "",
          "type": "uint256"
        }
      ],
      "stateMutability": "view",
      "type": "function"
    },
    {
      "inputs": [],
      "name": "paused",
      "outputs": [
        {
          "internalType": "bool",
          "name": "",
          "type": "bool"
        }
      ],
      "stateMutability": "view",
      "type": "function"
    },
    {
      "stateMutability": "payable",
      "type": "receive"
    }
  ],
  "bytecode": "0x608060405234801561000f575f80fd5b50610dd48061001d5f395ff3fe608060405260043610610058575f3560e01c80633aecd0e3146100635780634a4e3bd51461009f57806351858e27146100b55780635c975abb146100cb5780636f9fb98a146100f5578063e63ea4081461011f5761005f565b3661005f57005b5f80fd5b34801561006e575f80fd5b50610089600480360381019061008491906107ea565b610147565b604051610096919061082d565b60405180910390f35b3480156100aa575f80fd5b506100b361029b565b005b3480156100c0575f80fd5b506100c9610303565b005b3480156100d6575f80fd5b506100df61036c565b6040516100ec9190610860565b60405180910390f35b348015610100575f80fd5b50610109610383565b604051610116919061082d565b60405180910390f35b34801561012a575f80fd5b50610145600480360381019061014091906108a3565b61038a565b005b5f805f8373ffffffffffffffffffffffffffffffffffffffff16306040516024016101729190610902565b6040516020818303038152906040527f70a08231000000000000000000000000000000000000000000000000000000007bffffffffffffffffffffffffffffffffffffffffffffffffffffffff19166020820180517bffffffffffffffffffffffffffffffffffffffffffffffffffffffff83818316178352505050506040516101fc9190610987565b5f60405180830381855afa9150503d805f8114610234576040519150601f19603f3d011682016040523d82523d5f602084013e610239565b606091505b50915091508161027e576040517f08c379a000000000000000000000000000000000000000000000000000000000815260040161027590610a1d565b60405180910390fd5b808060200190518101906102929190610a4f565b92505050919050565b6102a36106c6565b5f806014015f6101000a81548160ff0219169083151502179055503373ffffffffffffffffffffffffffffffffffffffff167ff5cbf596165cc457b2cd92e8d8450827ee314968160a5696402d75766fc52caf60405160405180910390a2565b61030b6106c6565b60015f6014015f6101000a81548160ff0219169083151502179055503373ffffffffffffffffffffffffffffffffffffffff167fb8fad2fa0ed7a383e747c309ef2c4391d7b65592a48893e57ccc1fab7079145660405160405180910390a2565b5f806014015f9054906101000a900460ff16905090565b5f47905090565b6103926106c6565b5f73ffffffffffffffffffffffffffffffffffffffff168273ffffffffffffffffffffffffffffffffffffffff1603610400576040517f08c379a00000000000000000000000000000000000000000000000000000000081526004016103f790610aea565b60405180910390fd5b5f8111610442576040517f08c379a000000000000000000000000000000000000000000000000000000000815260040161043990610b78565b60405180910390fd5b5f73ffffffffffffffffffffffffffffffffffffffff168373ffffffffffffffffffffffffffffffffffffffff1603610523575f8273ffffffffffffffffffffffffffffffffffffffff168260405161049a90610bb9565b5f6040518083038185875af1925050503d805f81146104d4576040519150601f19603f3d011682016040523d82523d5f602084013e6104d9565b606091505b505090508061051d576040517f08c379a000000000000000000000000000000000000000000000000000000000815260040161051490610c3d565b60405180910390fd5b5061065c565b5f8373ffffffffffffffffffffffffffffffffffffffff16838360405160240161054e929190610c5b565b6040516020818303038152906040527fa9059cbb000000000000000000000000000000000000000000000000000000007bffffffffffffffffffffffffffffffffffffffffffffffffffffffff19166020820180517bffffffffffffffffffffffffffffffffffffffffffffffffffffffff83818316178352505050506040516105d89190610987565b5f604051808303815f865af19150503d805f8114610611576040519150601f19603f3d011682016040523d82523d5f602084013e610616565b606091505b505090508061065a576040517f08c379a000000000000000000000000000000000000000000000000000000000815260040161065190610cf2565b60405180910390fd5b505b8173ffffffffffffffffffffffffffffffffffffffff168373ffffffffffffffffffffffffffffffffffffffff167ff24ef89f38eadc1bde50701ad6e4d6d11a2dc24f7cf834a486991f3883328504836040516106b9919061082d565b60405180910390a3505050565b6106ce610760565b6004015f9054906101000a900473ffffffffffffffffffffffffffffffffffffffff1673ffffffffffffffffffffffffffffffffffffffff163373ffffffffffffffffffffffffffffffffffffffff161461075e576040517f08c379a000000000000000000000000000000000000000000000000000000000815260040161075590610d80565b60405180910390fd5b565b5f807fc8fcad8db84d3cc18b4c41d551ea0ee66dd599cde068d998e57d5e09332c131c90508091505090565b5f80fd5b5f73ffffffffffffffffffffffffffffffffffffffff82169050919050565b5f6107b982610790565b9050919050565b6107c9816107af565b81146107d3575f80fd5b50565b5f813590506107e4816107c0565b92915050565b5f602082840312156107ff576107fe61078c565b5b5f61080c848285016107d6565b91505092915050565b5f819050919050565b61082781610815565b82525050565b5f6020820190506108405f83018461081e565b92915050565b5f8115159050919050565b61085a81610846565b82525050565b5f6020820190506108735f830184610851565b92915050565b61088281610815565b811461088c575f80fd5b50565b5f8135905061089d81610879565b92915050565b5f805f606084860312156108ba576108b961078c565b5b5f6108c7868287016107d6565b93505060206108d8868287016107d6565b92505060406108e98682870161088f565b9150509250925092565b6108fc816107af565b82525050565b5f6020820190506109155f8301846108f3565b92915050565b5f81519050919050565b5f81905092915050565b5f5b8381101561094c578082015181840152602081019050610931565b5f8484015250505050565b5f6109618261091b565b61096b8185610925565b935061097b81856020860161092f565b80840191505092915050565b5f6109928284610957565b915081905092915050565b5f82825260208201905092915050565b7f676574546f6b656e42616c616e63653a2062616c616e636520636865636b20665f8201527f61696c6564000000000000000000000000000000000000000000000000000000602082015250565b5f610a0760258361099d565b9150610a12826109ad565b604082019050919050565b5f6020820190508181035f830152610a34816109fb565b9050919050565b5f81519050610a4981610879565b92915050565b5f60208284031215610a6457610a6361078c565b5b5f610a7184828501610a3b565b91505092915050565b7f656d657267656e637957697468647261773a2063616e6e6f742073656e6420745f8201527f6f207a65726f2061646472657373000000000000000000000000000000000000602082015250565b5f610ad4602e8361099d565b9150610adf82610a7a565b604082019050919050565b5f6020820190508181035f830152610b0181610ac8565b9050919050565b7f656d657267656e637957697468647261773a20616d6f756e74206d75737420625f8201527f652067726561746572207468616e203000000000000000000000000000000000602082015250565b5f610b6260308361099d565b9150610b6d82610b08565b604082019050919050565b5f6020820190508181035f830152610b8f81610b56565b9050919050565b50565b5f610ba45f83610925565b9150610baf82610b96565b5f82019050919050565b5f610bc382610b99565b9150819050919050565b7f656d657267656e637957697468647261773a20455448207472616e73666572205f8201527f6661696c65640000000000000000000000000000000000000000000000000000602082015250565b5f610c2760268361099d565b9150610c3282610bcd565b604082019050919050565b5f6020820190508181035f830152610c5481610c1b565b9050919050565b5f604082019050610c6e5f8301856108f3565b610c7b602083018461081e565b9392505050565b7f656d657267656e637957697468647261773a20746f6b656e207472616e7366655f8201527f72206661696c6564000000000000000000000000000000000000000000000000602082015250565b5f610cdc60288361099d565b9150610ce782610c82565b604082019050919050565b5f6020820190508181035f830152610d0981610cd0565b9050919050565b7f4c69624469616d6f6e643a204d75737420626520636f6e7472616374206f776e5f8201527f6572000000000000000000000000000000000000000000000000000000000000602082015250565b5f610d6a60228361099d565b9150610d7582610d10565b604082019050919050565b5f6020820190508181035f830152610d9781610d5e565b905091905056fea2646970667358221220bb6be56f4b7e85398b1de6998665212f1ce6194d84485eb8fed94d956ff7c90464736f6c63430008140033",
  "linkReferences": {},
  "deployedLinkReferences": {},
  "immutableReferences": {},
  "inputSourceName": "project/contracts/gbm/facets/EmergencyFacet.sol",
  "buildInfoId": "solc-0_8_20-1574317a237f9f866699426b19da269855c2de91"
}