{
  "_format": "hh3-artifact-1",
  "contractName": "GBMFacet",
  "sourceName": "contracts/gbm/facets/GBMFacet.sol",
  "abi": [
    {
      "anonymous": false,
      "inputs": [
        {
          "indexed": true,
          "internalType": "uint256",
          "name": "_auctionID",
          "type": "uint256"
        },
        {
          "indexed": true,
          "internalType": "address",
          "name": "_bidder",
          "type": "address"
        },
        {
          "indexed": false,
          "internalType": "uint256",
          "name": "_bidAmount",
          "type": "uint256"
        }
      ],
      "name": "Auction_BidPlaced",
      "type": "event"
    },
    {
      "anonymous": false,
      "inputs": [
        {
          "indexed": true,
          "internalType": "uint256",
          "name": "_auctionID",
          "type": "uint256"
        },
        {
          "indexed": true,
          "internalType": "address",
          "name": "_bidder",
          "type": "address"
        },
        {
          "indexed": false,
          "internalType": "uint256",
          "name": "_bidAmount",
          "type": "uint256"
        }
      ],
      "name": "Auction_BidRemoved",
      "type": "event"
    },
    {
      "anonymous": false,
      "inputs": [
        {
          "indexed": true,
          "internalType": "uint256",
          "name": "_auctionID",
          "type": "uint256"
        },
        {
          "indexed": false,
          "internalType": "uint256",
          "name": "_endTime",
          "type": "uint256"
        }
      ],
      "name": "Auction_EndTimeUpdated",
      "type": "event"
    },
    {
      "anonymous": false,
      "inputs": [
        {
          "indexed": true,
          "internalType": "uint256",
          "name": "_auctionID",
          "type": "uint256"
        },
        {
          "indexed": true,
          "internalType": "address",
          "name": "_earner",
          "type": "address"
        },
        {
          "indexed": false,
          "internalType": "uint256",
          "name": "_incentiveAmount",
          "type": "uint256"
        }
      ],
      "name": "Auction_IncentivePaid",
      "type": "event"
    },
    {
      "anonymous": false,
      "inputs": [
        {
          "indexed": true,
          "internalType": "uint256",
          "name": "_auctionID",
          "type": "uint256"
        },
        {
          "indexed": true,
          "internalType": "uint256",
          "name": "_tokenID",
          "type": "uint256"
        },
        {
          "indexed": true,
          "internalType": "uint256",
          "name": "_tokenIndex",
          "type": "uint256"
        },
        {
          "indexed": false,
          "internalType": "address",
          "name": "_contractAddress",
          "type": "address"
        },
        {
          "indexed": false,
          "internalType": "bytes4",
          "name": "_tokenKind",
          "type": "bytes4"
        }
      ],
      "name": "Auction_Initialized",
      "type": "event"
    },
    {
      "anonymous": false,
      "inputs": [
        {
          "indexed": true,
          "internalType": "uint256",
          "name": "_auctionID",
          "type": "uint256"
        }
      ],
      "name": "Auction_ItemClaimed",
      "type": "event"
    },
    {
      "anonymous": false,
      "inputs": [
        {
          "indexed": true,
          "internalType": "uint256",
          "name": "_auctionID",
          "type": "uint256"
        },
        {
          "indexed": false,
          "internalType": "uint256",
          "name": "_startTime",
          "type": "uint256"
        }
      ],
      "name": "Auction_StartTimeUpdated",
      "type": "event"
    },
    {
      "anonymous": false,
      "inputs": [
        {
          "indexed": true,
          "internalType": "address",
          "name": "_contract",
          "type": "address"
        },
        {
          "indexed": false,
          "internalType": "bool",
          "name": "_biddingAllowed",
          "type": "bool"
        }
      ],
      "name": "Contract_BiddingAllowed",
      "type": "event"
    },
    {
      "inputs": [
        {
          "internalType": "uint256[]",
          "name": "_auctionIds",
          "type": "uint256[]"
        }
      ],
      "name": "batchClaim",
      "outputs": [],
      "stateMutability": "nonpayable",
      "type": "function"
    },
    {
      "inputs": [
        {
          "internalType": "uint256",
          "name": "_auctionId",
          "type": "uint256"
        }
      ],
      "name": "claim",
      "outputs": [],
      "stateMutability": "nonpayable",
      "type": "function"
    },
    {
      "inputs": [
        {
          "internalType": "uint256",
          "name": "_auctionId",
          "type": "uint256"
        },
        {
          "internalType": "uint256",
          "name": "_bidAmount",
          "type": "uint256"
        },
        {
          "internalType": "uint256",
          "name": "_highestBid",
          "type": "uint256"
        },
        {
          "internalType": "bytes",
          "name": "_signature",
          "type": "bytes"
        }
      ],
      "name": "commitBid",
      "outputs": [],
      "stateMutability": "nonpayable",
      "type": "function"
    },
    {
      "inputs": [],
      "name": "erc20Currency",
      "outputs": [
        {
          "internalType": "address",
          "name": "",
          "type": "address"
        }
      ],
      "stateMutability": "view",
      "type": "function"
    },
    {
      "inputs": [
        {
          "internalType": "uint256",
          "name": "_auctionId",
          "type": "uint256"
        }
      ],
      "name": "getAuctionBidDecimals",
      "outputs": [
        {
          "internalType": "uint256",
          "name": "",
          "type": "uint256"
        }
      ],
      "stateMutability": "view",
      "type": "function"
    },
    {
      "inputs": [
        {
          "internalType": "uint256",
          "name": "_auctionId",
          "type": "uint256"
        }
      ],
      "name": "getAuctionBidMultiplier",
      "outputs": [
        {
          "internalType": "uint256",
          "name": "",
          "type": "uint256"
        }
      ],
      "stateMutability": "view",
      "type": "function"
    },
    {
      "inputs": [
        {
          "internalType": "uint256",
          "name": "_auctionId",
          "type": "uint256"
        }
      ],
      "name": "getAuctionDebt",
      "outputs": [
        {
          "internalType": "uint256",
          "name": "",
          "type": "uint256"
        }
      ],
      "stateMutability": "view",
      "type": "function"
    },
    {
      "inputs": [
        {
          "internalType": "uint256",
          "name": "_auctionId",
          "type": "uint256"
        }
      ],
      "name": "getAuctionDueIncentives",
      "outputs": [
        {
          "internalType": "uint256",
          "name": "",
          "type": "uint256"
        }
      ],
      "stateMutability": "view",
      "type": "function"
    },
    {
      "inputs": [
        {
          "internalType": "uint256",
          "name": "_auctionId",
          "type": "uint256"
        }
      ],
      "name": "getAuctionEndTime",
      "outputs": [
        {
          "internalType": "uint256",
          "name": "",
          "type": "uint256"
        }
      ],
      "stateMutability": "view",
      "type": "function"
    },
    {
      "inputs": [
        {
          "internalType": "uint256",
          "name": "_auctionId",
          "type": "uint256"
        }
      ],
      "name": "getAuctionHammerTimeDuration",
      "outputs": [
        {
          "internalType": "uint256",
          "name": "",
          "type": "uint256"
        }
      ],
      "stateMutability": "view",
      "type": "function"
    },
    {
      "inputs": [
        {
          "internalType": "uint256",
          "name": "_auctionId",
          "type": "uint256"
        }
      ],
      "name": "getAuctionHighestBid",
      "outputs": [
        {
          "internalType": "uint256",
          "name": "",
          "type": "uint256"
        }
      ],
      "stateMutability": "view",
      "type": "function"
    },
    {
      "inputs": [
        {
          "internalType": "uint256",
          "name": "_auctionId",
          "type": "uint256"
        }
      ],
      "name": "getAuctionHighestBidder",
      "outputs": [
        {
          "internalType": "address",
          "name": "",
          "type": "address"
        }
      ],
      "stateMutability": "view",
      "type": "function"
    },
    {
      "inputs": [
        {
          "internalType": "address",
          "name": "_contract",
          "type": "address"
        },
        {
          "internalType": "uint256",
          "name": "_tokenID",
          "type": "uint256"
        }
      ],
      "name": "getAuctionID",
      "outputs": [
        {
          "internalType": "uint256",
          "name": "",
          "type": "uint256"
        }
      ],
      "stateMutability": "view",
      "type": "function"
    },
    {
      "inputs": [
        {
          "internalType": "address",
          "name": "_contract",
          "type": "address"
        },
        {
          "internalType": "uint256",
          "name": "_tokenID",
          "type": "uint256"
        },
        {
          "internalType": "uint256",
          "name": "_tokenIndex",
          "type": "uint256"
        }
      ],
      "name": "getAuctionID",
      "outputs": [
        {
          "internalType": "uint256",
          "name": "",
          "type": "uint256"
        }
      ],
      "stateMutability": "view",
      "type": "function"
    },
    {
      "inputs": [
        {
          "internalType": "uint256",
          "name": "_auctionId",
          "type": "uint256"
        }
      ],
      "name": "getAuctionIncMax",
      "outputs": [
        {
          "internalType": "uint256",
          "name": "",
          "type": "uint256"
        }
      ],
      "stateMutability": "view",
      "type": "function"
    },
    {
      "inputs": [
        {
          "internalType": "uint256",
          "name": "_auctionId",
          "type": "uint256"
        }
      ],
      "name": "getAuctionIncMin",
      "outputs": [
        {
          "internalType": "uint256",
          "name": "",
          "type": "uint256"
        }
      ],
      "stateMutability": "view",
      "type": "function"
    },
    {
      "inputs": [
        {
          "internalType": "uint256",
          "name": "_auctionId",
          "type": "uint256"
        }
      ],
      "name": "getAuctionInfo",
      "outputs": [
        {
          "components": [
            {
              "internalType": "address",
              "name": "owner",
              "type": "address"
            },
            {
              "internalType": "address",
              "name": "highestBidder",
              "type": "address"
            },
            {
              "internalType": "uint256",
              "name": "highestBid",
              "type": "uint256"
            },
            {
              "internalType": "uint256",
              "name": "auctionDebt",
              "type": "uint256"
            },
            {
              "internalType": "uint256",
              "name": "dueIncentives",
              "type": "uint256"
            },
            {
              "internalType": "address",
              "name": "contractAddress",
              "type": "address"
            },
            {
              "internalType": "uint256",
              "name": "startTime",
              "type": "uint256"
            },
            {
              "internalType": "uint256",
              "name": "endTime",
              "type": "uint256"
            },
            {
              "internalType": "uint256",
              "name": "hammerTimeDuration",
              "type": "uint256"
            },
            {
              "internalType": "uint256",
              "name": "bidDecimals",
              "type": "uint256"
            },
            {
              "internalType": "uint256",
              "name": "stepMin",
              "type": "uint256"
            },
            {
              "internalType": "uint256",
              "name": "incMin",
              "type": "uint256"
            },
            {
              "internalType": "uint256",
              "name": "incMax",
              "type": "uint256"
            },
            {
              "internalType": "uint256",
              "name": "bidMultiplier",
              "type": "uint256"
            },
            {
              "internalType": "bool",
              "name": "biddingAllowed",
              "type": "bool"
            }
          ],
          "internalType": "struct Auction",
          "name": "auctionInfo_",
          "type": "tuple"
        }
      ],
      "stateMutability": "view",
      "type": "function"
    },
    {
      "inputs": [
        {
          "internalType": "uint256",
          "name": "_auctionId",
          "type": "uint256"
        }
      ],
      "name": "getAuctionStartTime",
      "outputs": [
        {
          "internalType": "uint256",
          "name": "",
          "type": "uint256"
        }
      ],
      "stateMutability": "view",
      "type": "function"
    },
    {
      "inputs": [
        {
          "internalType": "uint256",
          "name": "_auctionId",
          "type": "uint256"
        }
      ],
      "name": "getAuctionStepMin",
      "outputs": [
        {
          "internalType": "uint256",
          "name": "",
          "type": "uint256"
        }
      ],
      "stateMutability": "view",
      "type": "function"
    },
    {
      "inputs": [
        {
          "internalType": "uint256",
          "name": "_auctionId",
          "type": "uint256"
        }
      ],
      "name": "getContractAddress",
      "outputs": [
        {
          "internalType": "address",
          "name": "",
          "type": "address"
        }
      ],
      "stateMutability": "view",
      "type": "function"
    },
    {
      "inputs": [
        {
          "internalType": "uint256",
          "name": "_auctionId",
          "type": "uint256"
        }
      ],
      "name": "getTokenId",
      "outputs": [
        {
          "internalType": "uint256",
          "name": "",
          "type": "uint256"
        }
      ],
      "stateMutability": "view",
      "type": "function"
    },
    {
      "inputs": [
        {
          "internalType": "uint256",
          "name": "_auctionId",
          "type": "uint256"
        }
      ],
      "name": "getTokenKind",
      "outputs": [
        {
          "internalType": "bytes4",
          "name": "",
          "type": "bytes4"
        }
      ],
      "stateMutability": "view",
      "type": "function"
    },
    {
      "inputs": [
        {
          "internalType": "address",
          "name": "",
          "type": "address"
        },
        {
          "internalType": "address",
          "name": "",
          "type": "address"
        },
        {
          "internalType": "uint256[]",
          "name": "",
          "type": "uint256[]"
        },
        {
          "internalType": "uint256[]",
          "name": "",
          "type": "uint256[]"
        },
        {
          "internalType": "bytes",
          "name": "",
          "type": "bytes"
        }
      ],
      "name": "onERC1155BatchReceived",
      "outputs": [
        {
          "internalType": "bytes4",
          "name": "",
          "type": "bytes4"
        }
      ],
      "stateMutability": "pure",
      "type": "function"
    },
    {
      "inputs": [
        {
          "internalType": "address",
          "name": "",
          "type": "address"
        },
        {
          "internalType": "address",
          "name": "",
          "type": "address"
        },
        {
          "internalType": "uint256",
          "name": "",
          "type": "uint256"
        },
        {
          "internalType": "uint256",
          "name": "",
          "type": "uint256"
        },
        {
          "internalType": "bytes",
          "name": "",
          "type": "bytes"
        }
      ],
      "name": "onERC1155Received",
      "outputs": [
        {
          "internalType": "bytes4",
          "name": "",
          "type": "bytes4"
        }
      ],
      "stateMutability": "pure",
      "type": "function"
    },
    {
      "inputs": [
        {
          "internalType": "address",
          "name": "",
          "type": "address"
        },
        {
          "internalType": "address",
          "name": "",
          "type": "address"
        },
        {
          "internalType": "uint256",
          "name": "",
          "type": "uint256"
        },
        {
          "internalType": "bytes",
          "name": "",
          "type": "bytes"
        }
      ],
      "name": "onERC721Received",
      "outputs": [
        {
          "internalType": "bytes4",
          "name": "",
          "type": "bytes4"
        }
      ],
      "stateMutability": "pure",
      "type": "function"
    },
    {
      "inputs": [
        {
          "internalType": "address",
          "name": "_contract",
          "type": "address"
        }
      ],
      "name": "registerAnAuctionContract",
      "outputs": [],
      "stateMutability": "nonpayable",
      "type": "function"
    },
    {
      "inputs": [
        {
          "internalType": "address",
          "name": "_tokenContract",
          "type": "address"
        },
        {
          "internalType": "uint256",
          "name": "_tokenId",
          "type": "uint256"
        },
        {
          "internalType": "bytes4",
          "name": "_tokenKind",
          "type": "bytes4"
        },
        {
          "internalType": "bool",
          "name": "_useInitiator",
          "type": "bool"
        }
      ],
      "name": "registerAnAuctionToken",
      "outputs": [],
      "stateMutability": "nonpayable",
      "type": "function"
    },
    {
      "inputs": [
        {
          "internalType": "address",
          "name": "_GBM",
          "type": "address"
        },
        {
          "internalType": "bool",
          "name": "_useInitiator",
          "type": "bool"
        },
        {
          "internalType": "address",
          "name": "_ERC1155Contract",
          "type": "address"
        },
        {
          "internalType": "uint256",
          "name": "_tokenID",
          "type": "uint256"
        },
        {
          "internalType": "uint256",
          "name": "_indexStart",
          "type": "uint256"
        },
        {
          "internalType": "uint256",
          "name": "_indexEnd",
          "type": "uint256"
        }
      ],
      "name": "registerMassERC1155Each",
      "outputs": [],
      "stateMutability": "nonpayable",
      "type": "function"
    },
    {
      "inputs": [
        {
          "internalType": "address",
          "name": "_GBM",
          "type": "address"
        },
        {
          "internalType": "bool",
          "name": "_useInitiator",
          "type": "bool"
        },
        {
          "internalType": "address",
          "name": "_ERC721Contract",
          "type": "address"
        },
        {
          "internalType": "uint256[]",
          "name": "_tokenIds",
          "type": "uint256[]"
        }
      ],
      "name": "registerMassERC721Each",
      "outputs": [],
      "stateMutability": "nonpayable",
      "type": "function"
    },
    {
      "inputs": [
        {
          "internalType": "address",
          "name": "_contract",
          "type": "address"
        },
        {
          "internalType": "bool",
          "name": "_value",
          "type": "bool"
        }
      ],
      "name": "setBiddingAllowed",
      "outputs": [],
      "stateMutability": "nonpayable",
      "type": "function"
    },
    {
      "inputs": [
        {
          "internalType": "address",
          "name": "_newAddress",
          "type": "address"
        }
      ],
      "name": "updatePlayerRewardsAddress",
      "outputs": [],
      "stateMutability": "nonpayable",
      "type": "function"
    }
  ],
  "bytecode": "0x608060405234801561000f575f80fd5b506157ab806200001e5f395ff3fe608060405234801561000f575f80fd5b50600436106101e3575f3560e01c8063ac478f3d1161010d578063dfab114b116100a0578063f23a6e611161006f578063f23a6e6114610645578063f48d6f7014610675578063f5de100014610691578063fc3fc4ed146106c1576101e3565b8063dfab114b14610599578063e07bc69c146105c9578063ef8c55fd146105f9578063ef8ca48414610629576101e3565b8063c26e748c116100dc578063c26e748c146104ed578063ca27e2091461051d578063da081c9414610539578063db14570114610569576101e3565b8063ac478f3d14610455578063aefa7d9814610471578063bc197c81146104a1578063bc292782146104d1576101e3565b8063470e9f8d1161018557806373e72e9c1161015457806373e72e9c146103bd5780638ab03e31146103d9578063919e84f5146103f5578063930e79f114610425576101e3565b8063470e9f8d1461031157806350d265d41461034157806364efa1fd1461035d5780636b9a894e1461038d576101e3565b806314ff5ea3116101c157806314ff5ea314610265578063150b7a0214610295578063379607f5146102c55780633f21cf81146102e1576101e3565b806303ea66a4146101e75780630facebea1461021757806312004c7f14610247575b5f80fd5b61020160048036038101906101fc9190613b5e565b6106f1565b60405161020e9190613b98565b60405180910390f35b610231600480360381019061022c9190613b5e565b610710565b60405161023e9190613beb565b60405180910390f35b61024f61073b565b60405161025c9190613c43565b60405180910390f35b61027f600480360381019061027a9190613b5e565b610765565b60405161028c9190613b98565b60405180910390f35b6102af60048036038101906102aa9190613ce7565b610784565b6040516102bc9190613beb565b60405180910390f35b6102df60048036038101906102da9190613b5e565b6107b1565b005b6102fb60048036038101906102f69190613b5e565b611171565b6040516103089190613b98565b60405180910390f35b61032b60048036038101906103269190613b5e565b61122c565b6040516103389190613b98565b60405180910390f35b61035b60048036038101906103569190613da0565b6112e7565b005b61037760048036038101906103729190613dde565b61139a565b6040516103849190613b98565b60405180910390f35b6103a760048036038101906103a29190613b5e565b611401565b6040516103b49190613b98565b60405180910390f35b6103d760048036038101906103d29190613e1c565b611420565b005b6103f360048036038101906103ee9190613fdd565b6114f8565b005b61040f600480360381019061040a9190613b5e565b61160e565b60405161041c9190613b98565b60405180910390f35b61043f600480360381019061043a9190613b5e565b6116c8565b60405161044c9190613b98565b60405180910390f35b61046f600480360381019061046a9190614087565b611783565b005b61048b60048036038101906104869190613b5e565b61179f565b6040516104989190613c43565b60405180910390f35b6104bb60048036038101906104b69190614140565b6117dc565b6040516104c89190613beb565b60405180910390f35b6104eb60048036038101906104e691906142d7565b61180c565b005b61050760048036038101906105029190613b5e565b611851565b6040516105149190613b98565b60405180910390f35b6105376004803603810190610532919061431e565b611870565b005b610553600480360381019061054e9190613b5e565b6118bd565b6040516105609190613b98565b60405180910390f35b610583600480360381019061057e9190613b5e565b611978565b6040516105909190613b98565b60405180910390f35b6105b360048036038101906105ae9190613b5e565b611a33565b6040516105c09190613c43565b60405180910390f35b6105e360048036038101906105de9190613b5e565b611a71565b6040516105f09190613b98565b60405180910390f35b610613600480360381019061060e9190613b5e565b611b2c565b6040516106209190613b98565b60405180910390f35b610643600480360381019061063e9190614349565b611be7565b005b61065f600480360381019061065a91906143c9565b611d0c565b60405161066c9190613beb565b60405180910390f35b61068f600480360381019061068a919061431e565b611d3a565b005b6106ab60048036038101906106a6919061445f565b611fb3565b6040516106b89190613b98565b60405180910390f35b6106db60048036038101906106d69190613b5e565b61201b565b6040516106e8919061460f565b60405180910390f35b5f80600e015f8381526020019081526020015f20600401549050919050565b5f80600c015f8381526020019081526020015f206002015f9054906101000a900460e01b9050919050565b5f80600b015f9054906101000a900473ffffffffffffffffffffffffffffffffffffffff16905090565b5f80600c015f8381526020019081526020015f20600101549050919050565b5f7f150b7a023d4804d13e8c85fb27262cb750cf6ba9f9dd3bb30d90f482ceeb4b1f905095945050505050565b5f80600c015f8381526020019081526020015f205f015f9054906101000a900473ffffffffffffffffffffffffffffffffffffffff1690505f80600c015f8481526020019081526020015f206001015490505f6010015f8373ffffffffffffffffffffffffffffffffffffffff1673ffffffffffffffffffffffffffffffffffffffff1681526020019081526020015f206008015f9054906101000a900460ff16610891576040517f08c379a0000000000000000000000000000000000000000000000000000000008152600401610888906146a9565b60405180910390fd5b4261089b846116c8565b106108db576040517f08c379a00000000000000000000000000000000000000000000000000000000081526004016108d290614711565b60405180910390fd5b5f15155f600f015f8581526020019081526020015f205f9054906101000a900460ff16151514610940576040517f08c379a00000000000000000000000000000000000000000000000000000000081526004016109379061479f565b60405180910390fd5b60015f600f015f8581526020019081526020015f205f6101000a81548160ff0219169083151502179055505f80600e015f8581526020019081526020015f20600301545f600e015f8681526020019081526020015f20600201546109a491906147ea565b90505f600b015f9054906101000a900473ffffffffffffffffffffffffffffffffffffffff1673ffffffffffffffffffffffffffffffffffffffff1663095ea7b330836040518363ffffffff1660e01b8152600401610a0492919061481d565b6020604051808303815f875af1158015610a20573d5f803e3d5ffd5b505050506040513d601f19601f82011682018060405250810190610a449190614858565b505f6064600583610a559190614883565b610a5f91906148f1565b90505f6064602884610a719190614883565b610a7b91906148f1565b90505f6005600285610a8d9190614883565b610a9791906148f1565b90505f81838587610aa891906147ea565b610ab291906147ea565b610abc91906147ea565b90505f600b015f9054906101000a900473ffffffffffffffffffffffffffffffffffffffff1673ffffffffffffffffffffffffffffffffffffffff166323b872dd3073ffffffffffffffffffffffffffffffffffffffff876040518463ffffffff1660e01b8152600401610b3293929190614921565b6020604051808303815f875af1158015610b4e573d5f803e3d5ffd5b505050506040513d601f19601f82011682018060405250810190610b729190614858565b505f600b015f9054906101000a900473ffffffffffffffffffffffffffffffffffffffff1673ffffffffffffffffffffffffffffffffffffffff166323b872dd305f80015f9054906101000a900473ffffffffffffffffffffffffffffffffffffffff16866040518463ffffffff1660e01b8152600401610bf593929190614921565b6020604051808303815f875af1158015610c11573d5f803e3d5ffd5b505050506040513d601f19601f82011682018060405250810190610c359190614858565b505f600b015f9054906101000a900473ffffffffffffffffffffffffffffffffffffffff1673ffffffffffffffffffffffffffffffffffffffff166323b872dd305f6001015f9054906101000a900473ffffffffffffffffffffffffffffffffffffffff16856040518463ffffffff1660e01b8152600401610cb993929190614921565b6020604051808303815f875af1158015610cd5573d5f803e3d5ffd5b505050506040513d601f19601f82011682018060405250810190610cf99190614858565b505f600b015f9054906101000a900473ffffffffffffffffffffffffffffffffffffffff1673ffffffffffffffffffffffffffffffffffffffff166323b872dd305f6002015f9054906101000a900473ffffffffffffffffffffffffffffffffffffffff16846040518463ffffffff1660e01b8152600401610d7d93929190614921565b6020604051808303815f875af1158015610d99573d5f803e3d5ffd5b505050506040513d601f19601f82011682018060405250810190610dbd9190614858565b505f80600e015f8a81526020019081526020015f206002015403610e3757610de36122ce565b5f600e015f8a81526020019081526020015f206001015f6101000a81548173ffffffffffffffffffffffffffffffffffffffff021916908373ffffffffffffffffffffffffffffffffffffffff1602179055505b7f73ad2146b3d3a286642c794379d750360a2d53a3459a11b3e5d6cc900f55f44a7bffffffffffffffffffffffffffffffffffffffffffffffffffffffff19165f600c015f8a81526020019081526020015f206002015f9054906101000a900460e01b7bffffffffffffffffffffffffffffffffffffffffffffffffffffffff191603610f62578673ffffffffffffffffffffffffffffffffffffffff166342842e0e305f600e015f8c81526020019081526020015f206001015f9054906101000a900473ffffffffffffffffffffffffffffffffffffffff16896040518463ffffffff1660e01b8152600401610f3093929190614921565b5f604051808303815f87803b158015610f47575f80fd5b505af1158015610f59573d5f803e3d5ffd5b5050505061113a565b7f973bb64086f173ec8099b7ed3d43da984f4a332e4417a08bc6a286e6402b05867bffffffffffffffffffffffffffffffffffffffffffffffffffffffff19165f600c015f8a81526020019081526020015f206002015f9054906101000a900460e01b7bffffffffffffffffffffffffffffffffffffffffffffffffffffffff191603611139578673ffffffffffffffffffffffffffffffffffffffff1663f242432a305f600e015f8c81526020019081526020015f206001015f9054906101000a900473ffffffffffffffffffffffffffffffffffffffff168960016040518563ffffffff1660e01b815260040161105e94939291906149cb565b5f604051808303815f87803b158015611075575f80fd5b505af1158015611087573d5f803e3d5ffd5b5050505060015f6012015f8973ffffffffffffffffffffffffffffffffffffffff1673ffffffffffffffffffffffffffffffffffffffff1681526020019081526020015f205f8881526020019081526020015f20546110e691906147ea565b5f6012015f8973ffffffffffffffffffffffffffffffffffffffff1673ffffffffffffffffffffffffffffffffffffffff1681526020019081526020015f205f8881526020019081526020015f20819055505b5b877f36c817b01bdbc20b542bcc10ca808780e14aa4c1043a66966a7692de51df511360405160405180910390a25050505050505050565b5f805f600e015f8481526020019081526020015f2060090154146111ad575f600e015f8381526020019081526020015f20600901549050611227565b5f6010015f80600c015f8581526020019081526020015f205f015f9054906101000a900473ffffffffffffffffffffffffffffffffffffffff1673ffffffffffffffffffffffffffffffffffffffff1673ffffffffffffffffffffffffffffffffffffffff1681526020019081526020015f206003015490505b919050565b5f805f600e015f8481526020019081526020015f206008015414611268575f600e015f8381526020019081526020015f206008015490506112e2565b5f6010015f80600c015f8581526020019081526020015f205f015f9054906101000a900473ffffffffffffffffffffffffffffffffffffffff1673ffffffffffffffffffffffffffffffffffffffff1673ffffffffffffffffffffffffffffffffffffffff1681526020019081526020015f206002015490505b919050565b6112ef6122ff565b805f6010015f8473ffffffffffffffffffffffffffffffffffffffff1673ffffffffffffffffffffffffffffffffffffffff1681526020019081526020015f206008015f6101000a81548160ff0219169083151502179055508173ffffffffffffffffffffffffffffffffffffffff167f0b4ea68d808f372a5097f85b16d5e69e050d94a33668fd980f8876593bb8e5718260405161138e9190614a30565b60405180910390a25050565b5f80600d015f8473ffffffffffffffffffffffffffffffffffffffff1673ffffffffffffffffffffffffffffffffffffffff1681526020019081526020015f205f8381526020019081526020015f205f8081526020019081526020015f2054905092915050565b5f80600e015f8381526020019081526020015f20600301549050919050565b6114286122ff565b61143184611d3a565b8373ffffffffffffffffffffffffffffffffffffffff1663f242432a338886868661145c91906147ea565b6040518563ffffffff1660e01b815260040161147b9493929190614a49565b5f604051808303815f87803b158015611492575f80fd5b505af11580156114a4573d5f803e3d5ffd5b505050505b808210156114f0576114dd84847f973bb64086f173ec8099b7ed3d43da984f4a332e4417a08bc6a286e6402b058688611783565b81806114e890614a9f565b9250506114a9565b505050505050565b5f338585856040516020016115109493929190614b4b565b6040516020818303038152906040528051906020012090506115bd81835f601301805461153c90614bc5565b80601f016020809104026020016040519081016040528092919081815260200182805461156890614bc5565b80156115b35780601f1061158a576101008083540402835291602001916115b3565b820191905f5260205f20905b81548152906001019060200180831161159657829003601f168201915b5050505050612399565b6115fc576040517f08c379a00000000000000000000000000000000000000000000000000000000081526004016115f390614c3f565b60405180910390fd5b6116078585856124a1565b5050505050565b5f805f600e015f8481526020019081526020015f20600601541461164a575f600e015f8381526020019081526020015f206006015490506116c3565b5f6010015f80600c015f8581526020019081526020015f205f015f9054906101000a900473ffffffffffffffffffffffffffffffffffffffff1673ffffffffffffffffffffffffffffffffffffffff1673ffffffffffffffffffffffffffffffffffffffff1681526020019081526020015f205f015490505b919050565b5f805f600e015f8481526020019081526020015f206007015414611704575f600e015f8381526020019081526020015f2060070154905061177e565b5f6010015f80600c015f8581526020019081526020015f205f015f9054906101000a900473ffffffffffffffffffffffffffffffffffffffff1673ffffffffffffffffffffffffffffffffffffffff1673ffffffffffffffffffffffffffffffffffffffff1681526020019081526020015f206001015490505b919050565b61178b6122ff565b611799848484845f80612c7d565b50505050565b5f80600c015f8381526020019081526020015f205f015f9054906101000a900473ffffffffffffffffffffffffffffffffffffffff169050919050565b5f7fbc197c819b3e337a6f9652dd10becd7eef83032af3b9d958d3d42f6694146621905098975050505050505050565b5f5b815181101561184d5761183a82828151811061182d5761182c614c5d565b5b60200260200101516107b1565b808061184590614a9f565b91505061180e565b5050565b5f80600e015f8381526020019081526020015f20600201549050919050565b6118786122ff565b805f6001015f6101000a81548173ffffffffffffffffffffffffffffffffffffffff021916908373ffffffffffffffffffffffffffffffffffffffff16021790555050565b5f805f600e015f8481526020019081526020015f20600d0154146118f9575f600e015f8381526020019081526020015f20600d01549050611973565b5f6010015f80600c015f8581526020019081526020015f205f015f9054906101000a900473ffffffffffffffffffffffffffffffffffffffff1673ffffffffffffffffffffffffffffffffffffffff1673ffffffffffffffffffffffffffffffffffffffff1681526020019081526020015f206007015490505b919050565b5f805f600e015f8481526020019081526020015f20600c0154146119b4575f600e015f8381526020019081526020015f20600c01549050611a2e565b5f6010015f80600c015f8581526020019081526020015f205f015f9054906101000a900473ffffffffffffffffffffffffffffffffffffffff1673ffffffffffffffffffffffffffffffffffffffff1673ffffffffffffffffffffffffffffffffffffffff1681526020019081526020015f206006015490505b919050565b5f80600e015f8381526020019081526020015f206001015f9054906101000a900473ffffffffffffffffffffffffffffffffffffffff169050919050565b5f805f600e015f8481526020019081526020015f20600a015414611aad575f600e015f8381526020019081526020015f20600a01549050611b27565b5f6010015f80600c015f8581526020019081526020015f205f015f9054906101000a900473ffffffffffffffffffffffffffffffffffffffff1673ffffffffffffffffffffffffffffffffffffffff1673ffffffffffffffffffffffffffffffffffffffff1681526020019081526020015f206004015490505b919050565b5f805f600e015f8481526020019081526020015f20600b015414611b68575f600e015f8381526020019081526020015f20600b01549050611be2565b5f6010015f80600c015f8581526020019081526020015f205f015f9054906101000a900473ffffffffffffffffffffffffffffffffffffffff1673ffffffffffffffffffffffffffffffffffffffff1673ffffffffffffffffffffffffffffffffffffffff1681526020019081526020015f206005015490505b919050565b611bef6122ff565b5f815111611c32576040517f08c379a0000000000000000000000000000000000000000000000000000000008152600401611c2990614cd4565b60405180910390fd5b5f5b8151811015611d05575f828281518110611c5157611c50614c5d565b5b602002602001015190508373ffffffffffffffffffffffffffffffffffffffff1663b88d4fde3388846040518463ffffffff1660e01b8152600401611c9893929190614cf2565b5f604051808303815f87803b158015611caf575f80fd5b505af1158015611cc1573d5f803e3d5ffd5b50505050611cf184827f73ad2146b3d3a286642c794379d750360a2d53a3459a11b3e5d6cc900f55f44a88611783565b508080611cfd90614a9f565b915050611c34565b5050505050565b5f7ff23a6e612e1ff4830e658fe43f4e3cb4a5f8170bd5d9e69fb5d7a7fa9e4fdf9790509695505050505050565b611d426122ff565b5f6003015f01545f6010015f8373ffffffffffffffffffffffffffffffffffffffff1673ffffffffffffffffffffffffffffffffffffffff1681526020019081526020015f205f01819055505f600301600101545f6010015f8373ffffffffffffffffffffffffffffffffffffffff1673ffffffffffffffffffffffffffffffffffffffff1681526020019081526020015f20600101819055505f600301600201545f6010015f8373ffffffffffffffffffffffffffffffffffffffff1673ffffffffffffffffffffffffffffffffffffffff1681526020019081526020015f20600201819055505f600301600301545f6010015f8373ffffffffffffffffffffffffffffffffffffffff1673ffffffffffffffffffffffffffffffffffffffff1681526020019081526020015f20600301819055505f600301600401545f6010015f8373ffffffffffffffffffffffffffffffffffffffff1673ffffffffffffffffffffffffffffffffffffffff1681526020019081526020015f20600401819055505f600301600501545f6010015f8373ffffffffffffffffffffffffffffffffffffffff1673ffffffffffffffffffffffffffffffffffffffff1681526020019081526020015f20600501819055505f600301600601545f6010015f8373ffffffffffffffffffffffffffffffffffffffff1673ffffffffffffffffffffffffffffffffffffffff1681526020019081526020015f20600601819055505f600301600701545f6010015f8373ffffffffffffffffffffffffffffffffffffffff1673ffffffffffffffffffffffffffffffffffffffff1681526020019081526020015f206007018190555050565b5f80600d015f8573ffffffffffffffffffffffffffffffffffffffff1673ffffffffffffffffffffffffffffffffffffffff1681526020019081526020015f205f8481526020019081526020015f205f8381526020019081526020015f205490509392505050565b612023613a1c565b5f600e015f8381526020019081526020015f20604051806101e00160405290815f82015f9054906101000a900473ffffffffffffffffffffffffffffffffffffffff1673ffffffffffffffffffffffffffffffffffffffff1673ffffffffffffffffffffffffffffffffffffffff168152602001600182015f9054906101000a900473ffffffffffffffffffffffffffffffffffffffff1673ffffffffffffffffffffffffffffffffffffffff1673ffffffffffffffffffffffffffffffffffffffff168152602001600282015481526020016003820154815260200160048201548152602001600582015f9054906101000a900473ffffffffffffffffffffffffffffffffffffffff1673ffffffffffffffffffffffffffffffffffffffff1673ffffffffffffffffffffffffffffffffffffffff16815260200160068201548152602001600782015481526020016008820154815260200160098201548152602001600a8201548152602001600b8201548152602001600c8201548152602001600d8201548152602001600e82015f9054906101000a900460ff16151515158152505090505f600c015f8381526020019081526020015f205f015f9054906101000a900473ffffffffffffffffffffffffffffffffffffffff168160a0019073ffffffffffffffffffffffffffffffffffffffff16908173ffffffffffffffffffffffffffffffffffffffff16815250505f6010015f80600c015f8581526020019081526020015f205f015f9054906101000a900473ffffffffffffffffffffffffffffffffffffffff1673ffffffffffffffffffffffffffffffffffffffff1673ffffffffffffffffffffffffffffffffffffffff1681526020019081526020015f206008015f9054906101000a900460ff16816101c0019015159081151581525050919050565b5f6122d76138e2565b6004015f9054906101000a900473ffffffffffffffffffffffffffffffffffffffff16905090565b6123076138e2565b6004015f9054906101000a900473ffffffffffffffffffffffffffffffffffffffff1673ffffffffffffffffffffffffffffffffffffffff163373ffffffffffffffffffffffffffffffffffffffff1614612397576040517f08c379a000000000000000000000000000000000000000000000000000000000815260040161238e90614daa565b60405180910390fd5b565b5f805f8060418651146123b1575f935050505061249a565b602086015192506040860151915060608601515f1a9050601b8160ff1610156123e457601b816123e19190614dd4565b90505b601b8160ff16141580156123fc5750601c8160ff1614155b1561240c575f935050505061249a565b5f6001888386866040515f815260200160405260405161242f9493929190614e2f565b6020604051602081039080840390855afa15801561244f573d5f803e3d5ffd5b50505060206040510351905085805190602001205f1c73ffffffffffffffffffffffffffffffffffffffff168173ffffffffffffffffffffffffffffffffffffffff16149450505050505b9392505050565b5f6010015f80600c015f8681526020019081526020015f205f015f9054906101000a900473ffffffffffffffffffffffffffffffffffffffff1673ffffffffffffffffffffffffffffffffffffffff1673ffffffffffffffffffffffffffffffffffffffff1681526020019081526020015f206008015f9054906101000a900460ff16612563576040517f08c379a000000000000000000000000000000000000000000000000000000000815260040161255a90614ee2565b60405180910390fd5b600182116125a6576040517f08c379a000000000000000000000000000000000000000000000000000000000815260040161259d90614f4a565b60405180910390fd5b5f600e015f8481526020019081526020015f206002015481146125fe576040517f08c379a00000000000000000000000000000000000000000000000000000000081526004016125f590614ffe565b60405180910390fd5b426126088461160e565b1115801561261e57505f61261b8461160e565b14155b61265d576040517f08c379a000000000000000000000000000000000000000000000000000000000815260040161265490615066565b60405180910390fd5b42612667846116c8565b10156126a8576040517f08c379a000000000000000000000000000000000000000000000000000000000815260040161269f906150ce565b60405180910390fd5b8082116126ea576040517f08c379a00000000000000000000000000000000000000000000000000000000081526004016126e19061515c565b60405180910390fd5b6126f383611171565b826126fe9190614883565b61270784611a71565b61271085611171565b61271a919061517a565b826127259190614883565b1115612766576040517f08c379a000000000000000000000000000000000000000000000000000000000815260040161275d9061521d565b60405180910390fd5b5f600b015f9054906101000a900473ffffffffffffffffffffffffffffffffffffffff1673ffffffffffffffffffffffffffffffffffffffff166323b872dd3330856040518463ffffffff1660e01b81526004016127c693929190614921565b6020604051808303815f875af11580156127e2573d5f803e3d5ffd5b505050506040513d601f19601f820116820180604052508101906128069190614858565b506128108361122c565b4261281b919061517a565b612824846116c8565b10156128a7576128338361122c565b4261283e919061517a565b5f600e015f8581526020019081526020015f2060070181905550827f2e7f50c8a01968bd8edfe9b3ae46a4d0fa3ce89e533d76245c2684ee9882c0cb5f600e015f8681526020019081526020015f206007015460405161289e9190613b98565b60405180910390a25b5f80600e015f8581526020019081526020015f206004015490505f80600e015f8681526020019081526020015f206001015f9054906101000a900473ffffffffffffffffffffffffffffffffffffffff1690505f80600e015f8781526020019081526020015f206002015490505f73ffffffffffffffffffffffffffffffffffffffff168273ffffffffffffffffffffffffffffffffffffffff1614612997578173ffffffffffffffffffffffffffffffffffffffff16867ffff24e92e1cbce6e08fa0c957732709b2be79be2ce26c732bcfae1cc368356e58360405161298e9190613b98565b60405180910390a35b5f8314612a2a57825f600e015f8881526020019081526020015f20600301546129c0919061517a565b5f600e015f8881526020019081526020015f20600301819055508173ffffffffffffffffffffffffffffffffffffffff16867fc6330f2f35039b6e7bcfdeb0c2e959d355b88d8c2292ca4a4c42f514cc958be385604051612a219190613b98565b60405180910390a35b3373ffffffffffffffffffffffffffffffffffffffff16867f1cd77ec6c10f614681f30c7aa33ebc645b4d597aaf7039f6210e71d0e15c918187604051612a719190613b98565b60405180910390a3612a83868661390e565b5f600e015f8881526020019081526020015f2060040181905550335f600e015f8881526020019081526020015f206001015f6101000a81548173ffffffffffffffffffffffffffffffffffffffff021916908373ffffffffffffffffffffffffffffffffffffffff160217905550845f600e015f8881526020019081526020015f20600201819055505f8382612b19919061517a565b14612c75575f600b015f9054906101000a900473ffffffffffffffffffffffffffffffffffffffff1673ffffffffffffffffffffffffffffffffffffffff1663095ea7b3308584612b6a919061517a565b6040518363ffffffff1660e01b8152600401612b8792919061481d565b6020604051808303815f875af1158015612ba3573d5f803e3d5ffd5b505050506040513d601f19601f82011682018060405250810190612bc79190614858565b505f600b015f9054906101000a900473ffffffffffffffffffffffffffffffffffffffff1673ffffffffffffffffffffffffffffffffffffffff166323b872dd30848685612c15919061517a565b6040518463ffffffff1660e01b8152600401612c3393929190614921565b6020604051808303815f875af1158015612c4f573d5f803e3d5ffd5b505050506040513d601f19601f82011682018060405250810190612c739190614858565b505b505050505050565b80612d77575f6011015f8773ffffffffffffffffffffffffffffffffffffffff1673ffffffffffffffffffffffffffffffffffffffff1681526020019081526020015f205f8681526020019081526020015f205491505f80600d015f8873ffffffffffffffffffffffffffffffffffffffff1673ffffffffffffffffffffffffffffffffffffffff1681526020019081526020015f205f8781526020019081526020015f205f8481526020019081526020015f205414612d72576040517f08c379a0000000000000000000000000000000000000000000000000000000008152600401612d69906152ab565b60405180910390fd5b612e17565b5f80600d015f8873ffffffffffffffffffffffffffffffffffffffff1673ffffffffffffffffffffffffffffffffffffffff1681526020019081526020015f205f8781526020019081526020015f205f8481526020019081526020015f205403612e16576040517f08c379a0000000000000000000000000000000000000000000000000000000008152600401612e0d90615339565b60405180910390fd5b5b7f73ad2146b3d3a286642c794379d750360a2d53a3459a11b3e5d6cc900f55f44a7bffffffffffffffffffffffffffffffffffffffffffffffffffffffff1916847bffffffffffffffffffffffffffffffffffffffffffffffffffffffff19161480612ee057507f973bb64086f173ec8099b7ed3d43da984f4a332e4417a08bc6a286e6402b05867bffffffffffffffffffffffffffffffffffffffffffffffffffffffff1916847bffffffffffffffffffffffffffffffffffffffffffffffffffffffff1916145b612f1f576040517f08c379a0000000000000000000000000000000000000000000000000000000008152600401612f16906153ed565b60405180910390fd5b612f27613ac7565b86815f019073ffffffffffffffffffffffffffffffffffffffff16908173ffffffffffffffffffffffffffffffffffffffff1681525050858160200181815250508481604001907bffffffffffffffffffffffffffffffffffffffffffffffffffffffff191690817bffffffffffffffffffffffffffffffffffffffffffffffffffffffff1916815250505f7f73ad2146b3d3a286642c794379d750360a2d53a3459a11b3e5d6cc900f55f44a7bffffffffffffffffffffffffffffffffffffffffffffffffffffffff1916867bffffffffffffffffffffffffffffffffffffffffffffffffffffffff191603613235578773ffffffffffffffffffffffffffffffffffffffff16638da5cb5b6040518163ffffffff1660e01b8152600401602060405180830381865afa158015613061573d5f803e3d5ffd5b505050506040513d601f19601f82011682018060405250810190613085919061541f565b73ffffffffffffffffffffffffffffffffffffffff163373ffffffffffffffffffffffffffffffffffffffff16148061316057508773ffffffffffffffffffffffffffffffffffffffff16636352211e886040518263ffffffff1660e01b81526004016130f29190613b98565b602060405180830381865afa15801561310d573d5f803e3d5ffd5b505050506040513d601f19601f82011682018060405250810190613131919061541f565b73ffffffffffffffffffffffffffffffffffffffff163073ffffffffffffffffffffffffffffffffffffffff16145b61319f576040517f08c379a0000000000000000000000000000000000000000000000000000000008152600401613196906154e0565b60405180910390fd5b8787876040516020016131b49392919061551e565b604051602081830303815290604052805190602001205f1c9050805f600d015f8a73ffffffffffffffffffffffffffffffffffffffff1673ffffffffffffffffffffffffffffffffffffffff1681526020019081526020015f205f8981526020019081526020015f205f8081526020019081526020015f2081905550613664565b8773ffffffffffffffffffffffffffffffffffffffff16638da5cb5b6040518163ffffffff1660e01b8152600401602060405180830381865afa15801561327e573d5f803e3d5ffd5b505050506040513d601f19601f820116820180604052508101906132a2919061541f565b73ffffffffffffffffffffffffffffffffffffffff163373ffffffffffffffffffffffffffffffffffffffff1614806133a057508773ffffffffffffffffffffffffffffffffffffffff1662fdd58e30896040518363ffffffff1660e01b815260040161331092919061481d565b602060405180830381865afa15801561332b573d5f803e3d5ffd5b505050506040513d601f19601f8201168201806040525081019061334f919061556e565b5f6012015f8a73ffffffffffffffffffffffffffffffffffffffff1673ffffffffffffffffffffffffffffffffffffffff1681526020019081526020015f205f8981526020019081526020015f2054105b6133df576040517f08c379a00000000000000000000000000000000000000000000000000000000081526004016133d69061562f565b60405180910390fd5b5f6011015f8973ffffffffffffffffffffffffffffffffffffffff1673ffffffffffffffffffffffffffffffffffffffff1681526020019081526020015f205f8881526020019081526020015f2054841115613470576040517f08c379a0000000000000000000000000000000000000000000000000000000008152600401613467906156e3565b60405180910390fd5b878787866040516020016134879493929190615701565b604051602081830303815290604052805190602001205f1c9050826136015760015f6011015f8a73ffffffffffffffffffffffffffffffffffffffff1673ffffffffffffffffffffffffffffffffffffffff1681526020019081526020015f205f8981526020019081526020015f2054613501919061517a565b5f6011015f8a73ffffffffffffffffffffffffffffffffffffffff1673ffffffffffffffffffffffffffffffffffffffff1681526020019081526020015f205f8981526020019081526020015f208190555060015f6012015f8a73ffffffffffffffffffffffffffffffffffffffff1673ffffffffffffffffffffffffffffffffffffffff1681526020019081526020015f205f8981526020019081526020015f20546135ae919061517a565b5f6012015f8a73ffffffffffffffffffffffffffffffffffffffff1673ffffffffffffffffffffffffffffffffffffffff1681526020019081526020015f205f8981526020019081526020015f20819055505b805f600d015f8a73ffffffffffffffffffffffffffffffffffffffff1673ffffffffffffffffffffffffffffffffffffffff1681526020019081526020015f205f8981526020019081526020015f205f8681526020019081526020015f20819055505b815f600c015f8381526020019081526020015f205f820151815f015f6101000a81548173ffffffffffffffffffffffffffffffffffffffff021916908373ffffffffffffffffffffffffffffffffffffffff160217905550602082015181600101556040820151816002015f6101000a81548163ffffffff021916908360e01c0217905550905050841561385c576136fa6122ce565b5f600e015f8381526020019081526020015f205f015f6101000a81548173ffffffffffffffffffffffffffffffffffffffff021916908373ffffffffffffffffffffffffffffffffffffffff1602179055505f6003015f01545f600e015f8381526020019081526020015f20600601819055505f600301600101545f600e015f8381526020019081526020015f20600701819055505f600301600201545f600e015f8381526020019081526020015f20600801819055505f600301600301545f600e015f8381526020019081526020015f20600901819055505f600301600401545f600e015f8381526020019081526020015f20600a01819055505f600301600501545f600e015f8381526020019081526020015f20600b01819055505f600301600601545f600e015f8381526020019081526020015f20600c01819055505f600301600701545f600e015f8381526020019081526020015f20600d01819055505b8387827fc641d58f17231edb197007e15eeca939850103e030c936a165de466e56991c1f8b8a60405161389092919061574e565b60405180910390a4807f13868ce1b50a84aac263efd89923de989e831c1c1184925e076d0db83d2b14536138c38361160e565b6040516138d09190613b98565b60405180910390a25050505050505050565b5f807fc8fcad8db84d3cc18b4c41d551ea0ee66dd599cde068d998e57d5e09332c131c90508091505090565b5f8061391984611171565b90505f61392585611978565b90505f8261393287611a71565b8461393d919061517a565b5f600e015f8981526020019081526020015f206002015461395e9190614883565b61396891906148f1565b90505f810361397657600190505b5f8361398188611b2c565b61398b9190614883565b82838861399891906147ea565b6139a18a6118bd565b876139ac9190614883565b6139b69190614883565b6139c091906148f1565b6139ca919061517a565b905082846139d89190614883565b8111156139ee5782846139eb9190614883565b90505b83846139fa9190614883565b8187613a069190614883565b613a1091906148f1565b94505050505092915050565b604051806101e001604052805f73ffffffffffffffffffffffffffffffffffffffff1681526020015f73ffffffffffffffffffffffffffffffffffffffff1681526020015f81526020015f81526020015f81526020015f73ffffffffffffffffffffffffffffffffffffffff1681526020015f81526020015f81526020015f81526020015f81526020015f81526020015f81526020015f81526020015f81526020015f151581525090565b60405180606001604052805f73ffffffffffffffffffffffffffffffffffffffff1681526020015f81526020015f7bffffffffffffffffffffffffffffffffffffffffffffffffffffffff191681525090565b5f604051905090565b5f80fd5b5f80fd5b5f819050919050565b613b3d81613b2b565b8114613b47575f80fd5b50565b5f81359050613b5881613b34565b92915050565b5f60208284031215613b7357613b72613b23565b5b5f613b8084828501613b4a565b91505092915050565b613b9281613b2b565b82525050565b5f602082019050613bab5f830184613b89565b92915050565b5f7fffffffff0000000000000000000000000000000000000000000000000000000082169050919050565b613be581613bb1565b82525050565b5f602082019050613bfe5f830184613bdc565b92915050565b5f73ffffffffffffffffffffffffffffffffffffffff82169050919050565b5f613c2d82613c04565b9050919050565b613c3d81613c23565b82525050565b5f602082019050613c565f830184613c34565b92915050565b613c6581613c23565b8114613c6f575f80fd5b50565b5f81359050613c8081613c5c565b92915050565b5f80fd5b5f80fd5b5f80fd5b5f8083601f840112613ca757613ca6613c86565b5b8235905067ffffffffffffffff811115613cc457613cc3613c8a565b5b602083019150836001820283011115613ce057613cdf613c8e565b5b9250929050565b5f805f805f60808688031215613d0057613cff613b23565b5b5f613d0d88828901613c72565b9550506020613d1e88828901613c72565b9450506040613d2f88828901613b4a565b935050606086013567ffffffffffffffff811115613d5057613d4f613b27565b5b613d5c88828901613c92565b92509250509295509295909350565b5f8115159050919050565b613d7f81613d6b565b8114613d89575f80fd5b50565b5f81359050613d9a81613d76565b92915050565b5f8060408385031215613db657613db5613b23565b5b5f613dc385828601613c72565b9250506020613dd485828601613d8c565b9150509250929050565b5f8060408385031215613df457613df3613b23565b5b5f613e0185828601613c72565b9250506020613e1285828601613b4a565b9150509250929050565b5f805f805f8060c08789031215613e3657613e35613b23565b5b5f613e4389828a01613c72565b9650506020613e5489828a01613d8c565b9550506040613e6589828a01613c72565b9450506060613e7689828a01613b4a565b9350506080613e8789828a01613b4a565b92505060a0613e9889828a01613b4a565b9150509295509295509295565b5f80fd5b5f601f19601f8301169050919050565b7f4e487b71000000000000000000000000000000000000000000000000000000005f52604160045260245ffd5b613eef82613ea9565b810181811067ffffffffffffffff82111715613f0e57613f0d613eb9565b5b80604052505050565b5f613f20613b1a565b9050613f2c8282613ee6565b919050565b5f67ffffffffffffffff821115613f4b57613f4a613eb9565b5b613f5482613ea9565b9050602081019050919050565b828183375f83830152505050565b5f613f81613f7c84613f31565b613f17565b905082815260208101848484011115613f9d57613f9c613ea5565b5b613fa8848285613f61565b509392505050565b5f82601f830112613fc457613fc3613c86565b5b8135613fd4848260208601613f6f565b91505092915050565b5f805f8060808587031215613ff557613ff4613b23565b5b5f61400287828801613b4a565b945050602061401387828801613b4a565b935050604061402487828801613b4a565b925050606085013567ffffffffffffffff81111561404557614044613b27565b5b61405187828801613fb0565b91505092959194509250565b61406681613bb1565b8114614070575f80fd5b50565b5f813590506140818161405d565b92915050565b5f805f806080858703121561409f5761409e613b23565b5b5f6140ac87828801613c72565b94505060206140bd87828801613b4a565b93505060406140ce87828801614073565b92505060606140df87828801613d8c565b91505092959194509250565b5f8083601f840112614100576140ff613c86565b5b8235905067ffffffffffffffff81111561411d5761411c613c8a565b5b60208301915083602082028301111561413957614138613c8e565b5b9250929050565b5f805f805f805f8060a0898b03121561415c5761415b613b23565b5b5f6141698b828c01613c72565b985050602061417a8b828c01613c72565b975050604089013567ffffffffffffffff81111561419b5761419a613b27565b5b6141a78b828c016140eb565b9650965050606089013567ffffffffffffffff8111156141ca576141c9613b27565b5b6141d68b828c016140eb565b9450945050608089013567ffffffffffffffff8111156141f9576141f8613b27565b5b6142058b828c01613c92565b92509250509295985092959890939650565b5f67ffffffffffffffff82111561423157614230613eb9565b5b602082029050602081019050919050565b5f61425461424f84614217565b613f17565b9050808382526020820190506020840283018581111561427757614276613c8e565b5b835b818110156142a0578061428c8882613b4a565b845260208401935050602081019050614279565b5050509392505050565b5f82601f8301126142be576142bd613c86565b5b81356142ce848260208601614242565b91505092915050565b5f602082840312156142ec576142eb613b23565b5b5f82013567ffffffffffffffff81111561430957614308613b27565b5b614315848285016142aa565b91505092915050565b5f6020828403121561433357614332613b23565b5b5f61434084828501613c72565b91505092915050565b5f805f806080858703121561436157614360613b23565b5b5f61436e87828801613c72565b945050602061437f87828801613d8c565b935050604061439087828801613c72565b925050606085013567ffffffffffffffff8111156143b1576143b0613b27565b5b6143bd878288016142aa565b91505092959194509250565b5f805f805f8060a087890312156143e3576143e2613b23565b5b5f6143f089828a01613c72565b965050602061440189828a01613c72565b955050604061441289828a01613b4a565b945050606061442389828a01613b4a565b935050608087013567ffffffffffffffff81111561444457614443613b27565b5b61445089828a01613c92565b92509250509295509295509295565b5f805f6060848603121561447657614475613b23565b5b5f61448386828701613c72565b935050602061449486828701613b4a565b92505060406144a586828701613b4a565b9150509250925092565b6144b881613c23565b82525050565b6144c781613b2b565b82525050565b6144d681613d6b565b82525050565b6101e082015f8201516144f15f8501826144af565b50602082015161450460208501826144af565b50604082015161451760408501826144be565b50606082015161452a60608501826144be565b50608082015161453d60808501826144be565b5060a082015161455060a08501826144af565b5060c082015161456360c08501826144be565b5060e082015161457660e08501826144be565b5061010082015161458b6101008501826144be565b506101208201516145a06101208501826144be565b506101408201516145b56101408501826144be565b506101608201516145ca6101608501826144be565b506101808201516145df6101808501826144be565b506101a08201516145f46101a08501826144be565b506101c08201516146096101c08501826144cd565b50505050565b5f6101e0820190506146235f8301846144dc565b92915050565b5f82825260208201905092915050565b7f636c61696d3a20436c61696d696e672069732063757272656e746c79206e6f745f8201527f20616c6c6f776564000000000000000000000000000000000000000000000000602082015250565b5f614693602883614629565b915061469e82614639565b604082019050919050565b5f6020820190508181035f8301526146c081614687565b9050919050565b7f636c61696d3a2041756374696f6e20686173206e6f742079657420656e6465645f82015250565b5f6146fb602083614629565b9150614706826146c7565b602082019050919050565b5f6020820190508181035f830152614728816146ef565b9050919050565b7f636c61696d3a204974656d2068617320616c7265616479206265656e20636c615f8201527f696d656400000000000000000000000000000000000000000000000000000000602082015250565b5f614789602483614629565b91506147948261472f565b604082019050919050565b5f6020820190508181035f8301526147b68161477d565b9050919050565b7f4e487b71000000000000000000000000000000000000000000000000000000005f52601160045260245ffd5b5f6147f482613b2b565b91506147ff83613b2b565b9250828203905081811115614817576148166147bd565b5b92915050565b5f6040820190506148305f830185613c34565b61483d6020830184613b89565b9392505050565b5f8151905061485281613d76565b92915050565b5f6020828403121561486d5761486c613b23565b5b5f61487a84828501614844565b91505092915050565b5f61488d82613b2b565b915061489883613b2b565b92508282026148a681613b2b565b915082820484148315176148bd576148bc6147bd565b5b5092915050565b7f4e487b71000000000000000000000000000000000000000000000000000000005f52601260045260245ffd5b5f6148fb82613b2b565b915061490683613b2b565b925082614916576149156148c4565b5b828204905092915050565b5f6060820190506149345f830186613c34565b6149416020830185613c34565b61494e6040830184613b89565b949350505050565b5f819050919050565b5f819050919050565b5f61498261497d61497884614956565b61495f565b613b2b565b9050919050565b61499281614968565b82525050565b5f82825260208201905092915050565b50565b5f6149b65f83614998565b91506149c1826149a8565b5f82019050919050565b5f60a0820190506149de5f830187613c34565b6149eb6020830186613c34565b6149f86040830185613b89565b614a056060830184614989565b8181036080830152614a16816149ab565b905095945050505050565b614a2a81613d6b565b82525050565b5f602082019050614a435f830184614a21565b92915050565b5f60a082019050614a5c5f830187613c34565b614a696020830186613c34565b614a766040830185613b89565b614a836060830184613b89565b8181036080830152614a94816149ab565b905095945050505050565b5f614aa982613b2b565b91507fffffffffffffffffffffffffffffffffffffffffffffffffffffffffffffffff8203614adb57614ada6147bd565b5b600182019050919050565b5f8160601b9050919050565b5f614afc82614ae6565b9050919050565b5f614b0d82614af2565b9050919050565b614b25614b2082613c23565b614b03565b82525050565b5f819050919050565b614b45614b4082613b2b565b614b2b565b82525050565b5f614b568287614b14565b601482019150614b668286614b34565b602082019150614b768285614b34565b602082019150614b868284614b34565b60208201915081905095945050505050565b7f4e487b71000000000000000000000000000000000000000000000000000000005f52602260045260245ffd5b5f6002820490506001821680614bdc57607f821691505b602082108103614bef57614bee614b98565b5b50919050565b7f6269643a20496e76616c6964207369676e6174757265000000000000000000005f82015250565b5f614c29601683614629565b9150614c3482614bf5565b602082019050919050565b5f6020820190508181035f830152614c5681614c1d565b9050919050565b7f4e487b71000000000000000000000000000000000000000000000000000000005f52603260045260245ffd5b7f4e6f2061756374696f6e7320746f2063726561746500000000000000000000005f82015250565b5f614cbe601583614629565b9150614cc982614c8a565b602082019050919050565b5f6020820190508181035f830152614ceb81614cb2565b9050919050565b5f608082019050614d055f830186613c34565b614d126020830185613c34565b614d1f6040830184613b89565b8181036060830152614d30816149ab565b9050949350505050565b7f4c69624469616d6f6e643a204d75737420626520636f6e7472616374206f776e5f8201527f6572000000000000000000000000000000000000000000000000000000000000602082015250565b5f614d94602283614629565b9150614d9f82614d3a565b604082019050919050565b5f6020820190508181035f830152614dc181614d88565b9050919050565b5f60ff82169050919050565b5f614dde82614dc8565b9150614de983614dc8565b9250828201905060ff811115614e0257614e016147bd565b5b92915050565b5f819050919050565b614e1a81614e08565b82525050565b614e2981614dc8565b82525050565b5f608082019050614e425f830187614e11565b614e4f6020830186614e20565b614e5c6040830185614e11565b614e696060830184614e11565b95945050505050565b7f6269643a2062696464696e672069732063757272656e746c79206e6f7420616c5f8201527f6c6f776564000000000000000000000000000000000000000000000000000000602082015250565b5f614ecc602583614629565b9150614ed782614e72565b604082019050919050565b5f6020820190508181035f830152614ef981614ec0565b9050919050565b7f6269643a205f626964416d6f756e742063616e6e6f74206265203000000000005f82015250565b5f614f34601b83614629565b9150614f3f82614f00565b602082019050919050565b5f6020820190508181035f830152614f6181614f28565b9050919050565b7f6269643a2063757272656e7420686967686573742062696420646f6573206e6f5f8201527f74206d6174636820746865207375626d6974746564207472616e73616374696f60208201527f6e205f6869676865737442696400000000000000000000000000000000000000604082015250565b5f614fe8604d83614629565b9150614ff382614f68565b606082019050919050565b5f6020820190508181035f83015261501581614fdc565b9050919050565b7f6269643a2041756374696f6e20686173206e6f742073746172746564207965745f82015250565b5f615050602083614629565b915061505b8261501c565b602082019050919050565b5f6020820190508181035f83015261507d81615044565b9050919050565b7f6269643a2041756374696f6e2068617320616c726561647920656e64656400005f82015250565b5f6150b8601e83614629565b91506150c382615084565b602082019050919050565b5f6020820190508181035f8301526150e5816150ac565b9050919050565b7f6269643a205f626964416d6f756e74206d7573742062652068696768657220745f8201527f68616e205f686967686573744269640000000000000000000000000000000000602082015250565b5f615146602f83614629565b9150615151826150ec565b604082019050919050565b5f6020820190508181035f8301526151738161513a565b9050919050565b5f61518482613b2b565b915061518f83613b2b565b92508282019050808211156151a7576151a66147bd565b5b92915050565b7f6269643a205f626964416d6f756e74206d757374206d65657420746865206d695f8201527f6e696d756d206269640000000000000000000000000000000000000000000000602082015250565b5f615207602983614629565b9150615212826151ad565b604082019050919050565b5f6020820190508181035f830152615234816151fb565b9050919050565b7f5468652061756374696f6e20616c6561647920657869737420666f72207468655f8201527f2073706563696669656420746f6b656e00000000000000000000000000000000602082015250565b5f615295603083614629565b91506152a08261523b565b604082019050919050565b5f6020820190508181035f8301526152c281615289565b9050919050565b7f5468652061756374696f6e20646f65736e27742065786973742079657420666f5f8201527f72207468652073706563696669656420746f6b656e0000000000000000000000602082015250565b5f615323603583614629565b915061532e826152c9565b604082019050919050565b5f6020820190508181035f83015261535081615317565b9050919050565b7f7265676973746572416e41756374696f6e546f6b656e3a204f6e6c79204552435f8201527f3131353520616e642045524337323120746f6b656e732061726520737570706f60208201527f7274656400000000000000000000000000000000000000000000000000000000604082015250565b5f6153d7604483614629565b91506153e282615357565b606082019050919050565b5f6020820190508181035f830152615404816153cb565b9050919050565b5f8151905061541981613c5c565b92915050565b5f6020828403121561543457615433613b23565b5b5f6154418482850161540b565b91505092915050565b7f7265676973746572416e41756374696f6e546f6b656e3a2074686520737065635f8201527f6966696564204552432d37323120746f6b656e2063616e6e6f7420626520617560208201527f6374696f6e656400000000000000000000000000000000000000000000000000604082015250565b5f6154ca604783614629565b91506154d58261544a565b606082019050919050565b5f6020820190508181035f8301526154f7816154be565b9050919050565b5f819050919050565b61551861551382613bb1565b6154fe565b82525050565b5f6155298286614b14565b6014820191506155398285614b34565b6020820191506155498284615507565b600482019150819050949350505050565b5f8151905061556881613b34565b92915050565b5f6020828403121561558357615582613b23565b5b5f6155908482850161555a565b91505092915050565b7f7265676973746572416e41756374696f6e546f6b656e3a2020746865207370655f8201527f636966696564204552432d3131353520746f6b656e2063616e6e6f742062652060208201527f61756374696f6e6e656400000000000000000000000000000000000000000000604082015250565b5f615619604a83614629565b915061562482615599565b606082019050919050565b5f6020820190508181035f8301526156468161560d565b9050919050565b7f54686520737065636966696564205f31313535496e6465782068617665206e6f5f8201527f74206265656e20726561636865642079657420666f72207468697320746f6b6560208201527f6e00000000000000000000000000000000000000000000000000000000000000604082015250565b5f6156cd604183614629565b91506156d88261564d565b606082019050919050565b5f6020820190508181035f8301526156fa816156c1565b9050919050565b5f61570c8287614b14565b60148201915061571c8286614b34565b60208201915061572c8285615507565b60048201915061573c8284614b34565b60208201915081905095945050505050565b5f6040820190506157615f830185613c34565b61576e6020830184613bdc565b939250505056fea2646970667358221220515eca2e297d259b22548a6563873143e5245ed89235939c8738960a3ddde33064736f6c63430008140033",
  "linkReferences": {},
  "deployedLinkReferences": {},
  "immutableReferences": {},
  "inputSourceName": "project/contracts/gbm/facets/GBMFacet.sol",
  "buildInfoId": "solc-0_8_20-b85f9cfe4cab07e9559623a9ebaedd8f56f2ba7b"
}