{
  "_format": "hh3-artifact-1",
  "contractName": "GBMFacet",
  "sourceName": "contracts/gbm/facets/GBMFacet.sol",
  "abi": [
    {
      "anonymous": false,
      "inputs": [
        {
          "indexed": true,
          "internalType": "uint256",
          "name": "_auctionID",
          "type": "uint256"
        },
        {
          "indexed": true,
          "internalType": "address",
          "name": "_bidder",
          "type": "address"
        },
        {
          "indexed": false,
          "internalType": "uint256",
          "name": "_bidAmount",
          "type": "uint256"
        }
      ],
      "name": "Auction_BidPlaced",
      "type": "event"
    },
    {
      "anonymous": false,
      "inputs": [
        {
          "indexed": true,
          "internalType": "uint256",
          "name": "_auctionID",
          "type": "uint256"
        },
        {
          "indexed": true,
          "internalType": "address",
          "name": "_bidder",
          "type": "address"
        },
        {
          "indexed": false,
          "internalType": "uint256",
          "name": "_bidAmount",
          "type": "uint256"
        }
      ],
      "name": "Auction_BidRemoved",
      "type": "event"
    },
    {
      "anonymous": false,
      "inputs": [
        {
          "indexed": true,
          "internalType": "uint256",
          "name": "_auctionID",
          "type": "uint256"
        },
        {
          "indexed": false,
          "internalType": "uint256",
          "name": "_endTime",
          "type": "uint256"
        }
      ],
      "name": "Auction_EndTimeUpdated",
      "type": "event"
    },
    {
      "anonymous": false,
      "inputs": [
        {
          "indexed": true,
          "internalType": "uint256",
          "name": "_auctionID",
          "type": "uint256"
        },
        {
          "indexed": true,
          "internalType": "address",
          "name": "_earner",
          "type": "address"
        },
        {
          "indexed": false,
          "internalType": "uint256",
          "name": "_incentiveAmount",
          "type": "uint256"
        }
      ],
      "name": "Auction_IncentivePaid",
      "type": "event"
    },
    {
      "anonymous": false,
      "inputs": [
        {
          "indexed": true,
          "internalType": "uint256",
          "name": "_auctionID",
          "type": "uint256"
        },
        {
          "indexed": true,
          "internalType": "uint256",
          "name": "_tokenID",
          "type": "uint256"
        },
        {
          "indexed": true,
          "internalType": "uint256",
          "name": "_tokenIndex",
          "type": "uint256"
        },
        {
          "indexed": false,
          "internalType": "address",
          "name": "_contractAddress",
          "type": "address"
        },
        {
          "indexed": false,
          "internalType": "bytes4",
          "name": "_tokenKind",
          "type": "bytes4"
        }
      ],
      "name": "Auction_Initialized",
      "type": "event"
    },
    {
      "anonymous": false,
      "inputs": [
        {
          "indexed": true,
          "internalType": "uint256",
          "name": "_auctionID",
          "type": "uint256"
        }
      ],
      "name": "Auction_ItemClaimed",
      "type": "event"
    },
    {
      "anonymous": false,
      "inputs": [
        {
          "indexed": true,
          "internalType": "uint256",
          "name": "_auctionID",
          "type": "uint256"
        },
        {
          "indexed": false,
          "internalType": "uint256",
          "name": "_startTime",
          "type": "uint256"
        }
      ],
      "name": "Auction_StartTimeUpdated",
      "type": "event"
    },
    {
      "anonymous": false,
      "inputs": [
        {
          "indexed": true,
          "internalType": "address",
          "name": "_contract",
          "type": "address"
        },
        {
          "indexed": false,
          "internalType": "bool",
          "name": "_biddingAllowed",
          "type": "bool"
        }
      ],
      "name": "Contract_BiddingAllowed",
      "type": "event"
    },
    {
      "inputs": [
        {
          "internalType": "uint256[]",
          "name": "_auctionIds",
          "type": "uint256[]"
        }
      ],
      "name": "batchClaim",
      "outputs": [],
      "stateMutability": "nonpayable",
      "type": "function"
    },
    {
      "inputs": [
        {
          "internalType": "uint256",
          "name": "_auctionId",
          "type": "uint256"
        }
      ],
      "name": "claim",
      "outputs": [],
      "stateMutability": "nonpayable",
      "type": "function"
    },
    {
      "inputs": [
        {
          "internalType": "uint256",
          "name": "_auctionId",
          "type": "uint256"
        },
        {
          "internalType": "uint256",
          "name": "_bidAmount",
          "type": "uint256"
        },
        {
          "internalType": "uint256",
          "name": "_highestBid",
          "type": "uint256"
        },
        {
          "internalType": "uint256",
          "name": "_deadline",
          "type": "uint256"
        },
        {
          "internalType": "bytes",
          "name": "_signature",
          "type": "bytes"
        }
      ],
      "name": "commitBid",
      "outputs": [],
      "stateMutability": "nonpayable",
      "type": "function"
    },
    {
      "inputs": [],
      "name": "erc20Currency",
      "outputs": [
        {
          "internalType": "address",
          "name": "",
          "type": "address"
        }
      ],
      "stateMutability": "view",
      "type": "function"
    },
    {
      "inputs": [
        {
          "internalType": "uint256",
          "name": "_auctionId",
          "type": "uint256"
        }
      ],
      "name": "getAuctionBidDecimals",
      "outputs": [
        {
          "internalType": "uint256",
          "name": "",
          "type": "uint256"
        }
      ],
      "stateMutability": "view",
      "type": "function"
    },
    {
      "inputs": [
        {
          "internalType": "uint256",
          "name": "_auctionId",
          "type": "uint256"
        }
      ],
      "name": "getAuctionBidMultiplier",
      "outputs": [
        {
          "internalType": "uint256",
          "name": "",
          "type": "uint256"
        }
      ],
      "stateMutability": "view",
      "type": "function"
    },
    {
      "inputs": [
        {
          "internalType": "uint256",
          "name": "_auctionId",
          "type": "uint256"
        }
      ],
      "name": "getAuctionDebt",
      "outputs": [
        {
          "internalType": "uint256",
          "name": "",
          "type": "uint256"
        }
      ],
      "stateMutability": "view",
      "type": "function"
    },
    {
      "inputs": [
        {
          "internalType": "uint256",
          "name": "_auctionId",
          "type": "uint256"
        }
      ],
      "name": "getAuctionDueIncentives",
      "outputs": [
        {
          "internalType": "uint256",
          "name": "",
          "type": "uint256"
        }
      ],
      "stateMutability": "view",
      "type": "function"
    },
    {
      "inputs": [
        {
          "internalType": "uint256",
          "name": "_auctionId",
          "type": "uint256"
        }
      ],
      "name": "getAuctionEndTime",
      "outputs": [
        {
          "internalType": "uint256",
          "name": "",
          "type": "uint256"
        }
      ],
      "stateMutability": "view",
      "type": "function"
    },
    {
      "inputs": [
        {
          "internalType": "uint256",
          "name": "_auctionId",
          "type": "uint256"
        }
      ],
      "name": "getAuctionHammerTimeDuration",
      "outputs": [
        {
          "internalType": "uint256",
          "name": "",
          "type": "uint256"
        }
      ],
      "stateMutability": "view",
      "type": "function"
    },
    {
      "inputs": [
        {
          "internalType": "uint256",
          "name": "_auctionId",
          "type": "uint256"
        }
      ],
      "name": "getAuctionHighestBid",
      "outputs": [
        {
          "internalType": "uint256",
          "name": "",
          "type": "uint256"
        }
      ],
      "stateMutability": "view",
      "type": "function"
    },
    {
      "inputs": [
        {
          "internalType": "uint256",
          "name": "_auctionId",
          "type": "uint256"
        }
      ],
      "name": "getAuctionHighestBidder",
      "outputs": [
        {
          "internalType": "address",
          "name": "",
          "type": "address"
        }
      ],
      "stateMutability": "view",
      "type": "function"
    },
    {
      "inputs": [
        {
          "internalType": "address",
          "name": "_contract",
          "type": "address"
        },
        {
          "internalType": "uint256",
          "name": "_tokenID",
          "type": "uint256"
        }
      ],
      "name": "getAuctionID",
      "outputs": [
        {
          "internalType": "uint256",
          "name": "",
          "type": "uint256"
        }
      ],
      "stateMutability": "view",
      "type": "function"
    },
    {
      "inputs": [
        {
          "internalType": "address",
          "name": "_contract",
          "type": "address"
        },
        {
          "internalType": "uint256",
          "name": "_tokenID",
          "type": "uint256"
        },
        {
          "internalType": "uint256",
          "name": "_tokenIndex",
          "type": "uint256"
        }
      ],
      "name": "getAuctionID",
      "outputs": [
        {
          "internalType": "uint256",
          "name": "",
          "type": "uint256"
        }
      ],
      "stateMutability": "view",
      "type": "function"
    },
    {
      "inputs": [
        {
          "internalType": "uint256",
          "name": "_auctionId",
          "type": "uint256"
        }
      ],
      "name": "getAuctionIncMax",
      "outputs": [
        {
          "internalType": "uint256",
          "name": "",
          "type": "uint256"
        }
      ],
      "stateMutability": "view",
      "type": "function"
    },
    {
      "inputs": [
        {
          "internalType": "uint256",
          "name": "_auctionId",
          "type": "uint256"
        }
      ],
      "name": "getAuctionIncMin",
      "outputs": [
        {
          "internalType": "uint256",
          "name": "",
          "type": "uint256"
        }
      ],
      "stateMutability": "view",
      "type": "function"
    },
    {
      "inputs": [
        {
          "internalType": "uint256",
          "name": "_auctionId",
          "type": "uint256"
        }
      ],
      "name": "getAuctionInfo",
      "outputs": [
        {
          "components": [
            {
              "internalType": "address",
              "name": "owner",
              "type": "address"
            },
            {
              "internalType": "address",
              "name": "highestBidder",
              "type": "address"
            },
            {
              "internalType": "uint256",
              "name": "highestBid",
              "type": "uint256"
            },
            {
              "internalType": "uint256",
              "name": "auctionDebt",
              "type": "uint256"
            },
            {
              "internalType": "uint256",
              "name": "dueIncentives",
              "type": "uint256"
            },
            {
              "internalType": "address",
              "name": "contractAddress",
              "type": "address"
            },
            {
              "internalType": "uint256",
              "name": "startTime",
              "type": "uint256"
            },
            {
              "internalType": "uint256",
              "name": "endTime",
              "type": "uint256"
            },
            {
              "internalType": "uint256",
              "name": "hammerTimeDuration",
              "type": "uint256"
            },
            {
              "internalType": "uint256",
              "name": "bidDecimals",
              "type": "uint256"
            },
            {
              "internalType": "uint256",
              "name": "stepMin",
              "type": "uint256"
            },
            {
              "internalType": "uint256",
              "name": "incMin",
              "type": "uint256"
            },
            {
              "internalType": "uint256",
              "name": "incMax",
              "type": "uint256"
            },
            {
              "internalType": "uint256",
              "name": "bidMultiplier",
              "type": "uint256"
            },
            {
              "internalType": "bool",
              "name": "biddingAllowed",
              "type": "bool"
            }
          ],
          "internalType": "struct Auction",
          "name": "auctionInfo_",
          "type": "tuple"
        }
      ],
      "stateMutability": "view",
      "type": "function"
    },
    {
      "inputs": [
        {
          "internalType": "uint256",
          "name": "_auctionId",
          "type": "uint256"
        }
      ],
      "name": "getAuctionStartTime",
      "outputs": [
        {
          "internalType": "uint256",
          "name": "",
          "type": "uint256"
        }
      ],
      "stateMutability": "view",
      "type": "function"
    },
    {
      "inputs": [
        {
          "internalType": "uint256",
          "name": "_auctionId",
          "type": "uint256"
        }
      ],
      "name": "getAuctionStepMin",
      "outputs": [
        {
          "internalType": "uint256",
          "name": "",
          "type": "uint256"
        }
      ],
      "stateMutability": "view",
      "type": "function"
    },
    {
      "inputs": [
        {
          "internalType": "uint256",
          "name": "_auctionId",
          "type": "uint256"
        }
      ],
      "name": "getContractAddress",
      "outputs": [
        {
          "internalType": "address",
          "name": "",
          "type": "address"
        }
      ],
      "stateMutability": "view",
      "type": "function"
    },
    {
      "inputs": [
        {
          "internalType": "uint256",
          "name": "_auctionId",
          "type": "uint256"
        }
      ],
      "name": "getTokenId",
      "outputs": [
        {
          "internalType": "uint256",
          "name": "",
          "type": "uint256"
        }
      ],
      "stateMutability": "view",
      "type": "function"
    },
    {
      "inputs": [
        {
          "internalType": "uint256",
          "name": "_auctionId",
          "type": "uint256"
        }
      ],
      "name": "getTokenKind",
      "outputs": [
        {
          "internalType": "bytes4",
          "name": "",
          "type": "bytes4"
        }
      ],
      "stateMutability": "view",
      "type": "function"
    },
    {
      "inputs": [
        {
          "internalType": "address",
          "name": "",
          "type": "address"
        },
        {
          "internalType": "address",
          "name": "",
          "type": "address"
        },
        {
          "internalType": "uint256[]",
          "name": "",
          "type": "uint256[]"
        },
        {
          "internalType": "uint256[]",
          "name": "",
          "type": "uint256[]"
        },
        {
          "internalType": "bytes",
          "name": "",
          "type": "bytes"
        }
      ],
      "name": "onERC1155BatchReceived",
      "outputs": [
        {
          "internalType": "bytes4",
          "name": "",
          "type": "bytes4"
        }
      ],
      "stateMutability": "pure",
      "type": "function"
    },
    {
      "inputs": [
        {
          "internalType": "address",
          "name": "",
          "type": "address"
        },
        {
          "internalType": "address",
          "name": "",
          "type": "address"
        },
        {
          "internalType": "uint256",
          "name": "",
          "type": "uint256"
        },
        {
          "internalType": "uint256",
          "name": "",
          "type": "uint256"
        },
        {
          "internalType": "bytes",
          "name": "",
          "type": "bytes"
        }
      ],
      "name": "onERC1155Received",
      "outputs": [
        {
          "internalType": "bytes4",
          "name": "",
          "type": "bytes4"
        }
      ],
      "stateMutability": "pure",
      "type": "function"
    },
    {
      "inputs": [
        {
          "internalType": "address",
          "name": "",
          "type": "address"
        },
        {
          "internalType": "address",
          "name": "",
          "type": "address"
        },
        {
          "internalType": "uint256",
          "name": "",
          "type": "uint256"
        },
        {
          "internalType": "bytes",
          "name": "",
          "type": "bytes"
        }
      ],
      "name": "onERC721Received",
      "outputs": [
        {
          "internalType": "bytes4",
          "name": "",
          "type": "bytes4"
        }
      ],
      "stateMutability": "pure",
      "type": "function"
    },
    {
      "inputs": [
        {
          "internalType": "address",
          "name": "_contract",
          "type": "address"
        }
      ],
      "name": "registerAnAuctionContract",
      "outputs": [],
      "stateMutability": "nonpayable",
      "type": "function"
    },
    {
      "inputs": [
        {
          "internalType": "address",
          "name": "_tokenContract",
          "type": "address"
        },
        {
          "internalType": "uint256",
          "name": "_tokenId",
          "type": "uint256"
        },
        {
          "internalType": "bytes4",
          "name": "_tokenKind",
          "type": "bytes4"
        },
        {
          "internalType": "bool",
          "name": "_useInitiator",
          "type": "bool"
        }
      ],
      "name": "registerAnAuctionToken",
      "outputs": [],
      "stateMutability": "nonpayable",
      "type": "function"
    },
    {
      "inputs": [
        {
          "internalType": "address",
          "name": "_GBM",
          "type": "address"
        },
        {
          "internalType": "bool",
          "name": "_useInitiator",
          "type": "bool"
        },
        {
          "internalType": "address",
          "name": "_ERC1155Contract",
          "type": "address"
        },
        {
          "internalType": "uint256",
          "name": "_tokenID",
          "type": "uint256"
        },
        {
          "internalType": "uint256",
          "name": "_indexStart",
          "type": "uint256"
        },
        {
          "internalType": "uint256",
          "name": "_indexEnd",
          "type": "uint256"
        }
      ],
      "name": "registerMassERC1155Each",
      "outputs": [],
      "stateMutability": "nonpayable",
      "type": "function"
    },
    {
      "inputs": [
        {
          "internalType": "address",
          "name": "_GBM",
          "type": "address"
        },
        {
          "internalType": "bool",
          "name": "_useInitiator",
          "type": "bool"
        },
        {
          "internalType": "address",
          "name": "_ERC721Contract",
          "type": "address"
        },
        {
          "internalType": "uint256[]",
          "name": "_tokenIds",
          "type": "uint256[]"
        }
      ],
      "name": "registerMassERC721Each",
      "outputs": [],
      "stateMutability": "nonpayable",
      "type": "function"
    },
    {
      "inputs": [
        {
          "internalType": "address",
          "name": "_contract",
          "type": "address"
        },
        {
          "internalType": "bool",
          "name": "_value",
          "type": "bool"
        }
      ],
      "name": "setBiddingAllowed",
      "outputs": [],
      "stateMutability": "nonpayable",
      "type": "function"
    },
    {
      "inputs": [
        {
          "internalType": "address",
          "name": "_newAddress",
          "type": "address"
        }
      ],
      "name": "updatePlayerRewardsAddress",
      "outputs": [],
      "stateMutability": "nonpayable",
      "type": "function"
    }
  ],
  "bytecode": "0x608060405234801561000f575f80fd5b50615a5e806200001e5f395ff3fe608060405234801561000f575f80fd5b50600436106101e3575f3560e01c8063ac478f3d1161010d578063dfab114b116100a0578063f23a6e611161006f578063f23a6e6114610645578063f48d6f7014610675578063f5de100014610691578063fc3fc4ed146106c1576101e3565b8063dfab114b14610599578063e07bc69c146105c9578063ef8c55fd146105f9578063ef8ca48414610629576101e3565b8063c26e748c116100dc578063c26e748c146104ed578063ca27e2091461051d578063da081c9414610539578063db14570114610569576101e3565b8063ac478f3d14610455578063aefa7d9814610471578063bc197c81146104a1578063bc292782146104d1576101e3565b8063470e9f8d116101855780636b9a894e116101545780636b9a894e146103a957806373e72e9c146103d9578063919e84f5146103f5578063930e79f114610425576101e3565b8063470e9f8d1461031157806350d265d4146103415780635b3648731461035d57806364efa1fd14610379576101e3565b806314ff5ea3116101c157806314ff5ea314610265578063150b7a0214610295578063379607f5146102c55780633f21cf81146102e1576101e3565b806303ea66a4146101e75780630facebea1461021757806312004c7f14610247575b5f80fd5b61020160048036038101906101fc9190613cb5565b6106f1565b60405161020e9190613cef565b60405180910390f35b610231600480360381019061022c9190613cb5565b610710565b60405161023e9190613d42565b60405180910390f35b61024f61073b565b60405161025c9190613d9a565b60405180910390f35b61027f600480360381019061027a9190613cb5565b610765565b60405161028c9190613cef565b60405180910390f35b6102af60048036038101906102aa9190613e3e565b610784565b6040516102bc9190613d42565b60405180910390f35b6102df60048036038101906102da9190613cb5565b6107b1565b005b6102fb60048036038101906102f69190613cb5565b6111c2565b6040516103089190613cef565b60405180910390f35b61032b60048036038101906103269190613cb5565b61127d565b6040516103389190613cef565b60405180910390f35b61035b60048036038101906103569190613ef7565b611338565b005b6103776004803603810190610372919061406d565b6113eb565b005b610393600480360381019061038e9190614100565b611547565b6040516103a09190613cef565b60405180910390f35b6103c360048036038101906103be9190613cb5565b6115ae565b6040516103d09190613cef565b60405180910390f35b6103f360048036038101906103ee919061413e565b6115cd565b005b61040f600480360381019061040a9190613cb5565b6116a5565b60405161041c9190613cef565b60405180910390f35b61043f600480360381019061043a9190613cb5565b61175f565b60405161044c9190613cef565b60405180910390f35b61046f600480360381019061046a91906141f1565b61181a565b005b61048b60048036038101906104869190613cb5565b611836565b6040516104989190613d9a565b60405180910390f35b6104bb60048036038101906104b691906142aa565b611873565b6040516104c89190613d42565b60405180910390f35b6104eb60048036038101906104e69190614441565b6118a3565b005b61050760048036038101906105029190613cb5565b6118e8565b6040516105149190613cef565b60405180910390f35b61053760048036038101906105329190614488565b611907565b005b610553600480360381019061054e9190613cb5565b611954565b6040516105609190613cef565b60405180910390f35b610583600480360381019061057e9190613cb5565b611a0f565b6040516105909190613cef565b60405180910390f35b6105b360048036038101906105ae9190613cb5565b611aca565b6040516105c09190613d9a565b60405180910390f35b6105e360048036038101906105de9190613cb5565b611b08565b6040516105f09190613cef565b60405180910390f35b610613600480360381019061060e9190613cb5565b611bc3565b6040516106209190613cef565b60405180910390f35b610643600480360381019061063e91906144b3565b611c7e565b005b61065f600480360381019061065a9190614533565b611da3565b60405161066c9190613d42565b60405180910390f35b61068f600480360381019061068a9190614488565b611dd1565b005b6106ab60048036038101906106a691906145c9565b61204a565b6040516106b89190613cef565b60405180910390f35b6106db60048036038101906106d69190613cb5565b6120b2565b6040516106e89190614779565b60405180910390f35b5f80600e015f8381526020019081526020015f20600401549050919050565b5f80600c015f8381526020019081526020015f206002015f9054906101000a900460e01b9050919050565b5f80600b015f9054906101000a900473ffffffffffffffffffffffffffffffffffffffff16905090565b5f80600c015f8381526020019081526020015f20600101549050919050565b5f7f150b7a023d4804d13e8c85fb27262cb750cf6ba9f9dd3bb30d90f482ceeb4b1f905095945050505050565b5f80600c015f8381526020019081526020015f205f015f9054906101000a900473ffffffffffffffffffffffffffffffffffffffff1690505f80600c015f8481526020019081526020015f206001015490505f6014015f9054906101000a900460ff1615610854576040517f08c379a000000000000000000000000000000000000000000000000000000000815260040161084b906147ed565b60405180910390fd5b5f6010015f8373ffffffffffffffffffffffffffffffffffffffff1673ffffffffffffffffffffffffffffffffffffffff1681526020019081526020015f206008015f9054906101000a900460ff166108e2576040517f08c379a00000000000000000000000000000000000000000000000000000000081526004016108d99061487b565b60405180910390fd5b426108ec8461175f565b1061092c576040517f08c379a0000000000000000000000000000000000000000000000000000000008152600401610923906148e3565b60405180910390fd5b5f15155f600f015f8581526020019081526020015f205f9054906101000a900460ff16151514610991576040517f08c379a000000000000000000000000000000000000000000000000000000000815260040161098890614971565b60405180910390fd5b60015f600f015f8581526020019081526020015f205f6101000a81548160ff0219169083151502179055505f80600e015f8581526020019081526020015f20600301545f600e015f8681526020019081526020015f20600201546109f591906149bc565b90505f600b015f9054906101000a900473ffffffffffffffffffffffffffffffffffffffff1673ffffffffffffffffffffffffffffffffffffffff1663095ea7b330836040518363ffffffff1660e01b8152600401610a559291906149ef565b6020604051808303815f875af1158015610a71573d5f803e3d5ffd5b505050506040513d601f19601f82011682018060405250810190610a959190614a2a565b505f6064600583610aa69190614a55565b610ab09190614ac3565b90505f6064602884610ac29190614a55565b610acc9190614ac3565b90505f6005600285610ade9190614a55565b610ae89190614ac3565b90505f81838587610af991906149bc565b610b0391906149bc565b610b0d91906149bc565b90505f600b015f9054906101000a900473ffffffffffffffffffffffffffffffffffffffff1673ffffffffffffffffffffffffffffffffffffffff166323b872dd3073ffffffffffffffffffffffffffffffffffffffff876040518463ffffffff1660e01b8152600401610b8393929190614af3565b6020604051808303815f875af1158015610b9f573d5f803e3d5ffd5b505050506040513d601f19601f82011682018060405250810190610bc39190614a2a565b505f600b015f9054906101000a900473ffffffffffffffffffffffffffffffffffffffff1673ffffffffffffffffffffffffffffffffffffffff166323b872dd305f80015f9054906101000a900473ffffffffffffffffffffffffffffffffffffffff16866040518463ffffffff1660e01b8152600401610c4693929190614af3565b6020604051808303815f875af1158015610c62573d5f803e3d5ffd5b505050506040513d601f19601f82011682018060405250810190610c869190614a2a565b505f600b015f9054906101000a900473ffffffffffffffffffffffffffffffffffffffff1673ffffffffffffffffffffffffffffffffffffffff166323b872dd305f6001015f9054906101000a900473ffffffffffffffffffffffffffffffffffffffff16856040518463ffffffff1660e01b8152600401610d0a93929190614af3565b6020604051808303815f875af1158015610d26573d5f803e3d5ffd5b505050506040513d601f19601f82011682018060405250810190610d4a9190614a2a565b505f600b015f9054906101000a900473ffffffffffffffffffffffffffffffffffffffff1673ffffffffffffffffffffffffffffffffffffffff166323b872dd305f6002015f9054906101000a900473ffffffffffffffffffffffffffffffffffffffff16846040518463ffffffff1660e01b8152600401610dce93929190614af3565b6020604051808303815f875af1158015610dea573d5f803e3d5ffd5b505050506040513d601f19601f82011682018060405250810190610e0e9190614a2a565b505f80600e015f8a81526020019081526020015f206002015403610e8857610e34612365565b5f600e015f8a81526020019081526020015f206001015f6101000a81548173ffffffffffffffffffffffffffffffffffffffff021916908373ffffffffffffffffffffffffffffffffffffffff1602179055505b7f73ad2146b3d3a286642c794379d750360a2d53a3459a11b3e5d6cc900f55f44a7bffffffffffffffffffffffffffffffffffffffffffffffffffffffff19165f600c015f8a81526020019081526020015f206002015f9054906101000a900460e01b7bffffffffffffffffffffffffffffffffffffffffffffffffffffffff191603610fb3578673ffffffffffffffffffffffffffffffffffffffff166342842e0e305f600e015f8c81526020019081526020015f206001015f9054906101000a900473ffffffffffffffffffffffffffffffffffffffff16896040518463ffffffff1660e01b8152600401610f8193929190614af3565b5f604051808303815f87803b158015610f98575f80fd5b505af1158015610faa573d5f803e3d5ffd5b5050505061118b565b7f973bb64086f173ec8099b7ed3d43da984f4a332e4417a08bc6a286e6402b05867bffffffffffffffffffffffffffffffffffffffffffffffffffffffff19165f600c015f8a81526020019081526020015f206002015f9054906101000a900460e01b7bffffffffffffffffffffffffffffffffffffffffffffffffffffffff19160361118a578673ffffffffffffffffffffffffffffffffffffffff1663f242432a305f600e015f8c81526020019081526020015f206001015f9054906101000a900473ffffffffffffffffffffffffffffffffffffffff168960016040518563ffffffff1660e01b81526004016110af9493929190614b9d565b5f604051808303815f87803b1580156110c6575f80fd5b505af11580156110d8573d5f803e3d5ffd5b5050505060015f6012015f8973ffffffffffffffffffffffffffffffffffffffff1673ffffffffffffffffffffffffffffffffffffffff1681526020019081526020015f205f8881526020019081526020015f205461113791906149bc565b5f6012015f8973ffffffffffffffffffffffffffffffffffffffff1673ffffffffffffffffffffffffffffffffffffffff1681526020019081526020015f205f8881526020019081526020015f20819055505b5b877f36c817b01bdbc20b542bcc10ca808780e14aa4c1043a66966a7692de51df511360405160405180910390a25050505050505050565b5f805f600e015f8481526020019081526020015f2060090154146111fe575f600e015f8381526020019081526020015f20600901549050611278565b5f6010015f80600c015f8581526020019081526020015f205f015f9054906101000a900473ffffffffffffffffffffffffffffffffffffffff1673ffffffffffffffffffffffffffffffffffffffff1673ffffffffffffffffffffffffffffffffffffffff1681526020019081526020015f206003015490505b919050565b5f805f600e015f8481526020019081526020015f2060080154146112b9575f600e015f8381526020019081526020015f20600801549050611333565b5f6010015f80600c015f8581526020019081526020015f205f015f9054906101000a900473ffffffffffffffffffffffffffffffffffffffff1673ffffffffffffffffffffffffffffffffffffffff1673ffffffffffffffffffffffffffffffffffffffff1681526020019081526020015f206002015490505b919050565b611340612396565b805f6010015f8473ffffffffffffffffffffffffffffffffffffffff1673ffffffffffffffffffffffffffffffffffffffff1681526020019081526020015f206008015f6101000a81548160ff0219169083151502179055508173ffffffffffffffffffffffffffffffffffffffff167f0b4ea68d808f372a5097f85b16d5e69e050d94a33668fd980f8876593bb8e571826040516113df9190614c02565b60405180910390a25050565b8142111561142e576040517f08c379a000000000000000000000000000000000000000000000000000000000815260040161142590614c65565b60405180910390fd5b5f3386868686604051602001611448959493929190614ce8565b6040516020818303038152906040528051906020012090506114f581835f601301805461147490614d73565b80601f01602080910402602001604051908101604052809291908181526020018280546114a090614d73565b80156114eb5780601f106114c2576101008083540402835291602001916114eb565b820191905f5260205f20905b8154815290600101906020018083116114ce57829003601f168201915b5050505050612430565b611534576040517f08c379a000000000000000000000000000000000000000000000000000000000815260040161152b90614ded565b60405180910390fd5b61153f868686612538565b505050505050565b5f80600d015f8473ffffffffffffffffffffffffffffffffffffffff1673ffffffffffffffffffffffffffffffffffffffff1681526020019081526020015f205f8381526020019081526020015f205f8081526020019081526020015f2054905092915050565b5f80600e015f8381526020019081526020015f20600301549050919050565b6115d5612396565b6115de84611dd1565b8373ffffffffffffffffffffffffffffffffffffffff1663f242432a338886868661160991906149bc565b6040518563ffffffff1660e01b81526004016116289493929190614e0b565b5f604051808303815f87803b15801561163f575f80fd5b505af1158015611651573d5f803e3d5ffd5b505050505b8082101561169d5761168a84847f973bb64086f173ec8099b7ed3d43da984f4a332e4417a08bc6a286e6402b05868861181a565b818061169590614e61565b925050611656565b505050505050565b5f805f600e015f8481526020019081526020015f2060060154146116e1575f600e015f8381526020019081526020015f2060060154905061175a565b5f6010015f80600c015f8581526020019081526020015f205f015f9054906101000a900473ffffffffffffffffffffffffffffffffffffffff1673ffffffffffffffffffffffffffffffffffffffff1673ffffffffffffffffffffffffffffffffffffffff1681526020019081526020015f205f015490505b919050565b5f805f600e015f8481526020019081526020015f20600701541461179b575f600e015f8381526020019081526020015f20600701549050611815565b5f6010015f80600c015f8581526020019081526020015f205f015f9054906101000a900473ffffffffffffffffffffffffffffffffffffffff1673ffffffffffffffffffffffffffffffffffffffff1673ffffffffffffffffffffffffffffffffffffffff1681526020019081526020015f206001015490505b919050565b611822612396565b611830848484845f80612dd4565b50505050565b5f80600c015f8381526020019081526020015f205f015f9054906101000a900473ffffffffffffffffffffffffffffffffffffffff169050919050565b5f7fbc197c819b3e337a6f9652dd10becd7eef83032af3b9d958d3d42f6694146621905098975050505050505050565b5f5b81518110156118e4576118d18282815181106118c4576118c3614ea8565b5b60200260200101516107b1565b80806118dc90614e61565b9150506118a5565b5050565b5f80600e015f8381526020019081526020015f20600201549050919050565b61190f612396565b805f6001015f6101000a81548173ffffffffffffffffffffffffffffffffffffffff021916908373ffffffffffffffffffffffffffffffffffffffff16021790555050565b5f805f600e015f8481526020019081526020015f20600d015414611990575f600e015f8381526020019081526020015f20600d01549050611a0a565b5f6010015f80600c015f8581526020019081526020015f205f015f9054906101000a900473ffffffffffffffffffffffffffffffffffffffff1673ffffffffffffffffffffffffffffffffffffffff1673ffffffffffffffffffffffffffffffffffffffff1681526020019081526020015f206007015490505b919050565b5f805f600e015f8481526020019081526020015f20600c015414611a4b575f600e015f8381526020019081526020015f20600c01549050611ac5565b5f6010015f80600c015f8581526020019081526020015f205f015f9054906101000a900473ffffffffffffffffffffffffffffffffffffffff1673ffffffffffffffffffffffffffffffffffffffff1673ffffffffffffffffffffffffffffffffffffffff1681526020019081526020015f206006015490505b919050565b5f80600e015f8381526020019081526020015f206001015f9054906101000a900473ffffffffffffffffffffffffffffffffffffffff169050919050565b5f805f600e015f8481526020019081526020015f20600a015414611b44575f600e015f8381526020019081526020015f20600a01549050611bbe565b5f6010015f80600c015f8581526020019081526020015f205f015f9054906101000a900473ffffffffffffffffffffffffffffffffffffffff1673ffffffffffffffffffffffffffffffffffffffff1673ffffffffffffffffffffffffffffffffffffffff1681526020019081526020015f206004015490505b919050565b5f805f600e015f8481526020019081526020015f20600b015414611bff575f600e015f8381526020019081526020015f20600b01549050611c79565b5f6010015f80600c015f8581526020019081526020015f205f015f9054906101000a900473ffffffffffffffffffffffffffffffffffffffff1673ffffffffffffffffffffffffffffffffffffffff1673ffffffffffffffffffffffffffffffffffffffff1681526020019081526020015f206005015490505b919050565b611c86612396565b5f815111611cc9576040517f08c379a0000000000000000000000000000000000000000000000000000000008152600401611cc090614f1f565b60405180910390fd5b5f5b8151811015611d9c575f828281518110611ce857611ce7614ea8565b5b602002602001015190508373ffffffffffffffffffffffffffffffffffffffff1663b88d4fde3388846040518463ffffffff1660e01b8152600401611d2f93929190614f3d565b5f604051808303815f87803b158015611d46575f80fd5b505af1158015611d58573d5f803e3d5ffd5b50505050611d8884827f73ad2146b3d3a286642c794379d750360a2d53a3459a11b3e5d6cc900f55f44a8861181a565b508080611d9490614e61565b915050611ccb565b5050505050565b5f7ff23a6e612e1ff4830e658fe43f4e3cb4a5f8170bd5d9e69fb5d7a7fa9e4fdf9790509695505050505050565b611dd9612396565b5f6003015f01545f6010015f8373ffffffffffffffffffffffffffffffffffffffff1673ffffffffffffffffffffffffffffffffffffffff1681526020019081526020015f205f01819055505f600301600101545f6010015f8373ffffffffffffffffffffffffffffffffffffffff1673ffffffffffffffffffffffffffffffffffffffff1681526020019081526020015f20600101819055505f600301600201545f6010015f8373ffffffffffffffffffffffffffffffffffffffff1673ffffffffffffffffffffffffffffffffffffffff1681526020019081526020015f20600201819055505f600301600301545f6010015f8373ffffffffffffffffffffffffffffffffffffffff1673ffffffffffffffffffffffffffffffffffffffff1681526020019081526020015f20600301819055505f600301600401545f6010015f8373ffffffffffffffffffffffffffffffffffffffff1673ffffffffffffffffffffffffffffffffffffffff1681526020019081526020015f20600401819055505f600301600501545f6010015f8373ffffffffffffffffffffffffffffffffffffffff1673ffffffffffffffffffffffffffffffffffffffff1681526020019081526020015f20600501819055505f600301600601545f6010015f8373ffffffffffffffffffffffffffffffffffffffff1673ffffffffffffffffffffffffffffffffffffffff1681526020019081526020015f20600601819055505f600301600701545f6010015f8373ffffffffffffffffffffffffffffffffffffffff1673ffffffffffffffffffffffffffffffffffffffff1681526020019081526020015f206007018190555050565b5f80600d015f8573ffffffffffffffffffffffffffffffffffffffff1673ffffffffffffffffffffffffffffffffffffffff1681526020019081526020015f205f8481526020019081526020015f205f8381526020019081526020015f205490509392505050565b6120ba613b73565b5f600e015f8381526020019081526020015f20604051806101e00160405290815f82015f9054906101000a900473ffffffffffffffffffffffffffffffffffffffff1673ffffffffffffffffffffffffffffffffffffffff1673ffffffffffffffffffffffffffffffffffffffff168152602001600182015f9054906101000a900473ffffffffffffffffffffffffffffffffffffffff1673ffffffffffffffffffffffffffffffffffffffff1673ffffffffffffffffffffffffffffffffffffffff168152602001600282015481526020016003820154815260200160048201548152602001600582015f9054906101000a900473ffffffffffffffffffffffffffffffffffffffff1673ffffffffffffffffffffffffffffffffffffffff1673ffffffffffffffffffffffffffffffffffffffff16815260200160068201548152602001600782015481526020016008820154815260200160098201548152602001600a8201548152602001600b8201548152602001600c8201548152602001600d8201548152602001600e82015f9054906101000a900460ff16151515158152505090505f600c015f8381526020019081526020015f205f015f9054906101000a900473ffffffffffffffffffffffffffffffffffffffff168160a0019073ffffffffffffffffffffffffffffffffffffffff16908173ffffffffffffffffffffffffffffffffffffffff16815250505f6010015f80600c015f8581526020019081526020015f205f015f9054906101000a900473ffffffffffffffffffffffffffffffffffffffff1673ffffffffffffffffffffffffffffffffffffffff1673ffffffffffffffffffffffffffffffffffffffff1681526020019081526020015f206008015f9054906101000a900460ff16816101c0019015159081151581525050919050565b5f61236e613a39565b6004015f9054906101000a900473ffffffffffffffffffffffffffffffffffffffff16905090565b61239e613a39565b6004015f9054906101000a900473ffffffffffffffffffffffffffffffffffffffff1673ffffffffffffffffffffffffffffffffffffffff163373ffffffffffffffffffffffffffffffffffffffff161461242e576040517f08c379a000000000000000000000000000000000000000000000000000000000815260040161242590614ff5565b60405180910390fd5b565b5f805f806041865114612448575f9350505050612531565b602086015192506040860151915060608601515f1a9050601b8160ff16101561247b57601b81612478919061501f565b90505b601b8160ff16141580156124935750601c8160ff1614155b156124a3575f9350505050612531565b5f6001888386866040515f81526020016040526040516124c6949392919061507a565b6020604051602081039080840390855afa1580156124e6573d5f803e3d5ffd5b50505060206040510351905085805190602001205f1c73ffffffffffffffffffffffffffffffffffffffff168173ffffffffffffffffffffffffffffffffffffffff16149450505050505b9392505050565b5f6014015f9054906101000a900460ff1615612589576040517f08c379a000000000000000000000000000000000000000000000000000000000815260040161258090615107565b60405180910390fd5b5f6010015f80600c015f8681526020019081526020015f205f015f9054906101000a900473ffffffffffffffffffffffffffffffffffffffff1673ffffffffffffffffffffffffffffffffffffffff1673ffffffffffffffffffffffffffffffffffffffff1681526020019081526020015f206008015f9054906101000a900460ff1661264b576040517f08c379a000000000000000000000000000000000000000000000000000000000815260040161264290615195565b60405180910390fd5b6001821161268e576040517f08c379a0000000000000000000000000000000000000000000000000000000008152600401612685906151fd565b60405180910390fd5b5f600e015f8481526020019081526020015f206002015481146126e6576040517f08c379a00000000000000000000000000000000000000000000000000000000081526004016126dd906152b1565b60405180910390fd5b426126f0846116a5565b1115801561270657505f612703846116a5565b14155b612745576040517f08c379a000000000000000000000000000000000000000000000000000000000815260040161273c90615319565b60405180910390fd5b4261274f8461175f565b1015612790576040517f08c379a000000000000000000000000000000000000000000000000000000000815260040161278790615381565b60405180910390fd5b8082116127d2576040517f08c379a00000000000000000000000000000000000000000000000000000000081526004016127c99061540f565b60405180910390fd5b6127db836111c2565b826127e69190614a55565b6127ef84611b08565b6127f8856111c2565b612802919061542d565b8261280d9190614a55565b111561284e576040517f08c379a0000000000000000000000000000000000000000000000000000000008152600401612845906154d0565b60405180910390fd5b6128578361127d565b42612862919061542d565b61286b8461175f565b10156128ee5761287a8361127d565b42612885919061542d565b5f600e015f8581526020019081526020015f2060070181905550827f2e7f50c8a01968bd8edfe9b3ae46a4d0fa3ce89e533d76245c2684ee9882c0cb5f600e015f8681526020019081526020015f20600701546040516128e59190613cef565b60405180910390a25b5f80600e015f8581526020019081526020015f206004015490505f80600e015f8681526020019081526020015f206001015f9054906101000a900473ffffffffffffffffffffffffffffffffffffffff1690505f80600e015f8781526020019081526020015f206002015490505f73ffffffffffffffffffffffffffffffffffffffff168273ffffffffffffffffffffffffffffffffffffffff16146129de578173ffffffffffffffffffffffffffffffffffffffff16867ffff24e92e1cbce6e08fa0c957732709b2be79be2ce26c732bcfae1cc368356e5836040516129d59190613cef565b60405180910390a35b5f8314612a7157825f600e015f8881526020019081526020015f2060030154612a07919061542d565b5f600e015f8881526020019081526020015f20600301819055508173ffffffffffffffffffffffffffffffffffffffff16867fc6330f2f35039b6e7bcfdeb0c2e959d355b88d8c2292ca4a4c42f514cc958be385604051612a689190613cef565b60405180910390a35b612a7b8686613a65565b5f600e015f8881526020019081526020015f2060040181905550335f600e015f8881526020019081526020015f206001015f6101000a81548173ffffffffffffffffffffffffffffffffffffffff021916908373ffffffffffffffffffffffffffffffffffffffff160217905550845f600e015f8881526020019081526020015f20600201819055505f600b015f9054906101000a900473ffffffffffffffffffffffffffffffffffffffff1673ffffffffffffffffffffffffffffffffffffffff166323b872dd3330886040518463ffffffff1660e01b8152600401612b6493929190614af3565b6020604051808303815f875af1158015612b80573d5f803e3d5ffd5b505050506040513d601f19601f82011682018060405250810190612ba49190614a2a565b503373ffffffffffffffffffffffffffffffffffffffff16867f1cd77ec6c10f614681f30c7aa33ebc645b4d597aaf7039f6210e71d0e15c918187604051612bec9190613cef565b60405180910390a3335f600e015f8881526020019081526020015f206001015f6101000a81548173ffffffffffffffffffffffffffffffffffffffff021916908373ffffffffffffffffffffffffffffffffffffffff160217905550845f600e015f8881526020019081526020015f20600201819055505f8382612c70919061542d565b14612dcc575f600b015f9054906101000a900473ffffffffffffffffffffffffffffffffffffffff1673ffffffffffffffffffffffffffffffffffffffff1663095ea7b3308584612cc1919061542d565b6040518363ffffffff1660e01b8152600401612cde9291906149ef565b6020604051808303815f875af1158015612cfa573d5f803e3d5ffd5b505050506040513d601f19601f82011682018060405250810190612d1e9190614a2a565b505f600b015f9054906101000a900473ffffffffffffffffffffffffffffffffffffffff1673ffffffffffffffffffffffffffffffffffffffff166323b872dd30848685612d6c919061542d565b6040518463ffffffff1660e01b8152600401612d8a93929190614af3565b6020604051808303815f875af1158015612da6573d5f803e3d5ffd5b505050506040513d601f19601f82011682018060405250810190612dca9190614a2a565b505b505050505050565b80612ece575f6011015f8773ffffffffffffffffffffffffffffffffffffffff1673ffffffffffffffffffffffffffffffffffffffff1681526020019081526020015f205f8681526020019081526020015f205491505f80600d015f8873ffffffffffffffffffffffffffffffffffffffff1673ffffffffffffffffffffffffffffffffffffffff1681526020019081526020015f205f8781526020019081526020015f205f8481526020019081526020015f205414612ec9576040517f08c379a0000000000000000000000000000000000000000000000000000000008152600401612ec09061555e565b60405180910390fd5b612f6e565b5f80600d015f8873ffffffffffffffffffffffffffffffffffffffff1673ffffffffffffffffffffffffffffffffffffffff1681526020019081526020015f205f8781526020019081526020015f205f8481526020019081526020015f205403612f6d576040517f08c379a0000000000000000000000000000000000000000000000000000000008152600401612f64906155ec565b60405180910390fd5b5b7f73ad2146b3d3a286642c794379d750360a2d53a3459a11b3e5d6cc900f55f44a7bffffffffffffffffffffffffffffffffffffffffffffffffffffffff1916847bffffffffffffffffffffffffffffffffffffffffffffffffffffffff1916148061303757507f973bb64086f173ec8099b7ed3d43da984f4a332e4417a08bc6a286e6402b05867bffffffffffffffffffffffffffffffffffffffffffffffffffffffff1916847bffffffffffffffffffffffffffffffffffffffffffffffffffffffff1916145b613076576040517f08c379a000000000000000000000000000000000000000000000000000000000815260040161306d906156a0565b60405180910390fd5b61307e613c1e565b86815f019073ffffffffffffffffffffffffffffffffffffffff16908173ffffffffffffffffffffffffffffffffffffffff1681525050858160200181815250508481604001907bffffffffffffffffffffffffffffffffffffffffffffffffffffffff191690817bffffffffffffffffffffffffffffffffffffffffffffffffffffffff1916815250505f7f73ad2146b3d3a286642c794379d750360a2d53a3459a11b3e5d6cc900f55f44a7bffffffffffffffffffffffffffffffffffffffffffffffffffffffff1916867bffffffffffffffffffffffffffffffffffffffffffffffffffffffff19160361338c578773ffffffffffffffffffffffffffffffffffffffff16638da5cb5b6040518163ffffffff1660e01b8152600401602060405180830381865afa1580156131b8573d5f803e3d5ffd5b505050506040513d601f19601f820116820180604052508101906131dc91906156d2565b73ffffffffffffffffffffffffffffffffffffffff163373ffffffffffffffffffffffffffffffffffffffff1614806132b757508773ffffffffffffffffffffffffffffffffffffffff16636352211e886040518263ffffffff1660e01b81526004016132499190613cef565b602060405180830381865afa158015613264573d5f803e3d5ffd5b505050506040513d601f19601f8201168201806040525081019061328891906156d2565b73ffffffffffffffffffffffffffffffffffffffff163073ffffffffffffffffffffffffffffffffffffffff16145b6132f6576040517f08c379a00000000000000000000000000000000000000000000000000000000081526004016132ed90615793565b60405180910390fd5b87878760405160200161330b939291906157d1565b604051602081830303815290604052805190602001205f1c9050805f600d015f8a73ffffffffffffffffffffffffffffffffffffffff1673ffffffffffffffffffffffffffffffffffffffff1681526020019081526020015f205f8981526020019081526020015f205f8081526020019081526020015f20819055506137bb565b8773ffffffffffffffffffffffffffffffffffffffff16638da5cb5b6040518163ffffffff1660e01b8152600401602060405180830381865afa1580156133d5573d5f803e3d5ffd5b505050506040513d601f19601f820116820180604052508101906133f991906156d2565b73ffffffffffffffffffffffffffffffffffffffff163373ffffffffffffffffffffffffffffffffffffffff1614806134f757508773ffffffffffffffffffffffffffffffffffffffff1662fdd58e30896040518363ffffffff1660e01b81526004016134679291906149ef565b602060405180830381865afa158015613482573d5f803e3d5ffd5b505050506040513d601f19601f820116820180604052508101906134a69190615821565b5f6012015f8a73ffffffffffffffffffffffffffffffffffffffff1673ffffffffffffffffffffffffffffffffffffffff1681526020019081526020015f205f8981526020019081526020015f2054105b613536576040517f08c379a000000000000000000000000000000000000000000000000000000000815260040161352d906158e2565b60405180910390fd5b5f6011015f8973ffffffffffffffffffffffffffffffffffffffff1673ffffffffffffffffffffffffffffffffffffffff1681526020019081526020015f205f8881526020019081526020015f20548411156135c7576040517f08c379a00000000000000000000000000000000000000000000000000000000081526004016135be90615996565b60405180910390fd5b878787866040516020016135de94939291906159b4565b604051602081830303815290604052805190602001205f1c9050826137585760015f6011015f8a73ffffffffffffffffffffffffffffffffffffffff1673ffffffffffffffffffffffffffffffffffffffff1681526020019081526020015f205f8981526020019081526020015f2054613658919061542d565b5f6011015f8a73ffffffffffffffffffffffffffffffffffffffff1673ffffffffffffffffffffffffffffffffffffffff1681526020019081526020015f205f8981526020019081526020015f208190555060015f6012015f8a73ffffffffffffffffffffffffffffffffffffffff1673ffffffffffffffffffffffffffffffffffffffff1681526020019081526020015f205f8981526020019081526020015f2054613705919061542d565b5f6012015f8a73ffffffffffffffffffffffffffffffffffffffff1673ffffffffffffffffffffffffffffffffffffffff1681526020019081526020015f205f8981526020019081526020015f20819055505b805f600d015f8a73ffffffffffffffffffffffffffffffffffffffff1673ffffffffffffffffffffffffffffffffffffffff1681526020019081526020015f205f8981526020019081526020015f205f8681526020019081526020015f20819055505b815f600c015f8381526020019081526020015f205f820151815f015f6101000a81548173ffffffffffffffffffffffffffffffffffffffff021916908373ffffffffffffffffffffffffffffffffffffffff160217905550602082015181600101556040820151816002015f6101000a81548163ffffffff021916908360e01c021790555090505084156139b357613851612365565b5f600e015f8381526020019081526020015f205f015f6101000a81548173ffffffffffffffffffffffffffffffffffffffff021916908373ffffffffffffffffffffffffffffffffffffffff1602179055505f6003015f01545f600e015f8381526020019081526020015f20600601819055505f600301600101545f600e015f8381526020019081526020015f20600701819055505f600301600201545f600e015f8381526020019081526020015f20600801819055505f600301600301545f600e015f8381526020019081526020015f20600901819055505f600301600401545f600e015f8381526020019081526020015f20600a01819055505f600301600501545f600e015f8381526020019081526020015f20600b01819055505f600301600601545f600e015f8381526020019081526020015f20600c01819055505f600301600701545f600e015f8381526020019081526020015f20600d01819055505b8387827fc641d58f17231edb197007e15eeca939850103e030c936a165de466e56991c1f8b8a6040516139e7929190615a01565b60405180910390a4807f13868ce1b50a84aac263efd89923de989e831c1c1184925e076d0db83d2b1453613a1a836116a5565b604051613a279190613cef565b60405180910390a25050505050505050565b5f807fc8fcad8db84d3cc18b4c41d551ea0ee66dd599cde068d998e57d5e09332c131c90508091505090565b5f80613a70846111c2565b90505f613a7c85611a0f565b90505f82613a8987611b08565b84613a94919061542d565b5f600e015f8981526020019081526020015f2060020154613ab59190614a55565b613abf9190614ac3565b90505f8103613acd57600190505b5f83613ad888611bc3565b613ae29190614a55565b828388613aef91906149bc565b613af88a611954565b87613b039190614a55565b613b0d9190614a55565b613b179190614ac3565b613b21919061542d565b90508284613b2f9190614a55565b811115613b45578284613b429190614a55565b90505b8384613b519190614a55565b8187613b5d9190614a55565b613b679190614ac3565b94505050505092915050565b604051806101e001604052805f73ffffffffffffffffffffffffffffffffffffffff1681526020015f73ffffffffffffffffffffffffffffffffffffffff1681526020015f81526020015f81526020015f81526020015f73ffffffffffffffffffffffffffffffffffffffff1681526020015f81526020015f81526020015f81526020015f81526020015f81526020015f81526020015f81526020015f81526020015f151581525090565b60405180606001604052805f73ffffffffffffffffffffffffffffffffffffffff1681526020015f81526020015f7bffffffffffffffffffffffffffffffffffffffffffffffffffffffff191681525090565b5f604051905090565b5f80fd5b5f80fd5b5f819050919050565b613c9481613c82565b8114613c9e575f80fd5b50565b5f81359050613caf81613c8b565b92915050565b5f60208284031215613cca57613cc9613c7a565b5b5f613cd784828501613ca1565b91505092915050565b613ce981613c82565b82525050565b5f602082019050613d025f830184613ce0565b92915050565b5f7fffffffff0000000000000000000000000000000000000000000000000000000082169050919050565b613d3c81613d08565b82525050565b5f602082019050613d555f830184613d33565b92915050565b5f73ffffffffffffffffffffffffffffffffffffffff82169050919050565b5f613d8482613d5b565b9050919050565b613d9481613d7a565b82525050565b5f602082019050613dad5f830184613d8b565b92915050565b613dbc81613d7a565b8114613dc6575f80fd5b50565b5f81359050613dd781613db3565b92915050565b5f80fd5b5f80fd5b5f80fd5b5f8083601f840112613dfe57613dfd613ddd565b5b8235905067ffffffffffffffff811115613e1b57613e1a613de1565b5b602083019150836001820283011115613e3757613e36613de5565b5b9250929050565b5f805f805f60808688031215613e5757613e56613c7a565b5b5f613e6488828901613dc9565b9550506020613e7588828901613dc9565b9450506040613e8688828901613ca1565b935050606086013567ffffffffffffffff811115613ea757613ea6613c7e565b5b613eb388828901613de9565b92509250509295509295909350565b5f8115159050919050565b613ed681613ec2565b8114613ee0575f80fd5b50565b5f81359050613ef181613ecd565b92915050565b5f8060408385031215613f0d57613f0c613c7a565b5b5f613f1a85828601613dc9565b9250506020613f2b85828601613ee3565b9150509250929050565b5f80fd5b5f601f19601f8301169050919050565b7f4e487b71000000000000000000000000000000000000000000000000000000005f52604160045260245ffd5b613f7f82613f39565b810181811067ffffffffffffffff82111715613f9e57613f9d613f49565b5b80604052505050565b5f613fb0613c71565b9050613fbc8282613f76565b919050565b5f67ffffffffffffffff821115613fdb57613fda613f49565b5b613fe482613f39565b9050602081019050919050565b828183375f83830152505050565b5f61401161400c84613fc1565b613fa7565b90508281526020810184848401111561402d5761402c613f35565b5b614038848285613ff1565b509392505050565b5f82601f83011261405457614053613ddd565b5b8135614064848260208601613fff565b91505092915050565b5f805f805f60a0868803121561408657614085613c7a565b5b5f61409388828901613ca1565b95505060206140a488828901613ca1565b94505060406140b588828901613ca1565b93505060606140c688828901613ca1565b925050608086013567ffffffffffffffff8111156140e7576140e6613c7e565b5b6140f388828901614040565b9150509295509295909350565b5f806040838503121561411657614115613c7a565b5b5f61412385828601613dc9565b925050602061413485828601613ca1565b9150509250929050565b5f805f805f8060c0878903121561415857614157613c7a565b5b5f61416589828a01613dc9565b965050602061417689828a01613ee3565b955050604061418789828a01613dc9565b945050606061419889828a01613ca1565b93505060806141a989828a01613ca1565b92505060a06141ba89828a01613ca1565b9150509295509295509295565b6141d081613d08565b81146141da575f80fd5b50565b5f813590506141eb816141c7565b92915050565b5f805f806080858703121561420957614208613c7a565b5b5f61421687828801613dc9565b945050602061422787828801613ca1565b9350506040614238878288016141dd565b925050606061424987828801613ee3565b91505092959194509250565b5f8083601f84011261426a57614269613ddd565b5b8235905067ffffffffffffffff81111561428757614286613de1565b5b6020830191508360208202830111156142a3576142a2613de5565b5b9250929050565b5f805f805f805f8060a0898b0312156142c6576142c5613c7a565b5b5f6142d38b828c01613dc9565b98505060206142e48b828c01613dc9565b975050604089013567ffffffffffffffff81111561430557614304613c7e565b5b6143118b828c01614255565b9650965050606089013567ffffffffffffffff81111561433457614333613c7e565b5b6143408b828c01614255565b9450945050608089013567ffffffffffffffff81111561436357614362613c7e565b5b61436f8b828c01613de9565b92509250509295985092959890939650565b5f67ffffffffffffffff82111561439b5761439a613f49565b5b602082029050602081019050919050565b5f6143be6143b984614381565b613fa7565b905080838252602082019050602084028301858111156143e1576143e0613de5565b5b835b8181101561440a57806143f68882613ca1565b8452602084019350506020810190506143e3565b5050509392505050565b5f82601f83011261442857614427613ddd565b5b81356144388482602086016143ac565b91505092915050565b5f6020828403121561445657614455613c7a565b5b5f82013567ffffffffffffffff81111561447357614472613c7e565b5b61447f84828501614414565b91505092915050565b5f6020828403121561449d5761449c613c7a565b5b5f6144aa84828501613dc9565b91505092915050565b5f805f80608085870312156144cb576144ca613c7a565b5b5f6144d887828801613dc9565b94505060206144e987828801613ee3565b93505060406144fa87828801613dc9565b925050606085013567ffffffffffffffff81111561451b5761451a613c7e565b5b61452787828801614414565b91505092959194509250565b5f805f805f8060a0878903121561454d5761454c613c7a565b5b5f61455a89828a01613dc9565b965050602061456b89828a01613dc9565b955050604061457c89828a01613ca1565b945050606061458d89828a01613ca1565b935050608087013567ffffffffffffffff8111156145ae576145ad613c7e565b5b6145ba89828a01613de9565b92509250509295509295509295565b5f805f606084860312156145e0576145df613c7a565b5b5f6145ed86828701613dc9565b93505060206145fe86828701613ca1565b925050604061460f86828701613ca1565b9150509250925092565b61462281613d7a565b82525050565b61463181613c82565b82525050565b61464081613ec2565b82525050565b6101e082015f82015161465b5f850182614619565b50602082015161466e6020850182614619565b5060408201516146816040850182614628565b5060608201516146946060850182614628565b5060808201516146a76080850182614628565b5060a08201516146ba60a0850182614619565b5060c08201516146cd60c0850182614628565b5060e08201516146e060e0850182614628565b506101008201516146f5610100850182614628565b5061012082015161470a610120850182614628565b5061014082015161471f610140850182614628565b50610160820151614734610160850182614628565b50610180820151614749610180850182614628565b506101a082015161475e6101a0850182614628565b506101c08201516147736101c0850182614637565b50505050565b5f6101e08201905061478d5f830184614646565b92915050565b5f82825260208201905092915050565b7f636c61696d3a20636f6e747261637420697320706175736564000000000000005f82015250565b5f6147d7601983614793565b91506147e2826147a3565b602082019050919050565b5f6020820190508181035f830152614804816147cb565b9050919050565b7f636c61696d3a20436c61696d696e672069732063757272656e746c79206e6f745f8201527f20616c6c6f776564000000000000000000000000000000000000000000000000602082015250565b5f614865602883614793565b91506148708261480b565b604082019050919050565b5f6020820190508181035f83015261489281614859565b9050919050565b7f636c61696d3a2041756374696f6e20686173206e6f742079657420656e6465645f82015250565b5f6148cd602083614793565b91506148d882614899565b602082019050919050565b5f6020820190508181035f8301526148fa816148c1565b9050919050565b7f636c61696d3a204974656d2068617320616c7265616479206265656e20636c615f8201527f696d656400000000000000000000000000000000000000000000000000000000602082015250565b5f61495b602483614793565b915061496682614901565b604082019050919050565b5f6020820190508181035f8301526149888161494f565b9050919050565b7f4e487b71000000000000000000000000000000000000000000000000000000005f52601160045260245ffd5b5f6149c682613c82565b91506149d183613c82565b92508282039050818111156149e9576149e861498f565b5b92915050565b5f604082019050614a025f830185613d8b565b614a0f6020830184613ce0565b9392505050565b5f81519050614a2481613ecd565b92915050565b5f60208284031215614a3f57614a3e613c7a565b5b5f614a4c84828501614a16565b91505092915050565b5f614a5f82613c82565b9150614a6a83613c82565b9250828202614a7881613c82565b91508282048414831517614a8f57614a8e61498f565b5b5092915050565b7f4e487b71000000000000000000000000000000000000000000000000000000005f52601260045260245ffd5b5f614acd82613c82565b9150614ad883613c82565b925082614ae857614ae7614a96565b5b828204905092915050565b5f606082019050614b065f830186613d8b565b614b136020830185613d8b565b614b206040830184613ce0565b949350505050565b5f819050919050565b5f819050919050565b5f614b54614b4f614b4a84614b28565b614b31565b613c82565b9050919050565b614b6481614b3a565b82525050565b5f82825260208201905092915050565b50565b5f614b885f83614b6a565b9150614b9382614b7a565b5f82019050919050565b5f60a082019050614bb05f830187613d8b565b614bbd6020830186613d8b565b614bca6040830185613ce0565b614bd76060830184614b5b565b8181036080830152614be881614b7d565b905095945050505050565b614bfc81613ec2565b82525050565b5f602082019050614c155f830184614bf3565b92915050565b7f636f6d6d69744269643a205369676e61747572652065787069726564000000005f82015250565b5f614c4f601c83614793565b9150614c5a82614c1b565b602082019050919050565b5f6020820190508181035f830152614c7c81614c43565b9050919050565b5f8160601b9050919050565b5f614c9982614c83565b9050919050565b5f614caa82614c8f565b9050919050565b614cc2614cbd82613d7a565b614ca0565b82525050565b5f819050919050565b614ce2614cdd82613c82565b614cc8565b82525050565b5f614cf38288614cb1565b601482019150614d038287614cd1565b602082019150614d138286614cd1565b602082019150614d238285614cd1565b602082019150614d338284614cd1565b6020820191508190509695505050505050565b7f4e487b71000000000000000000000000000000000000000000000000000000005f52602260045260245ffd5b5f6002820490506001821680614d8a57607f821691505b602082108103614d9d57614d9c614d46565b5b50919050565b7f6269643a20496e76616c6964207369676e6174757265000000000000000000005f82015250565b5f614dd7601683614793565b9150614de282614da3565b602082019050919050565b5f6020820190508181035f830152614e0481614dcb565b9050919050565b5f60a082019050614e1e5f830187613d8b565b614e2b6020830186613d8b565b614e386040830185613ce0565b614e456060830184613ce0565b8181036080830152614e5681614b7d565b905095945050505050565b5f614e6b82613c82565b91507fffffffffffffffffffffffffffffffffffffffffffffffffffffffffffffffff8203614e9d57614e9c61498f565b5b600182019050919050565b7f4e487b71000000000000000000000000000000000000000000000000000000005f52603260045260245ffd5b7f4e6f2061756374696f6e7320746f2063726561746500000000000000000000005f82015250565b5f614f09601583614793565b9150614f1482614ed5565b602082019050919050565b5f6020820190508181035f830152614f3681614efd565b9050919050565b5f608082019050614f505f830186613d8b565b614f5d6020830185613d8b565b614f6a6040830184613ce0565b8181036060830152614f7b81614b7d565b9050949350505050565b7f4c69624469616d6f6e643a204d75737420626520636f6e7472616374206f776e5f8201527f6572000000000000000000000000000000000000000000000000000000000000602082015250565b5f614fdf602283614793565b9150614fea82614f85565b604082019050919050565b5f6020820190508181035f83015261500c81614fd3565b9050919050565b5f60ff82169050919050565b5f61502982615013565b915061503483615013565b9250828201905060ff81111561504d5761504c61498f565b5b92915050565b5f819050919050565b61506581615053565b82525050565b61507481615013565b82525050565b5f60808201905061508d5f83018761505c565b61509a602083018661506b565b6150a7604083018561505c565b6150b4606083018461505c565b95945050505050565b7f6269643a20636f6e7472616374206973207061757365640000000000000000005f82015250565b5f6150f1601783614793565b91506150fc826150bd565b602082019050919050565b5f6020820190508181035f83015261511e816150e5565b9050919050565b7f6269643a2062696464696e672069732063757272656e746c79206e6f7420616c5f8201527f6c6f776564000000000000000000000000000000000000000000000000000000602082015250565b5f61517f602583614793565b915061518a82615125565b604082019050919050565b5f6020820190508181035f8301526151ac81615173565b9050919050565b7f6269643a205f626964416d6f756e742063616e6e6f74206265203000000000005f82015250565b5f6151e7601b83614793565b91506151f2826151b3565b602082019050919050565b5f6020820190508181035f830152615214816151db565b9050919050565b7f6269643a2063757272656e7420686967686573742062696420646f6573206e6f5f8201527f74206d6174636820746865207375626d6974746564207472616e73616374696f60208201527f6e205f6869676865737442696400000000000000000000000000000000000000604082015250565b5f61529b604d83614793565b91506152a68261521b565b606082019050919050565b5f6020820190508181035f8301526152c88161528f565b9050919050565b7f6269643a2041756374696f6e20686173206e6f742073746172746564207965745f82015250565b5f615303602083614793565b915061530e826152cf565b602082019050919050565b5f6020820190508181035f830152615330816152f7565b9050919050565b7f6269643a2041756374696f6e2068617320616c726561647920656e64656400005f82015250565b5f61536b601e83614793565b915061537682615337565b602082019050919050565b5f6020820190508181035f8301526153988161535f565b9050919050565b7f6269643a205f626964416d6f756e74206d7573742062652068696768657220745f8201527f68616e205f686967686573744269640000000000000000000000000000000000602082015250565b5f6153f9602f83614793565b91506154048261539f565b604082019050919050565b5f6020820190508181035f830152615426816153ed565b9050919050565b5f61543782613c82565b915061544283613c82565b925082820190508082111561545a5761545961498f565b5b92915050565b7f6269643a205f626964416d6f756e74206d757374206d65657420746865206d695f8201527f6e696d756d206269640000000000000000000000000000000000000000000000602082015250565b5f6154ba602983614793565b91506154c582615460565b604082019050919050565b5f6020820190508181035f8301526154e7816154ae565b9050919050565b7f5468652061756374696f6e20616c6561647920657869737420666f72207468655f8201527f2073706563696669656420746f6b656e00000000000000000000000000000000602082015250565b5f615548603083614793565b9150615553826154ee565b604082019050919050565b5f6020820190508181035f8301526155758161553c565b9050919050565b7f5468652061756374696f6e20646f65736e27742065786973742079657420666f5f8201527f72207468652073706563696669656420746f6b656e0000000000000000000000602082015250565b5f6155d6603583614793565b91506155e18261557c565b604082019050919050565b5f6020820190508181035f830152615603816155ca565b9050919050565b7f7265676973746572416e41756374696f6e546f6b656e3a204f6e6c79204552435f8201527f3131353520616e642045524337323120746f6b656e732061726520737570706f60208201527f7274656400000000000000000000000000000000000000000000000000000000604082015250565b5f61568a604483614793565b91506156958261560a565b606082019050919050565b5f6020820190508181035f8301526156b78161567e565b9050919050565b5f815190506156cc81613db3565b92915050565b5f602082840312156156e7576156e6613c7a565b5b5f6156f4848285016156be565b91505092915050565b7f7265676973746572416e41756374696f6e546f6b656e3a2074686520737065635f8201527f6966696564204552432d37323120746f6b656e2063616e6e6f7420626520617560208201527f6374696f6e656400000000000000000000000000000000000000000000000000604082015250565b5f61577d604783614793565b9150615788826156fd565b606082019050919050565b5f6020820190508181035f8301526157aa81615771565b9050919050565b5f819050919050565b6157cb6157c682613d08565b6157b1565b82525050565b5f6157dc8286614cb1565b6014820191506157ec8285614cd1565b6020820191506157fc82846157ba565b600482019150819050949350505050565b5f8151905061581b81613c8b565b92915050565b5f6020828403121561583657615835613c7a565b5b5f6158438482850161580d565b91505092915050565b7f7265676973746572416e41756374696f6e546f6b656e3a2020746865207370655f8201527f636966696564204552432d3131353520746f6b656e2063616e6e6f742062652060208201527f61756374696f6e6e656400000000000000000000000000000000000000000000604082015250565b5f6158cc604a83614793565b91506158d78261584c565b606082019050919050565b5f6020820190508181035f8301526158f9816158c0565b9050919050565b7f54686520737065636966696564205f31313535496e6465782068617665206e6f5f8201527f74206265656e20726561636865642079657420666f72207468697320746f6b6560208201527f6e00000000000000000000000000000000000000000000000000000000000000604082015250565b5f615980604183614793565b915061598b82615900565b606082019050919050565b5f6020820190508181035f8301526159ad81615974565b9050919050565b5f6159bf8287614cb1565b6014820191506159cf8286614cd1565b6020820191506159df82856157ba565b6004820191506159ef8284614cd1565b60208201915081905095945050505050565b5f604082019050615a145f830185613d8b565b615a216020830184613d33565b939250505056fea2646970667358221220a49d46c9d428f9d025f55f946c43303705439c29cb6472913def617b90c2c1c864736f6c63430008140033",
  "linkReferences": {},
  "deployedLinkReferences": {},
  "immutableReferences": {},
  "inputSourceName": "project/contracts/gbm/facets/GBMFacet.sol",
  "buildInfoId": "solc-0_8_20-1574317a237f9f866699426b19da269855c2de91"
}