{
  "_format": "hh3-artifact-1",
  "contractName": "OvermindNFT",
  "sourceName": "contracts/OvermindNFT.sol",
  "abi": [
    {
      "inputs": [
        {
          "internalType": "string",
          "name": "name",
          "type": "string"
        },
        {
          "internalType": "string",
          "name": "symbol",
          "type": "string"
        }
      ],
      "stateMutability": "nonpayable",
      "type": "constructor"
    },
    {
      "inputs": [
        {
          "internalType": "address",
          "name": "sender",
          "type": "address"
        },
        {
          "internalType": "uint256",
          "name": "tokenId",
          "type": "uint256"
        },
        {
          "internalType": "address",
          "name": "owner",
          "type": "address"
        }
      ],
      "name": "ERC721IncorrectOwner",
      "type": "error"
    },
    {
      "inputs": [
        {
          "internalType": "address",
          "name": "operator",
          "type": "address"
        },
        {
          "internalType": "uint256",
          "name": "tokenId",
          "type": "uint256"
        }
      ],
      "name": "ERC721InsufficientApproval",
      "type": "error"
    },
    {
      "inputs": [
        {
          "internalType": "address",
          "name": "approver",
          "type": "address"
        }
      ],
      "name": "ERC721InvalidApprover",
      "type": "error"
    },
    {
      "inputs": [
        {
          "internalType": "address",
          "name": "operator",
          "type": "address"
        }
      ],
      "name": "ERC721InvalidOperator",
      "type": "error"
    },
    {
      "inputs": [
        {
          "internalType": "address",
          "name": "owner",
          "type": "address"
        }
      ],
      "name": "ERC721InvalidOwner",
      "type": "error"
    },
    {
      "inputs": [
        {
          "internalType": "address",
          "name": "receiver",
          "type": "address"
        }
      ],
      "name": "ERC721InvalidReceiver",
      "type": "error"
    },
    {
      "inputs": [
        {
          "internalType": "address",
          "name": "sender",
          "type": "address"
        }
      ],
      "name": "ERC721InvalidSender",
      "type": "error"
    },
    {
      "inputs": [
        {
          "internalType": "uint256",
          "name": "tokenId",
          "type": "uint256"
        }
      ],
      "name": "ERC721NonexistentToken",
      "type": "error"
    },
    {
      "inputs": [
        {
          "internalType": "address",
          "name": "owner",
          "type": "address"
        }
      ],
      "name": "OwnableInvalidOwner",
      "type": "error"
    },
    {
      "inputs": [
        {
          "internalType": "address",
          "name": "account",
          "type": "address"
        }
      ],
      "name": "OwnableUnauthorizedAccount",
      "type": "error"
    },
    {
      "anonymous": false,
      "inputs": [
        {
          "indexed": true,
          "internalType": "address",
          "name": "owner",
          "type": "address"
        },
        {
          "indexed": true,
          "internalType": "address",
          "name": "approved",
          "type": "address"
        },
        {
          "indexed": true,
          "internalType": "uint256",
          "name": "tokenId",
          "type": "uint256"
        }
      ],
      "name": "Approval",
      "type": "event"
    },
    {
      "anonymous": false,
      "inputs": [
        {
          "indexed": true,
          "internalType": "address",
          "name": "owner",
          "type": "address"
        },
        {
          "indexed": true,
          "internalType": "address",
          "name": "operator",
          "type": "address"
        },
        {
          "indexed": false,
          "internalType": "bool",
          "name": "approved",
          "type": "bool"
        }
      ],
      "name": "ApprovalForAll",
      "type": "event"
    },
    {
      "anonymous": false,
      "inputs": [
        {
          "indexed": false,
          "internalType": "uint256",
          "name": "_fromTokenId",
          "type": "uint256"
        },
        {
          "indexed": false,
          "internalType": "uint256",
          "name": "_toTokenId",
          "type": "uint256"
        }
      ],
      "name": "BatchMetadataUpdate",
      "type": "event"
    },
    {
      "anonymous": false,
      "inputs": [
        {
          "indexed": true,
          "internalType": "address",
          "name": "creator",
          "type": "address"
        }
      ],
      "name": "CreatorVerified",
      "type": "event"
    },
    {
      "anonymous": false,
      "inputs": [
        {
          "indexed": false,
          "internalType": "uint256",
          "name": "_tokenId",
          "type": "uint256"
        }
      ],
      "name": "MetadataUpdate",
      "type": "event"
    },
    {
      "anonymous": false,
      "inputs": [
        {
          "indexed": true,
          "internalType": "address",
          "name": "previousOwner",
          "type": "address"
        },
        {
          "indexed": true,
          "internalType": "address",
          "name": "newOwner",
          "type": "address"
        }
      ],
      "name": "OwnershipTransferred",
      "type": "event"
    },
    {
      "anonymous": false,
      "inputs": [
        {
          "indexed": true,
          "internalType": "uint256",
          "name": "tokenId",
          "type": "uint256"
        },
        {
          "indexed": true,
          "internalType": "address",
          "name": "creator",
          "type": "address"
        },
        {
          "indexed": true,
          "internalType": "address",
          "name": "to",
          "type": "address"
        },
        {
          "indexed": false,
          "internalType": "string",
          "name": "uri",
          "type": "string"
        }
      ],
      "name": "RelicMinted",
      "type": "event"
    },
    {
      "anonymous": false,
      "inputs": [
        {
          "indexed": true,
          "internalType": "uint256",
          "name": "tokenId",
          "type": "uint256"
        },
        {
          "indexed": false,
          "internalType": "uint256",
          "name": "power",
          "type": "uint256"
        }
      ],
      "name": "RelicPowerSet",
      "type": "event"
    },
    {
      "anonymous": false,
      "inputs": [
        {
          "indexed": true,
          "internalType": "address",
          "name": "from",
          "type": "address"
        },
        {
          "indexed": true,
          "internalType": "address",
          "name": "to",
          "type": "address"
        },
        {
          "indexed": true,
          "internalType": "uint256",
          "name": "tokenId",
          "type": "uint256"
        }
      ],
      "name": "Transfer",
      "type": "event"
    },
    {
      "inputs": [
        {
          "internalType": "address",
          "name": "to",
          "type": "address"
        },
        {
          "internalType": "uint256",
          "name": "tokenId",
          "type": "uint256"
        }
      ],
      "name": "approve",
      "outputs": [],
      "stateMutability": "nonpayable",
      "type": "function"
    },
    {
      "inputs": [
        {
          "internalType": "address",
          "name": "owner",
          "type": "address"
        }
      ],
      "name": "balanceOf",
      "outputs": [
        {
          "internalType": "uint256",
          "name": "",
          "type": "uint256"
        }
      ],
      "stateMutability": "view",
      "type": "function"
    },
    {
      "inputs": [
        {
          "internalType": "uint256",
          "name": "tokenId",
          "type": "uint256"
        }
      ],
      "name": "getApproved",
      "outputs": [
        {
          "internalType": "address",
          "name": "",
          "type": "address"
        }
      ],
      "stateMutability": "view",
      "type": "function"
    },
    {
      "inputs": [
        {
          "internalType": "uint256",
          "name": "tokenId",
          "type": "uint256"
        }
      ],
      "name": "getCreator",
      "outputs": [
        {
          "internalType": "address",
          "name": "",
          "type": "address"
        }
      ],
      "stateMutability": "view",
      "type": "function"
    },
    {
      "inputs": [
        {
          "internalType": "uint256",
          "name": "tokenId",
          "type": "uint256"
        }
      ],
      "name": "getPower",
      "outputs": [
        {
          "internalType": "uint256",
          "name": "",
          "type": "uint256"
        }
      ],
      "stateMutability": "view",
      "type": "function"
    },
    {
      "inputs": [
        {
          "internalType": "address",
          "name": "owner",
          "type": "address"
        },
        {
          "internalType": "address",
          "name": "operator",
          "type": "address"
        }
      ],
      "name": "isApprovedForAll",
      "outputs": [
        {
          "internalType": "bool",
          "name": "",
          "type": "bool"
        }
      ],
      "stateMutability": "view",
      "type": "function"
    },
    {
      "inputs": [
        {
          "internalType": "address",
          "name": "creator",
          "type": "address"
        }
      ],
      "name": "isVerifiedCreator",
      "outputs": [
        {
          "internalType": "bool",
          "name": "",
          "type": "bool"
        }
      ],
      "stateMutability": "view",
      "type": "function"
    },
    {
      "inputs": [
        {
          "internalType": "address",
          "name": "to",
          "type": "address"
        },
        {
          "internalType": "string",
          "name": "uri",
          "type": "string"
        },
        {
          "internalType": "uint256",
          "name": "power",
          "type": "uint256"
        }
      ],
      "name": "mintRelic",
      "outputs": [
        {
          "internalType": "uint256",
          "name": "",
          "type": "uint256"
        }
      ],
      "stateMutability": "nonpayable",
      "type": "function"
    },
    {
      "inputs": [],
      "name": "name",
      "outputs": [
        {
          "internalType": "string",
          "name": "",
          "type": "string"
        }
      ],
      "stateMutability": "view",
      "type": "function"
    },
    {
      "inputs": [],
      "name": "owner",
      "outputs": [
        {
          "internalType": "address",
          "name": "",
          "type": "address"
        }
      ],
      "stateMutability": "view",
      "type": "function"
    },
    {
      "inputs": [
        {
          "internalType": "uint256",
          "name": "tokenId",
          "type": "uint256"
        }
      ],
      "name": "ownerOf",
      "outputs": [
        {
          "internalType": "address",
          "name": "",
          "type": "address"
        }
      ],
      "stateMutability": "view",
      "type": "function"
    },
    {
      "inputs": [
        {
          "internalType": "uint256",
          "name": "",
          "type": "uint256"
        }
      ],
      "name": "relicPower",
      "outputs": [
        {
          "internalType": "uint256",
          "name": "",
          "type": "uint256"
        }
      ],
      "stateMutability": "view",
      "type": "function"
    },
    {
      "inputs": [],
      "name": "renounceOwnership",
      "outputs": [],
      "stateMutability": "nonpayable",
      "type": "function"
    },
    {
      "inputs": [
        {
          "internalType": "address",
          "name": "creator",
          "type": "address"
        }
      ],
      "name": "revokeCreatorVerification",
      "outputs": [],
      "stateMutability": "nonpayable",
      "type": "function"
    },
    {
      "inputs": [
        {
          "internalType": "address",
          "name": "from",
          "type": "address"
        },
        {
          "internalType": "address",
          "name": "to",
          "type": "address"
        },
        {
          "internalType": "uint256",
          "name": "tokenId",
          "type": "uint256"
        }
      ],
      "name": "safeTransferFrom",
      "outputs": [],
      "stateMutability": "nonpayable",
      "type": "function"
    },
    {
      "inputs": [
        {
          "internalType": "address",
          "name": "from",
          "type": "address"
        },
        {
          "internalType": "address",
          "name": "to",
          "type": "address"
        },
        {
          "internalType": "uint256",
          "name": "tokenId",
          "type": "uint256"
        },
        {
          "internalType": "bytes",
          "name": "data",
          "type": "bytes"
        }
      ],
      "name": "safeTransferFrom",
      "outputs": [],
      "stateMutability": "nonpayable",
      "type": "function"
    },
    {
      "inputs": [
        {
          "internalType": "address",
          "name": "operator",
          "type": "address"
        },
        {
          "internalType": "bool",
          "name": "approved",
          "type": "bool"
        }
      ],
      "name": "setApprovalForAll",
      "outputs": [],
      "stateMutability": "nonpayable",
      "type": "function"
    },
    {
      "inputs": [
        {
          "internalType": "bytes4",
          "name": "interfaceId",
          "type": "bytes4"
        }
      ],
      "name": "supportsInterface",
      "outputs": [
        {
          "internalType": "bool",
          "name": "",
          "type": "bool"
        }
      ],
      "stateMutability": "view",
      "type": "function"
    },
    {
      "inputs": [],
      "name": "symbol",
      "outputs": [
        {
          "internalType": "string",
          "name": "",
          "type": "string"
        }
      ],
      "stateMutability": "view",
      "type": "function"
    },
    {
      "inputs": [
        {
          "internalType": "uint256",
          "name": "",
          "type": "uint256"
        }
      ],
      "name": "tokenCreator",
      "outputs": [
        {
          "internalType": "address",
          "name": "",
          "type": "address"
        }
      ],
      "stateMutability": "view",
      "type": "function"
    },
    {
      "inputs": [
        {
          "internalType": "uint256",
          "name": "tokenId",
          "type": "uint256"
        }
      ],
      "name": "tokenURI",
      "outputs": [
        {
          "internalType": "string",
          "name": "",
          "type": "string"
        }
      ],
      "stateMutability": "view",
      "type": "function"
    },
    {
      "inputs": [],
      "name": "totalSupply",
      "outputs": [
        {
          "internalType": "uint256",
          "name": "",
          "type": "uint256"
        }
      ],
      "stateMutability": "view",
      "type": "function"
    },
    {
      "inputs": [
        {
          "internalType": "address",
          "name": "from",
          "type": "address"
        },
        {
          "internalType": "address",
          "name": "to",
          "type": "address"
        },
        {
          "internalType": "uint256",
          "name": "tokenId",
          "type": "uint256"
        }
      ],
      "name": "transferFrom",
      "outputs": [],
      "stateMutability": "nonpayable",
      "type": "function"
    },
    {
      "inputs": [
        {
          "internalType": "address",
          "name": "newOwner",
          "type": "address"
        }
      ],
      "name": "transferOwnership",
      "outputs": [],
      "stateMutability": "nonpayable",
      "type": "function"
    },
    {
      "inputs": [
        {
          "internalType": "address",
          "name": "",
          "type": "address"
        }
      ],
      "name": "verifiedCreators",
      "outputs": [
        {
          "internalType": "bool",
          "name": "",
          "type": "bool"
        }
      ],
      "stateMutability": "view",
      "type": "function"
    },
    {
      "inputs": [
        {
          "internalType": "address",
          "name": "creator",
          "type": "address"
        }
      ],
      "name": "verifyCreator",
      "outputs": [],
      "stateMutability": "nonpayable",
      "type": "function"
    }
  ],
  "bytecode": "0x6080604052600160085534801562000015575f80fd5b50604051620036393803806200363983398181016040528101906200003b91906200038d565b338282815f90816200004e919062000647565b50806001908162000060919062000647565b5050505f73ffffffffffffffffffffffffffffffffffffffff168173ffffffffffffffffffffffffffffffffffffffff1603620000d6575f6040517f1e4fbdf7000000000000000000000000000000000000000000000000000000008152600401620000cd91906200076e565b60405180910390fd5b620000e7816200014560201b60201c565b506001600a5f3373ffffffffffffffffffffffffffffffffffffffff1673ffffffffffffffffffffffffffffffffffffffff1681526020019081526020015f205f6101000a81548160ff021916908315150217905550505062000789565b5f60075f9054906101000a900473ffffffffffffffffffffffffffffffffffffffff1690508160075f6101000a81548173ffffffffffffffffffffffffffffffffffffffff021916908373ffffffffffffffffffffffffffffffffffffffff1602179055508173ffffffffffffffffffffffffffffffffffffffff168173ffffffffffffffffffffffffffffffffffffffff167f8be0079c531659141344cd1fd0a4f28419497f9722a3daafe3b4186f6b6457e060405160405180910390a35050565b5f604051905090565b5f80fd5b5f80fd5b5f80fd5b5f80fd5b5f601f19601f8301169050919050565b7f4e487b71000000000000000000000000000000000000000000000000000000005f52604160045260245ffd5b620002698262000221565b810181811067ffffffffffffffff821117156200028b576200028a62000231565b5b80604052505050565b5f6200029f62000208565b9050620002ad82826200025e565b919050565b5f67ffffffffffffffff821115620002cf57620002ce62000231565b5b620002da8262000221565b9050602081019050919050565b5f5b8381101562000306578082015181840152602081019050620002e9565b5f8484015250505050565b5f620003276200032184620002b2565b62000294565b9050828152602081018484840111156200034657620003456200021d565b5b62000353848285620002e7565b509392505050565b5f82601f83011262000372576200037162000219565b5b81516200038484826020860162000311565b91505092915050565b5f8060408385031215620003a657620003a562000211565b5b5f83015167ffffffffffffffff811115620003c657620003c562000215565b5b620003d4858286016200035b565b925050602083015167ffffffffffffffff811115620003f857620003f762000215565b5b62000406858286016200035b565b9150509250929050565b5f81519050919050565b7f4e487b71000000000000000000000000000000000000000000000000000000005f52602260045260245ffd5b5f60028204905060018216806200045f57607f821691505b6020821081036200047557620004746200041a565b5b50919050565b5f819050815f5260205f209050919050565b5f6020601f8301049050919050565b5f82821b905092915050565b5f60088302620004d97fffffffffffffffffffffffffffffffffffffffffffffffffffffffffffffffff826200049c565b620004e586836200049c565b95508019841693508086168417925050509392505050565b5f819050919050565b5f819050919050565b5f6200052f620005296200052384620004fd565b62000506565b620004fd565b9050919050565b5f819050919050565b6200054a836200050f565b62000562620005598262000536565b848454620004a8565b825550505050565b5f90565b620005786200056a565b620005858184846200053f565b505050565b5b81811015620005ac57620005a05f826200056e565b6001810190506200058b565b5050565b601f821115620005fb57620005c5816200047b565b620005d0846200048d565b81016020851015620005e0578190505b620005f8620005ef856200048d565b8301826200058a565b50505b505050565b5f82821c905092915050565b5f6200061d5f198460080262000600565b1980831691505092915050565b5f6200063783836200060c565b9150826002028217905092915050565b620006528262000410565b67ffffffffffffffff8111156200066e576200066d62000231565b5b6200067a825462000447565b62000687828285620005b0565b5f60209050601f831160018114620006bd575f8415620006a8578287015190505b620006b485826200062a565b86555062000723565b601f198416620006cd866200047b565b5f5b82811015620006f657848901518255600182019150602085019450602081019050620006cf565b8683101562000716578489015162000712601f8916826200060c565b8355505b6001600288020188555050505b505050505050565b5f73ffffffffffffffffffffffffffffffffffffffff82169050919050565b5f62000756826200072b565b9050919050565b62000768816200074a565b82525050565b5f602082019050620007835f8301846200075d565b92915050565b612ea280620007975f395ff3fe608060405234801561000f575f80fd5b506004361061018c575f3560e01c80638da5cb5b116100dc578063b9f607bf11610095578063d8c16d6f1161006f578063d8c16d6f146104ca578063db1a66fc146104e6578063e985e9c514610516578063f2fde38b146105465761018c565b8063b9f607bf1461043a578063c87b56dd1461046a578063d48e638a1461049a5761018c565b80638da5cb5b1461037a57806395d89b411461039857806398dd1b65146103b6578063a22cb465146103d2578063add150bc146103ee578063b88d4fde1461041e5761018c565b806323b872dd1161014957806350dcf8271161012357806350dcf827146102e05780636352211e1461031057806370a0823114610340578063715018a6146103705761018c565b806323b872dd1461027857806340c1a0641461029457806342842e0e146102c45761018c565b8063017fe8091461019057806301ffc9a7146101c057806306fdde03146101f0578063081812fc1461020e578063095ea7b31461023e57806318160ddd1461025a575b5f80fd5b6101aa60048036038101906101a59190612196565b610562565b6040516101b791906121d0565b60405180910390f35b6101da60048036038101906101d5919061223e565b6105f2565b6040516101e79190612283565b60405180910390f35b6101f8610652565b6040516102059190612326565b60405180910390f35b61022860048036038101906102239190612196565b6106e1565b6040516102359190612385565b60405180910390f35b610258600480360381019061025391906123c8565b6106fc565b005b610262610712565b60405161026f91906121d0565b60405180910390f35b610292600480360381019061028d9190612406565b610727565b005b6102ae60048036038101906102a99190612196565b610826565b6040516102bb9190612385565b60405180910390f35b6102de60048036038101906102d99190612406565b610856565b005b6102fa60048036038101906102f59190612456565b610875565b6040516103079190612283565b60405180910390f35b61032a60048036038101906103259190612196565b6108c7565b6040516103379190612385565b60405180910390f35b61035a60048036038101906103559190612456565b6108d8565b60405161036791906121d0565b60405180910390f35b61037861098e565b005b6103826109a1565b60405161038f9190612385565b60405180910390f35b6103a06109c9565b6040516103ad9190612326565b60405180910390f35b6103d060048036038101906103cb9190612456565b610a59565b005b6103ec60048036038101906103e791906124ab565b610afc565b005b61040860048036038101906104039190612456565b610b12565b6040516104159190612283565b60405180910390f35b61043860048036038101906104339190612615565b610b2f565b005b610454600480360381019061044f9190612196565b610b54565b60405161046191906121d0565b60405180910390f35b610484600480360381019061047f9190612196565b610b69565b6040516104919190612326565b60405180910390f35b6104b460048036038101906104af9190612196565b610bf1565b6040516104c19190612385565b60405180910390f35b6104e460048036038101906104df9190612456565b610ca0565b005b61050060048036038101906104fb9190612733565b610cff565b60405161050d91906121d0565b60405180910390f35b610530600480360381019061052b919061279f565b610f4a565b60405161053d9190612283565b60405180910390f35b610560600480360381019061055b9190612456565b610fd8565b005b5f8073ffffffffffffffffffffffffffffffffffffffff166105838361105c565b73ffffffffffffffffffffffffffffffffffffffff16036105d9576040517f08c379a00000000000000000000000000000000000000000000000000000000081526004016105d090612827565b60405180910390fd5b600b5f8381526020019081526020015f20549050919050565b5f634906490660e01b7bffffffffffffffffffffffffffffffffffffffffffffffffffffffff1916827bffffffffffffffffffffffffffffffffffffffffffffffffffffffff1916148061064b575061064a82611095565b5b9050919050565b60605f805461066090612872565b80601f016020809104026020016040519081016040528092919081815260200182805461068c90612872565b80156106d75780601f106106ae576101008083540402835291602001916106d7565b820191905f5260205f20905b8154815290600101906020018083116106ba57829003601f168201915b5050505050905090565b5f6106eb82611176565b506106f5826111fc565b9050919050565b61070e8282610709611235565b61123c565b5050565b5f600160085461072291906128cf565b905090565b5f73ffffffffffffffffffffffffffffffffffffffff168273ffffffffffffffffffffffffffffffffffffffff1603610797575f6040517f64a0ae9200000000000000000000000000000000000000000000000000000000815260040161078e9190612385565b60405180910390fd5b5f6107aa83836107a5611235565b61124e565b90508373ffffffffffffffffffffffffffffffffffffffff168173ffffffffffffffffffffffffffffffffffffffff1614610820578382826040517f64283d7b00000000000000000000000000000000000000000000000000000000815260040161081793929190612902565b60405180910390fd5b50505050565b6009602052805f5260405f205f915054906101000a900473ffffffffffffffffffffffffffffffffffffffff1681565b61087083838360405180602001604052805f815250610b2f565b505050565b5f600a5f8373ffffffffffffffffffffffffffffffffffffffff1673ffffffffffffffffffffffffffffffffffffffff1681526020019081526020015f205f9054906101000a900460ff169050919050565b5f6108d182611176565b9050919050565b5f8073ffffffffffffffffffffffffffffffffffffffff168273ffffffffffffffffffffffffffffffffffffffff1603610949575f6040517f89c62b640000000000000000000000000000000000000000000000000000000081526004016109409190612385565b60405180910390fd5b60035f8373ffffffffffffffffffffffffffffffffffffffff1673ffffffffffffffffffffffffffffffffffffffff1681526020019081526020015f20549050919050565b610996611459565b61099f5f6114e0565b565b5f60075f9054906101000a900473ffffffffffffffffffffffffffffffffffffffff16905090565b6060600180546109d890612872565b80601f0160208091040260200160405190810160405280929190818152602001828054610a0490612872565b8015610a4f5780601f10610a2657610100808354040283529160200191610a4f565b820191905f5260205f20905b815481529060010190602001808311610a3257829003601f168201915b5050505050905090565b610a61611459565b6001600a5f8373ffffffffffffffffffffffffffffffffffffffff1673ffffffffffffffffffffffffffffffffffffffff1681526020019081526020015f205f6101000a81548160ff0219169083151502179055508073ffffffffffffffffffffffffffffffffffffffff167ff29712ea7553106dc04213b4a8b2d4bd706623bddf1d92ab875d278700e7722560405160405180910390a250565b610b0e610b07611235565b83836115a3565b5050565b600a602052805f5260405f205f915054906101000a900460ff1681565b610b3a848484610727565b610b4e610b45611235565b8585858561170c565b50505050565b600b602052805f5260405f205f915090505481565b60605f73ffffffffffffffffffffffffffffffffffffffff16610b8b8361105c565b73ffffffffffffffffffffffffffffffffffffffff1603610be1576040517f08c379a0000000000000000000000000000000000000000000000000000000008152600401610bd890612827565b60405180910390fd5b610bea826118b8565b9050919050565b5f8073ffffffffffffffffffffffffffffffffffffffff16610c128361105c565b73ffffffffffffffffffffffffffffffffffffffff1603610c68576040517f08c379a0000000000000000000000000000000000000000000000000000000008152600401610c5f90612827565b60405180910390fd5b60095f8381526020019081526020015f205f9054906101000a900473ffffffffffffffffffffffffffffffffffffffff169050919050565b610ca8611459565b5f600a5f8373ffffffffffffffffffffffffffffffffffffffff1673ffffffffffffffffffffffffffffffffffffffff1681526020019081526020015f205f6101000a81548160ff02191690831515021790555050565b5f600a5f3373ffffffffffffffffffffffffffffffffffffffff1673ffffffffffffffffffffffffffffffffffffffff1681526020019081526020015f205f9054906101000a900460ff1680610d875750610d586109a1565b73ffffffffffffffffffffffffffffffffffffffff163373ffffffffffffffffffffffffffffffffffffffff16145b610dc6576040517f08c379a0000000000000000000000000000000000000000000000000000000008152600401610dbd906129a7565b60405180910390fd5b6103e8821115610e0b576040517f08c379a0000000000000000000000000000000000000000000000000000000008152600401610e0290612a0f565b60405180910390fd5b5f600854905060085f815480929190610e2390612a2d565b9190505550610e3285826119c3565b610e3c8185611ab6565b3360095f8381526020019081526020015f205f6101000a81548173ffffffffffffffffffffffffffffffffffffffff021916908373ffffffffffffffffffffffffffffffffffffffff16021790555082600b5f8381526020019081526020015f20819055508473ffffffffffffffffffffffffffffffffffffffff163373ffffffffffffffffffffffffffffffffffffffff16827f701829f32a57aac054ee559c2dab89c52efecbffe5e3dc4198bd31e5b8f6613887604051610eff9190612326565b60405180910390a4807fd9079ddd2431b859452943f941a81158fb9f278b572018c4d96e169542e35fd884604051610f3791906121d0565b60405180910390a2809150509392505050565b5f60055f8473ffffffffffffffffffffffffffffffffffffffff1673ffffffffffffffffffffffffffffffffffffffff1681526020019081526020015f205f8373ffffffffffffffffffffffffffffffffffffffff1673ffffffffffffffffffffffffffffffffffffffff1681526020019081526020015f205f9054906101000a900460ff16905092915050565b610fe0611459565b5f73ffffffffffffffffffffffffffffffffffffffff168173ffffffffffffffffffffffffffffffffffffffff1603611050575f6040517f1e4fbdf70000000000000000000000000000000000000000000000000000000081526004016110479190612385565b60405180910390fd5b611059816114e0565b50565b5f60025f8381526020019081526020015f205f9054906101000a900473ffffffffffffffffffffffffffffffffffffffff169050919050565b5f7f80ac58cd000000000000000000000000000000000000000000000000000000007bffffffffffffffffffffffffffffffffffffffffffffffffffffffff1916827bffffffffffffffffffffffffffffffffffffffffffffffffffffffff1916148061115f57507f5b5e139f000000000000000000000000000000000000000000000000000000007bffffffffffffffffffffffffffffffffffffffffffffffffffffffff1916827bffffffffffffffffffffffffffffffffffffffffffffffffffffffff1916145b8061116f575061116e82611b10565b5b9050919050565b5f806111818361105c565b90505f73ffffffffffffffffffffffffffffffffffffffff168173ffffffffffffffffffffffffffffffffffffffff16036111f357826040517f7e2732890000000000000000000000000000000000000000000000000000000081526004016111ea91906121d0565b60405180910390fd5b80915050919050565b5f60045f8381526020019081526020015f205f9054906101000a900473ffffffffffffffffffffffffffffffffffffffff169050919050565b5f33905090565b6112498383836001611b79565b505050565b5f806112598461105c565b90505f73ffffffffffffffffffffffffffffffffffffffff168373ffffffffffffffffffffffffffffffffffffffff161461129a57611299818486611d38565b5b5f73ffffffffffffffffffffffffffffffffffffffff168173ffffffffffffffffffffffffffffffffffffffff1614611325576112d95f855f80611b79565b600160035f8373ffffffffffffffffffffffffffffffffffffffff1673ffffffffffffffffffffffffffffffffffffffff1681526020019081526020015f205f82825403925050819055505b5f73ffffffffffffffffffffffffffffffffffffffff168573ffffffffffffffffffffffffffffffffffffffff16146113a457600160035f8773ffffffffffffffffffffffffffffffffffffffff1673ffffffffffffffffffffffffffffffffffffffff1681526020019081526020015f205f82825401925050819055505b8460025f8681526020019081526020015f205f6101000a81548173ffffffffffffffffffffffffffffffffffffffff021916908373ffffffffffffffffffffffffffffffffffffffff160217905550838573ffffffffffffffffffffffffffffffffffffffff168273ffffffffffffffffffffffffffffffffffffffff167fddf252ad1be2c89b69c2b068fc378daa952ba7f163c4a11628f55a4df523b3ef60405160405180910390a4809150509392505050565b611461611235565b73ffffffffffffffffffffffffffffffffffffffff1661147f6109a1565b73ffffffffffffffffffffffffffffffffffffffff16146114de576114a2611235565b6040517f118cdaa70000000000000000000000000000000000000000000000000000000081526004016114d59190612385565b60405180910390fd5b565b5f60075f9054906101000a900473ffffffffffffffffffffffffffffffffffffffff1690508160075f6101000a81548173ffffffffffffffffffffffffffffffffffffffff021916908373ffffffffffffffffffffffffffffffffffffffff1602179055508173ffffffffffffffffffffffffffffffffffffffff168173ffffffffffffffffffffffffffffffffffffffff167f8be0079c531659141344cd1fd0a4f28419497f9722a3daafe3b4186f6b6457e060405160405180910390a35050565b5f73ffffffffffffffffffffffffffffffffffffffff168273ffffffffffffffffffffffffffffffffffffffff160361161357816040517f5b08ba1800000000000000000000000000000000000000000000000000000000815260040161160a9190612385565b60405180910390fd5b8060055f8573ffffffffffffffffffffffffffffffffffffffff1673ffffffffffffffffffffffffffffffffffffffff1681526020019081526020015f205f8473ffffffffffffffffffffffffffffffffffffffff1673ffffffffffffffffffffffffffffffffffffffff1681526020019081526020015f205f6101000a81548160ff0219169083151502179055508173ffffffffffffffffffffffffffffffffffffffff168373ffffffffffffffffffffffffffffffffffffffff167f17307eab39ab6107e8899845ad3d59bd9653f200f220920489ca2b5937696c31836040516116ff9190612283565b60405180910390a3505050565b5f8373ffffffffffffffffffffffffffffffffffffffff163b11156118b1578273ffffffffffffffffffffffffffffffffffffffff1663150b7a02868685856040518563ffffffff1660e01b815260040161176a9493929190612ac6565b6020604051808303815f875af19250505080156117a557506040513d601f19601f820116820180604052508101906117a29190612b24565b60015b611826573d805f81146117d3576040519150601f19603f3d011682016040523d82523d5f602084013e6117d8565b606091505b505f81510361181e57836040517f64a0ae920000000000000000000000000000000000000000000000000000000081526004016118159190612385565b60405180910390fd5b805160208201fd5b63150b7a0260e01b7bffffffffffffffffffffffffffffffffffffffffffffffffffffffff1916817bffffffffffffffffffffffffffffffffffffffffffffffffffffffff1916146118af57836040517f64a0ae920000000000000000000000000000000000000000000000000000000081526004016118a69190612385565b60405180910390fd5b505b5050505050565b60606118c382611176565b505f60065f8481526020019081526020015f2080546118e190612872565b80601f016020809104026020016040519081016040528092919081815260200182805461190d90612872565b80156119585780601f1061192f57610100808354040283529160200191611958565b820191905f5260205f20905b81548152906001019060200180831161193b57829003601f168201915b505050505090505f611968611dfb565b90505f81510361197c5781925050506119be565b5f825111156119b0578082604051602001611998929190612b89565b604051602081830303815290604052925050506119be565b6119b984611e11565b925050505b919050565b5f73ffffffffffffffffffffffffffffffffffffffff168273ffffffffffffffffffffffffffffffffffffffff1603611a33575f6040517f64a0ae92000000000000000000000000000000000000000000000000000000008152600401611a2a9190612385565b60405180910390fd5b5f611a3f83835f61124e565b90505f73ffffffffffffffffffffffffffffffffffffffff168173ffffffffffffffffffffffffffffffffffffffff1614611ab1575f6040517f73c6ac6e000000000000000000000000000000000000000000000000000000008152600401611aa89190612385565b60405180910390fd5b505050565b8060065f8481526020019081526020015f209081611ad49190612d49565b507ff8e1a15aba9398e019f0b49df1a4fde98ee17ae345cb5f6b5e2c27f5033e8ce782604051611b0491906121d0565b60405180910390a15050565b5f7f01ffc9a7000000000000000000000000000000000000000000000000000000007bffffffffffffffffffffffffffffffffffffffffffffffffffffffff1916827bffffffffffffffffffffffffffffffffffffffffffffffffffffffff1916149050919050565b8080611bb157505f73ffffffffffffffffffffffffffffffffffffffff168273ffffffffffffffffffffffffffffffffffffffff1614155b15611ce3575f611bc084611176565b90505f73ffffffffffffffffffffffffffffffffffffffff168373ffffffffffffffffffffffffffffffffffffffff1614158015611c2a57508273ffffffffffffffffffffffffffffffffffffffff168173ffffffffffffffffffffffffffffffffffffffff1614155b8015611c3d5750611c3b8184610f4a565b155b15611c7f57826040517fa9fbf51f000000000000000000000000000000000000000000000000000000008152600401611c769190612385565b60405180910390fd5b8115611ce157838573ffffffffffffffffffffffffffffffffffffffff168273ffffffffffffffffffffffffffffffffffffffff167f8c5be1e5ebec7d5bd14f71427d1e84f3dd0314c0f7b2291e5b200ac8c7c3b92560405160405180910390a45b505b8360045f8581526020019081526020015f205f6101000a81548173ffffffffffffffffffffffffffffffffffffffff021916908373ffffffffffffffffffffffffffffffffffffffff16021790555050505050565b611d43838383611e77565b611df6575f73ffffffffffffffffffffffffffffffffffffffff168373ffffffffffffffffffffffffffffffffffffffff1603611db757806040517f7e273289000000000000000000000000000000000000000000000000000000008152600401611dae91906121d0565b60405180910390fd5b81816040517f177e802f000000000000000000000000000000000000000000000000000000008152600401611ded929190612e18565b60405180910390fd5b505050565b606060405180602001604052805f815250905090565b6060611e1c82611176565b505f611e26611dfb565b90505f815111611e445760405180602001604052805f815250611e6f565b80611e4e84611f37565b604051602001611e5f929190612b89565b6040516020818303038152906040525b915050919050565b5f8073ffffffffffffffffffffffffffffffffffffffff168373ffffffffffffffffffffffffffffffffffffffff1614158015611f2e57508273ffffffffffffffffffffffffffffffffffffffff168473ffffffffffffffffffffffffffffffffffffffff161480611eef5750611eee8484610f4a565b5b80611f2d57508273ffffffffffffffffffffffffffffffffffffffff16611f15836111fc565b73ffffffffffffffffffffffffffffffffffffffff16145b5b90509392505050565b60605f6001611f4584612001565b0190505f8167ffffffffffffffff811115611f6357611f626124f1565b5b6040519080825280601f01601f191660200182016040528015611f955781602001600182028036833780820191505090505b5090505f82602083010190505b600115611ff6578080600190039150507f3031323334353637383961626364656600000000000000000000000000000000600a86061a8153600a8581611feb57611fea612e3f565b5b0494505f8503611fa2575b819350505050919050565b5f805f90507a184f03e93ff9f4daa797ed6e38ed64bf6a1f010000000000000000831061205d577a184f03e93ff9f4daa797ed6e38ed64bf6a1f010000000000000000838161205357612052612e3f565b5b0492506040810190505b6d04ee2d6d415b85acef8100000000831061209a576d04ee2d6d415b85acef810000000083816120905761208f612e3f565b5b0492506020810190505b662386f26fc1000083106120c957662386f26fc1000083816120bf576120be612e3f565b5b0492506010810190505b6305f5e10083106120f2576305f5e10083816120e8576120e7612e3f565b5b0492506008810190505b612710831061211757612710838161210d5761210c612e3f565b5b0492506004810190505b6064831061213a57606483816121305761212f612e3f565b5b0492506002810190505b600a8310612149576001810190505b80915050919050565b5f604051905090565b5f80fd5b5f80fd5b5f819050919050565b61217581612163565b811461217f575f80fd5b50565b5f813590506121908161216c565b92915050565b5f602082840312156121ab576121aa61215b565b5b5f6121b884828501612182565b91505092915050565b6121ca81612163565b82525050565b5f6020820190506121e35f8301846121c1565b92915050565b5f7fffffffff0000000000000000000000000000000000000000000000000000000082169050919050565b61221d816121e9565b8114612227575f80fd5b50565b5f8135905061223881612214565b92915050565b5f602082840312156122535761225261215b565b5b5f6122608482850161222a565b91505092915050565b5f8115159050919050565b61227d81612269565b82525050565b5f6020820190506122965f830184612274565b92915050565b5f81519050919050565b5f82825260208201905092915050565b5f5b838110156122d35780820151818401526020810190506122b8565b5f8484015250505050565b5f601f19601f8301169050919050565b5f6122f88261229c565b61230281856122a6565b93506123128185602086016122b6565b61231b816122de565b840191505092915050565b5f6020820190508181035f83015261233e81846122ee565b905092915050565b5f73ffffffffffffffffffffffffffffffffffffffff82169050919050565b5f61236f82612346565b9050919050565b61237f81612365565b82525050565b5f6020820190506123985f830184612376565b92915050565b6123a781612365565b81146123b1575f80fd5b50565b5f813590506123c28161239e565b92915050565b5f80604083850312156123de576123dd61215b565b5b5f6123eb858286016123b4565b92505060206123fc85828601612182565b9150509250929050565b5f805f6060848603121561241d5761241c61215b565b5b5f61242a868287016123b4565b935050602061243b868287016123b4565b925050604061244c86828701612182565b9150509250925092565b5f6020828403121561246b5761246a61215b565b5b5f612478848285016123b4565b91505092915050565b61248a81612269565b8114612494575f80fd5b50565b5f813590506124a581612481565b92915050565b5f80604083850312156124c1576124c061215b565b5b5f6124ce858286016123b4565b92505060206124df85828601612497565b9150509250929050565b5f80fd5b5f80fd5b7f4e487b71000000000000000000000000000000000000000000000000000000005f52604160045260245ffd5b612527826122de565b810181811067ffffffffffffffff82111715612546576125456124f1565b5b80604052505050565b5f612558612152565b9050612564828261251e565b919050565b5f67ffffffffffffffff821115612583576125826124f1565b5b61258c826122de565b9050602081019050919050565b828183375f83830152505050565b5f6125b96125b484612569565b61254f565b9050828152602081018484840111156125d5576125d46124ed565b5b6125e0848285612599565b509392505050565b5f82601f8301126125fc576125fb6124e9565b5b813561260c8482602086016125a7565b91505092915050565b5f805f806080858703121561262d5761262c61215b565b5b5f61263a878288016123b4565b945050602061264b878288016123b4565b935050604061265c87828801612182565b925050606085013567ffffffffffffffff81111561267d5761267c61215f565b5b612689878288016125e8565b91505092959194509250565b5f67ffffffffffffffff8211156126af576126ae6124f1565b5b6126b8826122de565b9050602081019050919050565b5f6126d76126d284612695565b61254f565b9050828152602081018484840111156126f3576126f26124ed565b5b6126fe848285612599565b509392505050565b5f82601f83011261271a576127196124e9565b5b813561272a8482602086016126c5565b91505092915050565b5f805f6060848603121561274a5761274961215b565b5b5f612757868287016123b4565b935050602084013567ffffffffffffffff8111156127785761277761215f565b5b61278486828701612706565b925050604061279586828701612182565b9150509250925092565b5f80604083850312156127b5576127b461215b565b5b5f6127c2858286016123b4565b92505060206127d3858286016123b4565b9150509250929050565b7f52656c696320646f6573206e6f742065786973740000000000000000000000005f82015250565b5f6128116014836122a6565b915061281c826127dd565b602082019050919050565b5f6020820190508181035f83015261283e81612805565b9050919050565b7f4e487b71000000000000000000000000000000000000000000000000000000005f52602260045260245ffd5b5f600282049050600182168061288957607f821691505b60208210810361289c5761289b612845565b5b50919050565b7f4e487b71000000000000000000000000000000000000000000000000000000005f52601160045260245ffd5b5f6128d982612163565b91506128e483612163565b92508282039050818111156128fc576128fb6128a2565b5b92915050565b5f6060820190506129155f830186612376565b61292260208301856121c1565b61292f6040830184612376565b949350505050565b7f4f6e6c792076657269666965642063726561746f72732063616e206d696e74205f8201527f72656c6963730000000000000000000000000000000000000000000000000000602082015250565b5f6129916026836122a6565b915061299c82612937565b604082019050919050565b5f6020820190508181035f8301526129be81612985565b9050919050565b7f506f776572206c6576656c2063616e6e6f7420657863656564203130303000005f82015250565b5f6129f9601e836122a6565b9150612a04826129c5565b602082019050919050565b5f6020820190508181035f830152612a26816129ed565b9050919050565b5f612a3782612163565b91507fffffffffffffffffffffffffffffffffffffffffffffffffffffffffffffffff8203612a6957612a686128a2565b5b600182019050919050565b5f81519050919050565b5f82825260208201905092915050565b5f612a9882612a74565b612aa28185612a7e565b9350612ab28185602086016122b6565b612abb816122de565b840191505092915050565b5f608082019050612ad95f830187612376565b612ae66020830186612376565b612af360408301856121c1565b8181036060830152612b058184612a8e565b905095945050505050565b5f81519050612b1e81612214565b92915050565b5f60208284031215612b3957612b3861215b565b5b5f612b4684828501612b10565b91505092915050565b5f81905092915050565b5f612b638261229c565b612b6d8185612b4f565b9350612b7d8185602086016122b6565b80840191505092915050565b5f612b948285612b59565b9150612ba08284612b59565b91508190509392505050565b5f819050815f5260205f209050919050565b5f6020601f8301049050919050565b5f82821b905092915050565b5f60088302612c087fffffffffffffffffffffffffffffffffffffffffffffffffffffffffffffffff82612bcd565b612c128683612bcd565b95508019841693508086168417925050509392505050565b5f819050919050565b5f612c4d612c48612c4384612163565b612c2a565b612163565b9050919050565b5f819050919050565b612c6683612c33565b612c7a612c7282612c54565b848454612bd9565b825550505050565b5f90565b612c8e612c82565b612c99818484612c5d565b505050565b5b81811015612cbc57612cb15f82612c86565b600181019050612c9f565b5050565b601f821115612d0157612cd281612bac565b612cdb84612bbe565b81016020851015612cea578190505b612cfe612cf685612bbe565b830182612c9e565b50505b505050565b5f82821c905092915050565b5f612d215f1984600802612d06565b1980831691505092915050565b5f612d398383612d12565b9150826002028217905092915050565b612d528261229c565b67ffffffffffffffff811115612d6b57612d6a6124f1565b5b612d758254612872565b612d80828285612cc0565b5f60209050601f831160018114612db1575f8415612d9f578287015190505b612da98582612d2e565b865550612e10565b601f198416612dbf86612bac565b5f5b82811015612de657848901518255600182019150602085019450602081019050612dc1565b86831015612e035784890151612dff601f891682612d12565b8355505b6001600288020188555050505b505050505050565b5f604082019050612e2b5f830185612376565b612e3860208301846121c1565b9392505050565b7f4e487b71000000000000000000000000000000000000000000000000000000005f52601260045260245ffdfea2646970667358221220afc7b10502e4e001c4b87b66a1ec5570d4fcc3ec34f00ca0e20b5827ae599e2364736f6c63430008140033",
  "linkReferences": {},
  "deployedLinkReferences": {},
  "immutableReferences": {},
  "inputSourceName": "project/contracts/OvermindNFT.sol",
  "buildInfoId": "solc-0_8_20-1574317a237f9f866699426b19da269855c2de91"
}