{
  "_format": "hh3-artifact-1",
  "contractName": "OvermindNFT",
  "sourceName": "contracts/OvermindNFT.sol",
  "abi": [
    {
      "inputs": [
        {
          "internalType": "string",
          "name": "name",
          "type": "string"
        },
        {
          "internalType": "string",
          "name": "symbol",
          "type": "string"
        }
      ],
      "stateMutability": "nonpayable",
      "type": "constructor"
    },
    {
      "inputs": [
        {
          "internalType": "address",
          "name": "sender",
          "type": "address"
        },
        {
          "internalType": "uint256",
          "name": "tokenId",
          "type": "uint256"
        },
        {
          "internalType": "address",
          "name": "owner",
          "type": "address"
        }
      ],
      "name": "ERC721IncorrectOwner",
      "type": "error"
    },
    {
      "inputs": [
        {
          "internalType": "address",
          "name": "operator",
          "type": "address"
        },
        {
          "internalType": "uint256",
          "name": "tokenId",
          "type": "uint256"
        }
      ],
      "name": "ERC721InsufficientApproval",
      "type": "error"
    },
    {
      "inputs": [
        {
          "internalType": "address",
          "name": "approver",
          "type": "address"
        }
      ],
      "name": "ERC721InvalidApprover",
      "type": "error"
    },
    {
      "inputs": [
        {
          "internalType": "address",
          "name": "operator",
          "type": "address"
        }
      ],
      "name": "ERC721InvalidOperator",
      "type": "error"
    },
    {
      "inputs": [
        {
          "internalType": "address",
          "name": "owner",
          "type": "address"
        }
      ],
      "name": "ERC721InvalidOwner",
      "type": "error"
    },
    {
      "inputs": [
        {
          "internalType": "address",
          "name": "receiver",
          "type": "address"
        }
      ],
      "name": "ERC721InvalidReceiver",
      "type": "error"
    },
    {
      "inputs": [
        {
          "internalType": "address",
          "name": "sender",
          "type": "address"
        }
      ],
      "name": "ERC721InvalidSender",
      "type": "error"
    },
    {
      "inputs": [
        {
          "internalType": "uint256",
          "name": "tokenId",
          "type": "uint256"
        }
      ],
      "name": "ERC721NonexistentToken",
      "type": "error"
    },
    {
      "inputs": [
        {
          "internalType": "address",
          "name": "owner",
          "type": "address"
        }
      ],
      "name": "OwnableInvalidOwner",
      "type": "error"
    },
    {
      "inputs": [
        {
          "internalType": "address",
          "name": "account",
          "type": "address"
        }
      ],
      "name": "OwnableUnauthorizedAccount",
      "type": "error"
    },
    {
      "anonymous": false,
      "inputs": [
        {
          "indexed": true,
          "internalType": "address",
          "name": "owner",
          "type": "address"
        },
        {
          "indexed": true,
          "internalType": "address",
          "name": "approved",
          "type": "address"
        },
        {
          "indexed": true,
          "internalType": "uint256",
          "name": "tokenId",
          "type": "uint256"
        }
      ],
      "name": "Approval",
      "type": "event"
    },
    {
      "anonymous": false,
      "inputs": [
        {
          "indexed": true,
          "internalType": "address",
          "name": "owner",
          "type": "address"
        },
        {
          "indexed": true,
          "internalType": "address",
          "name": "operator",
          "type": "address"
        },
        {
          "indexed": false,
          "internalType": "bool",
          "name": "approved",
          "type": "bool"
        }
      ],
      "name": "ApprovalForAll",
      "type": "event"
    },
    {
      "anonymous": false,
      "inputs": [
        {
          "indexed": false,
          "internalType": "uint256",
          "name": "_fromTokenId",
          "type": "uint256"
        },
        {
          "indexed": false,
          "internalType": "uint256",
          "name": "_toTokenId",
          "type": "uint256"
        }
      ],
      "name": "BatchMetadataUpdate",
      "type": "event"
    },
    {
      "anonymous": false,
      "inputs": [
        {
          "indexed": true,
          "internalType": "address",
          "name": "creator",
          "type": "address"
        }
      ],
      "name": "CreatorVerified",
      "type": "event"
    },
    {
      "anonymous": false,
      "inputs": [
        {
          "indexed": false,
          "internalType": "uint256",
          "name": "_tokenId",
          "type": "uint256"
        }
      ],
      "name": "MetadataUpdate",
      "type": "event"
    },
    {
      "anonymous": false,
      "inputs": [
        {
          "indexed": true,
          "internalType": "address",
          "name": "previousOwner",
          "type": "address"
        },
        {
          "indexed": true,
          "internalType": "address",
          "name": "newOwner",
          "type": "address"
        }
      ],
      "name": "OwnershipTransferred",
      "type": "event"
    },
    {
      "anonymous": false,
      "inputs": [
        {
          "indexed": true,
          "internalType": "uint256",
          "name": "tokenId",
          "type": "uint256"
        },
        {
          "indexed": true,
          "internalType": "address",
          "name": "creator",
          "type": "address"
        },
        {
          "indexed": true,
          "internalType": "address",
          "name": "to",
          "type": "address"
        },
        {
          "indexed": false,
          "internalType": "string",
          "name": "uri",
          "type": "string"
        }
      ],
      "name": "RelicMinted",
      "type": "event"
    },
    {
      "anonymous": false,
      "inputs": [
        {
          "indexed": true,
          "internalType": "uint256",
          "name": "tokenId",
          "type": "uint256"
        },
        {
          "indexed": false,
          "internalType": "uint256",
          "name": "power",
          "type": "uint256"
        }
      ],
      "name": "RelicPowerSet",
      "type": "event"
    },
    {
      "anonymous": false,
      "inputs": [
        {
          "indexed": true,
          "internalType": "address",
          "name": "from",
          "type": "address"
        },
        {
          "indexed": true,
          "internalType": "address",
          "name": "to",
          "type": "address"
        },
        {
          "indexed": true,
          "internalType": "uint256",
          "name": "tokenId",
          "type": "uint256"
        }
      ],
      "name": "Transfer",
      "type": "event"
    },
    {
      "inputs": [
        {
          "internalType": "address",
          "name": "to",
          "type": "address"
        },
        {
          "internalType": "uint256",
          "name": "tokenId",
          "type": "uint256"
        }
      ],
      "name": "approve",
      "outputs": [],
      "stateMutability": "nonpayable",
      "type": "function"
    },
    {
      "inputs": [
        {
          "internalType": "address",
          "name": "owner",
          "type": "address"
        }
      ],
      "name": "balanceOf",
      "outputs": [
        {
          "internalType": "uint256",
          "name": "",
          "type": "uint256"
        }
      ],
      "stateMutability": "view",
      "type": "function"
    },
    {
      "inputs": [
        {
          "internalType": "uint256",
          "name": "tokenId",
          "type": "uint256"
        }
      ],
      "name": "getApproved",
      "outputs": [
        {
          "internalType": "address",
          "name": "",
          "type": "address"
        }
      ],
      "stateMutability": "view",
      "type": "function"
    },
    {
      "inputs": [
        {
          "internalType": "uint256",
          "name": "tokenId",
          "type": "uint256"
        }
      ],
      "name": "getCreator",
      "outputs": [
        {
          "internalType": "address",
          "name": "",
          "type": "address"
        }
      ],
      "stateMutability": "view",
      "type": "function"
    },
    {
      "inputs": [
        {
          "internalType": "uint256",
          "name": "tokenId",
          "type": "uint256"
        }
      ],
      "name": "getPower",
      "outputs": [
        {
          "internalType": "uint256",
          "name": "",
          "type": "uint256"
        }
      ],
      "stateMutability": "view",
      "type": "function"
    },
    {
      "inputs": [
        {
          "internalType": "address",
          "name": "owner",
          "type": "address"
        },
        {
          "internalType": "address",
          "name": "operator",
          "type": "address"
        }
      ],
      "name": "isApprovedForAll",
      "outputs": [
        {
          "internalType": "bool",
          "name": "",
          "type": "bool"
        }
      ],
      "stateMutability": "view",
      "type": "function"
    },
    {
      "inputs": [
        {
          "internalType": "address",
          "name": "creator",
          "type": "address"
        }
      ],
      "name": "isVerifiedCreator",
      "outputs": [
        {
          "internalType": "bool",
          "name": "",
          "type": "bool"
        }
      ],
      "stateMutability": "view",
      "type": "function"
    },
    {
      "inputs": [
        {
          "internalType": "address",
          "name": "to",
          "type": "address"
        },
        {
          "internalType": "string",
          "name": "uri",
          "type": "string"
        },
        {
          "internalType": "uint256",
          "name": "power",
          "type": "uint256"
        }
      ],
      "name": "mintRelic",
      "outputs": [
        {
          "internalType": "uint256",
          "name": "",
          "type": "uint256"
        }
      ],
      "stateMutability": "nonpayable",
      "type": "function"
    },
    {
      "inputs": [],
      "name": "name",
      "outputs": [
        {
          "internalType": "string",
          "name": "",
          "type": "string"
        }
      ],
      "stateMutability": "view",
      "type": "function"
    },
    {
      "inputs": [],
      "name": "owner",
      "outputs": [
        {
          "internalType": "address",
          "name": "",
          "type": "address"
        }
      ],
      "stateMutability": "view",
      "type": "function"
    },
    {
      "inputs": [
        {
          "internalType": "uint256",
          "name": "tokenId",
          "type": "uint256"
        }
      ],
      "name": "ownerOf",
      "outputs": [
        {
          "internalType": "address",
          "name": "",
          "type": "address"
        }
      ],
      "stateMutability": "view",
      "type": "function"
    },
    {
      "inputs": [
        {
          "internalType": "uint256",
          "name": "",
          "type": "uint256"
        }
      ],
      "name": "relicPower",
      "outputs": [
        {
          "internalType": "uint256",
          "name": "",
          "type": "uint256"
        }
      ],
      "stateMutability": "view",
      "type": "function"
    },
    {
      "inputs": [],
      "name": "renounceOwnership",
      "outputs": [],
      "stateMutability": "nonpayable",
      "type": "function"
    },
    {
      "inputs": [
        {
          "internalType": "address",
          "name": "creator",
          "type": "address"
        }
      ],
      "name": "revokeCreatorVerification",
      "outputs": [],
      "stateMutability": "nonpayable",
      "type": "function"
    },
    {
      "inputs": [
        {
          "internalType": "address",
          "name": "from",
          "type": "address"
        },
        {
          "internalType": "address",
          "name": "to",
          "type": "address"
        },
        {
          "internalType": "uint256",
          "name": "tokenId",
          "type": "uint256"
        }
      ],
      "name": "safeTransferFrom",
      "outputs": [],
      "stateMutability": "nonpayable",
      "type": "function"
    },
    {
      "inputs": [
        {
          "internalType": "address",
          "name": "from",
          "type": "address"
        },
        {
          "internalType": "address",
          "name": "to",
          "type": "address"
        },
        {
          "internalType": "uint256",
          "name": "tokenId",
          "type": "uint256"
        },
        {
          "internalType": "bytes",
          "name": "data",
          "type": "bytes"
        }
      ],
      "name": "safeTransferFrom",
      "outputs": [],
      "stateMutability": "nonpayable",
      "type": "function"
    },
    {
      "inputs": [
        {
          "internalType": "address",
          "name": "operator",
          "type": "address"
        },
        {
          "internalType": "bool",
          "name": "approved",
          "type": "bool"
        }
      ],
      "name": "setApprovalForAll",
      "outputs": [],
      "stateMutability": "nonpayable",
      "type": "function"
    },
    {
      "inputs": [
        {
          "internalType": "bytes4",
          "name": "interfaceId",
          "type": "bytes4"
        }
      ],
      "name": "supportsInterface",
      "outputs": [
        {
          "internalType": "bool",
          "name": "",
          "type": "bool"
        }
      ],
      "stateMutability": "view",
      "type": "function"
    },
    {
      "inputs": [],
      "name": "symbol",
      "outputs": [
        {
          "internalType": "string",
          "name": "",
          "type": "string"
        }
      ],
      "stateMutability": "view",
      "type": "function"
    },
    {
      "inputs": [
        {
          "internalType": "uint256",
          "name": "",
          "type": "uint256"
        }
      ],
      "name": "tokenCreator",
      "outputs": [
        {
          "internalType": "address",
          "name": "",
          "type": "address"
        }
      ],
      "stateMutability": "view",
      "type": "function"
    },
    {
      "inputs": [
        {
          "internalType": "uint256",
          "name": "tokenId",
          "type": "uint256"
        }
      ],
      "name": "tokenURI",
      "outputs": [
        {
          "internalType": "string",
          "name": "",
          "type": "string"
        }
      ],
      "stateMutability": "view",
      "type": "function"
    },
    {
      "inputs": [],
      "name": "totalSupply",
      "outputs": [
        {
          "internalType": "uint256",
          "name": "",
          "type": "uint256"
        }
      ],
      "stateMutability": "view",
      "type": "function"
    },
    {
      "inputs": [
        {
          "internalType": "address",
          "name": "from",
          "type": "address"
        },
        {
          "internalType": "address",
          "name": "to",
          "type": "address"
        },
        {
          "internalType": "uint256",
          "name": "tokenId",
          "type": "uint256"
        }
      ],
      "name": "transferFrom",
      "outputs": [],
      "stateMutability": "nonpayable",
      "type": "function"
    },
    {
      "inputs": [
        {
          "internalType": "address",
          "name": "newOwner",
          "type": "address"
        }
      ],
      "name": "transferOwnership",
      "outputs": [],
      "stateMutability": "nonpayable",
      "type": "function"
    },
    {
      "inputs": [
        {
          "internalType": "address",
          "name": "",
          "type": "address"
        }
      ],
      "name": "verifiedCreators",
      "outputs": [
        {
          "internalType": "bool",
          "name": "",
          "type": "bool"
        }
      ],
      "stateMutability": "view",
      "type": "function"
    },
    {
      "inputs": [
        {
          "internalType": "address",
          "name": "creator",
          "type": "address"
        }
      ],
      "name": "verifyCreator",
      "outputs": [],
      "stateMutability": "nonpayable",
      "type": "function"
    }
  ],
  "bytecode": "0x6080604052600160085534801562000015575f80fd5b50604051620034e5380380620034e583398181016040528101906200003b91906200038d565b338282815f90816200004e919062000647565b50806001908162000060919062000647565b5050505f73ffffffffffffffffffffffffffffffffffffffff168173ffffffffffffffffffffffffffffffffffffffff1603620000d6575f6040517f1e4fbdf7000000000000000000000000000000000000000000000000000000008152600401620000cd91906200076e565b60405180910390fd5b620000e7816200014560201b60201c565b506001600a5f3373ffffffffffffffffffffffffffffffffffffffff1673ffffffffffffffffffffffffffffffffffffffff1681526020019081526020015f205f6101000a81548160ff021916908315150217905550505062000789565b5f60075f9054906101000a900473ffffffffffffffffffffffffffffffffffffffff1690508160075f6101000a81548173ffffffffffffffffffffffffffffffffffffffff021916908373ffffffffffffffffffffffffffffffffffffffff1602179055508173ffffffffffffffffffffffffffffffffffffffff168173ffffffffffffffffffffffffffffffffffffffff167f8be0079c531659141344cd1fd0a4f28419497f9722a3daafe3b4186f6b6457e060405160405180910390a35050565b5f604051905090565b5f80fd5b5f80fd5b5f80fd5b5f80fd5b5f601f19601f8301169050919050565b7f4e487b71000000000000000000000000000000000000000000000000000000005f52604160045260245ffd5b620002698262000221565b810181811067ffffffffffffffff821117156200028b576200028a62000231565b5b80604052505050565b5f6200029f62000208565b9050620002ad82826200025e565b919050565b5f67ffffffffffffffff821115620002cf57620002ce62000231565b5b620002da8262000221565b9050602081019050919050565b5f5b8381101562000306578082015181840152602081019050620002e9565b5f8484015250505050565b5f620003276200032184620002b2565b62000294565b9050828152602081018484840111156200034657620003456200021d565b5b62000353848285620002e7565b509392505050565b5f82601f83011262000372576200037162000219565b5b81516200038484826020860162000311565b91505092915050565b5f8060408385031215620003a657620003a562000211565b5b5f83015167ffffffffffffffff811115620003c657620003c562000215565b5b620003d4858286016200035b565b925050602083015167ffffffffffffffff811115620003f857620003f762000215565b5b62000406858286016200035b565b9150509250929050565b5f81519050919050565b7f4e487b71000000000000000000000000000000000000000000000000000000005f52602260045260245ffd5b5f60028204905060018216806200045f57607f821691505b6020821081036200047557620004746200041a565b5b50919050565b5f819050815f5260205f209050919050565b5f6020601f8301049050919050565b5f82821b905092915050565b5f60088302620004d97fffffffffffffffffffffffffffffffffffffffffffffffffffffffffffffffff826200049c565b620004e586836200049c565b95508019841693508086168417925050509392505050565b5f819050919050565b5f819050919050565b5f6200052f620005296200052384620004fd565b62000506565b620004fd565b9050919050565b5f819050919050565b6200054a836200050f565b62000562620005598262000536565b848454620004a8565b825550505050565b5f90565b620005786200056a565b620005858184846200053f565b505050565b5b81811015620005ac57620005a05f826200056e565b6001810190506200058b565b5050565b601f821115620005fb57620005c5816200047b565b620005d0846200048d565b81016020851015620005e0578190505b620005f8620005ef856200048d565b8301826200058a565b50505b505050565b5f82821c905092915050565b5f6200061d5f198460080262000600565b1980831691505092915050565b5f6200063783836200060c565b9150826002028217905092915050565b620006528262000410565b67ffffffffffffffff8111156200066e576200066d62000231565b5b6200067a825462000447565b62000687828285620005b0565b5f60209050601f831160018114620006bd575f8415620006a8578287015190505b620006b485826200062a565b86555062000723565b601f198416620006cd866200047b565b5f5b82811015620006f657848901518255600182019150602085019450602081019050620006cf565b8683101562000716578489015162000712601f8916826200060c565b8355505b6001600288020188555050505b505050505050565b5f73ffffffffffffffffffffffffffffffffffffffff82169050919050565b5f62000756826200072b565b9050919050565b62000768816200074a565b82525050565b5f602082019050620007835f8301846200075d565b92915050565b612d4e80620007975f395ff3fe608060405234801561000f575f80fd5b506004361061018c575f3560e01c80638da5cb5b116100dc578063b9f607bf11610095578063d8c16d6f1161006f578063d8c16d6f146104ca578063db1a66fc146104e6578063e985e9c514610516578063f2fde38b146105465761018c565b8063b9f607bf1461043a578063c87b56dd1461046a578063d48e638a1461049a5761018c565b80638da5cb5b1461037a57806395d89b411461039857806398dd1b65146103b6578063a22cb465146103d2578063add150bc146103ee578063b88d4fde1461041e5761018c565b806323b872dd1161014957806350dcf8271161012357806350dcf827146102e05780636352211e1461031057806370a0823114610340578063715018a6146103705761018c565b806323b872dd1461027857806340c1a0641461029457806342842e0e146102c45761018c565b8063017fe8091461019057806301ffc9a7146101c057806306fdde03146101f0578063081812fc1461020e578063095ea7b31461023e57806318160ddd1461025a575b5f80fd5b6101aa60048036038101906101a591906120d0565b610562565b6040516101b7919061210a565b60405180910390f35b6101da60048036038101906101d59190612178565b6105f2565b6040516101e791906121bd565b60405180910390f35b6101f8610652565b6040516102059190612260565b60405180910390f35b610228600480360381019061022391906120d0565b6106e1565b60405161023591906122bf565b60405180910390f35b61025860048036038101906102539190612302565b6106fc565b005b610262610712565b60405161026f919061210a565b60405180910390f35b610292600480360381019061028d9190612340565b610727565b005b6102ae60048036038101906102a991906120d0565b610826565b6040516102bb91906122bf565b60405180910390f35b6102de60048036038101906102d99190612340565b610856565b005b6102fa60048036038101906102f59190612390565b610875565b60405161030791906121bd565b60405180910390f35b61032a600480360381019061032591906120d0565b6108c7565b60405161033791906122bf565b60405180910390f35b61035a60048036038101906103559190612390565b6108d8565b604051610367919061210a565b60405180910390f35b61037861098e565b005b6103826109a1565b60405161038f91906122bf565b60405180910390f35b6103a06109c9565b6040516103ad9190612260565b60405180910390f35b6103d060048036038101906103cb9190612390565b610a59565b005b6103ec60048036038101906103e791906123e5565b610afc565b005b61040860048036038101906104039190612390565b610b12565b60405161041591906121bd565b60405180910390f35b6104386004803603810190610433919061254f565b610b2f565b005b610454600480360381019061044f91906120d0565b610b54565b604051610461919061210a565b60405180910390f35b610484600480360381019061047f91906120d0565b610b69565b6040516104919190612260565b60405180910390f35b6104b460048036038101906104af91906120d0565b610bf1565b6040516104c191906122bf565b60405180910390f35b6104e460048036038101906104df9190612390565b610ca0565b005b61050060048036038101906104fb919061266d565b610cff565b60405161050d919061210a565b60405180910390f35b610530600480360381019061052b91906126d9565b610e84565b60405161053d91906121bd565b60405180910390f35b610560600480360381019061055b9190612390565b610f12565b005b5f8073ffffffffffffffffffffffffffffffffffffffff1661058383610f96565b73ffffffffffffffffffffffffffffffffffffffff16036105d9576040517f08c379a00000000000000000000000000000000000000000000000000000000081526004016105d090612761565b60405180910390fd5b600b5f8381526020019081526020015f20549050919050565b5f634906490660e01b7bffffffffffffffffffffffffffffffffffffffffffffffffffffffff1916827bffffffffffffffffffffffffffffffffffffffffffffffffffffffff1916148061064b575061064a82610fcf565b5b9050919050565b60605f8054610660906127ac565b80601f016020809104026020016040519081016040528092919081815260200182805461068c906127ac565b80156106d75780601f106106ae576101008083540402835291602001916106d7565b820191905f5260205f20905b8154815290600101906020018083116106ba57829003601f168201915b5050505050905090565b5f6106eb826110b0565b506106f582611136565b9050919050565b61070e828261070961116f565b611176565b5050565b5f60016008546107229190612809565b905090565b5f73ffffffffffffffffffffffffffffffffffffffff168273ffffffffffffffffffffffffffffffffffffffff1603610797575f6040517f64a0ae9200000000000000000000000000000000000000000000000000000000815260040161078e91906122bf565b60405180910390fd5b5f6107aa83836107a561116f565b611188565b90508373ffffffffffffffffffffffffffffffffffffffff168173ffffffffffffffffffffffffffffffffffffffff1614610820578382826040517f64283d7b0000000000000000000000000000000000000000000000000000000081526004016108179392919061283c565b60405180910390fd5b50505050565b6009602052805f5260405f205f915054906101000a900473ffffffffffffffffffffffffffffffffffffffff1681565b61087083838360405180602001604052805f815250610b2f565b505050565b5f600a5f8373ffffffffffffffffffffffffffffffffffffffff1673ffffffffffffffffffffffffffffffffffffffff1681526020019081526020015f205f9054906101000a900460ff169050919050565b5f6108d1826110b0565b9050919050565b5f8073ffffffffffffffffffffffffffffffffffffffff168273ffffffffffffffffffffffffffffffffffffffff1603610949575f6040517f89c62b6400000000000000000000000000000000000000000000000000000000815260040161094091906122bf565b60405180910390fd5b60035f8373ffffffffffffffffffffffffffffffffffffffff1673ffffffffffffffffffffffffffffffffffffffff1681526020019081526020015f20549050919050565b610996611393565b61099f5f61141a565b565b5f60075f9054906101000a900473ffffffffffffffffffffffffffffffffffffffff16905090565b6060600180546109d8906127ac565b80601f0160208091040260200160405190810160405280929190818152602001828054610a04906127ac565b8015610a4f5780601f10610a2657610100808354040283529160200191610a4f565b820191905f5260205f20905b815481529060010190602001808311610a3257829003601f168201915b5050505050905090565b610a61611393565b6001600a5f8373ffffffffffffffffffffffffffffffffffffffff1673ffffffffffffffffffffffffffffffffffffffff1681526020019081526020015f205f6101000a81548160ff0219169083151502179055508073ffffffffffffffffffffffffffffffffffffffff167ff29712ea7553106dc04213b4a8b2d4bd706623bddf1d92ab875d278700e7722560405160405180910390a250565b610b0e610b0761116f565b83836114dd565b5050565b600a602052805f5260405f205f915054906101000a900460ff1681565b610b3a848484610727565b610b4e610b4561116f565b85858585611646565b50505050565b600b602052805f5260405f205f915090505481565b60605f73ffffffffffffffffffffffffffffffffffffffff16610b8b83610f96565b73ffffffffffffffffffffffffffffffffffffffff1603610be1576040517f08c379a0000000000000000000000000000000000000000000000000000000008152600401610bd890612761565b60405180910390fd5b610bea826117f2565b9050919050565b5f8073ffffffffffffffffffffffffffffffffffffffff16610c1283610f96565b73ffffffffffffffffffffffffffffffffffffffff1603610c68576040517f08c379a0000000000000000000000000000000000000000000000000000000008152600401610c5f90612761565b60405180910390fd5b60095f8381526020019081526020015f205f9054906101000a900473ffffffffffffffffffffffffffffffffffffffff169050919050565b610ca8611393565b5f600a5f8373ffffffffffffffffffffffffffffffffffffffff1673ffffffffffffffffffffffffffffffffffffffff1681526020019081526020015f205f6101000a81548160ff02191690831515021790555050565b5f6103e8821115610d45576040517f08c379a0000000000000000000000000000000000000000000000000000000008152600401610d3c906128bb565b60405180910390fd5b5f600854905060085f815480929190610d5d906128d9565b9190505550610d6c85826118fd565b610d7681856119f0565b3360095f8381526020019081526020015f205f6101000a81548173ffffffffffffffffffffffffffffffffffffffff021916908373ffffffffffffffffffffffffffffffffffffffff16021790555082600b5f8381526020019081526020015f20819055508473ffffffffffffffffffffffffffffffffffffffff163373ffffffffffffffffffffffffffffffffffffffff16827f701829f32a57aac054ee559c2dab89c52efecbffe5e3dc4198bd31e5b8f6613887604051610e399190612260565b60405180910390a4807fd9079ddd2431b859452943f941a81158fb9f278b572018c4d96e169542e35fd884604051610e71919061210a565b60405180910390a2809150509392505050565b5f60055f8473ffffffffffffffffffffffffffffffffffffffff1673ffffffffffffffffffffffffffffffffffffffff1681526020019081526020015f205f8373ffffffffffffffffffffffffffffffffffffffff1673ffffffffffffffffffffffffffffffffffffffff1681526020019081526020015f205f9054906101000a900460ff16905092915050565b610f1a611393565b5f73ffffffffffffffffffffffffffffffffffffffff168173ffffffffffffffffffffffffffffffffffffffff1603610f8a575f6040517f1e4fbdf7000000000000000000000000000000000000000000000000000000008152600401610f8191906122bf565b60405180910390fd5b610f938161141a565b50565b5f60025f8381526020019081526020015f205f9054906101000a900473ffffffffffffffffffffffffffffffffffffffff169050919050565b5f7f80ac58cd000000000000000000000000000000000000000000000000000000007bffffffffffffffffffffffffffffffffffffffffffffffffffffffff1916827bffffffffffffffffffffffffffffffffffffffffffffffffffffffff1916148061109957507f5b5e139f000000000000000000000000000000000000000000000000000000007bffffffffffffffffffffffffffffffffffffffffffffffffffffffff1916827bffffffffffffffffffffffffffffffffffffffffffffffffffffffff1916145b806110a957506110a882611a4a565b5b9050919050565b5f806110bb83610f96565b90505f73ffffffffffffffffffffffffffffffffffffffff168173ffffffffffffffffffffffffffffffffffffffff160361112d57826040517f7e273289000000000000000000000000000000000000000000000000000000008152600401611124919061210a565b60405180910390fd5b80915050919050565b5f60045f8381526020019081526020015f205f9054906101000a900473ffffffffffffffffffffffffffffffffffffffff169050919050565b5f33905090565b6111838383836001611ab3565b505050565b5f8061119384610f96565b90505f73ffffffffffffffffffffffffffffffffffffffff168373ffffffffffffffffffffffffffffffffffffffff16146111d4576111d3818486611c72565b5b5f73ffffffffffffffffffffffffffffffffffffffff168173ffffffffffffffffffffffffffffffffffffffff161461125f576112135f855f80611ab3565b600160035f8373ffffffffffffffffffffffffffffffffffffffff1673ffffffffffffffffffffffffffffffffffffffff1681526020019081526020015f205f82825403925050819055505b5f73ffffffffffffffffffffffffffffffffffffffff168573ffffffffffffffffffffffffffffffffffffffff16146112de57600160035f8773ffffffffffffffffffffffffffffffffffffffff1673ffffffffffffffffffffffffffffffffffffffff1681526020019081526020015f205f82825401925050819055505b8460025f8681526020019081526020015f205f6101000a81548173ffffffffffffffffffffffffffffffffffffffff021916908373ffffffffffffffffffffffffffffffffffffffff160217905550838573ffffffffffffffffffffffffffffffffffffffff168273ffffffffffffffffffffffffffffffffffffffff167fddf252ad1be2c89b69c2b068fc378daa952ba7f163c4a11628f55a4df523b3ef60405160405180910390a4809150509392505050565b61139b61116f565b73ffffffffffffffffffffffffffffffffffffffff166113b96109a1565b73ffffffffffffffffffffffffffffffffffffffff1614611418576113dc61116f565b6040517f118cdaa700000000000000000000000000000000000000000000000000000000815260040161140f91906122bf565b60405180910390fd5b565b5f60075f9054906101000a900473ffffffffffffffffffffffffffffffffffffffff1690508160075f6101000a81548173ffffffffffffffffffffffffffffffffffffffff021916908373ffffffffffffffffffffffffffffffffffffffff1602179055508173ffffffffffffffffffffffffffffffffffffffff168173ffffffffffffffffffffffffffffffffffffffff167f8be0079c531659141344cd1fd0a4f28419497f9722a3daafe3b4186f6b6457e060405160405180910390a35050565b5f73ffffffffffffffffffffffffffffffffffffffff168273ffffffffffffffffffffffffffffffffffffffff160361154d57816040517f5b08ba1800000000000000000000000000000000000000000000000000000000815260040161154491906122bf565b60405180910390fd5b8060055f8573ffffffffffffffffffffffffffffffffffffffff1673ffffffffffffffffffffffffffffffffffffffff1681526020019081526020015f205f8473ffffffffffffffffffffffffffffffffffffffff1673ffffffffffffffffffffffffffffffffffffffff1681526020019081526020015f205f6101000a81548160ff0219169083151502179055508173ffffffffffffffffffffffffffffffffffffffff168373ffffffffffffffffffffffffffffffffffffffff167f17307eab39ab6107e8899845ad3d59bd9653f200f220920489ca2b5937696c318360405161163991906121bd565b60405180910390a3505050565b5f8373ffffffffffffffffffffffffffffffffffffffff163b11156117eb578273ffffffffffffffffffffffffffffffffffffffff1663150b7a02868685856040518563ffffffff1660e01b81526004016116a49493929190612972565b6020604051808303815f875af19250505080156116df57506040513d601f19601f820116820180604052508101906116dc91906129d0565b60015b611760573d805f811461170d576040519150601f19603f3d011682016040523d82523d5f602084013e611712565b606091505b505f81510361175857836040517f64a0ae9200000000000000000000000000000000000000000000000000000000815260040161174f91906122bf565b60405180910390fd5b805160208201fd5b63150b7a0260e01b7bffffffffffffffffffffffffffffffffffffffffffffffffffffffff1916817bffffffffffffffffffffffffffffffffffffffffffffffffffffffff1916146117e957836040517f64a0ae920000000000000000000000000000000000000000000000000000000081526004016117e091906122bf565b60405180910390fd5b505b5050505050565b60606117fd826110b0565b505f60065f8481526020019081526020015f20805461181b906127ac565b80601f0160208091040260200160405190810160405280929190818152602001828054611847906127ac565b80156118925780601f1061186957610100808354040283529160200191611892565b820191905f5260205f20905b81548152906001019060200180831161187557829003601f168201915b505050505090505f6118a2611d35565b90505f8151036118b65781925050506118f8565b5f825111156118ea5780826040516020016118d2929190612a35565b604051602081830303815290604052925050506118f8565b6118f384611d4b565b925050505b919050565b5f73ffffffffffffffffffffffffffffffffffffffff168273ffffffffffffffffffffffffffffffffffffffff160361196d575f6040517f64a0ae9200000000000000000000000000000000000000000000000000000000815260040161196491906122bf565b60405180910390fd5b5f61197983835f611188565b90505f73ffffffffffffffffffffffffffffffffffffffff168173ffffffffffffffffffffffffffffffffffffffff16146119eb575f6040517f73c6ac6e0000000000000000000000000000000000000000000000000000000081526004016119e291906122bf565b60405180910390fd5b505050565b8060065f8481526020019081526020015f209081611a0e9190612bf5565b507ff8e1a15aba9398e019f0b49df1a4fde98ee17ae345cb5f6b5e2c27f5033e8ce782604051611a3e919061210a565b60405180910390a15050565b5f7f01ffc9a7000000000000000000000000000000000000000000000000000000007bffffffffffffffffffffffffffffffffffffffffffffffffffffffff1916827bffffffffffffffffffffffffffffffffffffffffffffffffffffffff1916149050919050565b8080611aeb57505f73ffffffffffffffffffffffffffffffffffffffff168273ffffffffffffffffffffffffffffffffffffffff1614155b15611c1d575f611afa846110b0565b90505f73ffffffffffffffffffffffffffffffffffffffff168373ffffffffffffffffffffffffffffffffffffffff1614158015611b6457508273ffffffffffffffffffffffffffffffffffffffff168173ffffffffffffffffffffffffffffffffffffffff1614155b8015611b775750611b758184610e84565b155b15611bb957826040517fa9fbf51f000000000000000000000000000000000000000000000000000000008152600401611bb091906122bf565b60405180910390fd5b8115611c1b57838573ffffffffffffffffffffffffffffffffffffffff168273ffffffffffffffffffffffffffffffffffffffff167f8c5be1e5ebec7d5bd14f71427d1e84f3dd0314c0f7b2291e5b200ac8c7c3b92560405160405180910390a45b505b8360045f8581526020019081526020015f205f6101000a81548173ffffffffffffffffffffffffffffffffffffffff021916908373ffffffffffffffffffffffffffffffffffffffff16021790555050505050565b611c7d838383611db1565b611d30575f73ffffffffffffffffffffffffffffffffffffffff168373ffffffffffffffffffffffffffffffffffffffff1603611cf157806040517f7e273289000000000000000000000000000000000000000000000000000000008152600401611ce8919061210a565b60405180910390fd5b81816040517f177e802f000000000000000000000000000000000000000000000000000000008152600401611d27929190612cc4565b60405180910390fd5b505050565b606060405180602001604052805f815250905090565b6060611d56826110b0565b505f611d60611d35565b90505f815111611d7e5760405180602001604052805f815250611da9565b80611d8884611e71565b604051602001611d99929190612a35565b6040516020818303038152906040525b915050919050565b5f8073ffffffffffffffffffffffffffffffffffffffff168373ffffffffffffffffffffffffffffffffffffffff1614158015611e6857508273ffffffffffffffffffffffffffffffffffffffff168473ffffffffffffffffffffffffffffffffffffffff161480611e295750611e288484610e84565b5b80611e6757508273ffffffffffffffffffffffffffffffffffffffff16611e4f83611136565b73ffffffffffffffffffffffffffffffffffffffff16145b5b90509392505050565b60605f6001611e7f84611f3b565b0190505f8167ffffffffffffffff811115611e9d57611e9c61242b565b5b6040519080825280601f01601f191660200182016040528015611ecf5781602001600182028036833780820191505090505b5090505f82602083010190505b600115611f30578080600190039150507f3031323334353637383961626364656600000000000000000000000000000000600a86061a8153600a8581611f2557611f24612ceb565b5b0494505f8503611edc575b819350505050919050565b5f805f90507a184f03e93ff9f4daa797ed6e38ed64bf6a1f0100000000000000008310611f97577a184f03e93ff9f4daa797ed6e38ed64bf6a1f0100000000000000008381611f8d57611f8c612ceb565b5b0492506040810190505b6d04ee2d6d415b85acef81000000008310611fd4576d04ee2d6d415b85acef81000000008381611fca57611fc9612ceb565b5b0492506020810190505b662386f26fc10000831061200357662386f26fc100008381611ff957611ff8612ceb565b5b0492506010810190505b6305f5e100831061202c576305f5e100838161202257612021612ceb565b5b0492506008810190505b612710831061205157612710838161204757612046612ceb565b5b0492506004810190505b60648310612074576064838161206a57612069612ceb565b5b0492506002810190505b600a8310612083576001810190505b80915050919050565b5f604051905090565b5f80fd5b5f80fd5b5f819050919050565b6120af8161209d565b81146120b9575f80fd5b50565b5f813590506120ca816120a6565b92915050565b5f602082840312156120e5576120e4612095565b5b5f6120f2848285016120bc565b91505092915050565b6121048161209d565b82525050565b5f60208201905061211d5f8301846120fb565b92915050565b5f7fffffffff0000000000000000000000000000000000000000000000000000000082169050919050565b61215781612123565b8114612161575f80fd5b50565b5f813590506121728161214e565b92915050565b5f6020828403121561218d5761218c612095565b5b5f61219a84828501612164565b91505092915050565b5f8115159050919050565b6121b7816121a3565b82525050565b5f6020820190506121d05f8301846121ae565b92915050565b5f81519050919050565b5f82825260208201905092915050565b5f5b8381101561220d5780820151818401526020810190506121f2565b5f8484015250505050565b5f601f19601f8301169050919050565b5f612232826121d6565b61223c81856121e0565b935061224c8185602086016121f0565b61225581612218565b840191505092915050565b5f6020820190508181035f8301526122788184612228565b905092915050565b5f73ffffffffffffffffffffffffffffffffffffffff82169050919050565b5f6122a982612280565b9050919050565b6122b98161229f565b82525050565b5f6020820190506122d25f8301846122b0565b92915050565b6122e18161229f565b81146122eb575f80fd5b50565b5f813590506122fc816122d8565b92915050565b5f806040838503121561231857612317612095565b5b5f612325858286016122ee565b9250506020612336858286016120bc565b9150509250929050565b5f805f6060848603121561235757612356612095565b5b5f612364868287016122ee565b9350506020612375868287016122ee565b9250506040612386868287016120bc565b9150509250925092565b5f602082840312156123a5576123a4612095565b5b5f6123b2848285016122ee565b91505092915050565b6123c4816121a3565b81146123ce575f80fd5b50565b5f813590506123df816123bb565b92915050565b5f80604083850312156123fb576123fa612095565b5b5f612408858286016122ee565b9250506020612419858286016123d1565b9150509250929050565b5f80fd5b5f80fd5b7f4e487b71000000000000000000000000000000000000000000000000000000005f52604160045260245ffd5b61246182612218565b810181811067ffffffffffffffff821117156124805761247f61242b565b5b80604052505050565b5f61249261208c565b905061249e8282612458565b919050565b5f67ffffffffffffffff8211156124bd576124bc61242b565b5b6124c682612218565b9050602081019050919050565b828183375f83830152505050565b5f6124f36124ee846124a3565b612489565b90508281526020810184848401111561250f5761250e612427565b5b61251a8482856124d3565b509392505050565b5f82601f83011261253657612535612423565b5b81356125468482602086016124e1565b91505092915050565b5f805f806080858703121561256757612566612095565b5b5f612574878288016122ee565b9450506020612585878288016122ee565b9350506040612596878288016120bc565b925050606085013567ffffffffffffffff8111156125b7576125b6612099565b5b6125c387828801612522565b91505092959194509250565b5f67ffffffffffffffff8211156125e9576125e861242b565b5b6125f282612218565b9050602081019050919050565b5f61261161260c846125cf565b612489565b90508281526020810184848401111561262d5761262c612427565b5b6126388482856124d3565b509392505050565b5f82601f83011261265457612653612423565b5b81356126648482602086016125ff565b91505092915050565b5f805f6060848603121561268457612683612095565b5b5f612691868287016122ee565b935050602084013567ffffffffffffffff8111156126b2576126b1612099565b5b6126be86828701612640565b92505060406126cf868287016120bc565b9150509250925092565b5f80604083850312156126ef576126ee612095565b5b5f6126fc858286016122ee565b925050602061270d858286016122ee565b9150509250929050565b7f52656c696320646f6573206e6f742065786973740000000000000000000000005f82015250565b5f61274b6014836121e0565b915061275682612717565b602082019050919050565b5f6020820190508181035f8301526127788161273f565b9050919050565b7f4e487b71000000000000000000000000000000000000000000000000000000005f52602260045260245ffd5b5f60028204905060018216806127c357607f821691505b6020821081036127d6576127d561277f565b5b50919050565b7f4e487b71000000000000000000000000000000000000000000000000000000005f52601160045260245ffd5b5f6128138261209d565b915061281e8361209d565b9250828203905081811115612836576128356127dc565b5b92915050565b5f60608201905061284f5f8301866122b0565b61285c60208301856120fb565b61286960408301846122b0565b949350505050565b7f506f776572206c6576656c2063616e6e6f7420657863656564203130303000005f82015250565b5f6128a5601e836121e0565b91506128b082612871565b602082019050919050565b5f6020820190508181035f8301526128d281612899565b9050919050565b5f6128e38261209d565b91507fffffffffffffffffffffffffffffffffffffffffffffffffffffffffffffffff8203612915576129146127dc565b5b600182019050919050565b5f81519050919050565b5f82825260208201905092915050565b5f61294482612920565b61294e818561292a565b935061295e8185602086016121f0565b61296781612218565b840191505092915050565b5f6080820190506129855f8301876122b0565b61299260208301866122b0565b61299f60408301856120fb565b81810360608301526129b1818461293a565b905095945050505050565b5f815190506129ca8161214e565b92915050565b5f602082840312156129e5576129e4612095565b5b5f6129f2848285016129bc565b91505092915050565b5f81905092915050565b5f612a0f826121d6565b612a1981856129fb565b9350612a298185602086016121f0565b80840191505092915050565b5f612a408285612a05565b9150612a4c8284612a05565b91508190509392505050565b5f819050815f5260205f209050919050565b5f6020601f8301049050919050565b5f82821b905092915050565b5f60088302612ab47fffffffffffffffffffffffffffffffffffffffffffffffffffffffffffffffff82612a79565b612abe8683612a79565b95508019841693508086168417925050509392505050565b5f819050919050565b5f612af9612af4612aef8461209d565b612ad6565b61209d565b9050919050565b5f819050919050565b612b1283612adf565b612b26612b1e82612b00565b848454612a85565b825550505050565b5f90565b612b3a612b2e565b612b45818484612b09565b505050565b5b81811015612b6857612b5d5f82612b32565b600181019050612b4b565b5050565b601f821115612bad57612b7e81612a58565b612b8784612a6a565b81016020851015612b96578190505b612baa612ba285612a6a565b830182612b4a565b50505b505050565b5f82821c905092915050565b5f612bcd5f1984600802612bb2565b1980831691505092915050565b5f612be58383612bbe565b9150826002028217905092915050565b612bfe826121d6565b67ffffffffffffffff811115612c1757612c1661242b565b5b612c2182546127ac565b612c2c828285612b6c565b5f60209050601f831160018114612c5d575f8415612c4b578287015190505b612c558582612bda565b865550612cbc565b601f198416612c6b86612a58565b5f5b82811015612c9257848901518255600182019150602085019450602081019050612c6d565b86831015612caf5784890151612cab601f891682612bbe565b8355505b6001600288020188555050505b505050505050565b5f604082019050612cd75f8301856122b0565b612ce460208301846120fb565b9392505050565b7f4e487b71000000000000000000000000000000000000000000000000000000005f52601260045260245ffdfea26469706673582212208458bd050967b13d11e735451835cadf8c8d298babd7046c37082a31bb88588764736f6c63430008140033",
  "linkReferences": {},
  "deployedLinkReferences": {},
  "immutableReferences": {},
  "inputSourceName": "project/contracts/OvermindNFT.sol",
  "buildInfoId": "solc-0_8_20-6f2bb91fe730bdfdfde5b1a672c80169b7927823"
}