{"project/test/contracts/MockERC1155.sol":{"MockERC1155":{"abi":[{"inputs":[{"internalType":"string","name":"uri","type":"string"}],"stateMutability":"nonpayable","type":"constructor"},{"inputs":[{"internalType":"address","name":"sender","type":"address"},{"internalType":"uint256","name":"balance","type":"uint256"},{"internalType":"uint256","name":"needed","type":"uint256"},{"internalType":"uint256","name":"tokenId","type":"uint256"}],"name":"ERC1155InsufficientBalance","type":"error"},{"inputs":[{"internalType":"address","name":"approver","type":"address"}],"name":"ERC1155InvalidApprover","type":"error"},{"inputs":[{"internalType":"uint256","name":"idsLength","type":"uint256"},{"internalType":"uint256","name":"valuesLength","type":"uint256"}],"name":"ERC1155InvalidArrayLength","type":"error"},{"inputs":[{"internalType":"address","name":"operator","type":"address"}],"name":"ERC1155InvalidOperator","type":"error"},{"inputs":[{"internalType":"address","name":"receiver","type":"address"}],"name":"ERC1155InvalidReceiver","type":"error"},{"inputs":[{"internalType":"address","name":"sender","type":"address"}],"name":"ERC1155InvalidSender","type":"error"},{"inputs":[{"internalType":"address","name":"operator","type":"address"},{"internalType":"address","name":"owner","type":"address"}],"name":"ERC1155MissingApprovalForAll","type":"error"},{"anonymous":false,"inputs":[{"indexed":true,"internalType":"address","name":"account","type":"address"},{"indexed":true,"internalType":"address","name":"operator","type":"address"},{"indexed":false,"internalType":"bool","name":"approved","type":"bool"}],"name":"ApprovalForAll","type":"event"},{"anonymous":false,"inputs":[{"indexed":true,"internalType":"address","name":"operator","type":"address"},{"indexed":true,"internalType":"address","name":"from","type":"address"},{"indexed":true,"internalType":"address","name":"to","type":"address"},{"indexed":false,"internalType":"uint256[]","name":"ids","type":"uint256[]"},{"indexed":false,"internalType":"uint256[]","name":"values","type":"uint256[]"}],"name":"TransferBatch","type":"event"},{"anonymous":false,"inputs":[{"indexed":true,"internalType":"address","name":"operator","type":"address"},{"indexed":true,"internalType":"address","name":"from","type":"address"},{"indexed":true,"internalType":"address","name":"to","type":"address"},{"indexed":false,"internalType":"uint256","name":"id","type":"uint256"},{"indexed":false,"internalType":"uint256","name":"value","type":"uint256"}],"name":"TransferSingle","type":"event"},{"anonymous":false,"inputs":[{"indexed":false,"internalType":"string","name":"value","type":"string"},{"indexed":true,"internalType":"uint256","name":"id","type":"uint256"}],"name":"URI","type":"event"},{"inputs":[{"internalType":"address","name":"account","type":"address"},{"internalType":"uint256","name":"id","type":"uint256"}],"name":"balanceOf","outputs":[{"internalType":"uint256","name":"","type":"uint256"}],"stateMutability":"view","type":"function"},{"inputs":[{"internalType":"address[]","name":"accounts","type":"address[]"},{"internalType":"uint256[]","name":"ids","type":"uint256[]"}],"name":"balanceOfBatch","outputs":[{"internalType":"uint256[]","name":"","type":"uint256[]"}],"stateMutability":"view","type":"function"},{"inputs":[{"internalType":"address","name":"account","type":"address"},{"internalType":"address","name":"operator","type":"address"}],"name":"isApprovedForAll","outputs":[{"internalType":"bool","name":"","type":"bool"}],"stateMutability":"view","type":"function"},{"inputs":[{"internalType":"address","name":"to","type":"address"},{"internalType":"uint256","name":"id","type":"uint256"},{"internalType":"uint256","name":"amount","type":"uint256"}],"name":"mint","outputs":[],"stateMutability":"nonpayable","type":"function"},{"inputs":[{"internalType":"address","name":"to","type":"address"},{"internalType":"uint256[]","name":"ids","type":"uint256[]"},{"internalType":"uint256[]","name":"amounts","type":"uint256[]"}],"name":"mintBatch","outputs":[],"stateMutability":"nonpayable","type":"function"},{"inputs":[{"internalType":"address","name":"from","type":"address"},{"internalType":"address","name":"to","type":"address"},{"internalType":"uint256[]","name":"ids","type":"uint256[]"},{"internalType":"uint256[]","name":"values","type":"uint256[]"},{"internalType":"bytes","name":"data","type":"bytes"}],"name":"safeBatchTransferFrom","outputs":[],"stateMutability":"nonpayable","type":"function"},{"inputs":[{"internalType":"address","name":"from","type":"address"},{"internalType":"address","name":"to","type":"address"},{"internalType":"uint256","name":"id","type":"uint256"},{"internalType":"uint256","name":"value","type":"uint256"},{"internalType":"bytes","name":"data","type":"bytes"}],"name":"safeTransferFrom","outputs":[],"stateMutability":"nonpayable","type":"function"},{"inputs":[{"internalType":"address","name":"operator","type":"address"},{"internalType":"bool","name":"approved","type":"bool"}],"name":"setApprovalForAll","outputs":[],"stateMutability":"nonpayable","type":"function"},{"inputs":[{"internalType":"bytes4","name":"interfaceId","type":"bytes4"}],"name":"supportsInterface","outputs":[{"internalType":"bool","name":"","type":"bool"}],"stateMutability":"view","type":"function"},{"inputs":[{"internalType":"uint256","name":"","type":"uint256"}],"name":"uri","outputs":[{"internalType":"string","name":"","type":"string"}],"stateMutability":"view","type":"function"}],"evm":{"bytecode":{"linkReferences":{},"object":"608060405234801562000010575f80fd5b506040516200266c3803806200266c8339818101604052810190620000369190620001ea565b8062000048816200005060201b60201c565b505062000554565b806002908162000061919062000470565b5050565b5f604051905090565b5f80fd5b5f80fd5b5f80fd5b5f80fd5b5f601f19601f8301169050919050565b7f4e487b71000000000000000000000000000000000000000000000000000000005f52604160045260245ffd5b620000c6826200007e565b810181811067ffffffffffffffff82111715620000e857620000e76200008e565b5b80604052505050565b5f620000fc62000065565b90506200010a8282620000bb565b919050565b5f67ffffffffffffffff8211156200012c576200012b6200008e565b5b62000137826200007e565b9050602081019050919050565b5f5b838110156200016357808201518184015260208101905062000146565b5f8484015250505050565b5f620001846200017e846200010f565b620000f1565b905082815260208101848484011115620001a357620001a26200007a565b5b620001b084828562000144565b509392505050565b5f82601f830112620001cf57620001ce62000076565b5b8151620001e18482602086016200016e565b91505092915050565b5f602082840312156200020257620002016200006e565b5b5f82015167ffffffffffffffff81111562000222576200022162000072565b5b6200023084828501620001b8565b91505092915050565b5f81519050919050565b7f4e487b71000000000000000000000000000000000000000000000000000000005f52602260045260245ffd5b5f60028204905060018216806200028857607f821691505b6020821081036200029e576200029d62000243565b5b50919050565b5f819050815f5260205f209050919050565b5f6020601f8301049050919050565b5f82821b905092915050565b5f60088302620003027fffffffffffffffffffffffffffffffffffffffffffffffffffffffffffffffff82620002c5565b6200030e8683620002c5565b95508019841693508086168417925050509392505050565b5f819050919050565b5f819050919050565b5f62000358620003526200034c8462000326565b6200032f565b62000326565b9050919050565b5f819050919050565b620003738362000338565b6200038b62000382826200035f565b848454620002d1565b825550505050565b5f90565b620003a162000393565b620003ae81848462000368565b505050565b5b81811015620003d557620003c95f8262000397565b600181019050620003b4565b5050565b601f8211156200042457620003ee81620002a4565b620003f984620002b6565b8101602085101562000409578190505b620004216200041885620002b6565b830182620003b3565b50505b505050565b5f82821c905092915050565b5f620004465f198460080262000429565b1980831691505092915050565b5f62000460838362000435565b9150826002028217905092915050565b6200047b8262000239565b67ffffffffffffffff8111156200049757620004966200008e565b5b620004a3825462000270565b620004b0828285620003d9565b5f60209050601f831160018114620004e6575f8415620004d1578287015190505b620004dd858262000453565b8655506200054c565b601f198416620004f686620002a4565b5f5b828110156200051f57848901518255600182019150602085019450602081019050620004f8565b868310156200053f57848901516200053b601f89168262000435565b8355505b6001600288020188555050505b505050505050565b61210a80620005625f395ff3fe608060405234801561000f575f80fd5b506004361061009b575f3560e01c80634e1273f4116100645780634e1273f414610167578063a22cb46514610197578063d81d0a15146101b3578063e985e9c5146101cf578063f242432a146101ff5761009b565b8062fdd58e1461009f57806301ffc9a7146100cf5780630e89341c146100ff578063156e29f61461012f5780632eb2c2d61461014b575b5f80fd5b6100b960048036038101906100b4919061149f565b61021b565b6040516100c691906114ec565b60405180910390f35b6100e960048036038101906100e4919061155a565b610270565b6040516100f6919061159f565b60405180910390f35b610119600480360381019061011491906115b8565b610351565b604051610126919061166d565b60405180910390f35b6101496004803603810190610144919061168d565b6103e3565b005b610165600480360381019061016091906118cd565b610402565b005b610181600480360381019061017c9190611a58565b6104a9565b60405161018e9190611b85565b60405180910390f35b6101b160048036038101906101ac9190611bcf565b6105b6565b005b6101cd60048036038101906101c89190611c0d565b6105cc565b005b6101e960048036038101906101e49190611c95565b6105eb565b6040516101f6919061159f565b60405180910390f35b61021960048036038101906102149190611cd3565b610679565b005b5f805f8381526020019081526020015f205f8473ffffffffffffffffffffffffffffffffffffffff1673ffffffffffffffffffffffffffffffffffffffff1681526020019081526020015f2054905092915050565b5f7fd9b67a26000000000000000000000000000000000000000000000000000000007bffffffffffffffffffffffffffffffffffffffffffffffffffffffff1916827bffffffffffffffffffffffffffffffffffffffffffffffffffffffff1916148061033a57507f0e89341c000000000000000000000000000000000000000000000000000000007bffffffffffffffffffffffffffffffffffffffffffffffffffffffff1916827bffffffffffffffffffffffffffffffffffffffffffffffffffffffff1916145b8061034a575061034982610720565b5b9050919050565b60606002805461036090611d93565b80601f016020809104026020016040519081016040528092919081815260200182805461038c90611d93565b80156103d75780601f106103ae576101008083540402835291602001916103d7565b820191905f5260205f20905b8154815290600101906020018083116103ba57829003601f168201915b50505050509050919050565b6103fd83838360405180602001604052805f815250610789565b505050565b5f61040b61081e565b90508073ffffffffffffffffffffffffffffffffffffffff168673ffffffffffffffffffffffffffffffffffffffff1614158015610450575061044e86826105eb565b155b156104945780866040517fe237d92200000000000000000000000000000000000000000000000000000000815260040161048b929190611dd2565b60405180910390fd5b6104a18686868686610825565b505050505050565b606081518351146104f557815183516040517f5b0599910000000000000000000000000000000000000000000000000000000081526004016104ec929190611df9565b60405180910390fd5b5f835167ffffffffffffffff811115610511576105106116e1565b5b60405190808252806020026020018201604052801561053f5781602001602082028036833780820191505090505b5090505f5b84518110156105ab5761057b610563828761091990919063ffffffff16565b610576838761092c90919063ffffffff16565b61021b565b82828151811061058e5761058d611e20565b5b602002602001018181525050806105a490611e7a565b9050610544565b508091505092915050565b6105c86105c161081e565b838361093f565b5050565b6105e683838360405180602001604052805f815250610aa8565b505050565b5f60015f8473ffffffffffffffffffffffffffffffffffffffff1673ffffffffffffffffffffffffffffffffffffffff1681526020019081526020015f205f8373ffffffffffffffffffffffffffffffffffffffff1673ffffffffffffffffffffffffffffffffffffffff1681526020019081526020015f205f9054906101000a900460ff16905092915050565b5f61068261081e565b90508073ffffffffffffffffffffffffffffffffffffffff168673ffffffffffffffffffffffffffffffffffffffff16141580156106c757506106c586826105eb565b155b1561070b5780866040517fe237d922000000000000000000000000000000000000000000000000000000008152600401610702929190611dd2565b60405180910390fd5b6107188686868686610b2b565b505050505050565b5f7f01ffc9a7000000000000000000000000000000000000000000000000000000007bffffffffffffffffffffffffffffffffffffffffffffffffffffffff1916827bffffffffffffffffffffffffffffffffffffffffffffffffffffffff1916149050919050565b5f73ffffffffffffffffffffffffffffffffffffffff168473ffffffffffffffffffffffffffffffffffffffff16036107f9575f6040517f57f447ce0000000000000000000000000000000000000000000000000000000081526004016107f09190611ec1565b60405180910390fd5b5f806108058585610c31565b915091506108165f87848487610c61565b505050505050565b5f33905090565b5f73ffffffffffffffffffffffffffffffffffffffff168473ffffffffffffffffffffffffffffffffffffffff1603610895575f6040517f57f447ce00000000000000000000000000000000000000000000000000000000815260040161088c9190611ec1565b60405180910390fd5b5f73ffffffffffffffffffffffffffffffffffffffff168573ffffffffffffffffffffffffffffffffffffffff1603610905575f6040517f01a835140000000000000000000000000000000000000000000000000000000081526004016108fc9190611ec1565b60405180910390fd5b6109128585858585610c61565b5050505050565b5f60208202602084010151905092915050565b5f60208202602084010151905092915050565b5f73ffffffffffffffffffffffffffffffffffffffff168273ffffffffffffffffffffffffffffffffffffffff16036109af575f6040517fced3e1000000000000000000000000000000000000000000000000000000000081526004016109a69190611ec1565b60405180910390fd5b8060015f8573ffffffffffffffffffffffffffffffffffffffff1673ffffffffffffffffffffffffffffffffffffffff1681526020019081526020015f205f8473ffffffffffffffffffffffffffffffffffffffff1673ffffffffffffffffffffffffffffffffffffffff1681526020019081526020015f205f6101000a81548160ff0219169083151502179055508173ffffffffffffffffffffffffffffffffffffffff168373ffffffffffffffffffffffffffffffffffffffff167f17307eab39ab6107e8899845ad3d59bd9653f200f220920489ca2b5937696c3183604051610a9b919061159f565b60405180910390a3505050565b5f73ffffffffffffffffffffffffffffffffffffffff168473ffffffffffffffffffffffffffffffffffffffff1603610b18575f6040517f57f447ce000000000000000000000000000000000000000000000000000000008152600401610b0f9190611ec1565b60405180910390fd5b610b255f85858585610c61565b50505050565b5f73ffffffffffffffffffffffffffffffffffffffff168473ffffffffffffffffffffffffffffffffffffffff1603610b9b575f6040517f57f447ce000000000000000000000000000000000000000000000000000000008152600401610b929190611ec1565b60405180910390fd5b5f73ffffffffffffffffffffffffffffffffffffffff168573ffffffffffffffffffffffffffffffffffffffff1603610c0b575f6040517f01a83514000000000000000000000000000000000000000000000000000000008152600401610c029190611ec1565b60405180910390fd5b5f80610c178585610c31565b91509150610c288787848487610c61565b50505050505050565b60608060405191506001825283602083015260408201905060018152826020820152604081016040529250929050565b610c6d85858585610d0d565b5f73ffffffffffffffffffffffffffffffffffffffff168473ffffffffffffffffffffffffffffffffffffffff1614610d06575f610ca961081e565b90506001845103610cf5575f610cc85f8661092c90919063ffffffff16565b90505f610cde5f8661092c90919063ffffffff16565b9050610cee8389898585896110a3565b5050610d04565b610d03818787878787611252565b5b505b5050505050565b8051825114610d5757815181516040517f5b059991000000000000000000000000000000000000000000000000000000008152600401610d4e929190611df9565b60405180910390fd5b5f610d6061081e565b90505f5b8351811015610f62575f610d81828661092c90919063ffffffff16565b90505f610d97838661092c90919063ffffffff16565b90505f73ffffffffffffffffffffffffffffffffffffffff168873ffffffffffffffffffffffffffffffffffffffff1614610eba575f805f8481526020019081526020015f205f8a73ffffffffffffffffffffffffffffffffffffffff1673ffffffffffffffffffffffffffffffffffffffff1681526020019081526020015f2054905081811015610e6657888183856040517f03dee4c5000000000000000000000000000000000000000000000000000000008152600401610e5d9493929190611eda565b60405180910390fd5b8181035f808581526020019081526020015f205f8b73ffffffffffffffffffffffffffffffffffffffff1673ffffffffffffffffffffffffffffffffffffffff1681526020019081526020015f2081905550505b5f73ffffffffffffffffffffffffffffffffffffffff168773ffffffffffffffffffffffffffffffffffffffff1614610f4f57805f808481526020019081526020015f205f8973ffffffffffffffffffffffffffffffffffffffff1673ffffffffffffffffffffffffffffffffffffffff1681526020019081526020015f205f828254610f479190611f1d565b925050819055505b505080610f5b90611e7a565b9050610d64565b50600183510361101d575f610f805f8561092c90919063ffffffff16565b90505f610f965f8561092c90919063ffffffff16565b90508573ffffffffffffffffffffffffffffffffffffffff168773ffffffffffffffffffffffffffffffffffffffff168473ffffffffffffffffffffffffffffffffffffffff167fc3d58168c5ae7397731d063d5bbf3d657854427343f4c083240f7aacaa2d0f62858560405161100e929190611df9565b60405180910390a4505061109c565b8373ffffffffffffffffffffffffffffffffffffffff168573ffffffffffffffffffffffffffffffffffffffff168273ffffffffffffffffffffffffffffffffffffffff167f4a39dc06d4c0dbc64b70af90fd698a233a518aa5d07e595d983b8c0526c8f7fb8686604051611093929190611f50565b60405180910390a45b5050505050565b5f8473ffffffffffffffffffffffffffffffffffffffff163b111561124a578373ffffffffffffffffffffffffffffffffffffffff1663f23a6e6187878686866040518663ffffffff1660e01b8152600401611103959493929190611fd7565b6020604051808303815f875af192505050801561113e57506040513d601f19601f8201168201806040525081019061113b9190612043565b60015b6111bf573d805f811461116c576040519150601f19603f3d011682016040523d82523d5f602084013e611171565b606091505b505f8151036111b757846040517f57f447ce0000000000000000000000000000000000000000000000000000000081526004016111ae9190611ec1565b60405180910390fd5b805160208201fd5b63f23a6e6160e01b7bffffffffffffffffffffffffffffffffffffffffffffffffffffffff1916817bffffffffffffffffffffffffffffffffffffffffffffffffffffffff19161461124857846040517f57f447ce00000000000000000000000000000000000000000000000000000000815260040161123f9190611ec1565b60405180910390fd5b505b505050505050565b5f8473ffffffffffffffffffffffffffffffffffffffff163b11156113f9578373ffffffffffffffffffffffffffffffffffffffff1663bc197c8187878686866040518663ffffffff1660e01b81526004016112b295949392919061206e565b6020604051808303815f875af19250505080156112ed57506040513d601f19601f820116820180604052508101906112ea9190612043565b60015b61136e573d805f811461131b576040519150601f19603f3d011682016040523d82523d5f602084013e611320565b606091505b505f81510361136657846040517f57f447ce00000000000000000000000000000000000000000000000000000000815260040161135d9190611ec1565b60405180910390fd5b805160208201fd5b63bc197c8160e01b7bffffffffffffffffffffffffffffffffffffffffffffffffffffffff1916817bffffffffffffffffffffffffffffffffffffffffffffffffffffffff1916146113f757846040517f57f447ce0000000000000000000000000000000000000000000000000000000081526004016113ee9190611ec1565b60405180910390fd5b505b505050505050565b5f604051905090565b5f80fd5b5f80fd5b5f73ffffffffffffffffffffffffffffffffffffffff82169050919050565b5f61143b82611412565b9050919050565b61144b81611431565b8114611455575f80fd5b50565b5f8135905061146681611442565b92915050565b5f819050919050565b61147e8161146c565b8114611488575f80fd5b50565b5f8135905061149981611475565b92915050565b5f80604083850312156114b5576114b461140a565b5b5f6114c285828601611458565b92505060206114d38582860161148b565b9150509250929050565b6114e68161146c565b82525050565b5f6020820190506114ff5f8301846114dd565b92915050565b5f7fffffffff0000000000000000000000000000000000000000000000000000000082169050919050565b61153981611505565b8114611543575f80fd5b50565b5f8135905061155481611530565b92915050565b5f6020828403121561156f5761156e61140a565b5b5f61157c84828501611546565b91505092915050565b5f8115159050919050565b61159981611585565b82525050565b5f6020820190506115b25f830184611590565b92915050565b5f602082840312156115cd576115cc61140a565b5b5f6115da8482850161148b565b91505092915050565b5f81519050919050565b5f82825260208201905092915050565b5f5b8381101561161a5780820151818401526020810190506115ff565b5f8484015250505050565b5f601f19601f8301169050919050565b5f61163f826115e3565b61164981856115ed565b93506116598185602086016115fd565b61166281611625565b840191505092915050565b5f6020820190508181035f8301526116858184611635565b905092915050565b5f805f606084860312156116a4576116a361140a565b5b5f6116b186828701611458565b93505060206116c28682870161148b565b92505060406116d38682870161148b565b9150509250925092565b5f80fd5b7f4e487b71000000000000000000000000000000000000000000000000000000005f52604160045260245ffd5b61171782611625565b810181811067ffffffffffffffff82111715611736576117356116e1565b5b80604052505050565b5f611748611401565b9050611754828261170e565b919050565b5f67ffffffffffffffff821115611773576117726116e1565b5b602082029050602081019050919050565b5f80fd5b5f61179a61179584611759565b61173f565b905080838252602082019050602084028301858111156117bd576117bc611784565b5b835b818110156117e657806117d2888261148b565b8452602084019350506020810190506117bf565b5050509392505050565b5f82601f830112611804576118036116dd565b5b8135611814848260208601611788565b91505092915050565b5f80fd5b5f67ffffffffffffffff82111561183b5761183a6116e1565b5b61184482611625565b9050602081019050919050565b828183375f83830152505050565b5f61187161186c84611821565b61173f565b90508281526020810184848401111561188d5761188c61181d565b5b611898848285611851565b509392505050565b5f82601f8301126118b4576118b36116dd565b5b81356118c484826020860161185f565b91505092915050565b5f805f805f60a086880312156118e6576118e561140a565b5b5f6118f388828901611458565b955050602061190488828901611458565b945050604086013567ffffffffffffffff8111156119255761192461140e565b5b611931888289016117f0565b935050606086013567ffffffffffffffff8111156119525761195161140e565b5b61195e888289016117f0565b925050608086013567ffffffffffffffff81111561197f5761197e61140e565b5b61198b888289016118a0565b9150509295509295909350565b5f67ffffffffffffffff8211156119b2576119b16116e1565b5b602082029050602081019050919050565b5f6119d56119d084611998565b61173f565b905080838252602082019050602084028301858111156119f8576119f7611784565b5b835b81811015611a215780611a0d8882611458565b8452602084019350506020810190506119fa565b5050509392505050565b5f82601f830112611a3f57611a3e6116dd565b5b8135611a4f8482602086016119c3565b91505092915050565b5f8060408385031215611a6e57611a6d61140a565b5b5f83013567ffffffffffffffff811115611a8b57611a8a61140e565b5b611a9785828601611a2b565b925050602083013567ffffffffffffffff811115611ab857611ab761140e565b5b611ac4858286016117f0565b9150509250929050565b5f81519050919050565b5f82825260208201905092915050565b5f819050602082019050919050565b611b008161146c565b82525050565b5f611b118383611af7565b60208301905092915050565b5f602082019050919050565b5f611b3382611ace565b611b3d8185611ad8565b9350611b4883611ae8565b805f5b83811015611b78578151611b5f8882611b06565b9750611b6a83611b1d565b925050600181019050611b4b565b5085935050505092915050565b5f6020820190508181035f830152611b9d8184611b29565b905092915050565b611bae81611585565b8114611bb8575f80fd5b50565b5f81359050611bc981611ba5565b92915050565b5f8060408385031215611be557611be461140a565b5b5f611bf285828601611458565b9250506020611c0385828601611bbb565b9150509250929050565b5f805f60608486031215611c2457611c2361140a565b5b5f611c3186828701611458565b935050602084013567ffffffffffffffff811115611c5257611c5161140e565b5b611c5e868287016117f0565b925050604084013567ffffffffffffffff811115611c7f57611c7e61140e565b5b611c8b868287016117f0565b9150509250925092565b5f8060408385031215611cab57611caa61140a565b5b5f611cb885828601611458565b9250506020611cc985828601611458565b9150509250929050565b5f805f805f60a08688031215611cec57611ceb61140a565b5b5f611cf988828901611458565b9550506020611d0a88828901611458565b9450506040611d1b8882890161148b565b9350506060611d2c8882890161148b565b925050608086013567ffffffffffffffff811115611d4d57611d4c61140e565b5b611d59888289016118a0565b9150509295509295909350565b7f4e487b71000000000000000000000000000000000000000000000000000000005f52602260045260245ffd5b5f6002820490506001821680611daa57607f821691505b602082108103611dbd57611dbc611d66565b5b50919050565b611dcc81611431565b82525050565b5f604082019050611de55f830185611dc3565b611df26020830184611dc3565b9392505050565b5f604082019050611e0c5f8301856114dd565b611e1960208301846114dd565b9392505050565b7f4e487b71000000000000000000000000000000000000000000000000000000005f52603260045260245ffd5b7f4e487b71000000000000000000000000000000000000000000000000000000005f52601160045260245ffd5b5f611e848261146c565b91507fffffffffffffffffffffffffffffffffffffffffffffffffffffffffffffffff8203611eb657611eb5611e4d565b5b600182019050919050565b5f602082019050611ed45f830184611dc3565b92915050565b5f608082019050611eed5f830187611dc3565b611efa60208301866114dd565b611f0760408301856114dd565b611f1460608301846114dd565b95945050505050565b5f611f278261146c565b9150611f328361146c565b9250828201905080821115611f4a57611f49611e4d565b5b92915050565b5f6040820190508181035f830152611f688185611b29565b90508181036020830152611f7c8184611b29565b90509392505050565b5f81519050919050565b5f82825260208201905092915050565b5f611fa982611f85565b611fb38185611f8f565b9350611fc38185602086016115fd565b611fcc81611625565b840191505092915050565b5f60a082019050611fea5f830188611dc3565b611ff76020830187611dc3565b61200460408301866114dd565b61201160608301856114dd565b81810360808301526120238184611f9f565b90509695505050505050565b5f8151905061203d81611530565b92915050565b5f602082840312156120585761205761140a565b5b5f6120658482850161202f565b91505092915050565b5f60a0820190506120815f830188611dc3565b61208e6020830187611dc3565b81810360408301526120a08186611b29565b905081810360608301526120b48185611b29565b905081810360808301526120c88184611f9f565b9050969550505050505056fea26469706673582212207ca16a4cdda07295a77999352121441dd46d3f10a3b1f460b5aa345f384fcdd764736f6c63430008140033","opcodes":"PUSH1 0x80 PUSH1 0x40 MSTORE CALLVALUE DUP1 ISZERO PUSH3 0x10 JUMPI PUSH0 DUP1 REVERT JUMPDEST POP PUSH1 0x40 MLOAD PUSH3 0x266C CODESIZE SUB DUP1 PUSH3 0x266C DUP4 CODECOPY DUP2 DUP2 ADD PUSH1 0x40 MSTORE DUP2 ADD SWAP1 PUSH3 0x36 SWAP2 SWAP1 PUSH3 0x1EA JUMP JUMPDEST DUP1 PUSH3 0x48 DUP2 PUSH3 0x50 PUSH1 0x20 SHL PUSH1 0x20 SHR JUMP JUMPDEST POP POP PUSH3 0x554 JUMP JUMPDEST DUP1 PUSH1 0x2 SWAP1 DUP2 PUSH3 0x61 SWAP2 SWAP1 PUSH3 0x470 JUMP JUMPDEST POP POP JUMP JUMPDEST PUSH0 PUSH1 0x40 MLOAD SWAP1 POP SWAP1 JUMP JUMPDEST PUSH0 DUP1 REVERT JUMPDEST PUSH0 DUP1 REVERT JUMPDEST PUSH0 DUP1 REVERT JUMPDEST PUSH0 DUP1 REVERT JUMPDEST PUSH0 PUSH1 0x1F NOT PUSH1 0x1F DUP4 ADD AND SWAP1 POP SWAP2 SWAP1 POP JUMP JUMPDEST PUSH32 0x4E487B7100000000000000000000000000000000000000000000000000000000 PUSH0 MSTORE PUSH1 0x41 PUSH1 0x4 MSTORE PUSH1 0x24 PUSH0 REVERT JUMPDEST PUSH3 0xC6 DUP3 PUSH3 0x7E JUMP JUMPDEST DUP2 ADD DUP2 DUP2 LT PUSH8 0xFFFFFFFFFFFFFFFF DUP3 GT OR ISZERO PUSH3 0xE8 JUMPI PUSH3 0xE7 PUSH3 0x8E JUMP JUMPDEST JUMPDEST DUP1 PUSH1 0x40 MSTORE POP POP POP JUMP JUMPDEST PUSH0 PUSH3 0xFC PUSH3 0x65 JUMP JUMPDEST SWAP1 POP PUSH3 0x10A DUP3 DUP3 PUSH3 0xBB JUMP JUMPDEST SWAP2 SWAP1 POP JUMP JUMPDEST PUSH0 PUSH8 0xFFFFFFFFFFFFFFFF DUP3 GT ISZERO PUSH3 0x12C JUMPI PUSH3 0x12B PUSH3 0x8E JUMP JUMPDEST JUMPDEST PUSH3 0x137 DUP3 PUSH3 0x7E JUMP JUMPDEST SWAP1 POP PUSH1 0x20 DUP2 ADD SWAP1 POP SWAP2 SWAP1 POP JUMP JUMPDEST PUSH0 JUMPDEST DUP4 DUP2 LT ISZERO PUSH3 0x163 JUMPI DUP1 DUP3 ADD MLOAD DUP2 DUP5 ADD MSTORE PUSH1 0x20 DUP2 ADD SWAP1 POP PUSH3 0x146 JUMP JUMPDEST PUSH0 DUP5 DUP5 ADD MSTORE POP POP POP POP JUMP JUMPDEST PUSH0 PUSH3 0x184 PUSH3 0x17E DUP5 PUSH3 0x10F JUMP JUMPDEST PUSH3 0xF1 JUMP JUMPDEST SWAP1 POP DUP3 DUP2 MSTORE PUSH1 0x20 DUP2 ADD DUP5 DUP5 DUP5 ADD GT ISZERO PUSH3 0x1A3 JUMPI PUSH3 0x1A2 PUSH3 0x7A JUMP JUMPDEST JUMPDEST PUSH3 0x1B0 DUP5 DUP3 DUP6 PUSH3 0x144 JUMP JUMPDEST POP SWAP4 SWAP3 POP POP POP JUMP JUMPDEST PUSH0 DUP3 PUSH1 0x1F DUP4 ADD SLT PUSH3 0x1CF JUMPI PUSH3 0x1CE PUSH3 0x76 JUMP JUMPDEST JUMPDEST DUP2 MLOAD PUSH3 0x1E1 DUP5 DUP3 PUSH1 0x20 DUP7 ADD PUSH3 0x16E JUMP JUMPDEST SWAP2 POP POP SWAP3 SWAP2 POP POP JUMP JUMPDEST PUSH0 PUSH1 0x20 DUP3 DUP5 SUB SLT ISZERO PUSH3 0x202 JUMPI PUSH3 0x201 PUSH3 0x6E JUMP JUMPDEST JUMPDEST PUSH0 DUP3 ADD MLOAD PUSH8 0xFFFFFFFFFFFFFFFF DUP2 GT ISZERO PUSH3 0x222 JUMPI PUSH3 0x221 PUSH3 0x72 JUMP JUMPDEST JUMPDEST PUSH3 0x230 DUP5 DUP3 DUP6 ADD PUSH3 0x1B8 JUMP JUMPDEST SWAP2 POP POP SWAP3 SWAP2 POP POP JUMP JUMPDEST PUSH0 DUP2 MLOAD SWAP1 POP SWAP2 SWAP1 POP JUMP JUMPDEST PUSH32 0x4E487B7100000000000000000000000000000000000000000000000000000000 PUSH0 MSTORE PUSH1 0x22 PUSH1 0x4 MSTORE PUSH1 0x24 PUSH0 REVERT JUMPDEST PUSH0 PUSH1 0x2 DUP3 DIV SWAP1 POP PUSH1 0x1 DUP3 AND DUP1 PUSH3 0x288 JUMPI PUSH1 0x7F DUP3 AND SWAP2 POP JUMPDEST PUSH1 0x20 DUP3 LT DUP2 SUB PUSH3 0x29E JUMPI PUSH3 0x29D PUSH3 0x243 JUMP JUMPDEST JUMPDEST POP SWAP2 SWAP1 POP JUMP JUMPDEST PUSH0 DUP2 SWAP1 POP DUP2 PUSH0 MSTORE PUSH1 0x20 PUSH0 KECCAK256 SWAP1 POP SWAP2 SWAP1 POP JUMP JUMPDEST PUSH0 PUSH1 0x20 PUSH1 0x1F DUP4 ADD DIV SWAP1 POP SWAP2 SWAP1 POP JUMP JUMPDEST PUSH0 DUP3 DUP3 SHL SWAP1 POP SWAP3 SWAP2 POP POP JUMP JUMPDEST PUSH0 PUSH1 0x8 DUP4 MUL PUSH3 0x302 PUSH32 0xFFFFFFFFFFFFFFFFFFFFFFFFFFFFFFFFFFFFFFFFFFFFFFFFFFFFFFFFFFFFFFFF DUP3 PUSH3 0x2C5 JUMP JUMPDEST PUSH3 0x30E DUP7 DUP4 PUSH3 0x2C5 JUMP JUMPDEST SWAP6 POP DUP1 NOT DUP5 AND SWAP4 POP DUP1 DUP7 AND DUP5 OR SWAP3 POP POP POP SWAP4 SWAP3 POP POP POP JUMP JUMPDEST PUSH0 DUP2 SWAP1 POP SWAP2 SWAP1 POP JUMP JUMPDEST PUSH0 DUP2 SWAP1 POP SWAP2 SWAP1 POP JUMP JUMPDEST PUSH0 PUSH3 0x358 PUSH3 0x352 PUSH3 0x34C DUP5 PUSH3 0x326 JUMP JUMPDEST PUSH3 0x32F JUMP JUMPDEST PUSH3 0x326 JUMP JUMPDEST SWAP1 POP SWAP2 SWAP1 POP JUMP JUMPDEST PUSH0 DUP2 SWAP1 POP SWAP2 SWAP1 POP JUMP JUMPDEST PUSH3 0x373 DUP4 PUSH3 0x338 JUMP JUMPDEST PUSH3 0x38B PUSH3 0x382 DUP3 PUSH3 0x35F JUMP JUMPDEST DUP5 DUP5 SLOAD PUSH3 0x2D1 JUMP JUMPDEST DUP3 SSTORE POP POP POP POP JUMP JUMPDEST PUSH0 SWAP1 JUMP JUMPDEST PUSH3 0x3A1 PUSH3 0x393 JUMP JUMPDEST PUSH3 0x3AE DUP2 DUP5 DUP5 PUSH3 0x368 JUMP JUMPDEST POP POP POP JUMP JUMPDEST JUMPDEST DUP2 DUP2 LT ISZERO PUSH3 0x3D5 JUMPI PUSH3 0x3C9 PUSH0 DUP3 PUSH3 0x397 JUMP JUMPDEST PUSH1 0x1 DUP2 ADD SWAP1 POP PUSH3 0x3B4 JUMP JUMPDEST POP POP JUMP JUMPDEST PUSH1 0x1F DUP3 GT ISZERO PUSH3 0x424 JUMPI PUSH3 0x3EE DUP2 PUSH3 0x2A4 JUMP JUMPDEST PUSH3 0x3F9 DUP5 PUSH3 0x2B6 JUMP JUMPDEST DUP2 ADD PUSH1 0x20 DUP6 LT ISZERO PUSH3 0x409 JUMPI DUP2 SWAP1 POP JUMPDEST PUSH3 0x421 PUSH3 0x418 DUP6 PUSH3 0x2B6 JUMP JUMPDEST DUP4 ADD DUP3 PUSH3 0x3B3 JUMP JUMPDEST POP POP JUMPDEST POP POP POP JUMP JUMPDEST PUSH0 DUP3 DUP3 SHR SWAP1 POP SWAP3 SWAP2 POP POP JUMP JUMPDEST PUSH0 PUSH3 0x446 PUSH0 NOT DUP5 PUSH1 0x8 MUL PUSH3 0x429 JUMP JUMPDEST NOT DUP1 DUP4 AND SWAP2 POP POP SWAP3 SWAP2 POP POP JUMP JUMPDEST PUSH0 PUSH3 0x460 DUP4 DUP4 PUSH3 0x435 JUMP JUMPDEST SWAP2 POP DUP3 PUSH1 0x2 MUL DUP3 OR SWAP1 POP SWAP3 SWAP2 POP POP JUMP JUMPDEST PUSH3 0x47B DUP3 PUSH3 0x239 JUMP JUMPDEST PUSH8 0xFFFFFFFFFFFFFFFF DUP2 GT ISZERO PUSH3 0x497 JUMPI PUSH3 0x496 PUSH3 0x8E JUMP JUMPDEST JUMPDEST PUSH3 0x4A3 DUP3 SLOAD PUSH3 0x270 JUMP JUMPDEST PUSH3 0x4B0 DUP3 DUP3 DUP6 PUSH3 0x3D9 JUMP JUMPDEST PUSH0 PUSH1 0x20 SWAP1 POP PUSH1 0x1F DUP4 GT PUSH1 0x1 DUP2 EQ PUSH3 0x4E6 JUMPI PUSH0 DUP5 ISZERO PUSH3 0x4D1 JUMPI DUP3 DUP8 ADD MLOAD SWAP1 POP JUMPDEST PUSH3 0x4DD DUP6 DUP3 PUSH3 0x453 JUMP JUMPDEST DUP7 SSTORE POP PUSH3 0x54C JUMP JUMPDEST PUSH1 0x1F NOT DUP5 AND PUSH3 0x4F6 DUP7 PUSH3 0x2A4 JUMP JUMPDEST PUSH0 JUMPDEST DUP3 DUP2 LT ISZERO PUSH3 0x51F JUMPI DUP5 DUP10 ADD MLOAD DUP3 SSTORE PUSH1 0x1 DUP3 ADD SWAP2 POP PUSH1 0x20 DUP6 ADD SWAP5 POP PUSH1 0x20 DUP2 ADD SWAP1 POP PUSH3 0x4F8 JUMP JUMPDEST DUP7 DUP4 LT ISZERO PUSH3 0x53F JUMPI DUP5 DUP10 ADD MLOAD PUSH3 0x53B PUSH1 0x1F DUP10 AND DUP3 PUSH3 0x435 JUMP JUMPDEST DUP4 SSTORE POP JUMPDEST PUSH1 0x1 PUSH1 0x2 DUP9 MUL ADD DUP9 SSTORE POP POP POP JUMPDEST POP POP POP POP POP POP JUMP JUMPDEST PUSH2 0x210A DUP1 PUSH3 0x562 PUSH0 CODECOPY PUSH0 RETURN INVALID PUSH1 0x80 PUSH1 0x40 MSTORE CALLVALUE DUP1 ISZERO PUSH2 0xF JUMPI PUSH0 DUP1 REVERT JUMPDEST POP PUSH1 0x4 CALLDATASIZE LT PUSH2 0x9B JUMPI PUSH0 CALLDATALOAD PUSH1 0xE0 SHR DUP1 PUSH4 0x4E1273F4 GT PUSH2 0x64 JUMPI DUP1 PUSH4 0x4E1273F4 EQ PUSH2 0x167 JUMPI DUP1 PUSH4 0xA22CB465 EQ PUSH2 0x197 JUMPI DUP1 PUSH4 0xD81D0A15 EQ PUSH2 0x1B3 JUMPI DUP1 PUSH4 0xE985E9C5 EQ PUSH2 0x1CF JUMPI DUP1 PUSH4 0xF242432A EQ PUSH2 0x1FF JUMPI PUSH2 0x9B JUMP JUMPDEST DUP1 PUSH3 0xFDD58E EQ PUSH2 0x9F JUMPI DUP1 PUSH4 0x1FFC9A7 EQ PUSH2 0xCF JUMPI DUP1 PUSH4 0xE89341C EQ PUSH2 0xFF JUMPI DUP1 PUSH4 0x156E29F6 EQ PUSH2 0x12F JUMPI DUP1 PUSH4 0x2EB2C2D6 EQ PUSH2 0x14B JUMPI JUMPDEST PUSH0 DUP1 REVERT JUMPDEST PUSH2 0xB9 PUSH1 0x4 DUP1 CALLDATASIZE SUB DUP2 ADD SWAP1 PUSH2 0xB4 SWAP2 SWAP1 PUSH2 0x149F JUMP JUMPDEST PUSH2 0x21B JUMP JUMPDEST PUSH1 0x40 MLOAD PUSH2 0xC6 SWAP2 SWAP1 PUSH2 0x14EC JUMP JUMPDEST PUSH1 0x40 MLOAD DUP1 SWAP2 SUB SWAP1 RETURN JUMPDEST PUSH2 0xE9 PUSH1 0x4 DUP1 CALLDATASIZE SUB DUP2 ADD SWAP1 PUSH2 0xE4 SWAP2 SWAP1 PUSH2 0x155A JUMP JUMPDEST PUSH2 0x270 JUMP JUMPDEST PUSH1 0x40 MLOAD PUSH2 0xF6 SWAP2 SWAP1 PUSH2 0x159F JUMP JUMPDEST PUSH1 0x40 MLOAD DUP1 SWAP2 SUB SWAP1 RETURN JUMPDEST PUSH2 0x119 PUSH1 0x4 DUP1 CALLDATASIZE SUB DUP2 ADD SWAP1 PUSH2 0x114 SWAP2 SWAP1 PUSH2 0x15B8 JUMP JUMPDEST PUSH2 0x351 JUMP JUMPDEST PUSH1 0x40 MLOAD PUSH2 0x126 SWAP2 SWAP1 PUSH2 0x166D JUMP JUMPDEST PUSH1 0x40 MLOAD DUP1 SWAP2 SUB SWAP1 RETURN JUMPDEST PUSH2 0x149 PUSH1 0x4 DUP1 CALLDATASIZE SUB DUP2 ADD SWAP1 PUSH2 0x144 SWAP2 SWAP1 PUSH2 0x168D JUMP JUMPDEST PUSH2 0x3E3 JUMP JUMPDEST STOP JUMPDEST PUSH2 0x165 PUSH1 0x4 DUP1 CALLDATASIZE SUB DUP2 ADD SWAP1 PUSH2 0x160 SWAP2 SWAP1 PUSH2 0x18CD JUMP JUMPDEST PUSH2 0x402 JUMP JUMPDEST STOP JUMPDEST PUSH2 0x181 PUSH1 0x4 DUP1 CALLDATASIZE SUB DUP2 ADD SWAP1 PUSH2 0x17C SWAP2 SWAP1 PUSH2 0x1A58 JUMP JUMPDEST PUSH2 0x4A9 JUMP JUMPDEST PUSH1 0x40 MLOAD PUSH2 0x18E SWAP2 SWAP1 PUSH2 0x1B85 JUMP JUMPDEST PUSH1 0x40 MLOAD DUP1 SWAP2 SUB SWAP1 RETURN JUMPDEST PUSH2 0x1B1 PUSH1 0x4 DUP1 CALLDATASIZE SUB DUP2 ADD SWAP1 PUSH2 0x1AC SWAP2 SWAP1 PUSH2 0x1BCF JUMP JUMPDEST PUSH2 0x5B6 JUMP JUMPDEST STOP JUMPDEST PUSH2 0x1CD PUSH1 0x4 DUP1 CALLDATASIZE SUB DUP2 ADD SWAP1 PUSH2 0x1C8 SWAP2 SWAP1 PUSH2 0x1C0D JUMP JUMPDEST PUSH2 0x5CC JUMP JUMPDEST STOP JUMPDEST PUSH2 0x1E9 PUSH1 0x4 DUP1 CALLDATASIZE SUB DUP2 ADD SWAP1 PUSH2 0x1E4 SWAP2 SWAP1 PUSH2 0x1C95 JUMP JUMPDEST PUSH2 0x5EB JUMP JUMPDEST PUSH1 0x40 MLOAD PUSH2 0x1F6 SWAP2 SWAP1 PUSH2 0x159F JUMP JUMPDEST PUSH1 0x40 MLOAD DUP1 SWAP2 SUB SWAP1 RETURN JUMPDEST PUSH2 0x219 PUSH1 0x4 DUP1 CALLDATASIZE SUB DUP2 ADD SWAP1 PUSH2 0x214 SWAP2 SWAP1 PUSH2 0x1CD3 JUMP JUMPDEST PUSH2 0x679 JUMP JUMPDEST STOP JUMPDEST PUSH0 DUP1 PUSH0 DUP4 DUP2 MSTORE PUSH1 0x20 ADD SWAP1 DUP2 MSTORE PUSH1 0x20 ADD PUSH0 KECCAK256 PUSH0 DUP5 PUSH20 0xFFFFFFFFFFFFFFFFFFFFFFFFFFFFFFFFFFFFFFFF AND PUSH20 0xFFFFFFFFFFFFFFFFFFFFFFFFFFFFFFFFFFFFFFFF AND DUP2 MSTORE PUSH1 0x20 ADD SWAP1 DUP2 MSTORE PUSH1 0x20 ADD PUSH0 KECCAK256 SLOAD SWAP1 POP SWAP3 SWAP2 POP POP JUMP JUMPDEST PUSH0 PUSH32 0xD9B67A2600000000000000000000000000000000000000000000000000000000 PUSH28 0xFFFFFFFFFFFFFFFFFFFFFFFFFFFFFFFFFFFFFFFFFFFFFFFFFFFFFFFF NOT AND DUP3 PUSH28 0xFFFFFFFFFFFFFFFFFFFFFFFFFFFFFFFFFFFFFFFFFFFFFFFFFFFFFFFF NOT AND EQ DUP1 PUSH2 0x33A JUMPI POP PUSH32 0xE89341C00000000000000000000000000000000000000000000000000000000 PUSH28 0xFFFFFFFFFFFFFFFFFFFFFFFFFFFFFFFFFFFFFFFFFFFFFFFFFFFFFFFF NOT AND DUP3 PUSH28 0xFFFFFFFFFFFFFFFFFFFFFFFFFFFFFFFFFFFFFFFFFFFFFFFFFFFFFFFF NOT AND EQ JUMPDEST DUP1 PUSH2 0x34A JUMPI POP PUSH2 0x349 DUP3 PUSH2 0x720 JUMP JUMPDEST JUMPDEST SWAP1 POP SWAP2 SWAP1 POP JUMP JUMPDEST PUSH1 0x60 PUSH1 0x2 DUP1 SLOAD PUSH2 0x360 SWAP1 PUSH2 0x1D93 JUMP JUMPDEST DUP1 PUSH1 0x1F ADD PUSH1 0x20 DUP1 SWAP2 DIV MUL PUSH1 0x20 ADD PUSH1 0x40 MLOAD SWAP1 DUP2 ADD PUSH1 0x40 MSTORE DUP1 SWAP3 SWAP2 SWAP1 DUP2 DUP2 MSTORE PUSH1 0x20 ADD DUP3 DUP1 SLOAD PUSH2 0x38C SWAP1 PUSH2 0x1D93 JUMP JUMPDEST DUP1 ISZERO PUSH2 0x3D7 JUMPI DUP1 PUSH1 0x1F LT PUSH2 0x3AE JUMPI PUSH2 0x100 DUP1 DUP4 SLOAD DIV MUL DUP4 MSTORE SWAP2 PUSH1 0x20 ADD SWAP2 PUSH2 0x3D7 JUMP JUMPDEST DUP3 ADD SWAP2 SWAP1 PUSH0 MSTORE PUSH1 0x20 PUSH0 KECCAK256 SWAP1 JUMPDEST DUP2 SLOAD DUP2 MSTORE SWAP1 PUSH1 0x1 ADD SWAP1 PUSH1 0x20 ADD DUP1 DUP4 GT PUSH2 0x3BA JUMPI DUP3 SWAP1 SUB PUSH1 0x1F AND DUP3 ADD SWAP2 JUMPDEST POP POP POP POP POP SWAP1 POP SWAP2 SWAP1 POP JUMP JUMPDEST PUSH2 0x3FD DUP4 DUP4 DUP4 PUSH1 0x40 MLOAD DUP1 PUSH1 0x20 ADD PUSH1 0x40 MSTORE DUP1 PUSH0 DUP2 MSTORE POP PUSH2 0x789 JUMP JUMPDEST POP POP POP JUMP JUMPDEST PUSH0 PUSH2 0x40B PUSH2 0x81E JUMP JUMPDEST SWAP1 POP DUP1 PUSH20 0xFFFFFFFFFFFFFFFFFFFFFFFFFFFFFFFFFFFFFFFF AND DUP7 PUSH20 0xFFFFFFFFFFFFFFFFFFFFFFFFFFFFFFFFFFFFFFFF AND EQ ISZERO DUP1 ISZERO PUSH2 0x450 JUMPI POP PUSH2 0x44E DUP7 DUP3 PUSH2 0x5EB JUMP JUMPDEST ISZERO JUMPDEST ISZERO PUSH2 0x494 JUMPI DUP1 DUP7 PUSH1 0x40 MLOAD PUSH32 0xE237D92200000000000000000000000000000000000000000000000000000000 DUP2 MSTORE PUSH1 0x4 ADD PUSH2 0x48B SWAP3 SWAP2 SWAP1 PUSH2 0x1DD2 JUMP JUMPDEST PUSH1 0x40 MLOAD DUP1 SWAP2 SUB SWAP1 REVERT JUMPDEST PUSH2 0x4A1 DUP7 DUP7 DUP7 DUP7 DUP7 PUSH2 0x825 JUMP JUMPDEST POP POP POP POP POP POP JUMP JUMPDEST PUSH1 0x60 DUP2 MLOAD DUP4 MLOAD EQ PUSH2 0x4F5 JUMPI DUP2 MLOAD DUP4 MLOAD PUSH1 0x40 MLOAD PUSH32 0x5B05999100000000000000000000000000000000000000000000000000000000 DUP2 MSTORE PUSH1 0x4 ADD PUSH2 0x4EC SWAP3 SWAP2 SWAP1 PUSH2 0x1DF9 JUMP JUMPDEST PUSH1 0x40 MLOAD DUP1 SWAP2 SUB SWAP1 REVERT JUMPDEST PUSH0 DUP4 MLOAD PUSH8 0xFFFFFFFFFFFFFFFF DUP2 GT ISZERO PUSH2 0x511 JUMPI PUSH2 0x510 PUSH2 0x16E1 JUMP JUMPDEST JUMPDEST PUSH1 0x40 MLOAD SWAP1 DUP1 DUP3 MSTORE DUP1 PUSH1 0x20 MUL PUSH1 0x20 ADD DUP3 ADD PUSH1 0x40 MSTORE DUP1 ISZERO PUSH2 0x53F JUMPI DUP2 PUSH1 0x20 ADD PUSH1 0x20 DUP3 MUL DUP1 CALLDATASIZE DUP4 CALLDATACOPY DUP1 DUP3 ADD SWAP2 POP POP SWAP1 POP JUMPDEST POP SWAP1 POP PUSH0 JUMPDEST DUP5 MLOAD DUP2 LT ISZERO PUSH2 0x5AB JUMPI PUSH2 0x57B PUSH2 0x563 DUP3 DUP8 PUSH2 0x919 SWAP1 SWAP2 SWAP1 PUSH4 0xFFFFFFFF AND JUMP JUMPDEST PUSH2 0x576 DUP4 DUP8 PUSH2 0x92C SWAP1 SWAP2 SWAP1 PUSH4 0xFFFFFFFF AND JUMP JUMPDEST PUSH2 0x21B JUMP JUMPDEST DUP3 DUP3 DUP2 MLOAD DUP2 LT PUSH2 0x58E JUMPI PUSH2 0x58D PUSH2 0x1E20 JUMP JUMPDEST JUMPDEST PUSH1 0x20 MUL PUSH1 0x20 ADD ADD DUP2 DUP2 MSTORE POP POP DUP1 PUSH2 0x5A4 SWAP1 PUSH2 0x1E7A JUMP JUMPDEST SWAP1 POP PUSH2 0x544 JUMP JUMPDEST POP DUP1 SWAP2 POP POP SWAP3 SWAP2 POP POP JUMP JUMPDEST PUSH2 0x5C8 PUSH2 0x5C1 PUSH2 0x81E JUMP JUMPDEST DUP4 DUP4 PUSH2 0x93F JUMP JUMPDEST POP POP JUMP JUMPDEST PUSH2 0x5E6 DUP4 DUP4 DUP4 PUSH1 0x40 MLOAD DUP1 PUSH1 0x20 ADD PUSH1 0x40 MSTORE DUP1 PUSH0 DUP2 MSTORE POP PUSH2 0xAA8 JUMP JUMPDEST POP POP POP JUMP JUMPDEST PUSH0 PUSH1 0x1 PUSH0 DUP5 PUSH20 0xFFFFFFFFFFFFFFFFFFFFFFFFFFFFFFFFFFFFFFFF AND PUSH20 0xFFFFFFFFFFFFFFFFFFFFFFFFFFFFFFFFFFFFFFFF AND DUP2 MSTORE PUSH1 0x20 ADD SWAP1 DUP2 MSTORE PUSH1 0x20 ADD PUSH0 KECCAK256 PUSH0 DUP4 PUSH20 0xFFFFFFFFFFFFFFFFFFFFFFFFFFFFFFFFFFFFFFFF AND PUSH20 0xFFFFFFFFFFFFFFFFFFFFFFFFFFFFFFFFFFFFFFFF AND DUP2 MSTORE PUSH1 0x20 ADD SWAP1 DUP2 MSTORE PUSH1 0x20 ADD PUSH0 KECCAK256 PUSH0 SWAP1 SLOAD SWAP1 PUSH2 0x100 EXP SWAP1 DIV PUSH1 0xFF AND SWAP1 POP SWAP3 SWAP2 POP POP JUMP JUMPDEST PUSH0 PUSH2 0x682 PUSH2 0x81E JUMP JUMPDEST SWAP1 POP DUP1 PUSH20 0xFFFFFFFFFFFFFFFFFFFFFFFFFFFFFFFFFFFFFFFF AND DUP7 PUSH20 0xFFFFFFFFFFFFFFFFFFFFFFFFFFFFFFFFFFFFFFFF AND EQ ISZERO DUP1 ISZERO PUSH2 0x6C7 JUMPI POP PUSH2 0x6C5 DUP7 DUP3 PUSH2 0x5EB JUMP JUMPDEST ISZERO JUMPDEST ISZERO PUSH2 0x70B JUMPI DUP1 DUP7 PUSH1 0x40 MLOAD PUSH32 0xE237D92200000000000000000000000000000000000000000000000000000000 DUP2 MSTORE PUSH1 0x4 ADD PUSH2 0x702 SWAP3 SWAP2 SWAP1 PUSH2 0x1DD2 JUMP JUMPDEST PUSH1 0x40 MLOAD DUP1 SWAP2 SUB SWAP1 REVERT JUMPDEST PUSH2 0x718 DUP7 DUP7 DUP7 DUP7 DUP7 PUSH2 0xB2B JUMP JUMPDEST POP POP POP POP POP POP JUMP JUMPDEST PUSH0 PUSH32 0x1FFC9A700000000000000000000000000000000000000000000000000000000 PUSH28 0xFFFFFFFFFFFFFFFFFFFFFFFFFFFFFFFFFFFFFFFFFFFFFFFFFFFFFFFF NOT AND DUP3 PUSH28 0xFFFFFFFFFFFFFFFFFFFFFFFFFFFFFFFFFFFFFFFFFFFFFFFFFFFFFFFF NOT AND EQ SWAP1 POP SWAP2 SWAP1 POP JUMP JUMPDEST PUSH0 PUSH20 0xFFFFFFFFFFFFFFFFFFFFFFFFFFFFFFFFFFFFFFFF AND DUP5 PUSH20 0xFFFFFFFFFFFFFFFFFFFFFFFFFFFFFFFFFFFFFFFF AND SUB PUSH2 0x7F9 JUMPI PUSH0 PUSH1 0x40 MLOAD PUSH32 0x57F447CE00000000000000000000000000000000000000000000000000000000 DUP2 MSTORE PUSH1 0x4 ADD PUSH2 0x7F0 SWAP2 SWAP1 PUSH2 0x1EC1 JUMP JUMPDEST PUSH1 0x40 MLOAD DUP1 SWAP2 SUB SWAP1 REVERT JUMPDEST PUSH0 DUP1 PUSH2 0x805 DUP6 DUP6 PUSH2 0xC31 JUMP JUMPDEST SWAP2 POP SWAP2 POP PUSH2 0x816 PUSH0 DUP8 DUP5 DUP5 DUP8 PUSH2 0xC61 JUMP JUMPDEST POP POP POP POP POP POP JUMP JUMPDEST PUSH0 CALLER SWAP1 POP SWAP1 JUMP JUMPDEST PUSH0 PUSH20 0xFFFFFFFFFFFFFFFFFFFFFFFFFFFFFFFFFFFFFFFF AND DUP5 PUSH20 0xFFFFFFFFFFFFFFFFFFFFFFFFFFFFFFFFFFFFFFFF AND SUB PUSH2 0x895 JUMPI PUSH0 PUSH1 0x40 MLOAD PUSH32 0x57F447CE00000000000000000000000000000000000000000000000000000000 DUP2 MSTORE PUSH1 0x4 ADD PUSH2 0x88C SWAP2 SWAP1 PUSH2 0x1EC1 JUMP JUMPDEST PUSH1 0x40 MLOAD DUP1 SWAP2 SUB SWAP1 REVERT JUMPDEST PUSH0 PUSH20 0xFFFFFFFFFFFFFFFFFFFFFFFFFFFFFFFFFFFFFFFF AND DUP6 PUSH20 0xFFFFFFFFFFFFFFFFFFFFFFFFFFFFFFFFFFFFFFFF AND SUB PUSH2 0x905 JUMPI PUSH0 PUSH1 0x40 MLOAD PUSH32 0x1A8351400000000000000000000000000000000000000000000000000000000 DUP2 MSTORE PUSH1 0x4 ADD PUSH2 0x8FC SWAP2 SWAP1 PUSH2 0x1EC1 JUMP JUMPDEST PUSH1 0x40 MLOAD DUP1 SWAP2 SUB SWAP1 REVERT JUMPDEST PUSH2 0x912 DUP6 DUP6 DUP6 DUP6 DUP6 PUSH2 0xC61 JUMP JUMPDEST POP POP POP POP POP JUMP JUMPDEST PUSH0 PUSH1 0x20 DUP3 MUL PUSH1 0x20 DUP5 ADD ADD MLOAD SWAP1 POP SWAP3 SWAP2 POP POP JUMP JUMPDEST PUSH0 PUSH1 0x20 DUP3 MUL PUSH1 0x20 DUP5 ADD ADD MLOAD SWAP1 POP SWAP3 SWAP2 POP POP JUMP JUMPDEST PUSH0 PUSH20 0xFFFFFFFFFFFFFFFFFFFFFFFFFFFFFFFFFFFFFFFF AND DUP3 PUSH20 0xFFFFFFFFFFFFFFFFFFFFFFFFFFFFFFFFFFFFFFFF AND SUB PUSH2 0x9AF JUMPI PUSH0 PUSH1 0x40 MLOAD PUSH32 0xCED3E10000000000000000000000000000000000000000000000000000000000 DUP2 MSTORE PUSH1 0x4 ADD PUSH2 0x9A6 SWAP2 SWAP1 PUSH2 0x1EC1 JUMP JUMPDEST PUSH1 0x40 MLOAD DUP1 SWAP2 SUB SWAP1 REVERT JUMPDEST DUP1 PUSH1 0x1 PUSH0 DUP6 PUSH20 0xFFFFFFFFFFFFFFFFFFFFFFFFFFFFFFFFFFFFFFFF AND PUSH20 0xFFFFFFFFFFFFFFFFFFFFFFFFFFFFFFFFFFFFFFFF AND DUP2 MSTORE PUSH1 0x20 ADD SWAP1 DUP2 MSTORE PUSH1 0x20 ADD PUSH0 KECCAK256 PUSH0 DUP5 PUSH20 0xFFFFFFFFFFFFFFFFFFFFFFFFFFFFFFFFFFFFFFFF AND PUSH20 0xFFFFFFFFFFFFFFFFFFFFFFFFFFFFFFFFFFFFFFFF AND DUP2 MSTORE PUSH1 0x20 ADD SWAP1 DUP2 MSTORE PUSH1 0x20 ADD PUSH0 KECCAK256 PUSH0 PUSH2 0x100 EXP DUP2 SLOAD DUP2 PUSH1 0xFF MUL NOT AND SWAP1 DUP4 ISZERO ISZERO MUL OR SWAP1 SSTORE POP DUP2 PUSH20 0xFFFFFFFFFFFFFFFFFFFFFFFFFFFFFFFFFFFFFFFF AND DUP4 PUSH20 0xFFFFFFFFFFFFFFFFFFFFFFFFFFFFFFFFFFFFFFFF AND PUSH32 0x17307EAB39AB6107E8899845AD3D59BD9653F200F220920489CA2B5937696C31 DUP4 PUSH1 0x40 MLOAD PUSH2 0xA9B SWAP2 SWAP1 PUSH2 0x159F JUMP JUMPDEST PUSH1 0x40 MLOAD DUP1 SWAP2 SUB SWAP1 LOG3 POP POP POP JUMP JUMPDEST PUSH0 PUSH20 0xFFFFFFFFFFFFFFFFFFFFFFFFFFFFFFFFFFFFFFFF AND DUP5 PUSH20 0xFFFFFFFFFFFFFFFFFFFFFFFFFFFFFFFFFFFFFFFF AND SUB PUSH2 0xB18 JUMPI PUSH0 PUSH1 0x40 MLOAD PUSH32 0x57F447CE00000000000000000000000000000000000000000000000000000000 DUP2 MSTORE PUSH1 0x4 ADD PUSH2 0xB0F SWAP2 SWAP1 PUSH2 0x1EC1 JUMP JUMPDEST PUSH1 0x40 MLOAD DUP1 SWAP2 SUB SWAP1 REVERT JUMPDEST PUSH2 0xB25 PUSH0 DUP6 DUP6 DUP6 DUP6 PUSH2 0xC61 JUMP JUMPDEST POP POP POP POP JUMP JUMPDEST PUSH0 PUSH20 0xFFFFFFFFFFFFFFFFFFFFFFFFFFFFFFFFFFFFFFFF AND DUP5 PUSH20 0xFFFFFFFFFFFFFFFFFFFFFFFFFFFFFFFFFFFFFFFF AND SUB PUSH2 0xB9B JUMPI PUSH0 PUSH1 0x40 MLOAD PUSH32 0x57F447CE00000000000000000000000000000000000000000000000000000000 DUP2 MSTORE PUSH1 0x4 ADD PUSH2 0xB92 SWAP2 SWAP1 PUSH2 0x1EC1 JUMP JUMPDEST PUSH1 0x40 MLOAD DUP1 SWAP2 SUB SWAP1 REVERT JUMPDEST PUSH0 PUSH20 0xFFFFFFFFFFFFFFFFFFFFFFFFFFFFFFFFFFFFFFFF AND DUP6 PUSH20 0xFFFFFFFFFFFFFFFFFFFFFFFFFFFFFFFFFFFFFFFF AND SUB PUSH2 0xC0B JUMPI PUSH0 PUSH1 0x40 MLOAD PUSH32 0x1A8351400000000000000000000000000000000000000000000000000000000 DUP2 MSTORE PUSH1 0x4 ADD PUSH2 0xC02 SWAP2 SWAP1 PUSH2 0x1EC1 JUMP JUMPDEST PUSH1 0x40 MLOAD DUP1 SWAP2 SUB SWAP1 REVERT JUMPDEST PUSH0 DUP1 PUSH2 0xC17 DUP6 DUP6 PUSH2 0xC31 JUMP JUMPDEST SWAP2 POP SWAP2 POP PUSH2 0xC28 DUP8 DUP8 DUP5 DUP5 DUP8 PUSH2 0xC61 JUMP JUMPDEST POP POP POP POP POP POP POP JUMP JUMPDEST PUSH1 0x60 DUP1 PUSH1 0x40 MLOAD SWAP2 POP PUSH1 0x1 DUP3 MSTORE DUP4 PUSH1 0x20 DUP4 ADD MSTORE PUSH1 0x40 DUP3 ADD SWAP1 POP PUSH1 0x1 DUP2 MSTORE DUP3 PUSH1 0x20 DUP3 ADD MSTORE PUSH1 0x40 DUP2 ADD PUSH1 0x40 MSTORE SWAP3 POP SWAP3 SWAP1 POP JUMP JUMPDEST PUSH2 0xC6D DUP6 DUP6 DUP6 DUP6 PUSH2 0xD0D JUMP JUMPDEST PUSH0 PUSH20 0xFFFFFFFFFFFFFFFFFFFFFFFFFFFFFFFFFFFFFFFF AND DUP5 PUSH20 0xFFFFFFFFFFFFFFFFFFFFFFFFFFFFFFFFFFFFFFFF AND EQ PUSH2 0xD06 JUMPI PUSH0 PUSH2 0xCA9 PUSH2 0x81E JUMP JUMPDEST SWAP1 POP PUSH1 0x1 DUP5 MLOAD SUB PUSH2 0xCF5 JUMPI PUSH0 PUSH2 0xCC8 PUSH0 DUP7 PUSH2 0x92C SWAP1 SWAP2 SWAP1 PUSH4 0xFFFFFFFF AND JUMP JUMPDEST SWAP1 POP PUSH0 PUSH2 0xCDE PUSH0 DUP7 PUSH2 0x92C SWAP1 SWAP2 SWAP1 PUSH4 0xFFFFFFFF AND JUMP JUMPDEST SWAP1 POP PUSH2 0xCEE DUP4 DUP10 DUP10 DUP6 DUP6 DUP10 PUSH2 0x10A3 JUMP JUMPDEST POP POP PUSH2 0xD04 JUMP JUMPDEST PUSH2 0xD03 DUP2 DUP8 DUP8 DUP8 DUP8 DUP8 PUSH2 0x1252 JUMP JUMPDEST JUMPDEST POP JUMPDEST POP POP POP POP POP JUMP JUMPDEST DUP1 MLOAD DUP3 MLOAD EQ PUSH2 0xD57 JUMPI DUP2 MLOAD DUP2 MLOAD PUSH1 0x40 MLOAD PUSH32 0x5B05999100000000000000000000000000000000000000000000000000000000 DUP2 MSTORE PUSH1 0x4 ADD PUSH2 0xD4E SWAP3 SWAP2 SWAP1 PUSH2 0x1DF9 JUMP JUMPDEST PUSH1 0x40 MLOAD DUP1 SWAP2 SUB SWAP1 REVERT JUMPDEST PUSH0 PUSH2 0xD60 PUSH2 0x81E JUMP JUMPDEST SWAP1 POP PUSH0 JUMPDEST DUP4 MLOAD DUP2 LT ISZERO PUSH2 0xF62 JUMPI PUSH0 PUSH2 0xD81 DUP3 DUP7 PUSH2 0x92C SWAP1 SWAP2 SWAP1 PUSH4 0xFFFFFFFF AND JUMP JUMPDEST SWAP1 POP PUSH0 PUSH2 0xD97 DUP4 DUP7 PUSH2 0x92C SWAP1 SWAP2 SWAP1 PUSH4 0xFFFFFFFF AND JUMP JUMPDEST SWAP1 POP PUSH0 PUSH20 0xFFFFFFFFFFFFFFFFFFFFFFFFFFFFFFFFFFFFFFFF AND DUP9 PUSH20 0xFFFFFFFFFFFFFFFFFFFFFFFFFFFFFFFFFFFFFFFF AND EQ PUSH2 0xEBA JUMPI PUSH0 DUP1 PUSH0 DUP5 DUP2 MSTORE PUSH1 0x20 ADD SWAP1 DUP2 MSTORE PUSH1 0x20 ADD PUSH0 KECCAK256 PUSH0 DUP11 PUSH20 0xFFFFFFFFFFFFFFFFFFFFFFFFFFFFFFFFFFFFFFFF AND PUSH20 0xFFFFFFFFFFFFFFFFFFFFFFFFFFFFFFFFFFFFFFFF AND DUP2 MSTORE PUSH1 0x20 ADD SWAP1 DUP2 MSTORE PUSH1 0x20 ADD PUSH0 KECCAK256 SLOAD SWAP1 POP DUP2 DUP2 LT ISZERO PUSH2 0xE66 JUMPI DUP9 DUP2 DUP4 DUP6 PUSH1 0x40 MLOAD PUSH32 0x3DEE4C500000000000000000000000000000000000000000000000000000000 DUP2 MSTORE PUSH1 0x4 ADD PUSH2 0xE5D SWAP5 SWAP4 SWAP3 SWAP2 SWAP1 PUSH2 0x1EDA JUMP JUMPDEST PUSH1 0x40 MLOAD DUP1 SWAP2 SUB SWAP1 REVERT JUMPDEST DUP2 DUP2 SUB PUSH0 DUP1 DUP6 DUP2 MSTORE PUSH1 0x20 ADD SWAP1 DUP2 MSTORE PUSH1 0x20 ADD PUSH0 KECCAK256 PUSH0 DUP12 PUSH20 0xFFFFFFFFFFFFFFFFFFFFFFFFFFFFFFFFFFFFFFFF AND PUSH20 0xFFFFFFFFFFFFFFFFFFFFFFFFFFFFFFFFFFFFFFFF AND DUP2 MSTORE PUSH1 0x20 ADD SWAP1 DUP2 MSTORE PUSH1 0x20 ADD PUSH0 KECCAK256 DUP2 SWAP1 SSTORE POP POP JUMPDEST PUSH0 PUSH20 0xFFFFFFFFFFFFFFFFFFFFFFFFFFFFFFFFFFFFFFFF AND DUP8 PUSH20 0xFFFFFFFFFFFFFFFFFFFFFFFFFFFFFFFFFFFFFFFF AND EQ PUSH2 0xF4F JUMPI DUP1 PUSH0 DUP1 DUP5 DUP2 MSTORE PUSH1 0x20 ADD SWAP1 DUP2 MSTORE PUSH1 0x20 ADD PUSH0 KECCAK256 PUSH0 DUP10 PUSH20 0xFFFFFFFFFFFFFFFFFFFFFFFFFFFFFFFFFFFFFFFF AND PUSH20 0xFFFFFFFFFFFFFFFFFFFFFFFFFFFFFFFFFFFFFFFF AND DUP2 MSTORE PUSH1 0x20 ADD SWAP1 DUP2 MSTORE PUSH1 0x20 ADD PUSH0 KECCAK256 PUSH0 DUP3 DUP3 SLOAD PUSH2 0xF47 SWAP2 SWAP1 PUSH2 0x1F1D JUMP JUMPDEST SWAP3 POP POP DUP2 SWAP1 SSTORE POP JUMPDEST POP POP DUP1 PUSH2 0xF5B SWAP1 PUSH2 0x1E7A JUMP JUMPDEST SWAP1 POP PUSH2 0xD64 JUMP JUMPDEST POP PUSH1 0x1 DUP4 MLOAD SUB PUSH2 0x101D JUMPI PUSH0 PUSH2 0xF80 PUSH0 DUP6 PUSH2 0x92C SWAP1 SWAP2 SWAP1 PUSH4 0xFFFFFFFF AND JUMP JUMPDEST SWAP1 POP PUSH0 PUSH2 0xF96 PUSH0 DUP6 PUSH2 0x92C SWAP1 SWAP2 SWAP1 PUSH4 0xFFFFFFFF AND JUMP JUMPDEST SWAP1 POP DUP6 PUSH20 0xFFFFFFFFFFFFFFFFFFFFFFFFFFFFFFFFFFFFFFFF AND DUP8 PUSH20 0xFFFFFFFFFFFFFFFFFFFFFFFFFFFFFFFFFFFFFFFF AND DUP5 PUSH20 0xFFFFFFFFFFFFFFFFFFFFFFFFFFFFFFFFFFFFFFFF AND PUSH32 0xC3D58168C5AE7397731D063D5BBF3D657854427343F4C083240F7AACAA2D0F62 DUP6 DUP6 PUSH1 0x40 MLOAD PUSH2 0x100E SWAP3 SWAP2 SWAP1 PUSH2 0x1DF9 JUMP JUMPDEST PUSH1 0x40 MLOAD DUP1 SWAP2 SUB SWAP1 LOG4 POP POP PUSH2 0x109C JUMP JUMPDEST DUP4 PUSH20 0xFFFFFFFFFFFFFFFFFFFFFFFFFFFFFFFFFFFFFFFF AND DUP6 PUSH20 0xFFFFFFFFFFFFFFFFFFFFFFFFFFFFFFFFFFFFFFFF AND DUP3 PUSH20 0xFFFFFFFFFFFFFFFFFFFFFFFFFFFFFFFFFFFFFFFF AND PUSH32 0x4A39DC06D4C0DBC64B70AF90FD698A233A518AA5D07E595D983B8C0526C8F7FB DUP7 DUP7 PUSH1 0x40 MLOAD PUSH2 0x1093 SWAP3 SWAP2 SWAP1 PUSH2 0x1F50 JUMP JUMPDEST PUSH1 0x40 MLOAD DUP1 SWAP2 SUB SWAP1 LOG4 JUMPDEST POP POP POP POP POP JUMP JUMPDEST PUSH0 DUP5 PUSH20 0xFFFFFFFFFFFFFFFFFFFFFFFFFFFFFFFFFFFFFFFF AND EXTCODESIZE GT ISZERO PUSH2 0x124A JUMPI DUP4 PUSH20 0xFFFFFFFFFFFFFFFFFFFFFFFFFFFFFFFFFFFFFFFF AND PUSH4 0xF23A6E61 DUP8 DUP8 DUP7 DUP7 DUP7 PUSH1 0x40 MLOAD DUP7 PUSH4 0xFFFFFFFF AND PUSH1 0xE0 SHL DUP2 MSTORE PUSH1 0x4 ADD PUSH2 0x1103 SWAP6 SWAP5 SWAP4 SWAP3 SWAP2 SWAP1 PUSH2 0x1FD7 JUMP JUMPDEST PUSH1 0x20 PUSH1 0x40 MLOAD DUP1 DUP4 SUB DUP2 PUSH0 DUP8 GAS CALL SWAP3 POP POP POP DUP1 ISZERO PUSH2 0x113E JUMPI POP PUSH1 0x40 MLOAD RETURNDATASIZE PUSH1 0x1F NOT PUSH1 0x1F DUP3 ADD AND DUP3 ADD DUP1 PUSH1 0x40 MSTORE POP DUP2 ADD SWAP1 PUSH2 0x113B SWAP2 SWAP1 PUSH2 0x2043 JUMP JUMPDEST PUSH1 0x1 JUMPDEST PUSH2 0x11BF JUMPI RETURNDATASIZE DUP1 PUSH0 DUP2 EQ PUSH2 0x116C JUMPI PUSH1 0x40 MLOAD SWAP2 POP PUSH1 0x1F NOT PUSH1 0x3F RETURNDATASIZE ADD AND DUP3 ADD PUSH1 0x40 MSTORE RETURNDATASIZE DUP3 MSTORE RETURNDATASIZE PUSH0 PUSH1 0x20 DUP5 ADD RETURNDATACOPY PUSH2 0x1171 JUMP JUMPDEST PUSH1 0x60 SWAP2 POP JUMPDEST POP PUSH0 DUP2 MLOAD SUB PUSH2 0x11B7 JUMPI DUP5 PUSH1 0x40 MLOAD PUSH32 0x57F447CE00000000000000000000000000000000000000000000000000000000 DUP2 MSTORE PUSH1 0x4 ADD PUSH2 0x11AE SWAP2 SWAP1 PUSH2 0x1EC1 JUMP JUMPDEST PUSH1 0x40 MLOAD DUP1 SWAP2 SUB SWAP1 REVERT JUMPDEST DUP1 MLOAD PUSH1 0x20 DUP3 ADD REVERT JUMPDEST PUSH4 0xF23A6E61 PUSH1 0xE0 SHL PUSH28 0xFFFFFFFFFFFFFFFFFFFFFFFFFFFFFFFFFFFFFFFFFFFFFFFFFFFFFFFF NOT AND DUP2 PUSH28 0xFFFFFFFFFFFFFFFFFFFFFFFFFFFFFFFFFFFFFFFFFFFFFFFFFFFFFFFF NOT AND EQ PUSH2 0x1248 JUMPI DUP5 PUSH1 0x40 MLOAD PUSH32 0x57F447CE00000000000000000000000000000000000000000000000000000000 DUP2 MSTORE PUSH1 0x4 ADD PUSH2 0x123F SWAP2 SWAP1 PUSH2 0x1EC1 JUMP JUMPDEST PUSH1 0x40 MLOAD DUP1 SWAP2 SUB SWAP1 REVERT JUMPDEST POP JUMPDEST POP POP POP POP POP POP JUMP JUMPDEST PUSH0 DUP5 PUSH20 0xFFFFFFFFFFFFFFFFFFFFFFFFFFFFFFFFFFFFFFFF AND EXTCODESIZE GT ISZERO PUSH2 0x13F9 JUMPI DUP4 PUSH20 0xFFFFFFFFFFFFFFFFFFFFFFFFFFFFFFFFFFFFFFFF AND PUSH4 0xBC197C81 DUP8 DUP8 DUP7 DUP7 DUP7 PUSH1 0x40 MLOAD DUP7 PUSH4 0xFFFFFFFF AND PUSH1 0xE0 SHL DUP2 MSTORE PUSH1 0x4 ADD PUSH2 0x12B2 SWAP6 SWAP5 SWAP4 SWAP3 SWAP2 SWAP1 PUSH2 0x206E JUMP JUMPDEST PUSH1 0x20 PUSH1 0x40 MLOAD DUP1 DUP4 SUB DUP2 PUSH0 DUP8 GAS CALL SWAP3 POP POP POP DUP1 ISZERO PUSH2 0x12ED JUMPI POP PUSH1 0x40 MLOAD RETURNDATASIZE PUSH1 0x1F NOT PUSH1 0x1F DUP3 ADD AND DUP3 ADD DUP1 PUSH1 0x40 MSTORE POP DUP2 ADD SWAP1 PUSH2 0x12EA SWAP2 SWAP1 PUSH2 0x2043 JUMP JUMPDEST PUSH1 0x1 JUMPDEST PUSH2 0x136E JUMPI RETURNDATASIZE DUP1 PUSH0 DUP2 EQ PUSH2 0x131B JUMPI PUSH1 0x40 MLOAD SWAP2 POP PUSH1 0x1F NOT PUSH1 0x3F RETURNDATASIZE ADD AND DUP3 ADD PUSH1 0x40 MSTORE RETURNDATASIZE DUP3 MSTORE RETURNDATASIZE PUSH0 PUSH1 0x20 DUP5 ADD RETURNDATACOPY PUSH2 0x1320 JUMP JUMPDEST PUSH1 0x60 SWAP2 POP JUMPDEST POP PUSH0 DUP2 MLOAD SUB PUSH2 0x1366 JUMPI DUP5 PUSH1 0x40 MLOAD PUSH32 0x57F447CE00000000000000000000000000000000000000000000000000000000 DUP2 MSTORE PUSH1 0x4 ADD PUSH2 0x135D SWAP2 SWAP1 PUSH2 0x1EC1 JUMP JUMPDEST PUSH1 0x40 MLOAD DUP1 SWAP2 SUB SWAP1 REVERT JUMPDEST DUP1 MLOAD PUSH1 0x20 DUP3 ADD REVERT JUMPDEST PUSH4 0xBC197C81 PUSH1 0xE0 SHL PUSH28 0xFFFFFFFFFFFFFFFFFFFFFFFFFFFFFFFFFFFFFFFFFFFFFFFFFFFFFFFF NOT AND DUP2 PUSH28 0xFFFFFFFFFFFFFFFFFFFFFFFFFFFFFFFFFFFFFFFFFFFFFFFFFFFFFFFF NOT AND EQ PUSH2 0x13F7 JUMPI DUP5 PUSH1 0x40 MLOAD PUSH32 0x57F447CE00000000000000000000000000000000000000000000000000000000 DUP2 MSTORE PUSH1 0x4 ADD PUSH2 0x13EE SWAP2 SWAP1 PUSH2 0x1EC1 JUMP JUMPDEST PUSH1 0x40 MLOAD DUP1 SWAP2 SUB SWAP1 REVERT JUMPDEST POP JUMPDEST POP POP POP POP POP POP JUMP JUMPDEST PUSH0 PUSH1 0x40 MLOAD SWAP1 POP SWAP1 JUMP JUMPDEST PUSH0 DUP1 REVERT JUMPDEST PUSH0 DUP1 REVERT JUMPDEST PUSH0 PUSH20 0xFFFFFFFFFFFFFFFFFFFFFFFFFFFFFFFFFFFFFFFF DUP3 AND SWAP1 POP SWAP2 SWAP1 POP JUMP JUMPDEST PUSH0 PUSH2 0x143B DUP3 PUSH2 0x1412 JUMP JUMPDEST SWAP1 POP SWAP2 SWAP1 POP JUMP JUMPDEST PUSH2 0x144B DUP2 PUSH2 0x1431 JUMP JUMPDEST DUP2 EQ PUSH2 0x1455 JUMPI PUSH0 DUP1 REVERT JUMPDEST POP JUMP JUMPDEST PUSH0 DUP2 CALLDATALOAD SWAP1 POP PUSH2 0x1466 DUP2 PUSH2 0x1442 JUMP JUMPDEST SWAP3 SWAP2 POP POP JUMP JUMPDEST PUSH0 DUP2 SWAP1 POP SWAP2 SWAP1 POP JUMP JUMPDEST PUSH2 0x147E DUP2 PUSH2 0x146C JUMP JUMPDEST DUP2 EQ PUSH2 0x1488 JUMPI PUSH0 DUP1 REVERT JUMPDEST POP JUMP JUMPDEST PUSH0 DUP2 CALLDATALOAD SWAP1 POP PUSH2 0x1499 DUP2 PUSH2 0x1475 JUMP JUMPDEST SWAP3 SWAP2 POP POP JUMP JUMPDEST PUSH0 DUP1 PUSH1 0x40 DUP4 DUP6 SUB SLT ISZERO PUSH2 0x14B5 JUMPI PUSH2 0x14B4 PUSH2 0x140A JUMP JUMPDEST JUMPDEST PUSH0 PUSH2 0x14C2 DUP6 DUP3 DUP7 ADD PUSH2 0x1458 JUMP JUMPDEST SWAP3 POP POP PUSH1 0x20 PUSH2 0x14D3 DUP6 DUP3 DUP7 ADD PUSH2 0x148B JUMP JUMPDEST SWAP2 POP POP SWAP3 POP SWAP3 SWAP1 POP JUMP JUMPDEST PUSH2 0x14E6 DUP2 PUSH2 0x146C JUMP JUMPDEST DUP3 MSTORE POP POP JUMP JUMPDEST PUSH0 PUSH1 0x20 DUP3 ADD SWAP1 POP PUSH2 0x14FF PUSH0 DUP4 ADD DUP5 PUSH2 0x14DD JUMP JUMPDEST SWAP3 SWAP2 POP POP JUMP JUMPDEST PUSH0 PUSH32 0xFFFFFFFF00000000000000000000000000000000000000000000000000000000 DUP3 AND SWAP1 POP SWAP2 SWAP1 POP JUMP JUMPDEST PUSH2 0x1539 DUP2 PUSH2 0x1505 JUMP JUMPDEST DUP2 EQ PUSH2 0x1543 JUMPI PUSH0 DUP1 REVERT JUMPDEST POP JUMP JUMPDEST PUSH0 DUP2 CALLDATALOAD SWAP1 POP PUSH2 0x1554 DUP2 PUSH2 0x1530 JUMP JUMPDEST SWAP3 SWAP2 POP POP JUMP JUMPDEST PUSH0 PUSH1 0x20 DUP3 DUP5 SUB SLT ISZERO PUSH2 0x156F JUMPI PUSH2 0x156E PUSH2 0x140A JUMP JUMPDEST JUMPDEST PUSH0 PUSH2 0x157C DUP5 DUP3 DUP6 ADD PUSH2 0x1546 JUMP JUMPDEST SWAP2 POP POP SWAP3 SWAP2 POP POP JUMP JUMPDEST PUSH0 DUP2 ISZERO ISZERO SWAP1 POP SWAP2 SWAP1 POP JUMP JUMPDEST PUSH2 0x1599 DUP2 PUSH2 0x1585 JUMP JUMPDEST DUP3 MSTORE POP POP JUMP JUMPDEST PUSH0 PUSH1 0x20 DUP3 ADD SWAP1 POP PUSH2 0x15B2 PUSH0 DUP4 ADD DUP5 PUSH2 0x1590 JUMP JUMPDEST SWAP3 SWAP2 POP POP JUMP JUMPDEST PUSH0 PUSH1 0x20 DUP3 DUP5 SUB SLT ISZERO PUSH2 0x15CD JUMPI PUSH2 0x15CC PUSH2 0x140A JUMP JUMPDEST JUMPDEST PUSH0 PUSH2 0x15DA DUP5 DUP3 DUP6 ADD PUSH2 0x148B JUMP JUMPDEST SWAP2 POP POP SWAP3 SWAP2 POP POP JUMP JUMPDEST PUSH0 DUP2 MLOAD SWAP1 POP SWAP2 SWAP1 POP JUMP JUMPDEST PUSH0 DUP3 DUP3 MSTORE PUSH1 0x20 DUP3 ADD SWAP1 POP SWAP3 SWAP2 POP POP JUMP JUMPDEST PUSH0 JUMPDEST DUP4 DUP2 LT ISZERO PUSH2 0x161A JUMPI DUP1 DUP3 ADD MLOAD DUP2 DUP5 ADD MSTORE PUSH1 0x20 DUP2 ADD SWAP1 POP PUSH2 0x15FF JUMP JUMPDEST PUSH0 DUP5 DUP5 ADD MSTORE POP POP POP POP JUMP JUMPDEST PUSH0 PUSH1 0x1F NOT PUSH1 0x1F DUP4 ADD AND SWAP1 POP SWAP2 SWAP1 POP JUMP JUMPDEST PUSH0 PUSH2 0x163F DUP3 PUSH2 0x15E3 JUMP JUMPDEST PUSH2 0x1649 DUP2 DUP6 PUSH2 0x15ED JUMP JUMPDEST SWAP4 POP PUSH2 0x1659 DUP2 DUP6 PUSH1 0x20 DUP7 ADD PUSH2 0x15FD JUMP JUMPDEST PUSH2 0x1662 DUP2 PUSH2 0x1625 JUMP JUMPDEST DUP5 ADD SWAP2 POP POP SWAP3 SWAP2 POP POP JUMP JUMPDEST PUSH0 PUSH1 0x20 DUP3 ADD SWAP1 POP DUP2 DUP2 SUB PUSH0 DUP4 ADD MSTORE PUSH2 0x1685 DUP2 DUP5 PUSH2 0x1635 JUMP JUMPDEST SWAP1 POP SWAP3 SWAP2 POP POP JUMP JUMPDEST PUSH0 DUP1 PUSH0 PUSH1 0x60 DUP5 DUP7 SUB SLT ISZERO PUSH2 0x16A4 JUMPI PUSH2 0x16A3 PUSH2 0x140A JUMP JUMPDEST JUMPDEST PUSH0 PUSH2 0x16B1 DUP7 DUP3 DUP8 ADD PUSH2 0x1458 JUMP JUMPDEST SWAP4 POP POP PUSH1 0x20 PUSH2 0x16C2 DUP7 DUP3 DUP8 ADD PUSH2 0x148B JUMP JUMPDEST SWAP3 POP POP PUSH1 0x40 PUSH2 0x16D3 DUP7 DUP3 DUP8 ADD PUSH2 0x148B JUMP JUMPDEST SWAP2 POP POP SWAP3 POP SWAP3 POP SWAP3 JUMP JUMPDEST PUSH0 DUP1 REVERT JUMPDEST PUSH32 0x4E487B7100000000000000000000000000000000000000000000000000000000 PUSH0 MSTORE PUSH1 0x41 PUSH1 0x4 MSTORE PUSH1 0x24 PUSH0 REVERT JUMPDEST PUSH2 0x1717 DUP3 PUSH2 0x1625 JUMP JUMPDEST DUP2 ADD DUP2 DUP2 LT PUSH8 0xFFFFFFFFFFFFFFFF DUP3 GT OR ISZERO PUSH2 0x1736 JUMPI PUSH2 0x1735 PUSH2 0x16E1 JUMP JUMPDEST JUMPDEST DUP1 PUSH1 0x40 MSTORE POP POP POP JUMP JUMPDEST PUSH0 PUSH2 0x1748 PUSH2 0x1401 JUMP JUMPDEST SWAP1 POP PUSH2 0x1754 DUP3 DUP3 PUSH2 0x170E JUMP JUMPDEST SWAP2 SWAP1 POP JUMP JUMPDEST PUSH0 PUSH8 0xFFFFFFFFFFFFFFFF DUP3 GT ISZERO PUSH2 0x1773 JUMPI PUSH2 0x1772 PUSH2 0x16E1 JUMP JUMPDEST JUMPDEST PUSH1 0x20 DUP3 MUL SWAP1 POP PUSH1 0x20 DUP2 ADD SWAP1 POP SWAP2 SWAP1 POP JUMP JUMPDEST PUSH0 DUP1 REVERT JUMPDEST PUSH0 PUSH2 0x179A PUSH2 0x1795 DUP5 PUSH2 0x1759 JUMP JUMPDEST PUSH2 0x173F JUMP JUMPDEST SWAP1 POP DUP1 DUP4 DUP3 MSTORE PUSH1 0x20 DUP3 ADD SWAP1 POP PUSH1 0x20 DUP5 MUL DUP4 ADD DUP6 DUP2 GT ISZERO PUSH2 0x17BD JUMPI PUSH2 0x17BC PUSH2 0x1784 JUMP JUMPDEST JUMPDEST DUP4 JUMPDEST DUP2 DUP2 LT ISZERO PUSH2 0x17E6 JUMPI DUP1 PUSH2 0x17D2 DUP9 DUP3 PUSH2 0x148B JUMP JUMPDEST DUP5 MSTORE PUSH1 0x20 DUP5 ADD SWAP4 POP POP PUSH1 0x20 DUP2 ADD SWAP1 POP PUSH2 0x17BF JUMP JUMPDEST POP POP POP SWAP4 SWAP3 POP POP POP JUMP JUMPDEST PUSH0 DUP3 PUSH1 0x1F DUP4 ADD SLT PUSH2 0x1804 JUMPI PUSH2 0x1803 PUSH2 0x16DD JUMP JUMPDEST JUMPDEST DUP2 CALLDATALOAD PUSH2 0x1814 DUP5 DUP3 PUSH1 0x20 DUP7 ADD PUSH2 0x1788 JUMP JUMPDEST SWAP2 POP POP SWAP3 SWAP2 POP POP JUMP JUMPDEST PUSH0 DUP1 REVERT JUMPDEST PUSH0 PUSH8 0xFFFFFFFFFFFFFFFF DUP3 GT ISZERO PUSH2 0x183B JUMPI PUSH2 0x183A PUSH2 0x16E1 JUMP JUMPDEST JUMPDEST PUSH2 0x1844 DUP3 PUSH2 0x1625 JUMP JUMPDEST SWAP1 POP PUSH1 0x20 DUP2 ADD SWAP1 POP SWAP2 SWAP1 POP JUMP JUMPDEST DUP3 DUP2 DUP4 CALLDATACOPY PUSH0 DUP4 DUP4 ADD MSTORE POP POP POP JUMP JUMPDEST PUSH0 PUSH2 0x1871 PUSH2 0x186C DUP5 PUSH2 0x1821 JUMP JUMPDEST PUSH2 0x173F JUMP JUMPDEST SWAP1 POP DUP3 DUP2 MSTORE PUSH1 0x20 DUP2 ADD DUP5 DUP5 DUP5 ADD GT ISZERO PUSH2 0x188D JUMPI PUSH2 0x188C PUSH2 0x181D JUMP JUMPDEST JUMPDEST PUSH2 0x1898 DUP5 DUP3 DUP6 PUSH2 0x1851 JUMP JUMPDEST POP SWAP4 SWAP3 POP POP POP JUMP JUMPDEST PUSH0 DUP3 PUSH1 0x1F DUP4 ADD SLT PUSH2 0x18B4 JUMPI PUSH2 0x18B3 PUSH2 0x16DD JUMP JUMPDEST JUMPDEST DUP2 CALLDATALOAD PUSH2 0x18C4 DUP5 DUP3 PUSH1 0x20 DUP7 ADD PUSH2 0x185F JUMP JUMPDEST SWAP2 POP POP SWAP3 SWAP2 POP POP JUMP JUMPDEST PUSH0 DUP1 PUSH0 DUP1 PUSH0 PUSH1 0xA0 DUP7 DUP9 SUB SLT ISZERO PUSH2 0x18E6 JUMPI PUSH2 0x18E5 PUSH2 0x140A JUMP JUMPDEST JUMPDEST PUSH0 PUSH2 0x18F3 DUP9 DUP3 DUP10 ADD PUSH2 0x1458 JUMP JUMPDEST SWAP6 POP POP PUSH1 0x20 PUSH2 0x1904 DUP9 DUP3 DUP10 ADD PUSH2 0x1458 JUMP JUMPDEST SWAP5 POP POP PUSH1 0x40 DUP7 ADD CALLDATALOAD PUSH8 0xFFFFFFFFFFFFFFFF DUP2 GT ISZERO PUSH2 0x1925 JUMPI PUSH2 0x1924 PUSH2 0x140E JUMP JUMPDEST JUMPDEST PUSH2 0x1931 DUP9 DUP3 DUP10 ADD PUSH2 0x17F0 JUMP JUMPDEST SWAP4 POP POP PUSH1 0x60 DUP7 ADD CALLDATALOAD PUSH8 0xFFFFFFFFFFFFFFFF DUP2 GT ISZERO PUSH2 0x1952 JUMPI PUSH2 0x1951 PUSH2 0x140E JUMP JUMPDEST JUMPDEST PUSH2 0x195E DUP9 DUP3 DUP10 ADD PUSH2 0x17F0 JUMP JUMPDEST SWAP3 POP POP PUSH1 0x80 DUP7 ADD CALLDATALOAD PUSH8 0xFFFFFFFFFFFFFFFF DUP2 GT ISZERO PUSH2 0x197F JUMPI PUSH2 0x197E PUSH2 0x140E JUMP JUMPDEST JUMPDEST PUSH2 0x198B DUP9 DUP3 DUP10 ADD PUSH2 0x18A0 JUMP JUMPDEST SWAP2 POP POP SWAP3 SWAP6 POP SWAP3 SWAP6 SWAP1 SWAP4 POP JUMP JUMPDEST PUSH0 PUSH8 0xFFFFFFFFFFFFFFFF DUP3 GT ISZERO PUSH2 0x19B2 JUMPI PUSH2 0x19B1 PUSH2 0x16E1 JUMP JUMPDEST JUMPDEST PUSH1 0x20 DUP3 MUL SWAP1 POP PUSH1 0x20 DUP2 ADD SWAP1 POP SWAP2 SWAP1 POP JUMP JUMPDEST PUSH0 PUSH2 0x19D5 PUSH2 0x19D0 DUP5 PUSH2 0x1998 JUMP JUMPDEST PUSH2 0x173F JUMP JUMPDEST SWAP1 POP DUP1 DUP4 DUP3 MSTORE PUSH1 0x20 DUP3 ADD SWAP1 POP PUSH1 0x20 DUP5 MUL DUP4 ADD DUP6 DUP2 GT ISZERO PUSH2 0x19F8 JUMPI PUSH2 0x19F7 PUSH2 0x1784 JUMP JUMPDEST JUMPDEST DUP4 JUMPDEST DUP2 DUP2 LT ISZERO PUSH2 0x1A21 JUMPI DUP1 PUSH2 0x1A0D DUP9 DUP3 PUSH2 0x1458 JUMP JUMPDEST DUP5 MSTORE PUSH1 0x20 DUP5 ADD SWAP4 POP POP PUSH1 0x20 DUP2 ADD SWAP1 POP PUSH2 0x19FA JUMP JUMPDEST POP POP POP SWAP4 SWAP3 POP POP POP JUMP JUMPDEST PUSH0 DUP3 PUSH1 0x1F DUP4 ADD SLT PUSH2 0x1A3F JUMPI PUSH2 0x1A3E PUSH2 0x16DD JUMP JUMPDEST JUMPDEST DUP2 CALLDATALOAD PUSH2 0x1A4F DUP5 DUP3 PUSH1 0x20 DUP7 ADD PUSH2 0x19C3 JUMP JUMPDEST SWAP2 POP POP SWAP3 SWAP2 POP POP JUMP JUMPDEST PUSH0 DUP1 PUSH1 0x40 DUP4 DUP6 SUB SLT ISZERO PUSH2 0x1A6E JUMPI PUSH2 0x1A6D PUSH2 0x140A JUMP JUMPDEST JUMPDEST PUSH0 DUP4 ADD CALLDATALOAD PUSH8 0xFFFFFFFFFFFFFFFF DUP2 GT ISZERO PUSH2 0x1A8B JUMPI PUSH2 0x1A8A PUSH2 0x140E JUMP JUMPDEST JUMPDEST PUSH2 0x1A97 DUP6 DUP3 DUP7 ADD PUSH2 0x1A2B JUMP JUMPDEST SWAP3 POP POP PUSH1 0x20 DUP4 ADD CALLDATALOAD PUSH8 0xFFFFFFFFFFFFFFFF DUP2 GT ISZERO PUSH2 0x1AB8 JUMPI PUSH2 0x1AB7 PUSH2 0x140E JUMP JUMPDEST JUMPDEST PUSH2 0x1AC4 DUP6 DUP3 DUP7 ADD PUSH2 0x17F0 JUMP JUMPDEST SWAP2 POP POP SWAP3 POP SWAP3 SWAP1 POP JUMP JUMPDEST PUSH0 DUP2 MLOAD SWAP1 POP SWAP2 SWAP1 POP JUMP JUMPDEST PUSH0 DUP3 DUP3 MSTORE PUSH1 0x20 DUP3 ADD SWAP1 POP SWAP3 SWAP2 POP POP JUMP JUMPDEST PUSH0 DUP2 SWAP1 POP PUSH1 0x20 DUP3 ADD SWAP1 POP SWAP2 SWAP1 POP JUMP JUMPDEST PUSH2 0x1B00 DUP2 PUSH2 0x146C JUMP JUMPDEST DUP3 MSTORE POP POP JUMP JUMPDEST PUSH0 PUSH2 0x1B11 DUP4 DUP4 PUSH2 0x1AF7 JUMP JUMPDEST PUSH1 0x20 DUP4 ADD SWAP1 POP SWAP3 SWAP2 POP POP JUMP JUMPDEST PUSH0 PUSH1 0x20 DUP3 ADD SWAP1 POP SWAP2 SWAP1 POP JUMP JUMPDEST PUSH0 PUSH2 0x1B33 DUP3 PUSH2 0x1ACE JUMP JUMPDEST PUSH2 0x1B3D DUP2 DUP6 PUSH2 0x1AD8 JUMP JUMPDEST SWAP4 POP PUSH2 0x1B48 DUP4 PUSH2 0x1AE8 JUMP JUMPDEST DUP1 PUSH0 JUMPDEST DUP4 DUP2 LT ISZERO PUSH2 0x1B78 JUMPI DUP2 MLOAD PUSH2 0x1B5F DUP9 DUP3 PUSH2 0x1B06 JUMP JUMPDEST SWAP8 POP PUSH2 0x1B6A DUP4 PUSH2 0x1B1D JUMP JUMPDEST SWAP3 POP POP PUSH1 0x1 DUP2 ADD SWAP1 POP PUSH2 0x1B4B JUMP JUMPDEST POP DUP6 SWAP4 POP POP POP POP SWAP3 SWAP2 POP POP JUMP JUMPDEST PUSH0 PUSH1 0x20 DUP3 ADD SWAP1 POP DUP2 DUP2 SUB PUSH0 DUP4 ADD MSTORE PUSH2 0x1B9D DUP2 DUP5 PUSH2 0x1B29 JUMP JUMPDEST SWAP1 POP SWAP3 SWAP2 POP POP JUMP JUMPDEST PUSH2 0x1BAE DUP2 PUSH2 0x1585 JUMP JUMPDEST DUP2 EQ PUSH2 0x1BB8 JUMPI PUSH0 DUP1 REVERT JUMPDEST POP JUMP JUMPDEST PUSH0 DUP2 CALLDATALOAD SWAP1 POP PUSH2 0x1BC9 DUP2 PUSH2 0x1BA5 JUMP JUMPDEST SWAP3 SWAP2 POP POP JUMP JUMPDEST PUSH0 DUP1 PUSH1 0x40 DUP4 DUP6 SUB SLT ISZERO PUSH2 0x1BE5 JUMPI PUSH2 0x1BE4 PUSH2 0x140A JUMP JUMPDEST JUMPDEST PUSH0 PUSH2 0x1BF2 DUP6 DUP3 DUP7 ADD PUSH2 0x1458 JUMP JUMPDEST SWAP3 POP POP PUSH1 0x20 PUSH2 0x1C03 DUP6 DUP3 DUP7 ADD PUSH2 0x1BBB JUMP JUMPDEST SWAP2 POP POP SWAP3 POP SWAP3 SWAP1 POP JUMP JUMPDEST PUSH0 DUP1 PUSH0 PUSH1 0x60 DUP5 DUP7 SUB SLT ISZERO PUSH2 0x1C24 JUMPI PUSH2 0x1C23 PUSH2 0x140A JUMP JUMPDEST JUMPDEST PUSH0 PUSH2 0x1C31 DUP7 DUP3 DUP8 ADD PUSH2 0x1458 JUMP JUMPDEST SWAP4 POP POP PUSH1 0x20 DUP5 ADD CALLDATALOAD PUSH8 0xFFFFFFFFFFFFFFFF DUP2 GT ISZERO PUSH2 0x1C52 JUMPI PUSH2 0x1C51 PUSH2 0x140E JUMP JUMPDEST JUMPDEST PUSH2 0x1C5E DUP7 DUP3 DUP8 ADD PUSH2 0x17F0 JUMP JUMPDEST SWAP3 POP POP PUSH1 0x40 DUP5 ADD CALLDATALOAD PUSH8 0xFFFFFFFFFFFFFFFF DUP2 GT ISZERO PUSH2 0x1C7F JUMPI PUSH2 0x1C7E PUSH2 0x140E JUMP JUMPDEST JUMPDEST PUSH2 0x1C8B DUP7 DUP3 DUP8 ADD PUSH2 0x17F0 JUMP JUMPDEST SWAP2 POP POP SWAP3 POP SWAP3 POP SWAP3 JUMP JUMPDEST PUSH0 DUP1 PUSH1 0x40 DUP4 DUP6 SUB SLT ISZERO PUSH2 0x1CAB JUMPI PUSH2 0x1CAA PUSH2 0x140A JUMP JUMPDEST JUMPDEST PUSH0 PUSH2 0x1CB8 DUP6 DUP3 DUP7 ADD PUSH2 0x1458 JUMP JUMPDEST SWAP3 POP POP PUSH1 0x20 PUSH2 0x1CC9 DUP6 DUP3 DUP7 ADD PUSH2 0x1458 JUMP JUMPDEST SWAP2 POP POP SWAP3 POP SWAP3 SWAP1 POP JUMP JUMPDEST PUSH0 DUP1 PUSH0 DUP1 PUSH0 PUSH1 0xA0 DUP7 DUP9 SUB SLT ISZERO PUSH2 0x1CEC JUMPI PUSH2 0x1CEB PUSH2 0x140A JUMP JUMPDEST JUMPDEST PUSH0 PUSH2 0x1CF9 DUP9 DUP3 DUP10 ADD PUSH2 0x1458 JUMP JUMPDEST SWAP6 POP POP PUSH1 0x20 PUSH2 0x1D0A DUP9 DUP3 DUP10 ADD PUSH2 0x1458 JUMP JUMPDEST SWAP5 POP POP PUSH1 0x40 PUSH2 0x1D1B DUP9 DUP3 DUP10 ADD PUSH2 0x148B JUMP JUMPDEST SWAP4 POP POP PUSH1 0x60 PUSH2 0x1D2C DUP9 DUP3 DUP10 ADD PUSH2 0x148B JUMP JUMPDEST SWAP3 POP POP PUSH1 0x80 DUP7 ADD CALLDATALOAD PUSH8 0xFFFFFFFFFFFFFFFF DUP2 GT ISZERO PUSH2 0x1D4D JUMPI PUSH2 0x1D4C PUSH2 0x140E JUMP JUMPDEST JUMPDEST PUSH2 0x1D59 DUP9 DUP3 DUP10 ADD PUSH2 0x18A0 JUMP JUMPDEST SWAP2 POP POP SWAP3 SWAP6 POP SWAP3 SWAP6 SWAP1 SWAP4 POP JUMP JUMPDEST PUSH32 0x4E487B7100000000000000000000000000000000000000000000000000000000 PUSH0 MSTORE PUSH1 0x22 PUSH1 0x4 MSTORE PUSH1 0x24 PUSH0 REVERT JUMPDEST PUSH0 PUSH1 0x2 DUP3 DIV SWAP1 POP PUSH1 0x1 DUP3 AND DUP1 PUSH2 0x1DAA JUMPI PUSH1 0x7F DUP3 AND SWAP2 POP JUMPDEST PUSH1 0x20 DUP3 LT DUP2 SUB PUSH2 0x1DBD JUMPI PUSH2 0x1DBC PUSH2 0x1D66 JUMP JUMPDEST JUMPDEST POP SWAP2 SWAP1 POP JUMP JUMPDEST PUSH2 0x1DCC DUP2 PUSH2 0x1431 JUMP JUMPDEST DUP3 MSTORE POP POP JUMP JUMPDEST PUSH0 PUSH1 0x40 DUP3 ADD SWAP1 POP PUSH2 0x1DE5 PUSH0 DUP4 ADD DUP6 PUSH2 0x1DC3 JUMP JUMPDEST PUSH2 0x1DF2 PUSH1 0x20 DUP4 ADD DUP5 PUSH2 0x1DC3 JUMP JUMPDEST SWAP4 SWAP3 POP POP POP JUMP JUMPDEST PUSH0 PUSH1 0x40 DUP3 ADD SWAP1 POP PUSH2 0x1E0C PUSH0 DUP4 ADD DUP6 PUSH2 0x14DD JUMP JUMPDEST PUSH2 0x1E19 PUSH1 0x20 DUP4 ADD DUP5 PUSH2 0x14DD JUMP JUMPDEST SWAP4 SWAP3 POP POP POP JUMP JUMPDEST PUSH32 0x4E487B7100000000000000000000000000000000000000000000000000000000 PUSH0 MSTORE PUSH1 0x32 PUSH1 0x4 MSTORE PUSH1 0x24 PUSH0 REVERT JUMPDEST PUSH32 0x4E487B7100000000000000000000000000000000000000000000000000000000 PUSH0 MSTORE PUSH1 0x11 PUSH1 0x4 MSTORE PUSH1 0x24 PUSH0 REVERT JUMPDEST PUSH0 PUSH2 0x1E84 DUP3 PUSH2 0x146C JUMP JUMPDEST SWAP2 POP PUSH32 0xFFFFFFFFFFFFFFFFFFFFFFFFFFFFFFFFFFFFFFFFFFFFFFFFFFFFFFFFFFFFFFFF DUP3 SUB PUSH2 0x1EB6 JUMPI PUSH2 0x1EB5 PUSH2 0x1E4D JUMP JUMPDEST JUMPDEST PUSH1 0x1 DUP3 ADD SWAP1 POP SWAP2 SWAP1 POP JUMP JUMPDEST PUSH0 PUSH1 0x20 DUP3 ADD SWAP1 POP PUSH2 0x1ED4 PUSH0 DUP4 ADD DUP5 PUSH2 0x1DC3 JUMP JUMPDEST SWAP3 SWAP2 POP POP JUMP JUMPDEST PUSH0 PUSH1 0x80 DUP3 ADD SWAP1 POP PUSH2 0x1EED PUSH0 DUP4 ADD DUP8 PUSH2 0x1DC3 JUMP JUMPDEST PUSH2 0x1EFA PUSH1 0x20 DUP4 ADD DUP7 PUSH2 0x14DD JUMP JUMPDEST PUSH2 0x1F07 PUSH1 0x40 DUP4 ADD DUP6 PUSH2 0x14DD JUMP JUMPDEST PUSH2 0x1F14 PUSH1 0x60 DUP4 ADD DUP5 PUSH2 0x14DD JUMP JUMPDEST SWAP6 SWAP5 POP POP POP POP POP JUMP JUMPDEST PUSH0 PUSH2 0x1F27 DUP3 PUSH2 0x146C JUMP JUMPDEST SWAP2 POP PUSH2 0x1F32 DUP4 PUSH2 0x146C JUMP JUMPDEST SWAP3 POP DUP3 DUP3 ADD SWAP1 POP DUP1 DUP3 GT ISZERO PUSH2 0x1F4A JUMPI PUSH2 0x1F49 PUSH2 0x1E4D JUMP JUMPDEST JUMPDEST SWAP3 SWAP2 POP POP JUMP JUMPDEST PUSH0 PUSH1 0x40 DUP3 ADD SWAP1 POP DUP2 DUP2 SUB PUSH0 DUP4 ADD MSTORE PUSH2 0x1F68 DUP2 DUP6 PUSH2 0x1B29 JUMP JUMPDEST SWAP1 POP DUP2 DUP2 SUB PUSH1 0x20 DUP4 ADD MSTORE PUSH2 0x1F7C DUP2 DUP5 PUSH2 0x1B29 JUMP JUMPDEST SWAP1 POP SWAP4 SWAP3 POP POP POP JUMP JUMPDEST PUSH0 DUP2 MLOAD SWAP1 POP SWAP2 SWAP1 POP JUMP JUMPDEST PUSH0 DUP3 DUP3 MSTORE PUSH1 0x20 DUP3 ADD SWAP1 POP SWAP3 SWAP2 POP POP JUMP JUMPDEST PUSH0 PUSH2 0x1FA9 DUP3 PUSH2 0x1F85 JUMP JUMPDEST PUSH2 0x1FB3 DUP2 DUP6 PUSH2 0x1F8F JUMP JUMPDEST SWAP4 POP PUSH2 0x1FC3 DUP2 DUP6 PUSH1 0x20 DUP7 ADD PUSH2 0x15FD JUMP JUMPDEST PUSH2 0x1FCC DUP2 PUSH2 0x1625 JUMP JUMPDEST DUP5 ADD SWAP2 POP POP SWAP3 SWAP2 POP POP JUMP JUMPDEST PUSH0 PUSH1 0xA0 DUP3 ADD SWAP1 POP PUSH2 0x1FEA PUSH0 DUP4 ADD DUP9 PUSH2 0x1DC3 JUMP JUMPDEST PUSH2 0x1FF7 PUSH1 0x20 DUP4 ADD DUP8 PUSH2 0x1DC3 JUMP JUMPDEST PUSH2 0x2004 PUSH1 0x40 DUP4 ADD DUP7 PUSH2 0x14DD JUMP JUMPDEST PUSH2 0x2011 PUSH1 0x60 DUP4 ADD DUP6 PUSH2 0x14DD JUMP JUMPDEST DUP2 DUP2 SUB PUSH1 0x80 DUP4 ADD MSTORE PUSH2 0x2023 DUP2 DUP5 PUSH2 0x1F9F JUMP JUMPDEST SWAP1 POP SWAP7 SWAP6 POP POP POP POP POP POP JUMP JUMPDEST PUSH0 DUP2 MLOAD SWAP1 POP PUSH2 0x203D DUP2 PUSH2 0x1530 JUMP JUMPDEST SWAP3 SWAP2 POP POP JUMP JUMPDEST PUSH0 PUSH1 0x20 DUP3 DUP5 SUB SLT ISZERO PUSH2 0x2058 JUMPI PUSH2 0x2057 PUSH2 0x140A JUMP JUMPDEST JUMPDEST PUSH0 PUSH2 0x2065 DUP5 DUP3 DUP6 ADD PUSH2 0x202F JUMP JUMPDEST SWAP2 POP POP SWAP3 SWAP2 POP POP JUMP JUMPDEST PUSH0 PUSH1 0xA0 DUP3 ADD SWAP1 POP PUSH2 0x2081 PUSH0 DUP4 ADD DUP9 PUSH2 0x1DC3 JUMP JUMPDEST PUSH2 0x208E PUSH1 0x20 DUP4 ADD DUP8 PUSH2 0x1DC3 JUMP JUMPDEST DUP2 DUP2 SUB PUSH1 0x40 DUP4 ADD MSTORE PUSH2 0x20A0 DUP2 DUP7 PUSH2 0x1B29 JUMP JUMPDEST SWAP1 POP DUP2 DUP2 SUB PUSH1 0x60 DUP4 ADD MSTORE PUSH2 0x20B4 DUP2 DUP6 PUSH2 0x1B29 JUMP JUMPDEST SWAP1 POP DUP2 DUP2 SUB PUSH1 0x80 DUP4 ADD MSTORE PUSH2 0x20C8 DUP2 DUP5 PUSH2 0x1F9F JUMP JUMPDEST SWAP1 POP SWAP7 SWAP6 POP POP POP POP POP POP JUMP INVALID LOG2 PUSH5 0x6970667358 0x22 SLT KECCAK256 PUSH29 0xA16A4CDDA07295A77999352121441DD46D3F10A3B1F460B5AA345F384F 0xCD 0xD7 PUSH5 0x736F6C6343 STOP ADDMOD EQ STOP CALLER "},"methodIdentifiers":{"balanceOf(address,uint256)":"00fdd58e","balanceOfBatch(address[],uint256[])":"4e1273f4","isApprovedForAll(address,address)":"e985e9c5","mint(address,uint256,uint256)":"156e29f6","mintBatch(address,uint256[],uint256[])":"d81d0a15","safeBatchTransferFrom(address,address,uint256[],uint256[],bytes)":"2eb2c2d6","safeTransferFrom(address,address,uint256,uint256,bytes)":"f242432a","setApprovalForAll(address,bool)":"a22cb465","supportsInterface(bytes4)":"01ffc9a7","uri(uint256)":"0e89341c"}}}}}